:020000040020DA
:10200000285800208D2220001B6F2000196F20000F
:10201000196F2000196F2000196F200000000000C8
:10202000000000000000000000000000B575200066
:10203000196F200000000000D3752000876F20007A
:10204000996F20009F6F2000A56F2000AB6F2000CC
:10205000000000008D6F2000936F2000196F20009A
:10206000196F2000000000000000000000000000C8
:102070000000000000000000196F200000000000B8
:102080000000000000000000196F2000196F200000
:10209000196F2000196F2000196F2000196F2000A0
:1020A000196F2000196F2000196F2000196F200090
:1020B000196F2000196F2000196F2000196F200080
:1020C000196F2000196F2000196F2000196F200070
:1020D000196F200000000000000000000000000058
:1020E00000000000000000000000000000000000F0
:1020F000000000000000000085362000953620001A
:1021000000000000000000000000000000000000CF
:1021100000000000000000000000000000000000BF
:1021200000000000000000000000000000000000AF
:10213000000000000000000000000000000000009F
:10214000000000000000000000000000000000008F
:10215000000000000000000000000000000000007F
:10216000000000000000000000000000000000006F
:10217000000000000000000000000000000000005F
:10218000000000000000000000000000000000004F
:10219000000000000000000000000000000000003F
:1021A000000000000000000000000000000000002F
:1021B000000000000000000000000000000000001F
:1021C000000000000000000000000000000000000F
:1021D00000000000000000000000000000000000FF
:1021E00000000000000000000000000000000000EF
:1021F00000000000000000000000000000000000DF
:1022000000000000000000000000000000000000CE
:1022100000000000000000000000000000000000BE
:1022200000000000000000000000000000000000AE
:10223000000000000000000000000000000000009E
:10224000000000000000000000000000000000008E
:10225000000000000000000000000000000000007E
:10226000000000000000000000000000000000006E
:10227000196F2000693520008D352000393120008C
:10228000053820001D2B2000196F200008B5094BD0
:10229000FF221A600848094A4824E369121A0849CB
:1022A00098470848084AA369121A0021984700F085
:1022B0000DF8FEE7B4200D4040400020074100200B
:1022C000E0812000084100202150002073B500F07B
:1022D00075FD00F02FFE00F08BFD00F07FFB01F09C
:1022E0007FFA04F0EFFE00F01DFE00F0B3F80120CD
:1022F00004F016FE02F036F800F04CFD002000F06D
:1023000067FC012000F064FC4049002000F02CFD37
:1023100002F06EF962B6042004F002FE3C4804F0BC
:102320005FFE3C4804F05CFE00F0FAFA002002F088
:1023300081F901F03FF90021374802F09FF801F0E0
:102340007DFE04F01BFE00F01BFF00F037FF02F0E3
:10235000B3FB0821684601F069FA9DF807309DF843
:1023600006502E4C43EA0525BDF806302C48238044
:1023700001F096FA2B4E21782B4801F091FA617802
:102380002A4801F08DFAF46A4AF6CD310220A047BE
:1023900029460320A0471A210120A04708226946A8
:1023A000736B0B209847224801F07AFA214B18688A
:1023B00004F016FE204801F073FA204B186804F070
:1023C0000FFE1F4801F06CFA1E4B186804F008FE5F
:1023D00000211D4802F052F81C4B01219B6881200E
:1023E000984704F056FE1A4804F049FE00F0D8FC65
:1023F000022004F095FD00F0D9FC01F0CBFF10F0B5
:10240000FF0FF8D101F080F9F5E700BFAD452000DE
:10241000CA7D2000E47D200078400020DC4F0020B1
:10242000097E2000B07C2000277E20002D7E200029
:10243000337E20001C7C20003A7E2000287C200077
:10244000417E2000507C200098400020387B2000F6
:10245000E87C200008B500F003FA024B00221A7055
:1024600008BD00BF164D0020024A137818431070B3
:1024700000F01ABA164D0020034A137823EA000030
:10248000107000F011BA00BF164D0020024A1378F8
:102490005840107000F008BA164D0020034B00227F
:1024A0001A60034A1368002BFCD1704780A00D40CE
:1024B00020A00D40014BFF221A60704780A00D4004
:1024C000064B186006480268054912F0100FFAD151
:1024D0000A685207FCD51868C0B2704708800040EF
:1024E0000C800040F0B510B9002936D100E00AB9DF
:1024F0000120F0BD29B1234C234D002326462F4651
:1025000024E0204C204D03462746AE461E1A964234
:1025100001DB0020F0BD21602E68F606FCD4DEF859
:1025200000607607FBD53E6803F8016BEEE7D5F84F
:1025300000E01EF0100FFAD1D7F800E01EF0040FF3
:10254000FAD0D6F800E000F803E001339342E0DA75
:1025500011F803E0C4F800E0E9E7002AC8D0094C0C
:1025600009480B46264605465F1ABA42D1DD13F8E4
:10257000017B27600768FF06FCD42F687F07FCD526
:102580003768F1E7088000400C80004008B51A4A1F
:10259000136823F01003136052F8203C23F010035B
:1025A00042F8203C52F81C3C23F0100342F81C3C3B
:1025B00052F8183C23F0100342F8183C0F4B1A68ED
:1025C00010B142F0100201E022F010021A600C4A31
:1025D0000120136843F0100313600422114600F039
:1025E000B7FC084B02221A60012104220648BDE80C
:1025F000084000F04FBC00BF20A40D400CA40D40CB
:1026000010A40D4000E100E0796F200008B5074AF2
:102610000120136843F0100313600422114600F0F8
:1026200097FC034B02221A6008BD00BF10A40D40A6
:1026300000E100E0024A136823F0100313607047C2
:1026400010A40D40024B1868003018BF01207047DD
:1026500040A00D4010B51B4A07211368022023F04B
:102660008003136052F8203CFF2443F0800342F8BB
:10267000203C082200F06CFC134B05211C6001205B
:1026800000F0FCFC002000F083FC104A136823F0EB
:10269000100313600E4B1968A3F5607321F010014D
:1026A000C3F88013116821F001011160D3F8802371
:1026B00022F00102C3F88023064A1C601368002B35
:1026C000FCD010BD20B40D4000B20D4020A40D4040
:1026D00000A40D4020A00D4020B1012805D1044BDD
:1026E00018787047034B186870470020704700BF88
:1026F000174D002020900D4010B5094A0020137896
:1027000001331370074B197801F090FEBDE81040BB
:1027100005490023054A0968054801F0C5BC00BF0A
:10272000174D00201A50002040410020F9262000BB
:1027300018410020812808B52AD0B0F5807F39D013
:10274000802839D101F006FE1C4B1D4A1870136811
:10275000032123F00803136052F8203C002023F0EB
:10276000080342F8203C52F81C3C23F0080342F8CE
:102770001C3C52F8183C43F0080342F8183C042271
:1027800000F0E6FB032200210E4800F083FB13E07B
:102790000D4B0E481A6829B142F008021A60012355
:1027A000036005E022F008021A600123C0F88030BF
:1027B000084608BD064B1960012008BD1A500020CC
:1027C00020940D40D527200010940D4000E100E03A
:1027D0004041002008B50F4804F082FCC8B1082130
:1027E0000C4804F071FC0C4B196869B10B4B0022CA
:1027F0001A700B4B1B6823B90A4A0B4801F054FCB2
:1028000002E0094801F05AFCBDE80840074801F021
:10281000BDBF08BD3841002040410020174D0020B9
:1028200020900D40F926200018410020387B200020
:10283000084A136823F00403136052F8203C43F065
:10284000040342F8203C044B04221A60034B01228B
:102850001A70704720C40D4010C00D40184D002064
:102860000D4A0E49136823F0C003136052F8203C50
:1028700043F0C00342F8203C094B00221A600B6869
:1028800023F010030B6051F8203C43F0100341F893
:10289000203C044B1A60704720A40D4020C40D401A
:1028A00000A30D4040C00D4000F0020202F0FF0105
:1028B0000B4B12B1FF221A6000E0196000F0040215
:1028C00002F0FF01074B12B1FF221A6000E019600D
:1028D00010F00100044B1ABFFF221A601860704705
:1028E00000A20D4000A10D4040C00D40044B1868EF
:1028F000C0F30720030904BF1030C0B2704700BF07
:102900001C300D40054B1868C0F3C21001289ABF57
:10291000C0F1020040034FF40040704714300D40F6
:102920002DE9F04788B0FFF7E1FF174B48251C68F9
:10293000AB68074698476B68804698470546FFF79F
:10294000E1FF064600F08EFA814600F097FA8246D3
:1029500000F044FAB60A04F00103AD0AC4F34004DF
:1029600006900393CDF814A0CDF810900294019630
:10297000009507F00F03C7F307124146034800F024
:102980008FFF08B0BDE8F0871C300D404F7E20005F
:10299000F8B500F081F80F4B0024D3E900673A4600
:1029A000B04238BF7A1C15460443C3E90045DFF83E
:1029B00028E0DEE90001821B61EB070312196B417D
:1029C000CEE9002301F02EFC18B1BDE8F84001F07B
:1029D000ADBBF8BD08410020104100200D4B0E4A50
:1029E000E0215A600D4A82F82310002207219A60E4
:1029F00019600B490B6843F001030B60094B1A6027
:102A0000042243F80C2C012243F8082C0F22DA622E
:102A1000704700BF10E000E047E8010000ED00E073
:102A200008200D400C000340034BD3E90023100A9B
:102A300040EA0360704700BF08410020034BD3E920
:102A40000023D00B40EA4340704700BF10410020F4
:102A5000054B18601C3B1A6842F001021A601A68A4
:102A6000D207FCD4704700BF2800034010B5064CC5
:102A7000236823F001032360FFF78AFF236843F0F4
:102A80000103236010BD00BF10E000E0014B186897
:102A9000704700BF44410020074B084A19680433BF
:102AA0001B681268120442EA0323054A0B431068AC
:102AB00043EA0060704700BF40500D4048500D4051
:102AC0004C500D4010B50446104A1368DB07FCD586
:102AD00072B6FFF7E1FF231A062BD8BFC41D0C4BBB
:102AE000220E1A60C4F3074243F8042CC4F30722F1
:102AF00043F8082CE2B243F80C2C62B6054B4FF4B5
:102B000000321C60044B1A6110BD00BF50500D40D4
:102B10004C500D404441002000E100E008B500F0B9
:102B2000D7FD074B00221A60064B4FF40032C3F862
:102B30009021C3F89020BDE8084001F0D5BC00BF4B
:102B40004441002000E100E0064B1B681B075FBF0B
:102B5000054B186880F00800C0F3C00048BF002093
:102B6000704700BF18C0004018D00040164A2C2300
:102B700003FB00234FF6BF7270B5DC680546236C7B
:102B800062649BB213F050020DD0104EA369DB06B5
:102B900008D456F825301BB12068C0B29847F5E735
:102BA0002368F3E770BD13F4D06F0BD04FF440737C
:102BB0002363FF236360E36AE262E362236B43F013
:102BC0000103236370BD00BF487B20004841002003
:102BD00001282DE9F74F064600F2B6802C25454323
:102BE0005B4F7C1994F92080B8F1000FC0F2AC80E3
:102BF00094F92290B9F1000FC0F2A680554800F078
:102C0000DDFD554A7B591168E5680B431360516837
:102C1000636894F921A00B4353609168A3685FFA3D
:102C200089FB0B4393600023C5F8C83F23690AEB77
:102C3000C8021A6094F92330227D00939DF8003079
:102C400058461946019300F08DF9019B0822194658
:102C5000584600F07DF9414A4FEA0939009959F880
:102C60000200012303FA01F1014349F802104FEA7F
:102C7000083858F8020003FA0AF1014348F8021034
:102C80005021A963A96B94F9240041F4D061A96390
:102C9000022169634FF440712963A16900286962C8
:102CA000E169A9624FF07001E962154616DB94F9FB
:102CB0002510A2F5A64241EAC0041C3A14600403A0
:102CC00062598B40134363510022C9B2C0B200F075
:102CD0003FF9234A136843F4004313602C2303FB9A
:102CE000067393F92640002C1BDB93F927A05FFAAB
:102CF00084F85FFA8AF9012249464046240300F02D
:102D000031F96259012303FA0AF31343635108228C
:102D10004946404600F01CF9114A136843F48043C9
:102D200013602C2303FB0676F268136B43F0010358
:102D3000136396F828300122590903F01F0302FAA1
:102D400003F3084A42F8213003B0BDE8F08F00BF1A
:102D5000487B2000492B200028200D4020940D4066
:102D600030D0004000E100E001289CBF014B43F857
:102D70002010704748410020012808D8044B2C221D
:102D800002FB0030C3689A699206FCD41960704750
:102D9000487B2000014B00221A60704700500D4014
:102DA000014B08221A60704700500D40024BA022D0
:102DB0001A6050221A60704700500D40014B024AC1
:102DC0009A60704700ED00E000202000024B186878
:102DD000C0F38150704700BF04200D4008B5FFF7D5
:102DE000F5FF024B53F8200008BD00BFA07B200078
:102DF00038B5164D164C2B68012223F040032B608A
:102E00002368062123F040032360032000F0A0F88C
:102E10002B68012223F080032B602368072123F015
:102E200080032360032000F093F80A4A0A4B0B4901
:102E30001A600A680A4B1340084A002BF9D113683C
:102E40005901FCD413685B01FCD538BD20C40D408A
:102E500000C40D400101020000200D4004200D407F
:102E600000000101034B04481B6803F007031841ED
:102E7000704700BF04200D400048E801034B0448A0
:102E80001B68C3F302231841704700BF04200D40A4
:102E90000048E801024B02EBC10243F822007047F0
:102EA00050410020F8B507460E46094D002405EBB9
:102EB000411547FA04F3DB07E1B204D555F8243095
:102EC0000BB1304698470134082CF2D1F8BD00BF51
:102ED000504100202DE9F04780464FEA0837DFF8DF
:102EE000409007F1804505F5592500F0F1FBD5F834
:102EF000186457F809304FEAC80A23FA0AF446EA78
:102F00000400E4B24146C0B2F6B204FA0AF4FFF794
:102F1000C9FFC5F81C6447F80940BDE8F08700BF49
:102F200018970D4080220021014803F0A7BF00BF81
:102F300050410020034A044B1A60044B803A1A6047
:102F4000704700BF80400D40D4410020D041002098
:102F5000034B01EBC0011B6843F82120704700BF01
:102F6000D4410020034B01EBC0011B6843F8212032
:102F7000704700BFD0410020012806D80349012234
:102F80000B6802FA00F018430860704718200D40E3
:102F90002DE9F04F012887B0054667D818235D4317
:102FA000344F7C1994F91160002E5FDBFFF7E4FFCA
:102FB00094F912807D595FFA88F300275FFA86FB47
:102FC00019466F60227A5846C5F8C87F0593FFF707
:102FD000C9FF94F91330227B01939DF80430360326
:102FE000029394F91430029803939DF80C3019461B
:102FF0000493FFF7B7FF94F9159094F916A062684F
:103000000AEBC90111601C4A0121B058019B01FA69
:1030100008F848EA0000B0501E03039B56F802E08F
:1030200001FA03F040EA0E00B0504FEA093086582A
:10303000059B01FA0AF13143815019463A46584638
:10304000FFF786FF3A4604990298FFF781FF3A4658
:103050005FFA8AF15FFA89F0FFF77AFF237C2B6130
:10306000C7232B606B6843F002036B6007B0BDE8B9
:10307000F08F00BFB07B200020940D4038B50B4A84
:103080000403A35801258D4023EA0503A350002221
:10309000FFF75EFF064AA3582B43A35004F1804478
:1030A00004F55924FF2344F8253038BD20940D4001
:1030B00000940D400E2870B50BD1154B154E1C68B1
:1030C00044F002051D60356825F03F0343F001031D
:1030D0003360114E336823F0FF031A431143014359
:1030E0000E4A316013681B06FCD50D4B0D4A1B6858
:1030F00012680E2803F0FC0343EA022308BF054AC6
:103100001BB204BF1560024A184608BF146070BDA8
:1031100034000144F486084008700D4000700D40F2
:103120000C700D4010700D40024B1868B0FA80F022
:103130004009704700B7084010B5074B4FF40042F4
:10314000064CC3F89021C3F89020206818B101F014
:10315000ADF90023236010BD00E100E0D84100205C
:10316000064A136843F002031360536843F00203F6
:103170005360936843F002039360704748200D400A
:1031800007B50C4800F01AFBFFF7EAFF0A4B1A6874
:1031900042F002021A6000220192019A0F2A02DC18
:1031A000019A0132F8E71A6822F002021A6003B0AD
:1031B0005DF804FB2931200054200D40064A1368B5
:1031C00023F002031360536823F0020353609368F3
:1031D00023F002039360704748200D40084B93F999
:1031E0000020002A09DB074AED2111601160E3216C
:1031F00011601A7862F07F021A700120704700BFD8
:103200001C4D0020388808400C4A13689907FCD4EC
:103210000A4B1B685B065FBF094BED221A601A6000
:10322000084B1B6813B1064BEF221A60064A0120B7
:10323000137803F07F031370704700BF4C8608407B
:10324000388808402C8608401C4D002038B5A0F175
:103250000B04E3B20F2B054613D80B4B1B6813F07E
:103260003F0302D0FFF7D0FF012304EB8404074A99
:103270000B3414600BB1FFF7B1FF054B68B21D7042
:1032800038BD4FF0FF3038BD488608403C860840C6
:1032900006410020214B1870002834D0204A1368C2
:1032A0001B03FCD51F4B1A6842F002021A601A6811
:1032B00042F001021A601A681A495007FBD50A68E1
:1032C00022F001020A601968164A4907FBD4116806
:1032D00041F002011160116841F0010111601A68AA
:1032E0005207FCD5104A136823F004031360D2F888
:1032F000A83123F00403C2F8A8310C4B4FF400525C
:10330000C3F890207047084A136843F00403136021
:10331000064B4FF400521A61704700BF1B4D00204E
:1033200004200D40048808408C86084000E100E03D
:1033300070B52F4D2B6813F0400308D02D4E336825
:10334000DCB21B0605D52C4BED221A601A6000205A
:1033500070BD042CF7D9023C8C42F4DCE4B2032C9F
:1033600021D001190139032000F046F9631E2349D9
:103370001B011943032000F049F9032000F050F924
:10338000032000F065F9032000F06EF90028FAD15F
:1033900031681B4B493949B219703368194E180608
:1033A0003370D0D506E033680370336843703368F8
:1033B0008370EDE789B2042001F0A2FC317803208C
:1033C00001F07F0101F09CFC0F4B1B7873B92B6857
:1033D0005A060BD5064B1B681B0603D50B4801F09C
:1033E00065F803E0044BED221A601A60204670BDB8
:1033F0004C860840288808403888084002C0010CE4
:103400001A4D0020194D00201B4D00205040002077
:10341000F8B5294F3D7815F001054BD1274B012414
:103420001C605C609C60A3F59323A3F51473F822E1
:103430001A600922C3F89021152270331A6003F52F
:103440009B230B2203F59E731A60A3F59B23A3F520
:10345000F07340221A601A687F2642F020021A6038
:10346000D52243F81C5CDE62DA61154B1878FFF751
:10347000EDFE144B4FF480421E60134B02201A6184
:1034800000F0DAF81149022000F0B6F8032000F04D
:10349000D3F80E49032000F0A7F80D4B1878FFF77A
:1034A000F9FE29460B4800F0E9FF3B78204623430C
:1034B0003B70F8BD0020F8BD1C4D0020A8200D4039
:1034C000064100209486084000E100E0288808407A
:1034D0001B4D00205040002038B503880446CBB176
:1034E00040F20342934203D000230380032038BDFF
:1034F000194B18781A4628B11B7873B1174B1B78F3
:1035000058060AD5822908D1137843B1134B1A788B
:10351000520614D440F203432380012038BD01F049
:10352000A1FB01F039FB8021FFF702FF0028EDDD50
:1035300080B201F0F1FA0A4B1B699847E6E70022D6
:103540001A70084B1D68FFF75FFEFFF761FFAB06BF
:10355000E0D0FFF743FEDDE71B4D00201C4D0020AF
:10356000507C20004886084008B5054B1B7813B9ED
:10357000044800F09BFF044B00221A6008BD00BF06
:103580001B4D00205040002034880840064B07485F
:103590001A68042A1FBF06490A7842F040020A70DE
:1035A00000221A6000F082BF2C88084050400020A2
:1035B0001C4D002010B5094C40220021204603F08C
:1035C0005DFC074B01221A605C60064B4FF48042A1
:1035D0005A604FF400425A6010BD00BF0040002006
:1035E00004F00F4000E100E003289EBF014B000102
:1035F000195070470040002003289EBF024B03EB88
:1036000000104160704700BF0040002003289EBFAB
:10361000024B03EB00108160704700BF00400020A8
:10362000032806D8034901220B6802FA00F0184368
:103630000860704728F00F40032806D8034901228C
:103640000B6802FA00F018430860704720F00F4042
:10365000032806D8034901220B6802FA00F0184338
:103660000860704714F00F4003289FBF044B03EB22
:103670000010806800F0070088BF0020704700BF7E
:1036800000400020024B4FF0FF321A60704700BF2D
:1036900004F50F40014B01221A6070474CF00F40B7
:1036A000094A1368084913F4801FFAD1074B1A68B6
:1036B00022F480321A600A68D203FCD41A6842F4F9
:1036C00000321A60704700BF04200D4000200D40FA
:1036D00010B50B4B1A681C4612F0030F0ED00949A7
:1036E0000B68084A13F0806FFAD113685B01FCD5B0
:1036F000FFF7BCF9FFF7D4FF0023236010BD00BF24
:1037000058200D4004200D4038B5264B1C6814F09D
:103710003F0413D1244D55F8243023B1984768B1A4
:103720000134052CF7D1214D2B783BB1FFF7AEF9D1
:103730000446FFF7B1F9201A092801D830BF38BD77
:10374000002CFBD01A4B1B481A6822F400321A6076
:103750000268184912F4801FFAD11A6842F48032C4
:103760001A600B68DB03FCD5FFF796F9201A0928CD
:1037700003D8BDE83840FFF793BF63280E4C02D949
:103780002B78022B00D00123236000F045FE20B1EE
:10379000FFF786FF0023236038BDFFF777F9002885
:1037A000CCD1F5E748860840DC4100201D4D0020C3
:1037B00000200D4004200D4058200D4007490023F3
:1037C00051F82320824207D01AB9044A42F8230054
:1037D00070470133052BF3D1704700BFDC41002057
:1037E000054B00221A60054A136943F00403136174
:1037F000034B02221A70704758200D4000ED00E084
:103800001D4D002010B5074B4FF48032064CC3F815
:103810009021C3F89020206818B100F047FE0023E3
:10382000236010BD00E100E0F041002030B5184BEE
:103830001A78431E22B101F520112731154A1FE0E5
:10384000154A1278122AF6D1144A12784B2AF2D16C
:103850004A0802F12814B4F1281F04D014F8015DBD
:1038600003F8015FF7E701F5201127310023104429
:10387000934204DA11F80149C4540133F8E730BD2A
:10388000914204D011F8010903F8010FF8E730BDA7
:103890002B002800270028002A00280029002800E3
:1038A0000FB407B504AA52F8041B0448019200F0B3
:1038B00021F803B05DF804EB04B0704760400020CD
:1038C00070B505460C46102C07D92B681022084904
:1038D0006868984750B9103CF5E734B12B68224628
:1038E00068680349BDE870401847204670BD00BFB6
:1038F0006F7F20002DE9F04F064615468FB00691E8
:103900004FF0000B069B1B78CBB1069C274617F89F
:10391000013B1BB1252B14D03C46F7E7069BA34285
:103920000DD0069B0699C3EB0408424633687068C5
:103930009847002840F01F832378C34423B9584692
:1039400034E3069BA342ECD16378002BF7D03946D1
:103950000024084610F8013B0A462B2B11D006D84C
:10396000202B11D0232B12D144F0080416E02D2B6C
:1039700004D0302B0BD144F010040FE044F00104CC
:103980000CE044F0060409E044F0020406E0A3F170
:103990003107082F11D84FF0000801E00146D8E7A1
:1039A0000A4611F8013BA3F13000092813D80A2276
:1039B00002FB0838A8F13008F2E72A2B09D12B685E
:1039C0000246002B05F10405B8BF44F001049846F7
:1039D00001E04FF0000813782E2B1AD15178531CB8
:1039E000A1F1300009280ED8194600270A780B46A5
:1039F000A2F13000092801F101010DD80A2303FBCF
:103A00000727303FF2E72A2904D12F68931C043599
:103A100002E013464FF0FF371A786C2A09D15A7822
:103A20006C2A02D144F080040AE0013344F06004BF
:103A30000BE0682A09D15A78682A03D144F020049F
:103A4000023302E0013344F040041A78642A3CD087
:103A50001FD8462A48D00DD8252A5AD003D8002A84
:103A60003FF46DAF57E0412A4AD0452A53D144F480
:103A7000424450E0582A31D004D8472A4BD144F46C
:103A8000A13448E0612A38D0632A44D144F4A064C8
:103A900041E06E2A3AD007D8662A22D027D3672A77
:103AA00028D0692A11D036E0732A2CD006D86F2A84
:103AB00011D0702A2FD144F440742CE0752A07D01D
:103AC000782A28D144F4C85425E044F4245422E050
:103AD00044F410641FE044F488541CE044F4B244FD
:103AE00019E044F4007416E044F4844413E044F410
:103AF000024410E044F481340DE044F4C1340AE09F
:103B000044F4E13407E044F4806404E044F4E06405
:103B100001E044F4C0640133069304F4E063B3F5B8
:103B2000806F00F08F8113D8B3F5807F27D0B3F575
:103B3000407F7FF4E7AEAE4B14F4804FAD4A18BF20
:103B40001A460DF133032868002104351F46B5E1FC
:103B5000B3F5C06F08D0B3F5E06F00F02282B3F583
:103B6000A06F7FF4CFAEF2E133680122A249706802
:103B70009847002840F0FF810BF1010BC2E6002FAF
:103B8000ACBF24F01004012714F40053079304F091
:103B9000E0032ED0402B12D005D8ABB1202B21D181
:103BA00095F900200DE0602B0ED0802B1AD107353F
:103BB00025F0070303F10805D3E9002307E0B5F971
:103BC0000020D317043502E02A680435D317002AF1
:103BD00073F1000108DA524263EB4303CDE900239D
:103BE000012304E000220023CDE9002300230593F4
:103BF00029E0402B13D004D8BBB1202B1DD12A784B
:103C00000EE0602B11D0802B17D1073525F007036C
:103C100003F10805D3E90023CDE900230BE02A884E
:103C20000023CDE90023043505E02B680022194666
:103C3000CDE900120435079BD9E700230593002244
:103C40000023CDE9002304F4C053B3F5805F0CD00A
:103C5000B3F5C05F33D0B3F5006F4FD1DDE900237A
:103C60000DF13609CDE9022304E0DDE900230DF171
:103C7000360915E0DDE9022313433AD0DDE90201FC
:103C80000A22002302F0C2FEDDE90201303209F807
:103C9000012D00230A2202F0B9FECDE90201E9E775
:103CA00052EA030125D002F00701303109F8011D65
:103CB000D10841EA4371D8080A460346F0E74C4B65
:103CC00014F4804F0DF136094A4918BF1946DDE951
:103CD000002352EA03000CD002F00F00085C4FEA08
:103CE000131E09F8010D100940EA037002467346DD
:103CF000EFE70DF13603C9EB030302E00DF13609DE
:103D000000230293029B41F60802BB4238BFFF1A10
:103D100041F2080302EA040228BF00279A4202D1B6
:103D2000002F08BF012741F60801029B8A4203EBDE
:103D300007000DD1DDE90023134309D02F4A304994
:103D400014F4804F4FF0020A0CBF0B46134602E0FA
:103D50004FF0000A5346079A9AB1059A52B904F0F7
:103D60000602022A0AD0062A264A04BF4FF0010A98
:103D7000134606E04FF0010A234B02E0234B4FF0BD
:103D8000010A0AEB000290458CBFC2EB08084FF015
:103D9000000814F0010200920DD1E10602D547445B
:103DA000904608E0414630460593FFF789FD059BA4
:103DB000002840F0E080BAF1000F07D03468524686
:103DC00019467068A047002840F0D580029B03EB9D
:103DD0000B04BB46BBF1100F33681BD910220C49F2
:103DE00070689847002840F0C680ABF1100BF1E7EF
:103DF0003A7F20004B7F20006D7F20005F7F2000F6
:103E00005C7F2000647F2000627F2000C081200052
:103E10007F7F2000BBF1000F06D05A4665497068CD
:103E20009847002840F0A7803368029A4946706896
:103E300054449847002840F09E80009B3C44002B4F
:103E400039D032E0D5F800900435B9F1000F0AD02E
:103E5000CA469AF800300AF101020BB19246F8E71F
:103E6000C9EB0A0A03E0DFF850914FF0060A002F71
:103E700002DBBA4528BFBA46D0458CBFCAEB08085A
:103E80004FF0000814F0010705D141463046FFF716
:103E900017FD00286FD1336852464946706898472D
:103EA000002868D10AEB0B042FB141463046FFF7DA
:103EB00007FD00285FD108EB040B23E550EA010E53
:103EC0000ED000F00F0E12F80EE04FEA111C03F8AE
:103ED00001ED4FEA101E4EEA017E70466146EDE7A5
:103EE000FF1A02BF3022012703F8012C07F1030754
:103EF00008BF03F1FF337822B84503F8012C4FF0D7
:103F0000300203F8022C88BFC7EB08084FF02302E9
:103F100098BF4FF0000814F00104A3F1030903F85F
:103F2000032C04D141463046FFF7CAFC18BB336866
:103F30003A46494670689847E8B95F4424B141461B
:103F40003046FFF7BDFCB0B908EB070BDAE4B8F177
:103F5000010F2B688CBF08F1FF384FF0000814F0F8
:103F6000010405F104058DF8203008D141463046A2
:103F7000FFF7A6FC10B14FF0FF3017E0C3443368E1
:103F8000012208A9706898470028F4D108F10107B8
:103F90002CB141463046FFF793FC0028EBD1BB44DF
:103FA000B0E42B680435C3F800B0ABE40FB0BDE853
:103FB000F08F00BF7F7F2000667F2000F8B5038868
:103FC000064615462BB14A2B15D00023038003204B
:103FD000F8BD174803F095F804462CB1A168201DE0
:103FE00003F058F82468F8E7124B01221A704A23AC
:103FF00033800120F8BD8829FBD10D4803F081F8FA
:104000000446002CF3D0231D9D420ED121460848C2
:1040100003F081F8084B62691F681A60A2691D46A7
:104020000AB1E06990472F60E1E72468E9E700BF43
:10403000F44100201E4D00200042002010B5064B28
:10404000002406481C7003F059F82146BDE81040D2
:10405000034800F013BA00BF1E4D0020F4410020B9
:104060006840002070B50446E3610B4B049D1B784B
:104070006561A26143B1094D094B2E68201D2B607B
:1040800003F008F82E6000E0A1602146BDE8704012
:10409000044803F053B800BF1E4D0020004200202A
:1040A00068400020F441002013B5034C24680094BC
:1040B000FFF7D8FF02B010BD0042002010B5084B3A
:1040C00004461B781BB1043000F0B4F801E0C36073
:1040D00003612146BDE81040024803F01CB800BF50
:1040E0001E4D0020F441002010B50E4C236813B97A
:1040F0000D4A136010BDFEF797FC216891E80C0093
:104100001A44131A8A6842B192E812002144091A2B
:104110008B4228BF0B469268F5E71844024B1860A3
:1041200010BD00BFF8410020FC410020014800F014
:10413000BDB900BF784000202DE9F843038805464B
:1041400033B1592B0BD0002303800320BDE8F88343
:10415000234A136059232B800120BDE8F883872967
:1041600024D08229F6D11E4F4FF00008B9463C6892
:104170000026002CEED0204602F0B2FF98B1224675
:104180008821E06800F052F958B9E060A3680EB1E8
:10419000B36001E0C9F80030C4F80880FFF7A4FF5D
:1041A000E5E7FFF7C3FF2646A468E2E70C490020D5
:1041B0000B681BB90028CDD00B60CBE7DC68A242AE
:1041C00002D19B680120F4E700B10B6099680029D7
:1041D000C0D0C86882420ABF89680B469960F5E77B
:1041E000F841002010B50446FFF7A0FFE3680B4A32
:1041F0004BB113683BB1A34203D1094A1268DA609C
:1042000007E09B68F6E7064B1B68E36013681460E1
:10421000A360BDE81040FFF767BF00BFF841002072
:1042200000420020024B1868003018BF0120704780
:10423000F841002010B50B4A04461368834206D1AA
:104240008368136008E09A68944203D01346002BF9
:10425000F9D103E0A2689A60FFF746FF0023A3604C
:10426000E36010BDF841002038B5836804460D4670
:104270009BB10A4804600220A07304F10C00984727
:104280000238012801D9832D05D121462046BDE8F9
:10429000384000F005B80123A37338BD0042002068
:1042A0002DE9F8431C4A0446156889462B4690467A
:1042B0001A4E3768A34204D00BB11B68FAE7BDE879
:1042C000F88334B3A37BABB10023A37345B1A542FC
:1042D00004D022468721284602F0EEFE2D68F5E73D
:1042E000A3683BB14C4505D034602A46832104F1D4
:1042F0000C009847D8F800309C4203D12268064B46
:1043000005E0134623B11A689442FAD122681A6074
:104310003760BDE8F88300BF04420020004200205F
:10432000002370B51D46094A01261370084A146817
:1043300054B1E37B33B1A673E5730022822120469A
:10434000FFF792FF2468F3E770BD00BF214D002006
:1043500004420020024B1878421C1A70704700BFBC
:10436000224D0020064B8A221A70064A0023137041
:10437000054A1370054A1360054A1360704700BF71
:10438000224D00201F4D0020204D0020044200201F
:10439000004200202DE9F0411A4D2B780BB1FFF7B8
:1043A000BFFF194C22783AB3184E0C213378184FBE
:1043B0005943781817F8018001334768806803F083
:1043C0001F03013A3370227068B9124B1E689EB108
:1043D0002B780BB1FFF7A4FF30463A46414602F076
:1043E0006BFE3668F3E7B8F1810F04BF01238373D6
:1043F0003A46414602F060FE2B7820781844BDE82A
:10440000F08100BF214D0020204D00201F4D0020D5
:104410000842002004420020024A034B10781B7817
:1044200018447047204D0020214D0020F0B50B4E60
:104430003378202B0FD00A4C0C252478094F1C44CC
:1044400004F01F046C4301333D19A86039556A60BC
:1044500033700020F0BD0120F0BD00BF204D0020D2
:104460001F4D00200842002038B5034C256802F09B
:1044700023FE256038BD00BF0042002030B40A4C46
:104480000A4625682B4683420CD00BB11B68FAE71D
:1044900040B101210560817320608381812130BC9E
:1044A000FFF7E2BF30BC70470442002038B1837B85
:1044B000013B012B9FBF024A0123C3731370704756
:1044C000214D0020024610B5064853600468029B47
:1044D00011609360026014B90846FEF7F3FA0020F9
:1044E00010BD00BF8843002010B5084C206858B1AB
:1044F00000232360816843689847236823B1BDE89F
:1045000010401868FEF7DEBA10BD00BF88430020D7
:1045100070B505880446672D09D0792D30D0002D5F
:1045200034D1FFF717FF1C4B18701C4B1D601B4D3F
:104530002E461B4802F083FE431C01D167231DE079
:104540000A28164A07D02B687E2BF2DC5A1C3260F0
:10455000144AD054EDE713680025591C1160114A24
:104560002846D5540C4B1978FFF760FF0E4B2A46AE
:1045700085211868FFF75AFF20B97923238009E0C5
:10458000852907D1054B00221A60D0E7002303805C
:10459000032070BD012070BD1F50002094430020F7
:1045A0008C430020A44D0020004200200D2810B5AF
:1045B000014615D00B4C23782BB90B4802F02CFE8A
:1045C00048B9012306E00A2805D1074802F024FE75
:1045D00008B1002323700548FFF768FF012010BDD4
:1045E000002010BDA34D00208C43002088400020F7
:1045F00008B505490548802202F007FEBDE80840DD
:1046000000210348FFF73ABF234D00208C430020D0
:1046100088400020054A136843F004031360044BEC
:104620001B68906943EA002080B2704700700D401B
:1046300014700D4010B5184A136823F00C03136072
:10464000164B01221A601A68012AFCD1144B082269
:104650001A60E322C3F8142203F505731946114AC0
:104660001368DB07FCD5104C1020002322680138AA
:1046700002F0010243EA02034FEA43039BB2F5D181
:10468000002BF1D0094A180A03F0FE0310601360F2
:10469000EF230B6010BD00BF00700D40A8200D403F
:1046A00024860840648608409C86084014700D40AB
:1046B0002DE9F04106880546772E31D07E2E40D078
:1046C000002E4ED12B4CFFF745FE266026462A4B86
:1046D0002A4FDFF8B0801870236857F823204AB1BA
:1046E000002108F80310936880209847336801334D
:1046F0003360F1E7224A1370772320E0214AD25633
:10470000002A12DB1B4A136801331360194B1C4A41
:104710001B6812789A42F1DC1B4B1B68002BEBD014
:10472000194A00231360134AEFE7144A002052F895
:104730002320114B1978FFF779FE30B97E232B80A7
:1047400014E00D4B1B788B4210D10A4B0D491A68AF
:104750008B5C03F07F038B540B4A136801331360A7
:10476000D0E7002303800320BDE8F0810120BDE8ED
:10477000F08100BF984300202050002040400020DE
:10478000244E00201B5000209C43002010B40A4BF4
:104790000A491A780023934203DA51F82340A042D1
:1047A00008D107490748CA5C62F07F02CA5410BCAE
:1047B000FFF77CBE0133EEE7244E0020404000208E
:1047C0001B5000209840002070B505460C46164648
:1047D00000F00EF92E612046BDE87040014902F05C
:1047E000C9BE00BFC07F2000014802F087BC00BFE7
:1047F000A0430020014B1860704700BFA443002075
:10480000014802F07EBC00BFA04300202DE9F0412A
:1048100006460B480C46174602F073FC70B18388BD
:10482000A34208D185684DB13B4622463146AC468D
:10483000BDE8F041604702F09DFCEFE7BDE8F08184
:10484000A043002070B50B4C0023616E0A4A04F1AE
:104850003800FFF729FCFFF7DDFE616E0023B0FB97
:10486000F1F5064A05FB110104F11800BDE870409E
:10487000FFF71ABCA8430020814820009948200077
:10488000044B5A6E196E52008A4294BF5A6659669A
:10489000FFF7D8BFA843002010B500F0E3F900F0FF
:1048A0007BF9002303800446FFF7AAFF68B1037B6E
:1048B0005BB12388818804EB83025180C188013376
:1048C0009180238002F056FCF0E7208880000230BF
:1048D00080B200F021F9238823B1BDE810400248DE
:1048E00000F03AB810BD00BFA84300209DF800308A
:1048F000012B04D1024B9A6D5A66FFF7A3BF704794
:10490000A8430020F8B50F4616461D46064C014642
:10491000064A204600F00EF8A765E66525660448BD
:10492000BDE8F840FFF766BFA8430020007C2000E8
:10493000ED48200070B505460C461646044AFFF7C0
:1049400043FF6E612046BDE87040024902F012BE8E
:10495000087C2000C27F200010B5044604491A20BC
:1049600000F0DCF92046BDE8104002F07ABC00BF40
:10497000DC4F002010B54378047843EA0420064B4E
:1049800000FA01F19B5CC2F1080003EA212141FA1F
:1049900000F0C0B210BD00BFC67F2000054B10B5AF
:1049A0001B689847044618B18188012000F0A8F9D7
:1049B000204610BD107C200038B5064B05465B68CC
:1049C00098470446A988012000F09AF9201C18BFD6
:1049D000012038BD107C2000014B9B68184700BFA8
:1049E000107C2000014802F089BB00BF1444002065
:1049F00081800146014802F0A1BB00BF14440020A1
:104A00000146014802F087BB1444002010B504465B
:104A1000054802F076FB28B18388A34202D002F059
:104A2000A9FBF8E710BD00BF14440020F8B5064606
:104A30000A480D46174602F064FB044638B1A368E5
:104A40000BB128469847204602F094FBF5E73A461A
:104A500029463046BDE8F84002F00ABC1844002060
:104A600038B5FFF79BFF0546094802F04AFB0446AC
:104A700030B1636803B19847204602F07BFBF6E74C
:104A800025B12846BDE8384002F0EDBB38BD00BF77
:104A90001844002010B50446FFF78EFF38B100F02F
:104AA00057F8034B034821469B689847012010BDE7
:104AB0007C7C20002D4A2000084B10B51B689847CD
:104AC000074B5B689847074B5B689847064B5B68EA
:104AD0009847BDE81040054B5B681847B07C200044
:104AE000507C20007C7C2000287C20001C7C200046
:104AF00010B507490B88834208DB064C80B2228838
:104B00000244181A08802280012010BD002010BD28
:104B10001447002016470020014B1880704700BF43
:104B200014470020004870471C440020014B18889F
:104B3000704700BF14470020034A044B10781B78CD
:104B40001844C0B2704700BF254E00201647002011
:104B50002DE9F0410C4B1A881D469AB10B4BDFF83A
:104B600034801E880A4B00241F7821B2B14204F120
:104B7000010405DAFFF7E0FF41440B5CCB55F4E795
:104B800000232B80BDE8F081164700201447002049
:104B9000254E00201C44002008B5FFF7CDFF014B37
:104BA000184408BD1C440020F8B50C4B07461C787F
:104BB0000B4B1E88A519802D0CDC2246094902F0FA
:104BC000E7F8FFF7E9FF3C4401463246204602F091
:104BD000DFF800E000252846F8BD00BF254E002084
:104BE000144700201C44002008B5FFF7A5FF024B26
:104BF0001B88184480B208BD1447002010B5014638
:104C0000FFF7F2FF4318802B10DC0138084B00B28D
:104C1000002805DB1C5C1A180138545400B2F7E771
:104C2000044B01201A781144197010BD002010BDEA
:104C30001C440020254E002038B5342200210648AF
:104C400002F01CF9054D002428190549023402F030
:104C5000CCFC082CF8D138BDE64F0020DE4F0020F8
:104C6000F87C2000044A00231380044A1380044A7D
:104C70001370FFF7E1BF00BF164700201447002064
:104C8000254E002038B50C460546FFF7EBFF802C7B
:104C900028BF802422462946034802F079F8034BB6
:104CA00020461C8038BD00BF1C4400201447002053
:104CB00010B5074B03F1340253F8044B934240F80C
:104CC000044BF9D1034A13680B6053684B6010BD65
:104CD000E64F0020DE4F002010B5074B00F13402F4
:104CE00050F8044B904243F8044BF9D10B68034A47
:104CF00013604B68536010BDE64F0020DE4F00206C
:104D0000024B23F810100120704700BFE64F00202F
:104D1000014B33F810007047E64F002008B5044BF4
:104D20001A3803EB400002F060FC012008BD00BF10
:104D3000DE4F0020024B1A3803EB4000704700BFE3
:104D4000DE4F00200149024802F052BCF87C2000EE
:104D5000E04F002008B5044802F00FFABDE8084013
:104D6000024802F00ABA00BFB4400020A840002068
:104D700038B50E4802F011FA0446A8B10C4802F00A
:104D80000CFA0546206028B92146084802F019FAB5
:104D9000284638BDFFF708FF05F1B601A5F88000E9
:104DA00005F18200FFF784FF204638BDA8400020AF
:104DB000B440002010B501460446074802F017FA37
:104DC00048B12168054802F0FCF92146BDE81040D1
:104DD000014802F0F6B910BDA8400020B440002000
:104DE00010B501460446094802F001FA68B124688A
:104DF000B4F880102046FFF745FF04F1B60104F136
:104E00008200BDE81040FFF767BF10BDA84000203A
:104E1000014BDB68184700BF7C7C2000014B5B69BD
:104E2000184700BF507C2000014B9B69184700BF0A
:104E3000507C2000024BD86900B10047704700BF8A
:104E4000507C200013B5044668B1006B02F059F99C
:104E5000024640B12146054B0548DB68019302B08C
:104E6000BDE81040184702B010BD00BF507C2000C4
:104E70003576200070B590F829400123032C88BFB7
:104E8000042403FA04F40C4B0546DB699847002818
:104E900008BF0120013C444305D0FFF7BBFBB0FB3A
:104EA000F4F303FB14042B46214605F10800034AE2
:104EB000BDE87040FFF7F8B8507C2000454E200058
:104EC0002DE9F04107461B208846FFF733FF484B8A
:104ED00005461A78474C22B901221A70FFF79AFB4F
:104EE0002080238813B9434B01221A8021880A208D
:104EF0004B1C2380FFF704FF3F4802F002F90446F1
:104F000040B12946201D02F073FBD8B9204602F0BB
:104F100031F9F4E7394802F040F9044640B3294634
:104F2000201D02F062FB002304F12C00206384F8B2
:104F3000283084F82930E36202F0E0F821462E4858
:104F400002F0FCF8206B02F00EF9072810DC2C4868
:104F500002F023F9054698B9206B02F004F938B93C
:104F60002146254802F0D7F82146244802F029F9C5
:104F700041463846BDE8F0410123042202F048BD15
:104F8000204802F00AF9A86058B3FFF7F1FE686004
:104F900018B30920AE68FFF7BBFE10B908233372BF
:104FA00003E00920FFF7B4FE307286E880010D208F
:104FB000FFF7AEFE01282946206B02D102F0CBF8A4
:104FC00001E002F0BBF8206B02F09BF885420DD1A6
:104FD0002046BDE8F041FFF74DBFA968094802F03F
:104FE000F0F82946064802F0ECF8B5E7BDE8F08194
:104FF0003E4E0020084D00201C450020D8400020D7
:10500000CC400020C040002008B5054802F0B5F8AB
:10501000044802F0B2F8BDE80840034802F0ADB819
:10502000CC400020C0400020D84000202DE9F047AF
:105030000D4614468B68804693E8C000106B92F8CA
:10504000289002F068F86868FFF7B4FEA968144871
:1050500002F0B7F82946134802F0B3F8206B02F0CB
:1050600050F840B1002384F8283084F829302046D5
:10507000FFF700FF0BE004F10800FFF71FF82146DF
:10508000094802F048F82146084802F09AF84B46D1
:10509000424639463046BDE8F04702F0B9BC00BF91
:1050A000C0400020CC4000201C450020D8400020FB
:1050B000014B1888704700BF044100202DE9F041E2
:1050C000012986B006460F46144640F3A7800378B0
:1050D00003F007028DF80C20C3F3C0028DF80D20F9
:1050E000C3F300128DF80E20C3F34012C3F38013F4
:1050F0008DF8103043788DF80F20C3F340028DF8FF
:105100001220C3F3810203F001058DF81320C3F3CD
:1051100001129B098DF815308DF814208DF811506F
:1051200003AB03CB1B882061616123830DB1B51CE8
:1051300002E0B378F51CA37602AA01A903A802F045
:10514000E4FA9DF81380B8F1000F23D0029B23B13D
:105150006A7815F8023B03EB0223B8F1020FA38330
:1051600009D13049204602F040FA6B78237015F8D7
:10517000023B637014E0B8F1030F11D105F108028E
:105180001346611E13F8010DAB4201F8010FF9D16E
:10519000154605E02349204602F027FAA4F81C80B2
:1051A0009DF81580B8F1000F2BD0019B53B16A78A0
:1051B00015F8023B03EB0223029A9BB2E3831AB970
:1051C000A38301E0A38BE383B8F1020F0AD1154951
:1051D00004F1080002F009FA6B78237215F8023B1B
:1051E000637215E0B8F1030F12D105F108021346FE
:1051F000E11D13F8010D9D4201F8010FF9D115468B
:1052000006E0084904F1080002F0EFF9A4F81E8056
:10521000A81B3B1A8742E363A56300DA002006B0AF
:10522000BDE8F081F87C200030B591B00546FFF76D
:105230003FFF4FF6FF73984202D14FF0FF3081E0FD
:1052400040220021684601F019FE3F4B1A782AB926
:1052500001221A70FFF7DEF93C4B18701420FFF79B
:1052600057FD8DF810001320FFF752FD8DF8120046
:10527000FFF768FD044628B100238DF813308DF840
:10528000153006E00B20FFF743FD8DF815408DF833
:105290001300002301248DF814308DF81840ADB1AF
:1052A0000A20FFF735FD28B10A20FFF731FD8DF800
:1052B0001A000BE0254B1A7802B91C7019780A20E5
:1052C0004A1C1A708DF81A10FFF71AFD02248DF887
:1052D0001940FFF7EDFEADF81C00FFF733FD38B1C4
:1052E000FF238DF817408DF800308DF8013008E06D
:1052F0001B20FFF71FFD0146684602F076F98DF886
:105300001740FFF7D5FEADF81E001A20FFF712FD7B
:10531000014602A802F069F9FFF73EFC0E90FFF784
:1053200005FC0F90684602F092FA04464DB1FFF773
:1053300065FC002881D0FFF7F5FB0146684602F0C6
:105340009FFA204611B030BD4A4E0020494E002041
:105350002DE9F041FDF768FB0446114F00254FF0A1
:105360000C0808FB05761A20FFF7E4FC314602F032
:105370003FF988B10A20FFF7CBFC337A834202D091
:105380000020BDE8F0817068201AB0F5206F8CBF56
:1053900000200120BDE8F0810135102DE1D1EFE7BB
:1053A000E845002070B5184E00241A20FFF7C2FC13
:1053B0000C2101FB046102F01BF9134D631C10B9B1
:1053C000102B1C46F1D1013B0C2202FB0352A2F12F
:1053D0000C0643B1344603CC106051602068013B99
:1053E00090603246F3E70A20FFF792FC2872FDF73F
:1053F0001BFB68601A20FFF79DFCBDE8704001466A
:10540000014802F0F2B800BFE84500200A4B13B58E
:1054100000241C70094B1C80FDF73EFB009400F536
:105420008051074B01220748FFF74CF8064B012239
:105430001A7002B010BD00BF4C4E00200A4D002073
:10544000F9582000B0460020524E0020074B82B091
:105450001B784BB1064B1A7832B901221A70054BF2
:105460001B6A019302B0184702B07047524E0020E9
:105470004C4E0020B07C2000094B82B01B786BB1F1
:10548000084B1A7852B1084A127802F0FF012AB983
:105490001970064B5B6A019302B0184702B070475F
:1054A000524E00204C4E00204E4E0020B07C20007A
:1054B00008B5FFF7E1FF024B00221A6008BD00BFEC
:1054C000AC460020044B1B7823B9044B1B680BB976
:1054D000FFF7D2BF704700BF4D4E0020AC46002002
:1054E000094B00221A70094BC2B21A7082B0084AE6
:1054F000084B18B1012111701B6A01E05B6A107042
:10550000019302B0184700BF524E00204E4E0020BB
:105510004C4E0020B07C200037B50B4B1A7802F0BF
:10552000FF056AB901241C70084B1D70FDF7B4FA21
:10553000009500F58051064B22460648FEF7C2FF53
:10554000012003B030BD00BF524E00204E4E00205F
:10555000F9582000B046002037B50A4B05461B78A5
:105560000C466BB1FDF798FA231A022B48BF841C36
:10557000002300930122044B21462846FEF7A2FF98
:1055800003B030BD524E0020F958200013B5234B14
:105590001A681C460AB9FFF76FFFFFF7C7FA03281E
:1055A00039D0FFF721FB002835D01D4B9B68984769
:1055B000002830DBFFF7BAFA68B3FFF715FB50B3EA
:1055C0001B20FFF7B7FB174902F012F868B1132050
:1055D000FFF79EFB206068B1FFF738FF0023124AF7
:1055E00004211248FEF760FD09E0FFF7ABFB00283D
:1055F000EDD110E0FFF740FF0C48FEF75FFDFFF72D
:10560000A7FE40B9FFF7CEFE094BDB68019302B05D
:10561000BDE81040184702B010BD00BFAC460020E6
:10562000707C2000DC4F0020B1542000BC460020DC
:10563000287C20002DE9F04F734E89B03378039019
:1056400023B9724B1B780BB90524D9E0FFF7CCFACC
:105650000028F9D06E491A20FFF760FBFFF772FBB4
:1056600004460C20FFF754FB90B1FFF7BDFA8146CA
:10567000684D4FF001086F68FFF754FA4946B84784
:10568000654FAB6987F800800193984770B909E0CE
:1056900001210B20FFF734FB604B5B689847002823
:1056A000E3DAD1E7EB690293984710B100233B702E
:1056B00063E0FFF7E1FE337886F800805FFA83FA53
:1056C000039B6BBB4FF00608FDF7E6F90490FFF76C
:1056D000BDFE04986FF0270BC0EB0B0BFDF7DCF958
:1056E0001BEB000FFAD46B699847834640B9FFF76C
:1056F000C3FE87F800B0FFF7BFFE86F800A03CE0CD
:10570000FFF7BAFEFDF7C8F96FF4887BC0EB0B0B0F
:10571000FDF7C2F91BEB000FFAD4B8F10108D3D1A1
:105720000CB9FFF793FE0A20FFF7F2FAC3B2049315
:10573000FDF73CFBFDF7B0F9DFF8E480DFF8E4B0FB
:10574000C0EB0808C0EB0B0BFDF7A6F918EB000F38
:1057500009D5FDF72BFB94B9039B83B1FDF79CF9A9
:105760001BEB000F0BD40025A846FFF785FE002396
:1057700086F800A03B70002D3CD0012440E0AB68CF
:1057800048469847FDF788F96FF0A2031B1A059366
:10579000FDF782F9059BC342F9D4002CD4D1019BBB
:1057A000984730B1FDF778F96FF06C08C0EB080846
:1057B00008E0029B98470028F4D16B6998470028BD
:1057C000F0D0C1E7FDF768F918EB000FFAD42B69A8
:1057D000032107A89847032808D19DF81E30049A92
:1057E000934203D100254FF00108BEE701254FF099
:1057F0000008BAE71CB9984508BF022400E02C460F
:10580000204609B0BDE8F08F524E00204E4E0020D9
:10581000DC4F0020B07C20004D4E0020707C20002A
:105820001CEBFFFFDEFDFFFF2DE9F0470746884632
:105830001546002A58D02D4B1B682BB15068FFF736
:10584000CFFA01231A4621E01646DFF8A890304629
:1058500001F090FC04467068FFF7C2FA0C20FFF7D5
:1058600057FA00BB1CB101211320FFF749FA204968
:105870001A20FFF753FA01210B20FFF741FAD9F85C
:1058800004309847002807DA0123052241463846AC
:10589000BDE8F04702F0BCB801210C20FFF730FA58
:1058A000706801F0B3FE2646002CD0D1284601F0E6
:1058B00061FC06466868FFF793FA1320FFF728FAA1
:1058C00081462046FFF7B6FE032804460CD0024668
:1058D00001234146384602F09BF82CB926B13546E3
:1058E0000124B9F1000FE1D1BDE8F087AC460020FA
:1058F000DC4F0020707C200040F2B1122DE9F3470C
:105900006E4C06462388934218D0B3F5D97F07D250
:10591000002B40F0C180FDF7BFF8694B186008E02C
:1059200040F2E312934235D040F20222934240F01B
:10593000B380644A00231370634A02E0624A13781A
:1059400001331370604B1B78012B16D85F4B1A780C
:10595000002A40F0A8805E4A1268002A40F0A38026
:105960001B780BB9FFF772FD5A4B5B69984700280B
:1059700040F09780534B01221A70524B1B78002B3A
:1059800075D0FDF789F8544B544A18600023137002
:10599000534A13704D4BDFF858911B78002B50D1B0
:1059A00099F80030002B4CD0FDF776F84A4B1A6876
:1059B0004C4B9B1AC34244D5464DDFF820816B699E
:1059C000984728B198F80030013388F8003001E09A
:1059D00088F80000424FD5F818A03B7801333B709F
:1059E000D04710B1002388F8003098F80030052B1C
:1059F00002D9FFF767FD24E03B780A2B05D9D04791
:105A000018B9EB6998470028F3D0EB699847C0B9FB
:105A1000354B1B7893B13568FDF73EF805F2391721
:105A200005F237152D1A002DB8BF871C00230093EF
:105A300001222E4B39463046FEF744FD40F2E31377
:105A40002BE099F8003093B1224DAB69984740B1F3
:105A5000FDF722F8204B1A68224B9B1AC34204D54B
:105A600005E0EB6998470028F2D1FFF72BFD144DB4
:105A70002B6803F580532B60FDF70EF82B68C3F5F8
:105A80001C630833C3427FF554AF29683046FFF7E3
:105A900063FD40F2022300E00023238002B0BDE852
:105AA000F087FFF70FFDFCF7F7FF00F2111130460A
:105AB000FFF752FD40F2B113EFE700BF0A4D00209F
:105AC000A8460020504E00204B4E00204D4E002096
:105AD000AC460020B07C2000DC460020514E002067
:105AE0004F4E002000F0FFFF524E0020F9582000DA
:105AF0004C4E002008B5024B1B689847023008BD89
:105B0000447C200038B50C4B9B689847041E02DA91
:105B10004FF0FF3038BDFFF73FF803780546002B04
:105B2000F6D10220FEF7E4FF0028F1D06878FEF7F6
:105B3000F3FFA01C38BD00BF447C200070B50220DC
:105B4000FFF75CF810B94FF0FF3070BDFEF7EAFFC9
:105B5000002505700446FEF7E9FF6070FFF744F882
:105B60000446FFF7C7FF20442A2812DCC0F12B00AF
:105B7000C4B2FFF711F80646FEF7D8FF22462946C1
:105B8000304401F07BF9FEF7D1FF204480B2FEF7EC
:105B9000C3FF044B5B689847041ED4DBFEF7D8FFB5
:105BA000A01C70BD447C2000014B9B68184700BFBF
:105BB0001C7C200070B504460D4614200121FFF71F
:105BC0009FF8034B29462046BDE870409B68184764
:105BD000287C2000034B188880B2003018BF0120B9
:105BE000704700BF0C4D0020002934D0102834D855
:105BF000DFE800F009143333191B1E20333333332D
:105C00003324272A2D00164B1B7803F0020303F0E0
:105C1000FF000BB1012303E008607047114B1B78B4
:105C20000B6000207047104B00E0104B1B68F7E73B
:105C30000F4B00E00F4B93F90030F1E70E4B1B7F49
:105C4000EEE70D4B5B7FEBE76FF00F03E8E70A4BE6
:105C500093F91E30E4E7022070470120704700BF2F
:105C6000DB4F0020564F0020E8460020E44600208D
:105C7000DA4F0020D54E00208C7C200010B5044661
:105C80002B2001F011FF6300233303F03F0300F0EA
:105C9000C00119432B2001F0F0FE014B1C7010BD18
:105CA000DA4F002010B501F0E1FE48B3602804D1BE
:105CB000274801F095F93A2005E0702806D12548DB
:105CC00001F08EF93B2001F0C5FE19E0362001F00D
:105CD000C1FEFCF7E1FE6FF4A374241A01F0C6FEC6
:105CE00048B9FCF7D9FEC4420AD440F2DD611A4833
:105CF000FDF7D6FD04E0FCF7CFFEC442EED4F0E79A
:105D0000164A6FF4A374137823F004031370FCF79E
:105D10007DFC3A2001F09EFE342001F09BFEFCF752
:105D2000BBFE241A01F0A2FE102804D1FCF7B4FE39
:105D3000C44205D510BDFCF7AFFEC442F2D4F5E76E
:105D40004FF4DD610448BDE81040FDF7A9BD00BF78
:105D5000108020002380200036802000DB4F0020B0
:105D600010B5234C23785B060CD52378332023F021
:105D70004003237001F06EFEFCF78EFE6FF4A374F7
:105D8000241A0CE0FCF75AFE1A4B1B68C01AB0F537
:105D9000617FEAD210BDFCF77FFEC44203D501F05B
:105DA00065FE4028F7D1FCF777FEC44204D440F2E8
:105DB0008B611148FDF774FDFCF76EFE6FF4A37460
:105DC000241A01F053FE48B9FCF766FEC4420AD417
:105DD00040F28C610848FDF763FD04E0FCF75CFECF
:105DE000C442EED4F0E7FCF729FE024B186010BD68
:105DF000DB4F0020E04600203680200010B501F087
:105E000035FE20B140F2BA611548FDF749FDFFF7B4
:105E1000A7FF144A3A2013786FF4A37423F0040305
:105E2000137001F017FE342001F014FEFCF734FE6D
:105E3000241A01F01BFE102809D1FCF72DFEC442E4
:105E40000AD440F2C3610848FDF72AFD04E0FCF7DC
:105E500023FEC442EDD4F0E7BDE81040FCF7D6BB0A
:105E600058802000DB4F00203680200010B5FCF762
:105E7000E1FB01F0FBFD50B3602804D1144801F0B0
:105E8000AFF83A2005E0702805D1124801F0A8F8D3
:105E90003B2001F0DFFD362001F0DCFDFCF7FCFDCE
:105EA0006FF4A374241A01F0E1FD20B9FCF7F4FDAE
:105EB000C44205D510BDFCF7EFFDC442F3D4F5E7AD
:105EC00040F2B161BDE810400348FDF7E9BC10BDE8
:105ED00010802000238020003680200038B50F4D30
:105EE0002B789B0716D50E4C2378ABB9237801335A
:105EF000DBB22370FFF7BAFF3221032001F0BDFDB2
:105F0000392001F0A7FD23780120013BDBB2287086
:105F1000237038BD012038BD002038BDDB4F002084
:105F2000554F002070B51D4D2B7803F0020303F090
:105F3000FF0083BB1A4C237873BB23786FF4A376DE
:105F40000133DBB22370FCF7A9FAFCF7A5FD361A82
:105F5000FCF778FB40B9FCF775FB60B140F21341E8
:105F60001048FDF79DFC06E0FCF796FDC642F2D511
:105F7000FCF71CFFECE7FCF79DFA2B78062143F0B9
:105F8000020303202B7001F078FDFFF737FF237821
:105F9000013BDBB22370012070BD00BFDB4F00204E
:105FA000554F00205880200008B5094B1B7803F09E
:105FB0000A03022B01D0002008BDFCF743FB012897
:105FC00005D0044B1B889BB2002BF4D0012008BDE8
:105FD000DB4F00200C4D00203A4B2DE9F34793F89E
:105FE0001CA007468245984666D85B7F834263D3F0
:105FF000354C364D237853B1354B36481F702B78CE
:10600000012643F010032B70FEF750FA55E02B7871
:106010001A07F1D4FFF7C8FF06460028ECD12B7809
:1060200023F010029B072A7004D4FFF77BFF4FF088
:10603000010900E081462378CAEB070A0133DBB28D
:106040002370FFF713FFD8F818305FFA8AFA03FBC2
:106050000AFA4FF47A73BAFBF3F1D8F8143042F627
:106060000E700B4440F271211B03B3FBF1F101915F
:10607000C9B201F002FD9DF8051042F60D7001F065
:10608000FCFC9DF8061042F60C7001F0F6FC124B79
:106090001F70B9F1000F05D12B7843F040032B702E
:1060A000FFF7ACFE2378013BDBB22370B9F1000FA0
:1060B00003D0FFF713FF00E00226304602B0BDE830
:1060C000F08700BF8C7C2000554F0020DB4F002064
:1060D000534E0020E4400020564F002010B50C46DF
:1060E000072836D8DFE800F00410353516181B2ACB
:1060F000012902D1FFF716FF1EE009B1022010BDF1
:10610000FFF7ECFE204610BDC8B2FFF765FF02287E
:1061100012D1F3E7104B00E0104B1C600CE0104B69
:1061200093F91E106FF00F038C42A8BF0C469C42DF
:10613000B8BF1C460B4B1C70002010BD7F2905DC2E
:106140006FF07E039942B8BF1C4600E07F24064BE7
:10615000F1E7012010BD00BFE8460020E446002022
:106160008C7C2000584F0020574F0020F8B52A4D56
:106170002B7803F0FF06002B4BD1284B1B789A0796
:1061800002D4FFF7CFFE01262B780133DBB22B7050
:1061900001F06CFC102804D040F29B312048FDF740
:1061A0007FFBFCF74FFA012829D01E4B1E4F93F9B5
:1061B000004097F90030A34204D0E1B2172001F06B
:1061C0005CFC3C70FCF768FC6FF4A3773F1A42F666
:1061D000727001F069FC830704460BD4FCF75CFC89
:1061E000C74202D5FCF7E2FDF1E740F2B5310C48B9
:1061F000FDF756FB84F00404C4F3800400E000249F
:106200002B78013BDBB22B700EB1FFF767FE204607
:10621000F8BD0020F8BD00BF554F0020DB4F002027
:1062200058802000574F0020D54E002008B5CB1EC7
:106230007C2B0A4604D9064800F0D2FE012008BD96
:10624000044B19800146044800F0A2FD002008BD5F
:1062500079802000124D0020D64E0020F8B5144D54
:106260002C88A4B214B32A882B882C8892B2A4B2AA
:10627000023C8C429BB203DD0E4800F0B1FE15E0FB
:106280000D490A4412F8026C0B44224613F8017CB3
:1062900000F07EFD71B2002389B204202B80FEF74E
:1062A0002FFD07F07F010320FEF72AFD2046F8BDF1
:1062B0000C4D002095802000544E002037B5054637
:1062C000424A02AC13783A2023F00403137024F8F6
:1062D000021D01F0BFFB3B2001F0BCFB312001F0AF
:1062E000B9FB2621032001F0C8FB2046012101F063
:1062F00005FC9DF80610284601F000FCFCF7CCFBDD
:106300006FF4A374241A01F0B1FB302809D1FCF713
:10631000C3FBC4420AD440F244712D48FDF7C0FAD1
:1063200004E0FCF7B9FBC442EDD4F0E7352001F0FE
:1063300091FBFCF7B1FB6FF4A374241AFCF782F90C
:10634000012803D1FCF77EF938B116E0FCF7A4FB75
:10635000C442F7D5FCF72AFDF0E742F6D67001F00B
:10636000A3FB50B11B4800F03BFEFFF77FFD062169
:10637000032001F082FB012424E0FCF78DFB04469E
:10638000154DFCF75FF970B9FCF75CF9012804467C
:1063900013D1124800F024FEFFF768FD0621032008
:1063A00001F06BFB0EE0FCF777FBEB682344C01AAF
:1063B0000028E9DAFCF7FAFCE3E70621032001F004
:1063C0005CFB0024204603B030BD00BFDB4F002043
:1063D00036802000BA8020008C7C2000D0802000F5
:1063E0002DE9F0413C4D2B88834205D03B4800F01D
:1063F000F7FD0120BDE8F081394C237843F0080215
:1064000022709A0703D4FFF78DFD012700E00027D3
:10641000344B1B68DB070CD5FFF7A8FE48B90FB15A
:10642000FFF75CFD2378022023F008032370BDE80A
:10643000F0812D4E33780133DBB23370FFF716FD58
:106440002A4B93F900002A4B93F90030834201D084
:10645000FFF714FC0FB9FFF783FC29882548FFF7E5
:106460002DFF18BBFCF718FB0546DFF88C8001F008
:10647000FDFA10280DD1FCF70FFB1F4B1B692B44B5
:10648000C01A00280EDB40F225311C48FDF708FA3F
:1064900008E0FCF701FBD8F810302B44C01A0028A4
:1064A000E5DBE8E7FCF7B2F8002507E02FB9237831
:1064B00043F040032370FFF7A1FC01253378013B33
:1064C000DBB233700FB1FFF709FD2378284623F0C4
:1064D00008032370BDE8F081124D0020E680200003
:1064E000DB4F0020E4460020554F0020584F00208D
:1064F000DA4F0020D64E00208C7C20003680200011
:106500002DE9F0414D4B1878984610F0010440F009
:1065100092804B4F3B780133DBB23B70FCF79AF82B
:106520002046FCF733F8474CFBF7B8FF3020FBF769
:10653000C7FF642000F024FDFBF7BCFF25896668D7
:10654000AD08002E6CD194F82010182001F095FAB7
:106550002621002001F091FA2621012001F08DFA78
:106560000621032001F089FA1F2001F09DFA00F0B6
:10657000E7011F2001F081FA292001F095FA00F0CF
:10658000CF0141F00F01292001F077FA2A2001F014
:106590008BFA00F0CF0141F030012A2001F06DFAB2
:1065A0000021262001F069FA272001F07DFA00F091
:1065B000FE01272001F061FA282001F075FA00F0B1
:1065C0009F0141F02001282001F057FA1E4B0322C1
:1065D0001A601E4B01221A6094F91E001C4B1870A1
:1065E000FFF74CFB94F91F401A4BE1B217201C70C7
:1065F00001F043FA184B002118481C70FDF73EFFCC
:1066000098F800301A2043F0030388F800303B78F4
:10661000013BDBB23B70FFF7DFFCFFF75FFC0AE0FA
:106620000436002D8FD016F8021C36F8040C01F049
:1066300024FA013DF4E70120BDE8F081DB4F0020A2
:10664000554F00208C7C2000E8460020E4460020C6
:10665000584F0020574F0020D54E0020E440002026
:106660002DE9F04F844D93B02B782F4603F0FF04B3
:10667000DFF834824BB198F80030804843F02003B3
:1066800088F80030FDF712FFE9E098F8003023F0B9
:10669000200388F800302B780133DBB22B7001F037
:1066A000E5F900F0EF00602822D042F6D77001F043
:1066B000FBF9064620B92B78013BDBB22B70D7E003
:1066C00098F8003003F0040303F0FF0413BBDFF875
:1066D000DC910121484601F000FAB9F80030022BA4
:1066E00001D8674802E07F2B0AD9664800F078FCA1
:1066F000FFF7D8FA2B782046013BDBB22B70B7E0CE
:10670000614B701E1C8098F80030C6B243F0040341
:1067100088F8003098F80030580740F1A4805A4DAE
:10672000DFF888912A88B9F80030B1189942A84654
:1067300004DD31465548FDF7B3F892E0544C31463C
:10674000A01801F0CAF92888B9F80030304480B2A6
:106750008342288040F0878042F6717001F0A4F9EE
:10676000814642F6747001F09FF90106064678D51D
:10677000484D2B889BB21BB1474800F031FC70E0BC
:106780000DF1080A5246B8F800102046FEF796FCB4
:10679000002846D0414B1A689B4612F0010F04D1E5
:1067A000DBF800309A0716D511E09DF81830022B5F
:1067B000F6D09DF81F30022B0CBF0223082313F1E3
:1067C000FF33EDD31AF80320FF2AF8D022E09DF81A
:1067D0001820012A01D0022023E09DF81B20002A66
:1067E000F9D0DB070FD402238DF8043000238DF895
:1067F00005309DF82230032101A88DF80630FFF7FF
:106800005DFD03200DE02649504600F0F1FE002812
:10681000E9D1E0E72249504600F0EAFE0028BFD166
:106820000120023801281CD8B8F8003018499A1CF9
:1068300092B22A80A8F800202A8804F80390013335
:106840009BB292B21748E65400F0A2FAFFF72AFA78
:106850000A48FDF72BFE3B78013BDBB23B70012081
:1068600006E0FFF71FFA3B780020013BDBB23B70EC
:1068700013B0BDE8F08F00BF554F0020E44000206A
:10688000FE80200014812000104D0020288120006F
:10689000594F00200C4D00204A812000E84600207E
:1068A000DC4F0020544E0020DB4F00200E4D002016
:1068B000822970B505460E4622D11A4B1A781C461D
:1068C00002F02202222A01D1FFF7CAFE2378DB065A
:1068D00003D5154B1878FFF77FFB144B1B889BB231
:1068E00073B1FEF7BFF9FEF757F98021FFF7B6FC49
:1068F000002805DD80B2FEF70FF90D4B1B699847A4
:106900002A8840F25E2312B19A4202D003E02B8023
:1069100005E0832E03D100232B80032070BD0120CE
:1069200070BD00BFDB4F0020534E00200C4D0020F7
:10693000507C2000832938B505460C4602D1194801
:1069400000F0D4FC2B882BB1582B13D000232B80C4
:10695000032038BD144800F043FB81211148134A3D
:10696000FDF7E8FF8021124800F094FB58232B80AC
:10697000012038BD882CF9D10E4C0F482188FCF736
:106980008FFF0120FBF782FD02212046FEF77AF9F6
:106990000448FDF7E1FF238805480133238000F018
:1069A00082FBE3E7EC4600206C812000F07C2000B5
:1069B00004470020144D00208481200073B50C464C
:1069C000FEF7B4F8267805466478FEF7E5F8038804
:1069D0003246294600930B482346FCF761FF04200A
:1069E000FEF796F904460320FEF792F961B20246DB
:1069F0000548FCF755FF022002B0BDE87040FBF7E8
:106A000045BD00BF96812000C281200053B94AB91C
:106A1000002908BF00281CBF4FF0FF314FF0FF30A6
:106A200000F082B9ADF1080C6DE904CE00F006F873
:106A3000DDF804E0DDE9022304B070472DE9F04FF2
:106A40008C460C460546099E002B4FD18A421746BC
:106A50006BD9B2FA82FEBEF1000F0BD0CEF1200549
:106A600020FA05F501FA0EF345EA030C02FA0EF7D7
:106A700000FA0EF5390CBCFBF1F0BAB201FB10C301
:106A800000FB02F84FEA154C4CEA0344A04509D933
:106A9000E41900F1FF3380F02881A04540F2258100
:106AA00002383C44C8EB0404B4FBF1F301FB134C83
:106AB00003FB02F2ACB244EA0C418A4209D9C9197B
:106AC00003F1FF3480F00F818A4240F20C81023BD7
:106AD00039448A1A43EA00400021002E63D022FA8A
:106AE0000EF2002386E80C00BDE8F08F8B4207D938
:106AF000002E56D0002186E811000846BDE8F08F30
:106B0000B3FA83F1002940F09380A34202D382427A
:106B100000F2FE80851A64EB03039C460120002EE0
:106B200041D086E82010BDE8F08F12B90127B7FBED
:106B3000F2F7B7FA87FEBEF1000F36D1E41B4FEA39
:106B400017481FFA87F90121B4FBF8F308FB134437
:106B500009FB03F24FEA154C4CEA0444A24207D960
:106B6000E41903F1FF3002D2A24200F2D3800346BF
:106B7000A41AB4FBF8F008FB104809FB00F9ACB20A
:106B800044EA0842914507D9D21900F1FF3402D2F4
:106B9000914500F2BA802046C9EB020240EA034068
:106BA0009BE731463046BDE8F08F07FA0EF7CEF18D
:106BB000200C24FA0CF34FEA1748B3FBF8FA1FFA3B
:106BC00087F908FB1A3520FA0CFC04FA0EF40AFBCC
:106BD00009FB4CEA040C4FEA1C4242EA05439B4580
:106BE00000FA0EF50AD9DB190AF1FF3280F08B802A
:106BF0009B4540F28880AAF1020A3B44CBEB030399
:106C0000B3FBF8F008FB103300FB09F41FFA8CFC0F
:106C10004CEA03439C4207D9DB1900F1FF326ED2E4
:106C20009C426CD902383B441C1B40EA0A418BE76A
:106C3000C1F1200E8B4022FA0EFC4CEA030C24FA20
:106C40000EF74FEA1C49B7FBF9FA1FFA8CF309FB60
:106C50001A7720FA0EF88C400AFB03F548EA040480
:106C60004FEA144848EA0747BD4202FA01F200FA27
:106C700001FB09D917EB0C070AF1FF3041D2BD42E5
:106C80003FD9AAF1020A67447F1BB7FBF9F509FB5C
:106C9000157705FB03F3A4B244EA0747BB4208D9C2
:106CA00017EB0C0705F1FF3027D2BB4225D9023D77
:106CB000674445EA0A40A0FB0289FF1A4F45454652
:106CC0004C4614D329D066B3BBEB050367EB04072E
:106CD00007FA0EFECB40CF404EEA030386E8880059
:106CE0000021BDE8F08F2346F3E61846DAE6B8EB5C
:106CF000020569EB0C040138E5E70546D9E71046C3
:106D000092E78246C0E7924678E702383A4443E782
:106D1000084604E7023B3C442AE7C345E7D33C4628
:106D2000D1E73146BDE8F08F704700BF032A70B449
:106D300026D940EA01039B0711D004780D78AC42B4
:106D400022D10244431C05E013F8014B11F8015F06
:106D5000AC4219D19342F7D1002070BC70470C4669
:106D600003461E6825681846AE42214603F1040317
:106D700004F10404E1D1043A032A18462146F0D86C
:106D8000002ADAD11046E8E7601B70BC704700BFEC
:106D9000844641EA000313F0030349D1403A23D368
:106DA0000B6803604B6843608B688360CB68C3608B
:106DB0000B6903614B6943618B698361CB69C36173
:106DC0000B6A03624B6A43628B6A8362CB6AC3625B
:106DD0000B6B03634B6B43638B6B8363CB6BC36343
:106DE00040304031403ADBD230320BD30B68036085
:106DF0004B6843608B688360CB68C3601030103190
:106E0000103AF3D20C3205D351F8043B40F8043B5E
:106E1000043AF9D2043208D0D2071CBF11F8013B62
:106E200000F8013B01D30B8803806046704700BF28
:106E3000082A13D38B07B1D010F00303AED0C3F1EF
:106E40000403D21ADB071CBF11F8013B00F8013B19
:106E5000A4D331F8023B20F8023B9FE7043AD9D390
:106E6000013A11F8013B00F8013BF9D20B780370AD
:106E70004B7843708B7883706046704770B484079A
:106E800046D0541E002A41D0CDB2034602E0621E15
:106E9000E4B3144603F8015B9A07F8D1032C2ED90A
:106EA000CDB245EA05250F2C45EA054519D92646F8
:106EB00003F11002103E0F2E42F8105C42F80C5CF9
:106EC00042F8085C42F8045C02F11002F2D8A4F126
:106ED000100222F00F0204F00F041032032C1344AE
:106EE0000DD91E462246043A032A46F8045BFAD816
:106EF000221F22F003020432134404F003042CB1D5
:106F0000C9B21C4403F8011BA342FBD170BC7047FB
:106F100014460346C2E700BFFEE708B5FBF7B6F923
:106F2000F7B500240646254627463046FBF79CFA6F
:106F30000197019B9D4204DD00BF019B013301933A
:106F4000F7E73046FBF798FAC5F5C8750197019B3E
:106F50009D4204DD00BF019B01330193F7E701343B
:106F6000B4F5487F06D0B4F5C87FCCBFC4F54875EA
:106F70002546DAE703B0F0BDFFF772BBFBF758BC5C
:106F800080B2FBF765BDFBF703BD70470020FBF740
:106F9000EDBD0120FBF7EABD0020FBF79BBF012000
:106FA000FBF798BF0220FBF795BF0320FBF792BFCA
:106FB00010B50446C1B20020FBF7DEFE204610BD2E
:106FC00070B5054604464618601B44B1237833B1BA
:106FD000B44204D018460134FFF7EAFFF4E770BD6D
:106FE00038B50546002415F8010B20B1FFF7E0FF86
:106FF0000134002DF7D10A20FFF7DAFF204638BD13
:10700000002070470120704710B50446302200214F
:107010000E20FCF74FF884B1012C0CD142F2107312
:107020000011A0F28E5058432A2390FBF3F000F594
:10703000C340283010BD4FF0004010BD0020704705
:107040000120704710B50446302200210F20FCF7C4
:1070500031F85CB1012C07D140F6F253584347F6A2
:10706000F07390FBF3F010BD4FF0004010BD08B579
:10707000084612B11146FFF7A3FF002008BD10B566
:10708000041F54F8040F18B10021FDF7F7F9F8E7D1
:1070900010BD704710B5044600F016F82046BDE854
:1070A0001040FDF79FB810B5044600F014F82046D4
:1070B000BDE81040FDF796B8837BDB0701D5FDF7EF
:1070C000D3B87047FFF761BF10B541600446FBF7C6
:1070D000ABFC206010BD90E80C00134403607047C7
:1070E00010B50446FBF7A0FC2368C3F10103034479
:1070F0006068834294BF0020012010BD002303601C
:10710000704700687047006800B9704703680BB1AA
:107110001846FBE77047036810B573B10024994225
:107120001A6806D10CB9026000E0226000221A60E1
:1071300010BD1C460AB11346F1E710BD38B505462F
:10714000FFF7E9FF00230B60FFF7DDFF08B92960B7
:1071500038BD016038BD38B50446FFF7DCFF036871
:107160000B60216038BD0368002013B101301B683B
:10717000FBE7704700B10068704710B504464288CD
:1071800000214068FFF77AFE23886288A0685A438E
:10719000BDE810400021FFF771BE10B54188002303
:1071A0008B420CDA4268D418D25C32B901222270C8
:1071B0000288806803FB020010BD0133F0E7002065
:1071C00010BD30B5826844880023A3420DDA8A429C
:1071D00007D14168CA5C0AB1013ACA544268D05C1E
:1071E00030BD058801332A44EFE7FF2030BD8268B7
:1071F0008A4208D84388008800FB032081422CBFC4
:10720000002001207047002070470023013A0160F0
:10721000027143718371704710B5427983790479A3
:10722000D31A34EA030308D00368995443795A1CEB
:10723000037913404371012010BD002010BD8379F4
:1072400042790179D21A0A421FBF0268D25C013327
:107250000B401ABF837110464FF0FF307047FDF7A7
:10726000CFBBFDF717BC03691B6803B11847704714
:1072700003695B6803B1184770477047F7B50F465D
:10728000FDF78AFC03880446ADF80030BDF80060C5
:10729000FDF74CFCB300023383420FD802340025C3
:1072A000B5420BDA54F8040B01350190BDF8062005
:1072B000BDF804103846FDF7A9FAF1E703B0F0BDB8
:1072C00043695B6803B11847704713B504461A2039
:1072D000FDF730FD014601A800F087F963691B68DE
:1072E00013B101A92046984702B010BDFFF7B7BF00
:1072F000831C0020023313F8042C1AB113F8032C5A
:107300001044F7E77047072B2DE9F84307468846F6
:1073100015461C4607DC1A4629464046FDF72AFB5F
:107320003870BDE8F8834FEAE309AAB1002608EBFC
:10733000060008222946FDF71DFBB85501364E45CB
:10734000F5D114F0070217D0294608EB0600FDF727
:1073500011FBB855BDE8F88318F805307B550135A9
:10736000A945F9D114F0070206D0002108EB090065
:10737000FDF700FB07F80900BDE8F8832DE9F743A6
:10738000FDF70AFC04460220FDF7B2FB08B9002015
:1073900044E06078237803EB002080B2FDF736FBF1
:1073A00005460028F3D0FDF7F7FB8046287B10F058
:1073B000070318BF012303EBD000FDF799FB00285A
:1073C000E5D00026B146AC68023414F8023C23B381
:1073D000192B14F8017C06F0070208EBE60109D925
:1073E00001A83B46FFF78FFF01A914F8020CFDF737
:1073F00095FC0FE03B4601A8ADF80490FFF783FF32
:107400009DF805109DF8043014F8020C43EA0121A0
:10741000FDF776FC3E440234D7E7284603B0BDE8CA
:10742000F083072B2DE9F0410FDC1278C1F1100138
:10743000CB1A02FA03F30278C3F307210A4302705E
:10744000427813434370BDE8F081DF1089B30446EE
:107450000026C1F1080CBE4204F1010411D0955D73
:1074600014F801EC05FA0CF5C5F3072848EA0E0EEE
:1074700004F801EC94F800E001364EEA05052570A9
:10748000E9E713F007032DD0925DC3F10805294405
:1074900042FA01F1C3F11003C9B29940835DC1F30F
:1074A0000722134384198355637819436170BDE83B
:1074B000F081545C445401318F42FAD113F0070338
:1074C00010D0D25DC3F108042241C3F1100302FAC7
:1074D00003F3C25DC3F307242243C119C2554A789E
:1074E00013434B70BDE8F0812DE9F743047B05465B
:1074F00014F0070318BF012303EBD404A01CFDF70D
:107500007DFB90B3FDF70EFBAB880370AB881B0AC5
:107510004370FDF707FB871C224600213846FFF722
:10752000ADFCAC680025023414F8020CE0B1192857
:1075300014F8016C07EBE50805F0070904D9FDF71D
:10754000F9FB3346024608E0FDF7E2FB33468DF8CF
:107550000400000A8DF8050001AA49464046FFF7DD
:1075600060FF35440234DFE7012003B0BDE8F0835B
:10757000FDF738BA38B50D46FDF748FA044620B194
:1075800085602846FDF728FA207338BD10B5FDF751
:10759000E1FBFDF767FBFDF727F9FFF7E9FFBDE822
:1075A00010404FF4E1234FF4F0524FF400710220E9
:1075B000FDF7A8B90EF00F000D2808BF00F00EB8B7
:1075C00000982DE9F04F00F1240181F3098890E83B
:1075D000F08F0EF00F000D2818BF7047EFF30980F1
:1075E00020E9F04F0990BDE8F08F0B8803807047C9
:1075F00008B50222FFF79AFBB0FA80F0400908BDF7
:10760000006800F1B6018230FDF752BB10B5046886
:1076100004F1B60104F18200FDF74AFB2046FDF7B4
:10762000C3FAA4F8800010BD036803EB4101B1F870
:10763000820070472DE9F0410E46174604460028A7
:1076400061D0006BFFF75DFD054668B10A216868EF
:10765000FFF7EAFF80460A20FDF75AFB804505D078
:107660002846FFF787FDEFE7BDE8F081AB68002B08
:1076700049D0032E40D8DFE806F0021D0D4694F8ED
:10768000282000203A4484F8282084F82900224643
:10769000294634E0002284F8292094F828203A442E
:1076A000D2B284F828201B7A93421DD8224629465C
:1076B000022024E094F829203A44D2B2052A83BF5C
:1076C000002284F8292094F8282084F8292084BFF7
:1076D000013284F8282094F828201B7A9A4203D398
:1076E0002246294601200AE02046FDF7C3FB6868D0
:1076F000BDE8F041FFF784BF224629463046BDE889
:10770000F041FDF793BCBDE8F08130B500284ED0C4
:10771000037A022B2ED1C479437A057914B983B93F
:10772000012D0AE003B975B1032C0ED1032B03D14F
:10773000002D3AD1012019E0022B14BF00200120B6
:1077400008E0204606E0012005E0022CF4D1181CD8
:1077500018BF012005BB0CB1022C05D1023B012B47
:107760008CBF002301231BE0032C15D19C1E634218
:10777000634115E00378022B10D003792BB9437ACB
:1077800013F0030318BF012300E00023C07910F0B9
:10779000030018BF012003E0002301E0002003469E
:1077A00001B10B601AB1106030BD0020D2E730BDCE
:1077B00037B50D4600230B608B80437D0446D90707
:1077C0005CBF01232B70037E012B0DD8C37D9A076C
:1077D00008D0437E9B0705D0C28B838B9A4201D190
:1077E000012300E00023237501AA694604F110007B
:1077F000FFF78BFF009B0BB10223EB70019B0BB1DA
:1078000002236B70E37D03F00303022B03D0032BF1
:107810000CBF08230023AB70637E03F00303022B2D
:1078200003D0032B0CBF082300232B7103B030BD02
:1078300002280CBF022308230B448B4205D013F807
:10784000012DFF2AF9D0002070470120704707B5AD
:107850006946FFF7ADFF9DF800009DF8013002304A
:1078600018449DF802309DF8032018449DF8043018
:10787000104403449DF80500184403B05DF804FB70
:10788000F7B504460D466946FFF792FF617CA37C7D
:10789000C9001B0103F0100301F00801E27C194349
:1078A000237C520103F007030B4302F020021A432A
:1078B000237D9B0103F0400313432B70637D627EA5
:1078C000A17D03F0010343EA8213E27D490001F048
:1078D000020192000B4302F00C021A43237E1B01AB
:1078E00003F0300313436B709DF80030012B02BF8F
:1078F000A37E0320AB709DF8013018BF0220022B3D
:1079000008D1A28B431C2A54A28BDBB20230120A8C
:10791000C0B2EA5401469DF80230E218A24205D0F6
:1079200012F8017D4E1C6F54F1B2F7E718449DF830
:107930000330C0B2022B08D1E28B431C2A54E28BE5
:10794000DBB20230120AC0B2EA549DF80430184487
:10795000C0B2C21AD2B223B1013BE118097AA954CC
:10796000F7E703B0F0BD30B591B0FDF715F9044667
:10797000FDF7DCF86A4601462046FDF79FFB04460A
:1079800010B94FF0FF303BE0FDF7B2F80028F8D017
:107990009DF810101420FDF7B3F99DF81730ABB126
:1079A000BDF81C50FDF784FB854205D04FF6FF73F0
:1079B000BDF81C209A42E4D169469DF81700FFF7F4
:1079C00037FF18B969461B20FDF7A8F902A91A204C
:1079D000FDF7A4F99DF812101320FDF791F99DF819
:1079E000153013B99DF81A1001E04FF6FF710A2007
:1079F000FDF786F99DF81A100E20FDF781F9204653
:107A000011B030BD0120FDF70FBC0020FDF70CBC0C
:107A100030B40D460446114620B11A462846234686
:107A200030BC184730BC70471020704770B5044612
:107A300000200D46FDF7FEFD0328024606D029462C
:107A40002046BDE870400123FFF7E2BF70BD7047DC
:107A50000120704710B50446FAF720FD2046FAF7DA
:107A60002FFD0446FAF726FDE0B210BD08B53D2013
:107A7000FFF7F0FF00F0700008BD38B504460D4672
:107A8000FAF70CFD14F43C5FE4B202D02F20FAF7B1
:107A900017FD2046FAF714FD2846FAF711FD0446B3
:107AA000FAF708FDE0B238BD10B50446FAF7F6FC67
:107AB00014F43C5F04D0AF20FAF702FDE0B202E01C
:107AC00064F07F00C0B2FAF7FBFC0020FAF7F8FC84
:107AD0000446FAF7EFFCE0B210BD38B50D46044697
