:020000040020DA
:10200000E05700208D222000A3692000A169200054
:10201000A1692000A1692000A16920000000000042
:102020000000000000000000000000003D702000E3
:10203000A1692000000000005B7020000F6A2000F2
:10204000216A2000276A20002D6A2000336A2000C0
:1020500000000000156A20001B6A2000A169200012
:10206000A169200000000000000000000000000046
:102070000000000000000000A16920000000000036
:102080000000000000000000A1692000A1692000FC
:10209000A1692000A1692000A1692000A169200098
:1020A000A1692000A1692000A1692000A169200088
:1020B000A1692000A1692000A1692000A169200078
:1020C000A1692000A1692000A1692000A169200068
:1020D000A1692000000000000000000000000000D6
:1020E00000000000000000000000000000000000F0
:1020F000000000000000000085362000953620001A
:1021000000000000000000000000000000000000CF
:1021100000000000000000000000000000000000BF
:1021200000000000000000000000000000000000AF
:10213000000000000000000000000000000000009F
:10214000000000000000000000000000000000008F
:10215000000000000000000000000000000000007F
:10216000000000000000000000000000000000006F
:10217000000000000000000000000000000000005F
:10218000000000000000000000000000000000004F
:10219000000000000000000000000000000000003F
:1021A000000000000000000000000000000000002F
:1021B000000000000000000000000000000000001F
:1021C000000000000000000000000000000000000F
:1021D00000000000000000000000000000000000FF
:1021E00000000000000000000000000000000000EF
:1021F00000000000000000000000000000000000DF
:1022000000000000000000000000000000000000CE
:1022100000000000000000000000000000000000BE
:1022200000000000000000000000000000000000AE
:10223000000000000000000000000000000000009E
:10224000000000000000000000000000000000008E
:10225000000000000000000000000000000000007E
:10226000000000000000000000000000000000006E
:10227000A1692000693520008D352000393120000A
:10228000053820001D2B2000A169200008B5094B4E
:10229000FF221A600848094A4824E369121A0849CB
:1022A00098470848084AA369121A0021984700F085
:1022B0000DF8FEE7B4200D4040400020074100200B
:1022C000507C200008410020DF4F002073B500F053
:1022D00075FD00F02FFE00F08BFD00F07FFB01F09C
:1022E0007FFA04F033FC00F01DFE00F0B3F801208B
:1022F00004F05AFB02F036F800F04CFD002000F02C
:1023000067FC012000F064FC4049002000F02CFD37
:1023100002F05CF962B6042004F046FB3C4804F08D
:10232000A3FB3C4804F0A0FB00F0FAFA002002F006
:102330006FF901F03FF90021374802F09FF801F0F2
:102340007DFE04F05FFB00F01BFF00F037FF02F0A2
:10235000A1FB0821684601F069FA9DF807309DF855
:1023600006502E4C43EA0525BDF806302C48238044
:1023700001F096FA2B4E21782B4801F091FA617802
:102380002A4801F08DFAF46A4AF6CD310220A047BE
:1023900029460320A0471A210120A04708226946A8
:1023A000736B0B209847224801F07AFA214B18688A
:1023B00004F05AFB204801F073FA204B186804F02F
:1023C00053FB1F4801F06CFA1E4B186804F04CFBDD
:1023D00000211D4802F052F81C4B01219B6881200E
:1023E000984704F09AFB1A4804F08DFB00F0D8FCE3
:1023F000022004F0D9FA00F0D9FC01F0CBFF10F074
:10240000FF0FF8D101F080F9F5E700BF8945200002
:102410003E78200058782000784000209A4F002015
:102420007D782000247720009B782000A178200070
:10243000A778200090762000AE7820009C762000BF
:10244000B5782000C476200098400020AC752000AC
:102450005C77200008B500F003FA024B00221A70E6
:1024600008BD00BFDC4C0020024A137818431070EE
:1024700000F01ABADC4C0020034A137823EA00006B
:10248000107000F011BA00BFDC4C0020024A137833
:102490005840107000F008BADC4C0020034B0022BA
:1024A0001A60034A1368002BFCD1704780A00D40CE
:1024B00020A00D40014BFF221A60704780A00D4004
:1024C000064B186006480268054912F0100FFAD151
:1024D0000A685207FCD51868C0B2704708800040EF
:1024E0000C800040F0B510B9002936D100E00AB9DF
:1024F0000120F0BD29B1234C234D002326462F4651
:1025000024E0204C204D03462746AE461E1A964234
:1025100001DB0020F0BD21602E68F606FCD4DEF859
:1025200000607607FBD53E6803F8016BEEE7D5F84F
:1025300000E01EF0100FFAD1D7F800E01EF0040FF3
:10254000FAD0D6F800E000F803E001339342E0DA75
:1025500011F803E0C4F800E0E9E7002AC8D0094C0C
:1025600009480B46264605465F1ABA42D1DD13F8E4
:10257000017B27600768FF06FCD42F687F07FCD526
:102580003768F1E7088000400C80004008B51A4A1F
:10259000136823F01003136052F8203C23F010035B
:1025A00042F8203C52F81C3C23F0100342F81C3C3B
:1025B00052F8183C23F0100342F8183C0F4B1A68ED
:1025C00010B142F0100201E022F010021A600C4A31
:1025D0000120136843F0100313600422114600F039
:1025E000B7FC084B02221A60012104220648BDE80C
:1025F000084000F04FBC00BF20A40D400CA40D40CB
:1026000010A40D4000E100E0016A200008B5074A6F
:102610000120136843F0100313600422114600F0F8
:1026200097FC034B02221A6008BD00BF10A40D40A6
:1026300000E100E0024A136823F0100313607047C2
:1026400010A40D40024B1868003018BF01207047DD
:1026500040A00D4010B51B4A07211368022023F04B
:102660008003136052F8203CFF2443F0800342F8BB
:10267000203C082200F06CFC134B05211C6001205B
:1026800000F0FCFC002000F083FC104A136823F0EB
:10269000100313600E4B1968A3F5607321F010014D
:1026A000C3F88013116821F001011160D3F8802371
:1026B00022F00102C3F88023064A1C601368002B35
:1026C000FCD010BD20B40D4000B20D4020A40D4040
:1026D00000A40D4020A00D4020B1012805D1044BDD
:1026E00018787047034B186870470020704700BF88
:1026F000DD4C002020900D4010B5094A00201378D1
:1027000001331370074B197801F090FEBDE81040BB
:1027100005490023054A0968054801F0C5BC00BF0A
:10272000DD4C0020D84F002040410020F926200039
:1027300018410020812808B52AD0B0F5807F39D013
:10274000802839D101F006FE1C4B1D4A1870136811
:10275000032123F00803136052F8203C002023F0EB
:10276000080342F8203C52F81C3C23F0080342F8CE
:102770001C3C52F8183C43F0080342F8183C042271
:1027800000F0E6FB032200210E4800F083FB13E07B
:102790000D4B0E481A6829B142F008021A60012355
:1027A000036005E022F008021A600123C0F88030BF
:1027B000084608BD064B1960012008BDD84F00200F
:1027C00020940D40D527200010940D4000E100E03A
:1027D0004041002008B50F4804F0C6F9C8B10821EF
:1027E0000C4804F0B5F90C4B196869B10B4B002289
:1027F0001A700B4B1B6823B90A4A0B4801F054FCB2
:1028000002E0094801F05AFCBDE80840074801F021
:10281000ABBF08BD3841002040410020DD4C002006
:1028200020900D40F926200018410020AC752000B2
:10283000084A136823F00403136052F8203C43F065
:10284000040342F8203C044B04221A60034B01228B
:102850001A70704720C40D4010C00D40DE4C00209F
:102860000D4A0E49136823F0C003136052F8203C50
:1028700043F0C00342F8203C094B00221A600B6869
:1028800023F010030B6051F8203C43F0100341F893
:10289000203C044B1A60704720A40D4020C40D401A
:1028A00000A30D4040C00D4000F0020202F0FF0105
:1028B0000B4B12B1FF221A6000E0196000F0040215
:1028C00002F0FF01074B12B1FF221A6000E019600D
:1028D00010F00100044B1ABFFF221A601860704705
:1028E00000A20D4000A10D4040C00D40044B1868EF
:1028F000C0F30720030904BF1030C0B2704700BF07
:102900001C300D40054B1868C0F3C21001289ABF57
:10291000C0F1020040034FF40040704714300D40F6
:102920002DE9F04788B0FFF7E1FF174B48251C68F9
:10293000AB68074698476B68804698470546FFF79F
:10294000E1FF064600F08EFA814600F097FA8246D3
:1029500000F044FAB60A04F00103AD0AC4F34004DF
:1029600006900393CDF814A0CDF810900294019630
:10297000009507F00F03C7F307124146034800F024
:102980008FFF08B0BDE8F0871C300D40C3782000F1
:10299000F8B500F081F80F4B0024D3E900673A4600
:1029A000B04238BF7A1C15460443C3E90045DFF83E
:1029B00028E0DEE90001821B61EB070312196B417D
:1029C000CEE9002301F02EFC18B1BDE8F84001F07B
:1029D000ADBBF8BD08410020104100200D4B0E4A50
:1029E000E0215A600D4A82F82310002207219A60E4
:1029F00019600B490B6843F001030B60094B1A6027
:102A0000042243F80C2C012243F8082C0F22DA622E
:102A1000704700BF10E000E047E8010000ED00E073
:102A200008200D400C000340034BD3E90023100A9B
:102A300040EA0360704700BF08410020034BD3E920
:102A40000023D00B40EA4340704700BF10410020F4
:102A5000054B18601C3B1A6842F001021A601A68A4
:102A6000D207FCD4704700BF2800034010B5064CC5
:102A7000236823F001032360FFF78AFF236843F0F4
:102A80000103236010BD00BF10E000E0014B186897
:102A9000704700BF44410020074B084A19680433BF
:102AA0001B681268120442EA0323054A0B431068AC
:102AB00043EA0060704700BF40500D4048500D4051
:102AC0004C500D4010B50446104A1368DB07FCD586
:102AD00072B6FFF7E1FF231A062BD8BFC41D0C4BBB
:102AE000220E1A60C4F3074243F8042CC4F30722F1
:102AF00043F8082CE2B243F80C2C62B6054B4FF4B5
:102B000000321C60044B1A6110BD00BF50500D40D4
:102B10004C500D404441002000E100E008B500F0B9
:102B2000D7FD074B00221A60064B4FF40032C3F862
:102B30009021C3F89020BDE8084001F0C3BC00BF5D
:102B40004441002000E100E0064B1B681B075FBF0B
:102B5000054B186880F00800C0F3C00048BF002093
:102B6000704700BF18C0004018D00040164A2C2300
:102B700003FB00234FF6BF7270B5DC680546236C7B
:102B800062649BB213F050020DD0104EA369DB06B5
:102B900008D456F825301BB12068C0B29847F5E735
:102BA0002368F3E770BD13F4D06F0BD04FF440737C
:102BB0002363FF236360E36AE262E362236B43F013
:102BC0000103236370BD00BFBC7520004841002095
:102BD00001282DE9F74F064600F2B6802C25454323
:102BE0005B4F7C1994F92080B8F1000FC0F2AC80E3
:102BF00094F92290B9F1000FC0F2A680554800F078
:102C0000DDFD554A7B591168E5680B431360516837
:102C1000636894F921A00B4353609168A3685FFA3D
:102C200089FB0B4393600023C5F8C83F23690AEB77
:102C3000C8021A6094F92330227D00939DF8003079
:102C400058461946019300F08DF9019B0822194658
:102C5000584600F07DF9414A4FEA0939009959F880
:102C60000200012303FA01F1014349F802104FEA7F
:102C7000083858F8020003FA0AF1014348F8021034
:102C80005021A963A96B94F9240041F4D061A96390
:102C9000022169634FF440712963A16900286962C8
:102CA000E169A9624FF07001E962154616DB94F9FB
:102CB0002510A2F5A64241EAC0041C3A14600403A0
:102CC00062598B40134363510022C9B2C0B200F075
:102CD0003FF9234A136843F4004313602C2303FB9A
:102CE000067393F92640002C1BDB93F927A05FFAAB
:102CF00084F85FFA8AF9012249464046240300F02D
:102D000031F96259012303FA0AF31343635108228C
:102D10004946404600F01CF9114A136843F48043C9
:102D200013602C2303FB0676F268136B43F0010358
:102D3000136396F828300122590903F01F0302FAA1
:102D400003F3084A42F8213003B0BDE8F08F00BF1A
:102D5000BC752000492B200028200D4020940D40F8
:102D600030D0004000E100E001289CBF014B43F857
:102D70002010704748410020012808D8044B2C221D
:102D800002FB0030C3689A699206FCD41960704750
:102D9000BC752000014B00221A60704700500D40A6
:102DA000014B08221A60704700500D40024BA022D0
:102DB0001A6050221A60704700500D40014B024AC1
:102DC0009A60704700ED00E000202000024B186878
:102DD000C0F38150704700BF04200D4008B5FFF7D5
:102DE000F5FF024B53F8200008BD00BF1476200009
:102DF00038B5164D164C2B68012223F040032B608A
:102E00002368062123F040032360032000F0A0F88C
:102E10002B68012223F080032B602368072123F015
:102E200080032360032000F093F80A4A0A4B0B4901
:102E30001A600A680A4B1340084A002BF9D113683C
:102E40005901FCD413685B01FCD538BD20C40D408A
:102E500000C40D400101020000200D4004200D407F
:102E600000000101034B04481B6803F007031841ED
:102E7000704700BF04200D400048E801034B0448A0
:102E80001B68C3F302231841704700BF04200D40A4
:102E90000048E801024B02EBC10243F822007047F0
:102EA00050410020F8B507460E46094D002405EBB9
:102EB000411547FA04F3DB07E1B204D555F8243095
:102EC0000BB1304698470134082CF2D1F8BD00BF51
:102ED000504100202DE9F04780464FEA0837DFF8DF
:102EE000409007F1804505F5592500F0F1FBD5F834
:102EF000186457F809304FEAC80A23FA0AF446EA78
:102F00000400E4B24146C0B2F6B204FA0AF4FFF794
:102F1000C9FFC5F81C6447F80940BDE8F08700BF49
:102F200018970D4080220021014803F0EBBC00BF40
:102F300050410020034A044B1A60044B803A1A6047
:102F4000704700BF80400D40D4410020D041002098
:102F5000034B01EBC0011B6843F82120704700BF01
:102F6000D4410020034B01EBC0011B6843F8212032
:102F7000704700BFD0410020012806D80349012234
:102F80000B6802FA00F018430860704718200D40E3
:102F90002DE9F04F012887B0054667D818235D4317
:102FA000344F7C1994F91160002E5FDBFFF7E4FFCA
:102FB00094F912807D595FFA88F300275FFA86FB47
:102FC00019466F60227A5846C5F8C87F0593FFF707
:102FD000C9FF94F91330227B01939DF80430360326
:102FE000029394F91430029803939DF80C3019461B
:102FF0000493FFF7B7FF94F9159094F916A062684F
:103000000AEBC90111601C4A0121B058019B01FA69
:1030100008F848EA0000B0501E03039B56F802E08F
:1030200001FA03F040EA0E00B0504FEA093086582A
:10303000059B01FA0AF13143815019463A46584638
:10304000FFF786FF3A4604990298FFF781FF3A4658
:103050005FFA8AF15FFA89F0FFF77AFF237C2B6130
:10306000C7232B606B6843F002036B6007B0BDE8B9
:10307000F08F00BF2476200020940D4038B50B4A15
:103080000403A35801258D4023EA0503A350002221
:10309000FFF75EFF064AA3582B43A35004F1804478
:1030A00004F55924FF2344F8253038BD20940D4001
:1030B00000940D400E2870B50BD1154B154E1C68B1
:1030C00044F002051D60356825F03F0343F001031D
:1030D0003360114E336823F0FF031A431143014359
:1030E0000E4A316013681B06FCD50D4B0D4A1B6858
:1030F00012680E2803F0FC0343EA022308BF054AC6
:103100001BB204BF1560024A184608BF146070BDA8
:1031100034000144F486084008700D4000700D40F2
:103120000C700D4010700D40024B1868B0FA80F022
:103130004009704700B7084010B5074B4FF40042F4
:10314000064CC3F89021C3F89020206818B101F014
:10315000ADF90023236010BD00E100E0D84100205C
:10316000064A136843F002031360536843F00203F6
:103170005360936843F002039360704748200D400A
:1031800007B50C4800F01AFBFFF7EAFF0A4B1A6874
:1031900042F002021A6000220192019A0F2A02DC18
:1031A000019A0132F8E71A6822F002021A6003B0AD
:1031B0005DF804FB2931200054200D40064A1368B5
:1031C00023F002031360536823F0020353609368F3
:1031D00023F002039360704748200D40084B93F999
:1031E0000020002A09DB074AED2111601160E3216C
:1031F00011601A7862F07F021A700120704700BFD8
:10320000E24C0020388808400C4A13689907FCD427
:103210000A4B1B685B065FBF094BED221A601A6000
:10322000084B1B6813B1064BEF221A60064A0120B7
:10323000137803F07F031370704700BF4C8608407B
:10324000388808402C860840E24C002038B5A0F1B0
:103250000B04E3B20F2B054613D80B4B1B6813F07E
:103260003F0302D0FFF7D0FF012304EB8404074A99
:103270000B3414600BB1FFF7B1FF054B68B21D7042
:1032800038BD4FF0FF3038BD488608403C860840C6
:1032900006410020214B1870002834D0204A1368C2
:1032A0001B03FCD51F4B1A6842F002021A601A6811
:1032B00042F001021A601A681A495007FBD50A68E1
:1032C00022F001020A601968164A4907FBD4116806
:1032D00041F002011160116841F0010111601A68AA
:1032E0005207FCD5104A136823F004031360D2F888
:1032F000A83123F00403C2F8A8310C4B4FF400525C
:10330000C3F890207047084A136843F00403136021
:10331000064B4FF400521A61704700BFE14C002089
:1033200004200D40048808408C86084000E100E03D
:1033300070B52F4D2B6813F0400308D02D4E336825
:10334000DCB21B0605D52C4BED221A601A6000205A
:1033500070BD042CF7D9023C8C42F4DCE4B2032C9F
:1033600021D001190139032000F046F9631E2349D9
:103370001B011943032000F049F9032000F050F924
:10338000032000F065F9032000F06EF90028FAD15F
:1033900031681B4B493949B219703368194E180608
:1033A0003370D0D506E033680370336843703368F8
:1033B0008370EDE789B2042001F090FC317803209E
:1033C00001F07F0101F08AFC0F4B1B7873B92B6869
:1033D0005A060BD5064B1B681B0603D50B4801F09C
:1033E00065F803E0044BED221A601A60204670BDB8
:1033F0004C860840288808403888084002C0010CE4
:10340000E04C0020DF4C0020E14C00205040002028
:10341000F8B5294F3D7815F001054BD1274B012414
:103420001C605C609C60A3F59323A3F51473F822E1
:103430001A600922C3F89021152270331A6003F52F
:103440009B230B2203F59E731A60A3F59B23A3F520
:10345000F07340221A601A687F2642F020021A6038
:10346000D52243F81C5CDE62DA61154B1878FFF751
:10347000EDFE144B4FF480421E60134B02201A6184
:1034800000F0DAF81149022000F0B6F8032000F04D
:10349000D3F80E49032000F0A7F80D4B1878FFF77A
:1034A000F9FE29460B4800F0E9FF3B78204623430C
:1034B0003B70F8BD0020F8BDE24C0020A8200D4074
:1034C000064100209486084000E100E0288808407A
:1034D000E14C00205040002038B503880446CBB1B1
:1034E00040F20342934203D000230380032038BDFF
:1034F000194B18781A4628B11B7873B1174B1B78F3
:1035000058060AD5822908D1137843B1134B1A788B
:10351000520614D440F203432380012038BD01F049
:103520008FFB01F027FB8021FFF702FF0028EDDD74
:1035300080B201F0DFFA0A4B1B699847E6E70022E8
:103540001A70084B1D68FFF75FFEFFF761FFAB06BF
:10355000E0D0FFF743FEDDE7E14C0020E24C002025
:10356000C47620004886084008B5054B1B7813B97F
:10357000044800F09BFF044B00221A6008BD00BF06
:10358000E14C00205040002034880840064B07489A
:103590001A68042A1FBF06490A7842F040020A70DE
:1035A00000221A6000F082BF2C88084050400020A2
:1035B000E24C002010B5094C40220021204603F0C7
:1035C000A1F9074B01221A605C60064B4FF4804260
:1035D0005A604FF400425A6010BD00BF0040002006
:1035E00004F00F4000E100E003289EBF014B000102
:1035F000195070470040002003289EBF024B03EB88
:1036000000104160704700BF0040002003289EBFAB
:10361000024B03EB00108160704700BF00400020A8
:10362000032806D8034901220B6802FA00F0184368
:103630000860704728F00F40032806D8034901228C
:103640000B6802FA00F018430860704720F00F4042
:10365000032806D8034901220B6802FA00F0184338
:103660000860704714F00F4003289FBF044B03EB22
:103670000010806800F0070088BF0020704700BF7E
:1036800000400020024B4FF0FF321A60704700BF2D
:1036900004F50F40014B01221A6070474CF00F40B7
:1036A000094A1368084913F4801FFAD1074B1A68B6
:1036B00022F480321A600A68D203FCD41A6842F4F9
:1036C00000321A60704700BF04200D4000200D40FA
:1036D00010B50B4B1A681C4612F0030F0ED00949A7
:1036E0000B68084A13F0806FFAD113685B01FCD5B0
:1036F000FFF7BCF9FFF7D4FF0023236010BD00BF24
:1037000058200D4004200D4038B5264B1C6814F09D
:103710003F0413D1244D55F8243023B1984768B1A4
:103720000134052CF7D1214D2B783BB1FFF7AEF9D1
:103730000446FFF7B1F9201A092801D830BF38BD77
:10374000002CFBD01A4B1B481A6822F400321A6076
:103750000268184912F4801FFAD11A6842F48032C4
:103760001A600B68DB03FCD5FFF796F9201A0928CD
:1037700003D8BDE83840FFF793BF63280E4C02D949
:103780002B78022B00D00123236000F045FE20B1EE
:10379000FFF786FF0023236038BDFFF777F9002885
:1037A000CCD1F5E748860840DC410020E34C0020FE
:1037B00000200D4004200D4058200D4007490023F3
:1037C00051F82320824207D01AB9044A42F8230054
:1037D00070470133052BF3D1704700BFDC41002057
:1037E000054B00221A60054A136943F00403136174
:1037F000034B02221A70704758200D4000ED00E084
:10380000E34C002010B5074B4FF48032064CC3F850
:103810009021C3F89020206818B100F047FE0023E3
:10382000236010BD00E100E0F041002030B5184BEE
:103830001A78431E22B101F520112731154A1FE0E5
:10384000154A1278122AF6D1144A12784B2AF2D16C
:103850004A0802F12814B4F1281F04D014F8015DBD
:1038600003F8015FF7E701F5201127310023104429
:10387000934204DA11F80149C4540133F8E730BD2A
:10388000914204D011F8010903F8010FF8E730BDA7
:103890002B002800270028002A00280029002800E3
:1038A0000FB407B504AA52F8041B0448019200F0B3
:1038B00021F803B05DF804EB04B0704760400020CD
:1038C00070B505460C46102C07D92B681022084904
:1038D0006868984750B9103CF5E734B12B68224628
:1038E00068680349BDE870401847204670BD00BFB6
:1038F000E37920002DE9F04F064615468FB006917A
:103900004FF0000B069B1B78CBB1069C274617F89F
:10391000013B1BB1252B14D03C46F7E7069BA34285
:103920000DD0069B0699C3EB0408424633687068C5
:103930009847002840F01F832378C34423B9584692
:1039400034E3069BA342ECD16378002BF7D03946D1
:103950000024084610F8013B0A462B2B11D006D84C
:10396000202B11D0232B12D144F0080416E02D2B6C
:1039700004D0302B0BD144F010040FE044F00104CC
:103980000CE044F0060409E044F0020406E0A3F170
:103990003107082F11D84FF0000801E00146D8E7A1
:1039A0000A4611F8013BA3F13000092813D80A2276
:1039B00002FB0838A8F13008F2E72A2B09D12B685E
:1039C0000246002B05F10405B8BF44F001049846F7
:1039D00001E04FF0000813782E2B1AD15178531CB8
:1039E000A1F1300009280ED8194600270A780B46A5
:1039F000A2F13000092801F101010DD80A2303FBCF
:103A00000727303FF2E72A2904D12F68931C043599
:103A100002E013464FF0FF371A786C2A09D15A7822
:103A20006C2A02D144F080040AE0013344F06004BF
:103A30000BE0682A09D15A78682A03D144F020049F
:103A4000023302E0013344F040041A78642A3CD087
:103A50001FD8462A48D00DD8252A5AD003D8002A84
:103A60003FF46DAF57E0412A4AD0452A53D144F480
:103A7000424450E0582A31D004D8472A4BD144F46C
:103A8000A13448E0612A38D0632A44D144F4A064C8
:103A900041E06E2A3AD007D8662A22D027D3672A77
:103AA00028D0692A11D036E0732A2CD006D86F2A84
:103AB00011D0702A2FD144F440742CE0752A07D01D
:103AC000782A28D144F4C85425E044F4245422E050
:103AD00044F410641FE044F488541CE044F4B244FD
:103AE00019E044F4007416E044F4844413E044F410
:103AF000024410E044F481340DE044F4C1340AE09F
:103B000044F4E13407E044F4806404E044F4E06405
:103B100001E044F4C0640133069304F4E063B3F5B8
:103B2000806F00F08F8113D8B3F5807F27D0B3F575
:103B3000407F7FF4E7AEAE4B14F4804FAD4A18BF20
:103B40001A460DF133032868002104351F46B5E1FC
:103B5000B3F5C06F08D0B3F5E06F00F02282B3F583
:103B6000A06F7FF4CFAEF2E133680122A249706802
:103B70009847002840F0FF810BF1010BC2E6002FAF
:103B8000ACBF24F01004012714F40053079304F091
:103B9000E0032ED0402B12D005D8ABB1202B21D181
:103BA00095F900200DE0602B0ED0802B1AD107353F
:103BB00025F0070303F10805D3E9002307E0B5F971
:103BC0000020D317043502E02A680435D317002AF1
:103BD00073F1000108DA524263EB4303CDE900239D
:103BE000012304E000220023CDE9002300230593F4
:103BF00029E0402B13D004D8BBB1202B1DD12A784B
:103C00000EE0602B11D0802B17D1073525F007036C
:103C100003F10805D3E90023CDE900230BE02A884E
:103C20000023CDE90023043505E02B680022194666
:103C3000CDE900120435079BD9E700230593002244
:103C40000023CDE9002304F4C053B3F5805F0CD00A
:103C5000B3F5C05F33D0B3F5006F4FD1DDE900237A
:103C60000DF13609CDE9022304E0DDE900230DF171
:103C7000360915E0DDE9022313433AD0DDE90201FC
:103C80000A22002302F006FCDDE90201303209F8C5
:103C9000012D00230A2202F0FDFBCDE90201E9E734
:103CA00052EA030125D002F00701303109F8011D65
:103CB000D10841EA4371D8080A460346F0E74C4B65
:103CC00014F4804F0DF136094A4918BF1946DDE951
:103CD000002352EA03000CD002F00F00085C4FEA08
:103CE000131E09F8010D100940EA037002467346DD
:103CF000EFE70DF13603C9EB030302E00DF13609DE
:103D000000230293029B41F60802BB4238BFFF1A10
:103D100041F2080302EA040228BF00279A4202D1B6
:103D2000002F08BF012741F60801029B8A4203EBDE
:103D300007000DD1DDE90023134309D02F4A304994
:103D400014F4804F4FF0020A0CBF0B46134602E0FA
:103D50004FF0000A5346079A9AB1059A52B904F0F7
:103D60000602022A0AD0062A264A04BF4FF0010A98
:103D7000134606E04FF0010A234B02E0234B4FF0BD
:103D8000010A0AEB000290458CBFC2EB08084FF015
:103D9000000814F0010200920DD1E10602D547445B
:103DA000904608E0414630460593FFF789FD059BA4
:103DB000002840F0E080BAF1000F07D03468524686
:103DC00019467068A047002840F0D580029B03EB9D
:103DD0000B04BB46BBF1100F33681BD910220C49F2
:103DE00070689847002840F0C680ABF1100BF1E7EF
:103DF000AE792000BF792000E1792000D37920003E
:103E0000D0792000D8792000D6792000317C20009C
:103E1000F3792000BBF1000F06D05A46654970685F
:103E20009847002840F0A7803368029A4946706896
:103E300054449847002840F09E80009B3C44002B4F
:103E400039D032E0D5F800900435B9F1000F0AD02E
:103E5000CA469AF800300AF101020BB19246F8E71F
:103E6000C9EB0A0A03E0DFF850914FF0060A002F71
:103E700002DBBA4528BFBA46D0458CBFCAEB08085A
:103E80004FF0000814F0010705D141463046FFF716
:103E900017FD00286FD1336852464946706898472D
:103EA000002868D10AEB0B042FB141463046FFF7DA
:103EB00007FD00285FD108EB040B23E550EA010E53
:103EC0000ED000F00F0E12F80EE04FEA111C03F8AE
:103ED00001ED4FEA101E4EEA017E70466146EDE7A5
:103EE000FF1A02BF3022012703F8012C07F1030754
:103EF00008BF03F1FF337822B84503F8012C4FF0D7
:103F0000300203F8022C88BFC7EB08084FF02302E9
:103F100098BF4FF0000814F00104A3F1030903F85F
:103F2000032C04D141463046FFF7CAFC18BB336866
:103F30003A46494670689847E8B95F4424B141461B
:103F40003046FFF7BDFCB0B908EB070BDAE4B8F177
:103F5000010F2B688CBF08F1FF384FF0000814F0F8
:103F6000010405F104058DF8203008D141463046A2
:103F7000FFF7A6FC10B14FF0FF3017E0C3443368E1
:103F8000012208A9706898470028F4D108F10107B8
:103F90002CB141463046FFF793FC0028EBD1BB44DF
:103FA000B0E42B680435C3F800B0ABE40FB0BDE853
:103FB000F08F00BFF3792000DA792000F8B503888C
:103FC000064615462BB14A2B15D00023038003204B
:103FD000F8BD174802F0D9FD04462CB1A168201D98
:103FE00002F09CFD2468F8E7124B01221A704A2364
:103FF00033800120F8BD8829FBD10D4802F0C5FDB2
:104000000446002CF3D0231D9D420ED121460848C2
:1040100002F0C5FD084B62691F681A60A2691D465F
:104020000AB1E06990472F60E1E72468E9E700BF43
:10403000F4410020E44C00200042002010B5064B63
:10404000002406481C7002F09DFD2146BDE810408A
:10405000034800F013BA00BFE44C0020F4410020F4
:104060006840002070B50446E3610B4B049D1B784B
:104070006561A26143B1094D094B2E68201D2B607B
:1040800002F04CFD2E6000E0A1602146BDE87040CA
:10409000044802F097BD00BFE44C0020004200201D
:1040A00068400020F441002013B5034C24680094BC
:1040B000FFF7D8FF02B010BD0042002010B5084B3A
:1040C00004461B781BB1043000F0B4F801E0C36073
:1040D00003612146BDE81040024802F060BD00BF08
:1040E000E44C0020F441002010B50E4C236813B9B5
:1040F0000D4A136010BDFEF797FC216891E80C0093
:104100001A44131A8A6842B192E812002144091A2B
:104110008B4228BF0B469268F5E71844024B1860A3
:1041200010BD00BFF8410020FC410020014800F014
:10413000BDB900BF784000202DE9F843038805464B
:1041400033B1592B0BD0002303800320BDE8F88343
:10415000234A136059232B800120BDE8F883872967
:1041600024D08229F6D11E4F4FF00008B9463C6892
:104170000026002CEED0204602F0F6FC98B1224634
:104180008821E06800F052F958B9E060A3680EB1E8
:10419000B36001E0C9F80030C4F80880FFF7A4FF5D
:1041A000E5E7FFF7C3FF2646A468E2E70C490020D5
:1041B0000B681BB90028CDD00B60CBE7DC68A242AE
:1041C00002D19B680120F4E700B10B6099680029D7
:1041D000C0D0C86882420ABF89680B469960F5E77B
:1041E000F841002010B50446FFF7A0FFE3680B4A32
:1041F0004BB113683BB1A34203D1094A1268DA609C
:1042000007E09B68F6E7064B1B68E36013681460E1
:10421000A360BDE81040FFF767BF00BFF841002072
:1042200000420020024B1868003018BF0120704780
:10423000F841002010B50B4A04461368834206D1AA
:104240008368136008E09A68944203D01346002BF9
:10425000F9D103E0A2689A60FFF746FF0023A3604C
:10426000E36010BDF841002038B5836804460D4670
:104270009BB10A4804600220A07304F10C00984727
:104280000238012801D9832D05D121462046BDE8F9
:10429000384000F005B80123A37338BD0042002068
:1042A0002DE9F8431C4A0446156889462B4690467A
:1042B0001A4E3768A34204D00BB11B68FAE7BDE879
:1042C000F88334B3A37BABB10023A37345B1A542FC
:1042D00004D022468721284602F032FC2D68F5E7FB
:1042E000A3683BB14C4505D034602A46832104F1D4
:1042F0000C009847D8F800309C4203D12268064B46
:1043000005E0134623B11A689442FAD122681A6074
:104310003760BDE8F88300BF04420020004200205F
:10432000002370B51D46094A01261370084A146817
:1043300054B1E37B33B1A673E5730022822120469A
:10434000FFF792FF2468F3E770BD00BFE74C002041
:1043500004420020024B1878421C1A70704700BFBC
:10436000E84C0020064B8A221A70064A002313707C
:10437000054A1370054A1360054A1360704700BF71
:10438000E84C0020E54C0020E64C002004420020D0
:10439000004200202DE9F0411A4D2B780BB1FFF7B8
:1043A000BFFF194C22783AB3184E0C213378184FBE
:1043B0005943781817F8018001334768806803F083
:1043C0001F03013A3370227068B9124B1E689EB108
:1043D0002B780BB1FFF7A4FF30463A46414602F076
:1043E000AFFB3668F3E7B8F1810F04BF0123837395
:1043F0003A46414602F0A4FB2B7820781844BDE8E9
:10440000F08100BFE74C0020E64C0020E54C002086
:104410000842002004420020024A034B10781B7817
:1044200018447047E64C0020E74C0020F0B50B4ED6
:104430003378202B0FD00A4C0C252478094F1C44CC
:1044400004F01F046C4301333D19A86039556A60BC
:1044500033700020F0BD0120F0BD00BFE64C00200D
:10446000E54C00200842002038B5034C256802F0D6
:1044700067FB256038BD00BF0042002030B40A4C05
:104480000A4625682B4683420CD00BB11B68FAE71D
:1044900040B101210560817320608381812130BC9E
:1044A000FFF7E2BF30BC70470442002038B1837B85
:1044B000013B012B9FBF024A0123C3731370704756
:1044C000E74C002010B5084C206858B10023236049
:1044D000816843689847236823B1BDE81040186895
:1044E000FEF7F0BA10BD00BF8843002070B5058804
:1044F0000446672D09D0792D30D0002D34D1FFF737
:1045000029FF1C4B18701C4B1D601B4D2E461B4871
:1045100002F0D9FB431C01D167231DE00A28164A8B
:1045200007D02B687E2BF2DC5A1C3260144AD05420
:10453000EDE713680025591C1160114A2846D5542F
:104540000C4B1978FFF772FF0E4B2A46852118682D
:10455000FFF76CFF20B97923238009E0852907D173
:10456000054B00221A60D0E700230380032070BDB2
:10457000012070BDDD4F0020944300208C430020BB
:104580006A4D0020004200200D2810B5014615D0CC
:104590000B4C23782BB90B4802F082FB48B901235E
:1045A00006E00A2805D1074802F07AFB08B100238B
:1045B00023700548FFF77AFF012010BD002010BDD1
:1045C000694D00208C4300208840002008B5054933
:1045D0000548802202F05DFBBDE808400021034849
:1045E000FFF74CBFE94C00208C430020884000209E
:1045F000054A136843F004031360044B1B68906979
:1046000043EA002080B2704700700D4014700D40E6
:1046100010B5184A136823F00C031360164B0122DF
:104620001A601A68012AFCD1144B08221A60E3228E
:10463000C3F8142203F505731946114A1368DB0702
:10464000FCD5104C102000232268013802F0010232
:1046500043EA02034FEA43039BB2F5D1002BF1D0AA
:10466000094A180A03F0FE0310601360EF230B6081
:1046700010BD00BF00700D40A8200D4024860840EA
:10468000648608409C86084014700D402DE9F04176
:1046900006880546772E31D07E2E40D0002E4ED192
:1046A0002B4CFFF757FE266026462A4B2A4FDFF891
:1046B000B0801870236857F823204AB1002108F809
:1046C0000310936880209847336801333360F1E723
:1046D000224A1370772320E0214AD256002A12DBA7
:1046E0001B4A136801331360194B1C4A1B6812786C
:1046F0009A42F1DC1B4B1B68002BEBD0194A0023BC
:104700001360134AEFE7144A002052F82320114B9C
:104710001978FFF78BFE30B97E232B8014E00D4B08
:104720001B788B4210D10A4B0D491A688B5C03F041
:104730007F038B540B4A136801331360D0E70023C7
:1047400003800320BDE8F0810120BDE8F08100BFB7
:1047500098430020DE4F002040400020EA4D00201A
:10476000D94F00209C43002010B40A4B0A491A7804
:104770000023934203DA51F82340A04208D10749AD
:104780000748CA5C62F07F02CA5410BCFFF78EBEB5
:104790000133EEE7EA4D002040400020D94F0020D1
:1047A0009840002070B505460C46164600F00EF9FC
:1047B0002E612046BDE87040014902F01FBC00BFD9
:1047C000347A2000014802F0DDB900BFA043002088
:1047D000014B1860704700BFA4430020014802F05D
:1047E000D4B900BFA04300202DE9F04106460B4894
:1047F0000C46174602F0C9F970B18388A34208D16C
:1048000085684DB13B4622463146AC46BDE8F04195
:10481000604702F0F3F9EFE7BDE8F081A043002024
:1048200070B50B4C0023616E0A4A04F13800FFF7A3
:104830003BFCFFF7DDFE616E0023B0FBF1F5064A9D
:1048400005FB110104F11800BDE87040FFF72CBC16
:10485000A84300205D48200075482000044B5A6E94
:10486000196E52008A4294BF5A665966FFF7D8BF44
:10487000A843002010B500F0E3F900F07BF9002315
:1048800003800446FFF7AAFF68B1037B5BB123886E
:10489000818804EB83025180C18801339180238099
:1048A00002F0ACF9F0E720888000023080B200F01E
:1048B00021F9238823B1BDE81040024800F03AB83E
:1048C00010BD00BFA84300209DF80030012B04D18B
:1048D000024B9A6D5A66FFF7A3BF7047A8430020AA
:1048E000F8B50F4616461D46064C0146064A2046B8
:1048F00000F00EF8A765E66525660448BDE8F840B7
:10490000FFF766BFA843002074762000C948200046
:1049100070B505460C461646044AFFF743FF6E6124
:104920002046BDE87040024902F068BB7C7620005A
:10493000367A200010B5044604491A2000F0DCF94C
:104940002046BDE8104002F0D0B900BF9A4F0020C9
:1049500010B54378047843EA0420064B00FA01F1CD
:104960009B5CC2F1080003EA212141FA00F0C0B2C9
:1049700010BD00BF3A7A2000054B10B51B68984760
:10498000044618B18188012000F0A8F9204610BD26
:104990008476200038B5064B05465B689847044688
:1049A000A988012000F09AF9201C18BF012038BD09
:1049B00084762000014B9B68184700BF8476200056
:1049C000014802F0DFB800BF144400208180014696
:1049D000014802F0F7B800BF144400200146014826
:1049E00002F0DDB81444002010B50446054802F07A
:1049F000CCF828B18388A34202D002F0FFF8F8E790
:104A000010BD00BF14440020F8B506460A480D4604
:104A1000174602F0BAF8044638B1A3680BB128462D
:104A20009847204602F0EAF8F5E73A46294630462C
:104A3000BDE8F84002F060B91844002038B5FFF72F
:104A40009BFF0546094802F0A0F8044630B16368B0
:104A500003B19847204602F0D1F8F6E725B1284681
:104A6000BDE8384002F043B938BD00BF184400200B
:104A700010B50446FFF78EFF38B100F057F8034B2E
:104A8000034821469B689847012010BDF07620001E
:104A9000094A2000084B10B51B689847074B5B6814
:104AA0009847074B5B689847064B5B689847BDE89B
:104AB0001040054B5B68184724772000C47620001F
:104AC000F07620009C7620009076200010B50749F3
:104AD0000B88834208DB064C80B222880244181AF5
:104AE00008802280012010BD002010BDDC4600207F
:104AF000DE460020014B1880704700BFDC460020D6
:104B0000004870471C440020014B1888704700BFC4
:104B1000DC460020034A044B10781B781844C0B2CE
:104B2000704700BFEB4D0020DE4600202DE9F0412C
:104B30000C4B1A881D469AB10B4BDFF834801E8847
:104B40000A4B00241F7821B2B14204F1010405DAB6
:104B5000FFF7E0FF41440B5CCB55F4E700232B80CB
:104B6000BDE8F081DE460020DC460020EB4D002051
:104B70001C44002008B5FFF7CDFF014B184408BDC9
:104B80001C440020F8B50C4B07461C780B4B1E88C4
:104B9000A519802D0CDC2246094901F03DFEFFF7E6
:104BA000E9FF3C4401463246204601F035FE00E074
:104BB00000252846F8BD00BFEB4D0020DC46002054
:104BC0001C44002008B5FFF7A5FF024B1B881844C2
:104BD00080B208BDDC46002010B50146FFF7F2FFA9
:104BE0004318802B10DC0138084B00B2002805DB8D
:104BF0001C5C1A180138545400B2F7E7044B01202A
:104C00001A781144197010BD002010BD1C440020FA
:104C1000EB4D002038B534220021064801F072FE29
:104C2000054D002428190549023402F022FA082C07
:104C3000F8D138BDA44F00209C4F00206C77200095
:104C4000044A00231380044A1380044A1370FFF7B8
:104C5000E1BF00BFDE460020DC460020EB4D002017
:104C600038B50C460546FFF7EBFF802C28BF8024A3
:104C700022462946034801F0CFFD034B20461C8005
:104C800038BD00BF1C440020DC46002010B5074B97
:104C900003F1340253F8044B934240F8044BF9D12A
:104CA000034A13680B6053684B6010BDA44F00208B
:104CB0009C4F002010B5074B00F1340250F8044B14
:104CC000904243F8044BF9D10B68034A13604B68D8
:104CD000536010BDA44F00209C4F0020024B23F8CE
:104CE00010100120704700BFA44F0020014B33F883
:104CF00010007047A44F002008B5044B1A3803EB8E
:104D0000400002F0B6F9012008BD00BF9C4F002012
:104D1000024B1A3803EB4000704700BF9C4F002045
:104D20000149024802F0A8B96C7720009E4F00208C
:104D300008B5044801F065FFBDE80840024801F0ED
:104D400060BF00BFB4400020A840002038B50E4826
:104D500001F067FF0446A8B10C4801F062FF054668
:104D6000206028B92146084801F06FFF284638BD69
:104D7000FFF708FF05F1B601A5F8800005F18200F4
:104D8000FFF784FF204638BDA8400020B440002033
:104D900010B501460446074801F06DFF48B121688F
:104DA000054801F052FF2146BDE81040014801F0DE
:104DB0004CBF10BDA8400020B440002010B50146F3
:104DC0000446094801F057FF68B12468B4F8801020
:104DD0002046FFF745FF04F1B60104F18200BDE86B
:104DE0001040FFF767BF10BDA8400020014BDB68F3
:104DF000184700BFF0762000014B5B69184700BFE1
:104E0000C4762000014B9B69184700BFC476200080
:104E1000024BD86900B10047704700BFC47620003C
:104E200013B5044668B1006B01F0AFFE024640B115
:104E30002146054B0548DB68019302B0BDE81040F0
:104E4000184702B010BD00BFC4762000A17020003A
:104E500070B590F829400123032C88BF042403FA7D
:104E600004F40C4B0546DB699847002808BF012075
:104E7000013C444305D0FFF7BBFBB0FBF4F303FB5D
:104E800014042B46214605F10800034ABDE8704092
:104E9000FFF70AB9C4762000214E20002DE9F04129
:104EA00007461B208846FFF733FF484B05461A7814
:104EB000474C22B901221A70FFF79AFB2080238801
:104EC00013B9434B01221A8021880A204B1C2380EE
:104ED000FFF704FF3F4801F058FE044640B1294661
:104EE000201D02F0C9F8D8B9204601F087FEF4E78A
:104EF000394801F096FE044640B32946201D02F0D1
:104F0000B8F8002304F12C00206384F8283084F8DA
:104F10002930E36201F036FE21462E4801F052FEB0
:104F2000206B01F064FE072810DC2C4801F079FEAC
:104F3000054698B9206B01F05AFE38B9214625483C
:104F400001F02DFE2146244801F07FFE41463846FF
:104F5000BDE8F0410123042202F090BA204801F09C
:104F600060FEA86058B3FFF7F1FE686018B309202F
:104F7000AE68FFF7BBFE10B90823337203E00920C7
:104F8000FFF7B4FE307286E880010D20FFF7AEFE19
:104F900001282946206B02D101F021FE01E001F039
:104FA00011FE206B01F0F1FD85420DD12046BDE8D8
:104FB000F041FFF74DBFA968094801F046FE2946B8
:104FC000064801F042FEB5E7BDE8F081044E00203E
:104FD000D04C00201C450020D8400020CC400020B0
:104FE000C040002008B5054801F00BFE044801F060
:104FF00008FEBDE80840034801F003BECC40002095
:10500000C0400020D84000202DE9F0470D4614464E
:105010008B68804693E8C000106B92F8289001F0EE
:10502000BEFD6868FFF7B4FEA968144801F00DFEE4
:105030002946134801F009FE206B01F0A6FD40B19E
:10504000002384F8283084F829302046FFF700FF39
:105050000BE004F10800FFF731F82146094801F0A0
:105060009EFD2146084801F0F0FD4B464246394678
:105070003046BDE8F04702F001BA00BFC040002052
:10508000CC4000201C450020D8400020014B18884F
:10509000704700BF044100202DE9F041012986B08E
:1050A00006460F46144640F3A780037803F0070234
:1050B0008DF80C20C3F3C0028DF80D20C3F300124D
:1050C0008DF80E20C3F34012C3F380138DF8103017
:1050D00043788DF80F20C3F340028DF81220C3F3FC
:1050E000810203F001058DF81320C3F301129B091F
:1050F0008DF815308DF814208DF8115003AB03CBCB
:105100001B882061616123830DB1B51C02E0B37877
:10511000F51CA37602AA01A903A802F02CF89DF8B9
:105120001380B8F1000F23D0029B23B16A7815F8E1
:10513000023B03EB0223B8F1020FA38309D13049EC
:10514000204601F096FF6B78237015F8023B6370E0
:1051500014E0B8F1030F11D105F108021346611EE6
:1051600013F8010DAB4201F8010FF9D1154605E026
:105170002349204601F07DFFA4F81C809DF815808E
:10518000B8F1000F2BD0019B53B16A7815F8023BA0
:1051900003EB0223029A9BB2E3831AB9A38301E0D3
:1051A000A38BE383B8F1020F0AD1154904F108007B
:1051B00001F05FFF6B78237215F8023B637215E014
:1051C000B8F1030F12D105F108021346E11D13F8DF
:1051D000010D9D4201F8010FF9D1154606E008497D
:1051E00004F1080001F045FFA4F81E80A81B3B1A3B
:1051F0008742E363A56300DA002006B0BDE8F081D2
:105200006C77200030B591B00546FFF73FFF4FF6B1
:10521000FF73984202D14FF0FF3081E0402200211D
:10522000684601F06FFB3F4B1A782AB901221A70C9
:10523000FFF7DEF93C4B18701420FFF757FD8DF88F
:1052400010001320FFF752FD8DF81200FFF768FDE4
:10525000044628B100238DF813308DF8153006E090
:105260000B20FFF743FD8DF815408DF81300002348
:1052700001248DF814308DF81840ADB10A20FFF7E5
:1052800035FD28B10A20FFF731FD8DF81A000BE03B
:10529000254B1A7802B91C7019780A204A1C1A701A
:1052A0008DF81A10FFF71AFD02248DF81940FFF748
:1052B000EDFEADF81C00FFF733FD38B1FF238DF88C
:1052C00017408DF800308DF8013008E01B20FFF703
:1052D0001FFD0146684601F0CCFE8DF81740FFF730
:1052E000D5FEADF81E001A20FFF712FD014602A8F8
:1052F00001F0BFFEFFF73EFC0E90FFF705FC0F909C
:10530000684601F0DAFF04464DB1FFF765FC00285E
:1053100081D0FFF7F5FB0146684601F0E7FF204624
:1053200011B030BD104E00200F4E00202DE9F0418D
:10533000FDF77AFB0446114F00254FF00C0808FBDF
:1053400005761A20FFF7E4FC314601F095FE88B19E
:105350000A20FFF7CBFC337A834202D00020BDE85D
:10536000F0817068201AB0F5206F8CBF00200120FA
:10537000BDE8F0810135102DE1D1EFE7E8450020CF
:1053800070B5184E00241A20FFF7C2FC0C2101FB57
:10539000046101F071FE134D631C10B9102B1C4603
:1053A000F1D1013B0C2202FB0352A2F10C0643B1E6
:1053B000344603CC106051602068013B9060324657
:1053C000F3E70A20FFF792FC2872FDF72DFB6860D7
:1053D0001A20FFF79DFCBDE870400146014801F02E
:1053E00048BE00BFE8450020014B1B6A184700BFBC
:1053F000247720002DE9FF4706460F461A20414931
:10540000FFF77AFC01210B20FFF768FC3E4B5B683D
:10541000984700286ADBFFF773FB3C4C90F802804A
:105420006568FFF76DFB8146FFF7CCFB01464846F8
:10543000A847FFF775FCD4F818900546C847002820
:1054400051D15DB1A3680193FFF7BCFB019B984765
:1054500048B102280CBF0122042245E0E3699847C5
:10546000002840D1EEE715B10022012440E0FDF70D
:1054700013FB8246FDF79AFC6FF0A205CAEB050507
:10548000FDF70AFBC542FBD4C84748B1FDF704FB52
:1054900081466FF01405FDF789FCC9EB050509E0AD
:1054A000E36998470028F1D1184B5B6998470028B9
:1054B000ECD016E0FDF7F0FAC542FBD4E36998475B
:1054C00078B1124B032103A81B69984703280AD11E
:1054D0009DF80E20B2EB080218BF0122002AC3D0AB
:1054E00002E0022200E00122002401E00522FBE7A5
:1054F00030460123394601F0C1FF204604B0BDE823
:10550000F08700BF9A4F0020E47620002477200027
:1055100082B0044B08B11B6A00E05B6A019302B0E1
:10552000184700BF2477200007B5FFF7EDFA0328DE
:105530001BD00F4B9B689847002816DB1B20FFF7FA
:10554000E7FB0C4901F098FD58B1FFF7EFFE60B999
:10555000FFF716FF084BDB68019303B05DF804EB1F
:105560001847FFF7DDFB0028EFD103B05DF804FB1F
:10557000E47620009A4F00209C76200008B5024B6C
:105580001B689847023008BDB876200038B50C4B30
:105590009B689847041E02DA4FF0FF3038BDFFF7D2
:1055A000E9FA03780546002BF6D10220FFF78EFAC0
:1055B0000028F1D06878FFF79DFAA01C38BD00BF25
:1055C000B876200070B50220FFF706FB10B94FF047
:1055D000FF3070BDFFF794FA002505700446FFF711
:1055E00093FA6070FFF7EEFA0446FFF7C7FF204416
:1055F0002A2812DCC0F12B00C4B2FFF7BBFA064622
:10560000FFF782FA22462946304401F07BF9FFF782
:105610007BFA204480B2FFF76DFA044B5B68984731
:10562000041ED4DBFFF782FAA01C70BDB876200000
:10563000014B9B68184700BF9076200070B5044668
:105640000D4614200121FFF749FB034B2946204654
:10565000BDE870409B6818479C762000034B188873
:1056600080B2003018BF0120704700BFD24C00202C
:10567000002934D0102834D8DFE800F0091433337F
:10568000191B1E20333333333324272A2D00164BA6
:105690001B7803F0020303F0FF000BB1012303E0CA
:1056A00008607047114B1B780B6000207047104B4F
:1056B00000E0104B1B68F7E70F4B00E00F4B93F92E
:1056C0000030F1E70E4B1B7FEEE70D4B5B7FEBE706
:1056D0006FF00F03E8E70A4B93F91E30E4E702206E
:1056E00070470120704700BF994F0020144F0020E1
:1056F000B0460020AC460020984F0020934E00207A
:105700000077200010B504462B2001F006FF63004F
:10571000233303F03F0300F0C00119432B2001F0B5
:10572000E5FE014B1C7010BD984F002010B501F034
:10573000D6FE48B3602804D1274801F095F93A20F5
:1057400005E0702806D1254801F08EF93B2001F0D4
:10575000BAFE19E0362001F0B6FEFDF79DF96FF4B0
:10576000A374241A01F0BBFE48B9FDF795F9C442B1
:105770000AD440F2DD611A48FEF792F804E0FDF722
:105780008BF9C442EED4F0E7164A6FF4A374137891
:1057900023F004031370FCF739FF3A2001F093FE65
:1057A000342001F090FEFDF777F9241A01F097FEFE
:1057B000102804D1FDF770F9C44205D510BDFDF7DE
:1057C0006BF9C442F2D4F5E74FF4DD610448BDE85B
:1057D0001040FEF765B800BF817A2000947A20005F
:1057E000A77A2000994F002010B5234C23785B0640
:1057F0000CD52378332023F04003237001F063FE9F
:10580000FDF74AF96FF4A374241A0CE0FDF716F9BA
:105810001A4B1B68C01AB0F5617FEAD210BDFDF7C4
:105820003BF9C44203D501F05AFE4028F7D1FDF7F9
:1058300033F9C44204D440F28B611148FEF730F8CA
:10584000FDF72AF96FF4A374241A01F048FE48B951
:10585000FDF722F9C4420AD440F28C610848FEF7F1
:105860001FF804E0FDF718F9C442EED4F0E7FDF7A5
:10587000E5F8024B186010BD994F0020A8460020A3
:10588000A77A200010B501F02AFE20B140F2BA61DB
:105890001548FEF705F8FFF7A7FF144A3A201378DA
:1058A0006FF4A37423F00403137001F00CFE342092
:1058B00001F009FEFDF7F0F8241A01F010FE10289F
:1058C00009D1FDF7E9F8C4420AD440F2C36108489F
:1058D000FDF7E6FF04E0FDF7DFF8C442EDD4F0E7A2
:1058E000BDE81040FCF792BEC97A2000994F002015
:1058F000A77A200010B5FCF79DFE01F0F0FD50B333
:10590000602804D1144801F0AFF83A2005E070286F
:1059100005D1124801F0A8F83B2001F0D4FD362053
:1059200001F0D1FDFDF7B8F86FF4A374241A01F06B
:10593000D6FD20B9FDF7B0F8C44205D510BDFDF77E
:10594000ABF8C442F3D4F5E740F2B161BDE81040D2
:105950000348FDF7A5BF10BD817A2000947A20008E
:10596000A77A200038B50F4D2B789B0716D50E4C23
:105970002378ABB923780133DBB22370FFF7BAFF8A
:105980003221032001F0B2FD392001F09CFD237883
:105990000120013BDBB22870237038BD012038BDE7
:1059A000002038BD994F0020134F002070B51D4DC9
:1059B0002B7803F0020303F0FF0083BB1A4C23781B
:1059C00073BB23786FF4A3760133DBB22370FCF74B
:1059D00065FDFDF761F8361AFCF734FE40B9FCF7B7
:1059E00031FE60B140F213411048FDF759FF06E067
:1059F000FDF752F8C642F2D5FDF7D8F9ECE7FCF70F
:105A000059FD2B78062143F0020303202B7001F08F
:105A10006DFDFFF737FF2378013BDBB223700120D8
:105A200070BD00BF994F0020134F0020C97A20009D
:105A300008B5094B1B7803F00A03022B01D00020A4
:105A400008BDFCF7FFFD012805D0044B1B889BB265
:105A5000002BF4D0012008BD994F0020D24C00202B
:105A60003A4B2DE9F34793F81CA007468245984628
:105A700066D85B7F834263D3354C364D237853B170
:105A8000354B36481F702B78012643F010032B70DE
:105A9000FEF70CFD55E02B781A07F1D4FFF7C8FF8D
:105AA00006460028ECD12B7823F010029B072A70C1
:105AB00004D4FFF77BFF4FF0010900E08146237813
:105AC000CAEB070A0133DBB22370FFF713FFD8F8E4
:105AD00018305FFA8AFA03FB0AFA4FF47A73BAFBBA
:105AE000F3F1D8F8143042F60E700B4440F27121F5
:105AF0001B03B3FBF1F10191C9B201F0F7FC9DF872
:105B0000051042F60D7001F0F1FC9DF8061042F60A
:105B10000C7001F0EBFC124B1F70B9F1000F05D1B6
:105B20002B7843F040032B70FFF7ACFE2378013B4A
:105B3000DBB22370B9F1000F03D0FFF713FF00E0D1
:105B40000226304602B0BDE8F08700BF0077200093
:105B5000134F0020994F0020114E0020E4400020F8
:105B6000144F002010B50C46072836D8DFE800F0A7
:105B70000410353516181B2A012902D1FFF716FF2C
:105B80001EE009B1022010BDFFF7ECFE204610BD5B
:105B9000C8B2FFF765FF022812D1F3E7104B00E00F
:105BA000104B1C600CE0104B93F91E106FF00F03AC
:105BB0008C42A8BF0C469C42B8BF1C460B4B1C70C5
:105BC000002010BD7F2905DC6FF07E039942B8BF2D
:105BD0001C4600E07F24064BF1E7012010BD00BF0A
:105BE000B0460020AC46002000772000164F002071
:105BF000154F0020F8B52A4D2B7803F0FF06002B37
:105C00004BD1284B1B789A0702D4FFF7CFFE012611
:105C10002B780133DBB22B7001F061FC102804D02B
:105C200040F29B312048FDF73BFEFCF70BFD0128BD
:105C300029D01E4B1E4F93F9004097F90030A34224
:105C400004D0E1B2172001F051FC3C70FCF724FFB6
:105C50006FF4A3773F1A42F6727001F05EFC83077F
:105C600004460BD4FCF718FFC74202D5FDF79EF897
:105C7000F1E740F2B5310C48FDF712FE84F0040460
:105C8000C4F3800400E000242B78013BDBB22B70CE
:105C90000EB1FFF767FE2046F8BD0020F8BD00BF3B
:105CA000134F0020994F0020C97A2000154F002083
:105CB000934E002008B5CB1E7C2B0A4604D906481B
:105CC00000F0D2FE012008BD044B198001460448B3
:105CD00000F0A2FD002008BDEA7A2000D84C002088
:105CE000944E0020F8B5144D2C88A4B214B32A8821
:105CF0002B882C8892B2A4B2023C8C429BB203DD6A
:105D00000E4800F0B1FE15E00D490A4412F8026C8D
:105D10000B44224613F8017C00F07EFD71B2002393
:105D200089B204202B80FEF7D9FF07F07F01032002
:105D3000FEF7D4FF2046F8BDD24C0020067B2000A1
:105D4000124E002037B50546424A02AC13783A207D
:105D500023F00403137024F8021D01F0B4FB3B2070
:105D600001F0B1FB312001F0AEFB2621032001F050
:105D7000BDFB2046012101F0FAFB9DF806102846E4
:105D800001F0F5FBFCF788FE6FF4A374241A01F010
:105D9000A6FB302809D1FCF77FFEC4420AD440F2AA
:105DA00044712D48FDF77CFD04E0FCF775FEC4420C
:105DB000EDD4F0E7352001F086FBFCF76DFE6FF4C3
:105DC000A374241AFCF73EFC012803D1FCF73AFC2B
:105DD00038B116E0FCF760FEC442F7D5FCF7E6FFE9
:105DE000F0E742F6D67001F098FB50B11B4800F086
:105DF0003BFEFFF77FFD0621032001F077FB012426
:105E000024E0FCF749FE0446154DFCF71BFC70B975
:105E1000FCF718FC0128044613D1124800F024FEB8
:105E2000FFF768FD0621032001F060FB0EE0FCF7A0
:105E300033FEEB682344C01A0028E9DAFCF7B6FF0A
:105E4000E3E70621032001F051FB0024204603B0C4
:105E500030BD00BF994F0020A77A20002B7B200087
:105E600000772000417B20002DE9F0413C4D2B883C
:105E7000834205D03B4800F0F7FD0120BDE8F081EA
:105E8000394C237843F0080222709A0703D4FFF7B5
:105E90008DFD012700E00027344B1B68DB070CD584
:105EA000FFF7A8FE48B90FB1FFF75CFD2378022089
:105EB00023F008032370BDE8F0812D4E33780133C1
:105EC000DBB23370FFF716FD2A4B93F900002A4B23
:105ED00093F90030834201D0FFF714FC0FB9FFF7AC
:105EE00083FC29882548FFF72DFF18BBFCF7D4FD5C
:105EF0000546DFF88C8001F0F2FA10280DD1FCF78E
:105F0000CBFD1F4B1B692B44C01A00280EDB40F24F
:105F100025311C48FDF7C4FC08E0FCF7BDFDD8F8AE
:105F200010302B44C01A0028E5DBE8E7FCF76EFBD5
:105F3000002507E02FB9237843F040032370FFF7D3
:105F4000A1FC01253378013BDBB233700FB1FFF7C1
:105F500009FD2378284623F008032370BDE8F0816B
:105F6000D84C0020577B2000994F0020AC460020E1
:105F7000134F0020164F0020984F0020944E002011
:105F800000772000A77A20002DE9F0414D4B1878CA
:105F9000984610F0010440F092804B4F3B7801335B
:105FA000DBB23B70FCF756FB2046FCF7EFFA474CA0
:105FB000FCF774FA3020FCF783FA642000F024FD2B
:105FC000FCF778FA25896668AD08002E6CD194F844
:105FD0002010182001F08AFA2621002001F086FA0C
:105FE0002621012001F082FA0621032001F07EFA29
:105FF0001F2001F092FA00F0E7011F2001F076FA6D
:10600000292001F08AFA00F0CF0141F00F01292088
:1060100001F06CFA2A2001F080FA00F0CF0141F083
:1060200030012A2001F062FA0021262001F05EFAF8
:10603000272001F072FA00F0FE01272001F056FA45
:10604000282001F06AFA00F09F0141F02001282089
:1060500001F04CFA1E4B03221A601E4B01221A60FB
:1060600094F91E001C4B1870FFF74CFB94F91F406D
:106070001A4BE1B217201C7001F038FA184B0021BE
:1060800018481C70FEF7FAF998F800301A2043F00F
:10609000030388F800303B78013BDBB23B70FFF72D
:1060A000DFFCFFF75FFC0AE00436002D8FD016F806
:1060B000021C36F8040C01F019FA013DF4E7012046
:1060C000BDE8F081994F0020134F00200077200099
:1060D000B0460020AC460020164F0020154F00208F
:1060E000934E0020E44000202DE9F04F844D93B002
:1060F0002B782F4603F0FF04DFF834824BB198F879
:106100000030804843F0200388F80030FEF7CEF9D5
:10611000E9E098F8003023F0200388F800302B786D
:106120000133DBB22B7001F0DAF900F0EF006028E8
:1061300022D042F6D77001F0F0F9064620B92B784C
:10614000013BDBB22B70D7E098F8003003F004037A
:1061500003F0FF0413BBDFF8DC910121484601F096
:10616000F5F9B9F80030022B01D8674802E07F2B1F
:106170000AD9664800F078FCFFF7D8FA2B78204659
:10618000013BDBB22B70B7E0614B701E1C8098F8AE
:106190000030C6B243F0040388F8003098F80030AD
:1061A000580740F1A4805A4DDFF888912A88B9F841
:1061B0000030B1189942A84604DD31465548FDF734
:1061C0006FFB92E0544C3146A01801F0BFF92888CB
:1061D000B9F80030304480B28342288040F0878094
:1061E00042F6717001F099F9814642F6747001F03F
:1061F00094F90106064678D5484D2B889BB21BB111
:10620000474800F031FC70E00DF1080A5246B8F83A
:1062100000102046FEF740FF002846D0414B1A6888
:106220009B4612F0010F04D1DBF800309A0716D517
:1062300011E09DF81830022BF6D09DF81F30022B8C
:106240000CBF0223082313F1FF33EDD31AF8032008
:10625000FF2AF8D022E09DF81820012A01D0022060
:1062600023E09DF81B20002AF9D0DB070FD402237E
:106270008DF8043000238DF805309DF8223003217D
:1062800001A88DF80630FFF75DFD03200DE02649DB
:10629000504600F0F1FE0028E9D1E0E722495046DF
:1062A00000F0EAFE0028BFD10120023801281CD8E6
:1062B000B8F8003018499A1C92B22A80A8F8002039
:1062C0002A8804F8039001339BB292B21748E6542F
:1062D00000F0A2FAFFF72AFA0A48FEF7E7F83B783F
:1062E000013BDBB23B70012006E0FFF71FFA3B7871
:1062F0000020013BDBB23B7013B0BDE8F08F00BF64
:10630000134F0020E44000206F7B2000857B20009D
:10631000D64C0020997B2000174F0020D24C002043
:10632000BB7B2000B04600209A4F0020124E002078
:10633000994F0020D44C0020822970B505460E46A6
:1063400022D11A4B1A781C4602F02202222A01D1CD
:10635000FFF7CAFE2378DB0603D5154B1878FFF745
:106360007FFB144B1B889BB273B1FEF769FCFEF7F1
:1063700001FC8021FFF7B6FC002805DD80B2FEF7A6
:10638000B9FB0D4B1B6998472A8840F25E2312B176
:106390009A4202D003E02B8005E0832E03D1002334
:1063A0002B80032070BD012070BD00BF994F0020DD
:1063B000114E0020D24C0020C4762000832938B52D
:1063C00005460C4602D1194800F0D4FC2B882BB1AD
:1063D000582B13D000232B80032038BD144800F025
:1063E00043FB81211148134AFEF792FA802112489B
:1063F00000F094FB58232B80012038BD882CF9D164
:106400000E4C0F482188FDF74BFA0120FCF73EF8AF
:1064100002212046FEF724FC0448FEF78BFA23886D
:1064200005480133238000F082FBE3E7B4460020F7
:10643000DD7B200064772000CC460020DA4C002071
:10644000F57B200073B50C46FEF75EFB267805460B
:106450006478FEF78FFB03883246294600930B4889
:106460002346FDF71DFA0420FEF740FC04460320F6
:10647000FEF73CFC61B202460548FDF711FA022026
:1064800002B0BDE87040FCF701B800BF077C2000F7
:10649000337C200053B94AB9002908BF00281CBF2B
:1064A0004FF0FF314FF0FF3000F082B9ADF1080C32
:1064B0006DE904CE00F006F8DDF804E0DDE9022322
:1064C00004B070472DE9F04F8C460C460546099EF6
:1064D000002B4FD18A4217466BD9B2FA82FEBEF129
:1064E000000F0BD0CEF1200520FA05F501FA0EF3CE
:1064F00045EA030C02FA0EF700FA0EF5390CBCFB64
:10650000F1F0BAB201FB10C300FB02F84FEA154CE0
:106510004CEA0344A04509D9E41900F1FF3380F0A7
:106520002881A04540F2258102383C44C8EB040490
:10653000B4FBF1F301FB134C03FB02F2ACB244EAEF
:106540000C418A4209D9C91903F1FF3480F00F8147
:106550008A4240F20C81023B39448A1A43EA0040E5
:106560000021002E63D022FA0EF2002386E80C00F0
:10657000BDE8F08F8B4207D9002E56D0002186E867
:1065800011000846BDE8F08FB3FA83F1002940F00E
:106590009380A34202D3824200F2FE80851A64EB0C
:1065A00003039C460120002E41D086E82010BDE860
:1065B000F08F12B90127B7FBF2F7B7FA87FEBEF1E9
:1065C000000F36D1E41B4FEA17481FFA87F9012163
:1065D000B4FBF8F308FB134409FB03F24FEA154C34
:1065E0004CEA0444A24207D9E41903F1FF3002D275
:1065F000A24200F2D3800346A41AB4FBF8F008FBD1
:10660000104809FB00F9ACB244EA0842914507D9A9
:10661000D21900F1FF3402D2914500F2BA8020462F
:10662000C9EB020240EA03409BE731463046BDE831
:10663000F08F07FA0EF7CEF1200C24FA0CF34FEA94
:106640001748B3FBF8FA1FFA87F908FB1A3520FA46
:106650000CFC04FA0EF40AFB09FB4CEA040C4FEAAA
:106660001C4242EA05439B4500FA0EF50AD9DB19A4
:106670000AF1FF3280F08B809B4540F28880AAF1BE
:10668000020A3B44CBEB0303B3FBF8F008FB1033E7
:1066900000FB09F41FFA8CFC4CEA03439C4207D927
:1066A000DB1900F1FF326ED29C426CD902383B44B8
:1066B0001C1B40EA0A418BE7C1F1200E8B4022FAF5
:1066C0000EFC4CEA030C24FA0EF74FEA1C49B7FB08
:1066D000F9FA1FFA8CF309FB1A7720FA0EF88C40AE
:1066E0000AFB03F548EA04044FEA144848EA07475E
:1066F000BD4202FA01F200FA01FB09D917EB0C07BF
:106700000AF1FF3041D2BD423FD9AAF1020A6744E3
:106710007F1BB7FBF9F509FB157705FB03F3A4B263
:1067200044EA0747BB4208D917EB0C0705F1FF30D5
:1067300027D2BB4225D9023D674445EA0A40A0FB67
:106740000289FF1A4F4545464C4614D329D066B3FB
:10675000BBEB050367EB040707FA0EFECB40CF4007
:106760004EEA030386E888000021BDE8F08F234647
:10677000F3E61846DAE6B8EB020569EB0C040138DB
:10678000E5E70546D9E7104692E78246C0E792461C
:1067900078E702383A4443E7084604E7023B3C44C2
:1067A0002AE7C345E7D33C46D1E73146BDE8F08F41
:1067B000704700BF032A70B426D940EA01039B0743
:1067C00011D004780D78AC4222D10244431C05E07C
:1067D00013F8014B11F8015FAC4219D19342F7D184
:1067E000002070BC70470C4603461E68256818469A
:1067F000AE42214603F1040304F10404E1D1043A5A
:10680000032A18462146F0D8002ADAD11046E8E7D4
:10681000601B70BC704700BF844641EA000313F060
:10682000030349D1403A23D30B6803604B684360AC
:106830008B688360CB68C3600B6903614B694361FC
:106840008B698361CB69C3610B6A03624B6A4362E4
:106850008B6A8362CB6AC3620B6B03634B6B4363CC
:106860008B6B8363CB6BC36340304031403ADBD2E8
:1068700030320BD30B6803604B6843608B688360D6
:10688000CB68C36010301031103AF3D20C3205D30C
:1068900051F8043B40F8043B043AF9D2043208D0E2
:1068A000D2071CBF11F8013B00F8013B01D30B8854
:1068B00003806046704700BF082A13D38B07B1D00E
:1068C00010F00303AED0C3F10403D21ADB071CBFE0
:1068D00011F8013B00F8013BA4D331F8023B20F84A
:1068E000023B9FE7043AD9D3013A11F8013B00F883
:1068F000013BF9D20B7803704B7843708B7883702F
:106900006046704770B4840746D0541E002A41D0B8
:10691000CDB2034602E0621EE4B3144603F8015B05
:106920009A07F8D1032C2ED9CDB245EA05250F2CB4
:1069300045EA054519D9264603F11002103E0F2EEF
:1069400042F8105C42F80C5C42F8085C42F8045CC7
:1069500002F11002F2D8A4F1100222F00F0204F0AA
:106960000F041032032C13440DD91E462246043A5C
:10697000032A46F8045BFAD8221F22F003020432ED
:10698000134404F003042CB1C9B21C4403F8011BE6
:10699000A342FBD170BC704714460346C2E700BF58
:1069A000FEE708B5FBF772FCF7B50024064625465E
:1069B00027463046FBF758FD0197019B9D4204DDB9
:1069C00000BF019B01330193F7E73046FBF754FD0D
:1069D000C5F5C8750197019B9D4204DD00BF019B71
:1069E00001330193F7E70134B4F5487F06D0B4F5DD
:1069F000C87FCCBFC4F548752546DAE703B0F0BDC3
:106A0000FFF772BBFBF714BF80B2FCF721B8FBF7AE
:106A1000BFBF70470020FCF7A9B80120FCF7A6B85B
:106A20000020FCF757BA0120FCF754BA0220FCF70B
:106A300051BA0320FCF74EBA10B50446C1B200208B
:106A4000FCF79AF9204610BD70B505460446461875
:106A5000601B44B1237833B1B44204D018460134EA
:106A6000FFF7EAFFF4E770BD38B50546002415F8D6
:106A7000010B20B1FFF7E0FF0134002DF7D10A2010
:106A8000FFF7DAFF204638BD00207047012070472D
:106A900010B50446302200210E20FCF70BFB84B118
:106AA000012C0CD142F210730011A0F28E50584309
:106AB0002A2390FBF3F000F5C340283010BD4FF0BF
:106AC000004010BD002070470120704710B50446FB
:106AD000302200210F20FCF7EDFA5CB1012C07D128
:106AE00040F6F253584347F6F07390FBF3F010BDB5
:106AF0004FF0004010BD08B5084612B11146FFF72F
:106B0000A3FF002008BD10B5041F54F8040F18B1EE
:106B10000021FDF7B3FCF8E710BD704710B504463F
:106B200000F016F82046BDE81040FDF75BBB10B53D
:106B3000044600F014F82046BDE81040FDF752BBB3
:106B4000837BDB0701D5FDF78FBB7047FFF761BF84
:106B500010B541600446FBF767FF206010BD90E868
:106B60000C0013440360704710B50446FBF75CFF4C
:106B70002368C3F1010303446068834294BF00208B
:106B8000012010BD00230360704700687047006853
:106B900000B9704703680BB11846FBE770470368FC
:106BA00010B573B1002499421A6806D10CB902607D
:106BB00000E0226000221A6010BD1C460AB1134694
:106BC000F1E710BD38B50546FFF7E9FF00230B607C
:106BD000FFF7DDFF08B9296038BD016038BD38B561
:106BE0000446FFF7DCFF03680B60216038BD0368D3
:106BF000002013B101301B68FBE7704700B100684B
:106C0000704710B50446428800214068FFF77AFEBD
:106C100023886288A0685A43BDE810400021FFF72E
:106C200071BE10B5418800238B420CDA4268D4183B
:106C3000D25C32B9012222700288806803FB020014
:106C400010BD0133F0E7002010BD30B582684488E4
:106C50000023A3420DDA8A4207D14168CA5C0AB117
:106C6000013ACA544268D05C30BD058801332A44D9
:106C7000EFE7FF2030BD82688A4208D84388008849
:106C800000FB032081422CBF002001207047002020
:106C900070470023013A01600271437183717047AC
:106CA00010B5427983790479D31A34EA030308D002
:106CB0000368995443795A1C0379134043710120A6
:106CC00010BD002010BD837942790179D21A0A42A1
:106CD0001FBF0268D25C01330B401ABF837110469C
:106CE0004FF0FF307047FDF779BEFDF7C1BE036975
:106CF0001B6803B11847704703695B6803B1184705
:106D000070477047F7B50F46FDF734FF0388044618
:106D1000ADF80030BDF80060FDF7F6FEB3000233B9
:106D200083420FD802340025B5420BDA54F8040B25
:106D300001350190BDF80620BDF804103846FDF776
:106D400053FDF1E703B0F0BD43695B6803B1184739
:106D5000704713B504461A20FDF7DAFF014601A873
:106D600000F087F963691B6813B101A920469847B1
:106D700002B010BDFFF7B7BF831C0020023313F829
:106D8000042C1AB113F8032C1044F7E77047072BB3
:106D90002DE9F8430746884615461C4607DC1A4687
:106DA00029464046FDF7D4FD3870BDE8F8834FEA28
:106DB000E309AAB1002608EB060008222946FDF7E0
:106DC000C7FDB85501364E45F5D114F0070217D06E
:106DD000294608EB0600FDF7BBFDB855BDE8F88372
:106DE00018F805307B550135A945F9D114F0070293
:106DF00006D0002108EB0900FDF7AAFD07F80900FD
:106E0000BDE8F8832DE9F743FDF7B4FE0446022000
:106E1000FDF75CFE08B9002044E06078237803EBBE
:106E2000002080B2FDF7E0FD05460028F3D0FDF715
:106E3000A1FE8046287B10F0070318BF012303EB57
:106E4000D000FDF743FE0028E5D00026B146AC682F
:106E5000023414F8023C23B3192B14F8017C06F019
:106E6000070208EBE60109D901A83B46FFF78FFFAF
:106E700001A914F8020CFDF73FFF0FE03B4601A803
:106E8000ADF80490FFF783FF9DF805109DF80430DE
:106E900014F8020C43EA0121FDF720FF3E440234BE
:106EA000D7E7284603B0BDE8F083072B2DE9F04172
:106EB0000FDC1278C1F11001CB1A02FA03F3027849
:106EC000C3F307210A430270427813434370BDE8BD
:106ED000F081DF1089B304460026C1F1080CBE42E0
:106EE00004F1010411D0955D14F801EC05FA0CF5DC
:106EF000C5F3072848EA0E0E04F801EC94F800E008
:106F000001364EEA05052570E9E713F007032DD099
:106F1000925DC3F10805294442FA01F1C3F110035F
:106F2000C9B29940835DC1F3072213438419835585
:106F3000637819436170BDE8F081545C44540131B9
:106F40008F42FAD113F0070310D0D25DC3F10804C9
:106F50002241C3F1100302FA03F3C25DC3F3072415
:106F60002243C119C2554A7813434B70BDE8F081E2
:106F70002DE9F743047B054614F0070318BF0123EE
:106F800003EBD404A01CFDF727FE90B3FDF7B8FD7A
:106F9000AB880370AB881B0A4370FDF7B1FD871CFB
:106FA000224600213846FFF7ADFCAC6800250234CC
:106FB00014F8020CE0B1192814F8016C07EBE5088D
:106FC00005F0070904D9FDF7A3FE3346024608E0A1
:106FD000FDF78CFE33468DF80400000A8DF805009D
:106FE00001AA49464046FFF760FF35440234DFE717
:106FF000012003B0BDE8F083FDF7E2BC38B50D46D3
:10700000FDF7F2FC044620B185602846FDF7D2FC6E
:10701000207338BD10B5FDF78BFEFDF711FEFDF7AF
:10702000D1FBFFF7E9FFBDE810404FF4E1234FF437
:10703000F0524FF400710220FDF752BC0EF00F0029
:107040000D2808BF00F00EB800982DE9F04F00F1B0
:10705000240181F3098890E8F08F0EF00F000D28CD
:1070600018BF7047EFF3098020E9F04F0990BDE8A1
:10707000F08F0B880380704708B50222FFF79AFB58
:10708000B0FA80F0400908BD006800F1B601823016
:10709000FDF7FCBD036803EB4101B1F882007047C6
:1070A0002DE9F0410E4617460446002861D0006BDA
:1070B000FFF76BFD054668B10A216868FFF7EAFF34
:1070C00080460A20FDF712FE804505D02846FFF7CE
:1070D00095FDEFE7BDE8F081AB68002B49D0032EAA
:1070E00040D8DFE806F0021D0D4694F82820002065
:1070F0003A4484F8282084F829002246294634E0BE
:10710000002284F8292094F828203A44D2B284F846
:1071100028201B7A93421DD822462946022024E0CB
:1071200094F829203A44D2B2052A83BF002284F879
:10713000292094F8282084F8292084BF013284F87B
:10714000282094F828201B7A9A4203D32246294605
:1071500001200AE02046FDF77BFE6868BDE8F041AB
:10716000FFF792BF224629463046BDE8F041FDF7C1
:107170004BBFBDE8F08130B500284ED0037A022B1A
:107180002ED1C479437A057914B983B9012D0AE067
:1071900003B975B1032C0ED1032B03D1002D3AD1C5
:1071A000012019E0022B14BF0020012008E0204636
:1071B00006E0012005E0022CF4D1181C18BF0120C4
:1071C00005BB0CB1022C05D1023B012B8CBF002367
:1071D00001231BE0032C15D19C1E6342634115E083
:1071E0000378022B10D003792BB9437A13F00303F1
:1071F00018BF012300E00023C07910F0030018BF7E
:10720000012003E0002301E00020034601B10B60F0
:107210001AB1106030BD0020D2E730BD37B50D4641
:1072200000230B608B80437D0446D9075CBF01239C
:107230002B70037E012B0DD8C37D9A0708D0437EA7
:107240009B0705D0C28B838B9A4201D1012300E0BA
:107250000023237501AA694604F11000FFF78BFF94
:10726000009B0BB10223EB70019B0BB102236B70EF
:10727000E37D03F00303022B03D0032B0CBF082391
:107280000023AB70637E03F00303022B03D0032BB8
:107290000CBF082300232B7103B030BD02280CBFA4
:1072A000022308230B448B4205D013F8012DFF2A3B
:1072B000F9D0002070470120704707B56946FFF7F5
:1072C000ADFF9DF800009DF80130023018449DF894
:1072D00002309DF8032018449DF804301044034404
:1072E0009DF80500184403B05DF804FBF7B50446AB
:1072F0000D466946FFF792FF617CA37CC9001B0124
:1073000003F0100301F00801E27C1943237C5201D1
:1073100003F007030B4302F020021A43237D9B0175
:1073200003F0400313432B70637D627EA17D03F065
:10733000010343EA8213E27D490001F00201920059
:107340000B4302F00C021A43237E1B0103F03003AF
:1073500013436B709DF80030012B02BFA37E032006
:10736000AB709DF8013018BF0220022B08D1A28B10
:10737000431C2A54A28BDBB20230120AC0B2EA5478
:1073800001469DF80230E218A24205D012F8017DB4
:107390004E1C6F54F1B2F7E718449DF80330C0B2A9
:1073A000022B08D1E28B431C2A54E28BDBB2023061
:1073B000120AC0B2EA549DF804301844C0B2C21A8E
:1073C000D2B223B1013BE118097AA954F7E703B01F
:1073D000F0BD30B591B0FDF7CDFB0446FDF794FB51
:1073E0006A4601462046FDF757FE044610B94FF0A5
:1073F000FF303BE0FDF76AFB0028F8D09DF8101045
:107400001420FDF76BFC9DF81730ABB1BDF81C5094
:10741000FDF73CFE854205D04FF6FF73BDF81C20FA
:107420009A42E4D169469DF81700FFF737FF18B973
:1074300069461B20FDF760FC02A91A20FDF75CFCE1
:107440009DF812101320FDF749FC9DF8153013B973
:107450009DF81A1001E04FF6FF710A20FDF73EFC7F
:107460009DF81A100E20FDF739FC204611B030BDF2
:107470000120FDF7C7BE0020FDF7C4BE30B40D46A5
:107480000446114620B11A462846234630BC184708
:1074900030BC704700207047FDF7A6BF70B50446AA
:1074A0000D4652B150681668FDF788FC2946204603
:1074B000FDF7A0FF08B13246F3E770BDFDF79ABFB4
:1074C00070470120704710B50446FAF7E7FF2046E1
:1074D000FAF7F6FF0446FAF7EDFFE0B210BD08B583
:1074E0003D20FFF7F0FF00F0700008BD38B50446FE
:1074F0000D46FAF7D3FF14F43C5FE4B202D02F201C
:10750000FAF7DEFF2046FAF7DBFF2846FAF7D8FF46
:107510000446FAF7CFFFE0B238BD10B50446FAF7DB
:10752000BDFF14F43C5F04D0AF20FAF7C9FFE0B20E
:1075300002E064F07F00C0B2FAF7C2FF0020FAF761
:10754000BFFF0446FAF7B6FFE0B210BD38B50D46EE
:107550000446FAF7A3FFFF20FAF7B2FF2A462046B7
:107560000021FAF7BFFFBDE83840FAF7A3BF38B5EE
:107570000D460446FAF792FF7F20FAF7A1FF2A464C
:1075800021460020FAF7AEFFBDE83840FAF792BF77
:1075900010B50C46FEF78EFB20B92046BDE8104022
:1075A000FEF762BC10BD012070470000BC782000CF
:1075B000D92620003527200000000000010000002F
:1075C000010000000100000000C0004000410D402B
:1075D00000000000080000002C0000000000000176
:1075E000FFFFFFFF05000000020000000200000096
:1075F0000200000000D0004008410D4002000000E1
:10760000080000002C00000002010200FFFFFFFF45
:1076100006000000577920005B7920006A7920007D
:107620006E7920000080004010410D4004000000F1
:10763000030000000201020101010300009000406C
:1076400020410D4008000000070000000202040273
:107650000502060095792000916A2000896A2000C1
:107660008D6A2000A9792000CD6A2000C56A20001B
:10767000C96A2000056D2000036D2000536D2000B5
:10768000496D2000056E2000716F2000796D20008B
:10769000437A2000157020003D4A2000487A2000DF
:1076A000E54F20009D4E2000ED4D2000F94D2000BB
:1076B000054E2000114E20007774200071742000C8
:1076C000D37320004D7A200099742000BD742000EF
:1076D0009D74200029552000E953200011552000F9
:1076E000957420007D552000C55520008D55200043
:1076F000557A2000C17420003D56200031562000EC
:107700005D7A20006E772000D00000006606000041
:1077100047010000952B0D00400D030000210EA530
:10772000AF000000895F2000B55C2000695E20008A
:1077300091752000E55C2000F55B2000315A2000A7
:107740005D562000AD59200065592000715620007B
:10775000655B2000A7752000C3742000F440002062
:10776000000000004564200000000000000001004F
:10777000060004006E0005004E00060090000700A1
:107780004E000800E500090023000A0047000B0036
:107790000B000C0056000D0019000E00BA000F007F
:1077A000C800100084001100420012000500130000
:1077B000940014007A001500E1001600270017005D
:1077C000F1001B0011001C0090001D0000002000B3
:1077D000120026002400280020002E00FF00002FA9
:1077E0001800022F0300052F02000C2F56000D2F4A
:1077F000CC000E2FCC00102FEE00112F1000122FF6
:107800000400132F5000162F4000172F0E00192FC1
:1078100003001B2F33001C2FF7001D2F0F001F2FFD
:107820000000202F6E00212F1C00222FAC00272FDC
:10783000B5002F2F0500322F0E00362F0300436FA7
:107840006E74696B692D332E782D333133382D6783
:1078500064353962626366005A6F6C65727469617F
:107860002052452D4D6F7465207265766973696F7E
:107870006E204220706C6174666F726D0052696D8B
:107880006520636F6E6669677572656420776974D9
:107890006820616464726573732000253032783A21
:1078A00000253032780A00204E65743A2000204DC1
:1078B00041433A2000205244433A200042757474F8
:1078C0006F6E004343323533383A2049443A203012
:1078D000782530346C782C207265762E3A2050470B
:1078E00025642E25642C20466C6173683A20256C33
:1078F00075204B69422C205352414D3A20256C751E
:10790000204B69422C204145532F5348413A2025B2
:10791000752C204543432F5253413A2025750A5375
:10792000797374656D20636C6F636B3A20256C7599
:1079300020487A0A492F4F20636C6F636B3A2025E9
:107940006C7520487A0A526573657420636175739B
:10795000653A2025730A00504F52004578746572CD
:107960006E616C2072657365740057445400434C1B
:1079700044206F7220736F66747761726520726540
:107980007365740063633235333820524620647265
:1079900069766572004F6E2D436869702054656D7D
:1079A00070657261747572650056444433003031FD
:1079B0003233343536373839414243444546003056
:1079C0003132333435363738396162636465660085
:1079D0003078003058002D002B00286E756C6C2913
:1079E00000250020202020202020202020202020D2
:1079F00020202030303030303030303030303030B7
:107A00003030304374696D65722070726F636573D6
:107A100073004576656E742074696D6572005365F8
:107A20007269616C206472697665720053656E7369
:107A30006F72730000001A1000000080C0E0F0F8C0
:107A4000FCFEFF52696D650043534D41006E756C3D
:107A50006C726463006E756C6C73656300383032F1
:107A60002E31352E3467203836332D3837304D4897
:107A70007A204D522D46534B206D6F646520233183
:107A80000052463A205258204649464F20657272AD
:107A90006F72210052463A205458204649464F20E2
:107AA0006572726F72210052463A2054696D656F9B
:107AB000757420657863656564656420696E206C03
:107AC000696E65202564210A0052463A204173738D
:107AD000657274696F6E206661696C656420696E99
