:020000040020DA
:10200000785600208D222000536320005163200069
:102010005163200051632000516320000000000044
:10202000000000000000000000000000F569200032
:102030005163200000000000136A2000B5632000F7
:10204000C7632000CD632000D3632000D963200044
:1020500000000000BB632000C1632000516320002A
:10206000516320000000000000000000000000009C
:10207000000000000000000051632000000000008C
:1020800000000000000000005163200051632000A8
:1020900051632000516320005163200051632000F0
:1020A00051632000516320005163200051632000E0
:1020B00051632000516320005163200051632000D0
:1020C00051632000516320005163200051632000C0
:1020D000516320000000000000000000000000002C
:1020E00000000000000000000000000000000000F0
:1020F00000000000000000002938200039382000CE
:1021000000000000000000000000000000000000CF
:1021100000000000000000000000000000000000BF
:1021200000000000000000000000000000000000AF
:10213000000000000000000000000000000000009F
:10214000000000000000000000000000000000008F
:10215000000000000000000000000000000000007F
:10216000000000000000000000000000000000006F
:10217000000000000000000000000000000000005F
:10218000000000000000000000000000000000004F
:10219000000000000000000000000000000000003F
:1021A000000000000000000000000000000000002F
:1021B000000000000000000000000000000000001F
:1021C000000000000000000000000000000000000F
:1021D00000000000000000000000000000000000FF
:1021E00000000000000000000000000000000000EF
:1021F00000000000000000000000000000000000DF
:1022000000000000000000000000000000000000CE
:1022100000000000000000000000000000000000BE
:1022200000000000000000000000000000000000AE
:10223000000000000000000000000000000000009E
:10224000000000000000000000000000000000008E
:10225000000000000000000000000000000000007E
:10226000000000000000000000000000000000006E
:10227000516320000D37200031372000AD2D2000A4
:10228000A9392000CD2820005163200008B5094B52
:10229000FF221A600848094A4824E369121A0849CB
:1022A00098470848084AA369121A0021984700F085
:1022B0000DF8FEE7B4200D4040400020F84000201B
:1022C00004732000F8400020754E002073B500F024
:1022D0004DFC00F007FD00F063FC00F061FA01F036
:1022E00051FB04F00FF900F0F5FC00F0B3F8012009
:1022F00004F032F802F008F900F024FC002000F0AD
:102300003FFB012000F03CFB4049002000F004FCB2
:1023100002F040FA62B6042004F01EF83C4804F0D3
:102320007FF83C4804F07CF800F0DCF9002002F073
:1023300053FA01F011FA0021374802F071F901F067
:102340004FFF04F035F800F055FD00F071FD02F08C
:1023500085FC0821684601F03BFB9DF807309DF89D
:1023600006502E4C43EA0525BDF806302C48238044
:1023700001F068FB2B4E21782B4801F063FB61785C
:102380002A4801F05FFBF46A4AF6CD310220A047EB
:1023900029460320A0471A210120A04708226946A8
:1023A000736B0B209847224801F04CFB214B1868B7
:1023B00004F036F8204801F045FB204B186804F083
:1023C0002FF81F4801F03EFB1E4B186804F028F858
:1023D00000211D4802F024F91C4B01219B6881203B
:1023E000984704F076F81A4804F069F800F0B0FB5A
:1023F000022003F0B1FF00F0B1FB02F09DF810F0F5
:10240000FF0FF8D101F052FAF5E700BF5147200065
:102410006E7020008870200078400020304E002030
:10242000AD702000786F2000CB702000D1702000AC
:10243000D7702000EC6F2000DE702000F86F2000C5
:10244000E57020002070200098400020906E200051
:102450005C70200008B500F0E5F8024B00221A700D
:1024600008BD00BFF24C0020024A137818431070D8
:1024700000F0FCB8F24C0020034A137823EA000075
:10248000107000F0F3B800BFF24C0020024A13783D
:102490005840107000F0EAB8F24C002020B101283A
:1024A00005D1044B18787047034B1868704700201B
:1024B000704700BFF34C002020900D4010B5094A32
:1024C0000020137801331370074B197802F080F85D
:1024D000BDE8104005490023054A0968054801F098
:1024E000B5BE00BFF34C00206E4E002030410020EE
:1024F000BD24200008410020812808B52AD0B0F56D
:10250000807F39D0802839D101F0F6FF1C4B1D4A5D
:1025100018701368032123F00803136052F8203C5D
:10252000002023F0080342F8203C52F81C3C23F022
:10253000080342F81C3C52F8183C43F0080342F8E8
:10254000183C042200F0DCFB032200210E4800F0BE
:1025500079FB13E00D4B0E481A6829B142F00802CE
:102560001A600123036005E022F008021A600123CB
:10257000C0F88030084608BD064B1960012008BD30
:102580006E4E002020940D409925200010940D409F
:1025900000E100E03041002008B50F4803F0C0FF23
:1025A000C8B108210C4803F0AFFF0C4B196869B1A2
:1025B0000B4B00221A700B4B1B6823B90A4A0B48BD
:1025C00001F044FE02E0094801F04AFEBDE808407F
:1025D000074802F0ADB908BD284100203041002075
:1025E000F34C002020900D40BD2420000841002025
:1025F000906E2000084A136823F00403136052F819
:10260000203C43F0040342F8203C044B00221A60B3
:10261000034B01221A70704720C40D4010C00D40BA
:10262000F44C00200D4A0E49136823F0C0031360D8
:1026300052F8203C43F0C00342F8203C094B0022F2
:102640001A600B6823F010030B6051F8203C43F034
:10265000100341F8203C044B1A60704720A40D4041
:1026600020C40D4000A30D4040C00D4000F0020208
:1026700002F0FF010B4B12B1FF221A6000E019605B
:1026800000F0040202F0FF01074B12B1FF221A60B2
:1026900000E0196010F00100044B1ABFFF221A601D
:1026A0001860704700A20D4000A10D4040C00D40D1
:1026B000044B1868C0F30720030904BF1030C0B2F0
:1026C000704700BF1C300D40054B1868C0F3C210A6
:1026D00001289ABFC0F1020040034FF40040704748
:1026E00014300D402DE9F04788B0FFF7E1FF174B9C
:1026F00048251C68AB68074698476B688046984732
:102700000546FFF7E1FF064600F084FA814600F037
:102710008DFA824600F03AFAB60A04F00103AD0AD7
:10272000C4F3400406900393CDF814A0CDF81090A4
:1027300002940196009507F00F03C7F30712414674
:10274000034801F07FF908B0BDE8F0871C300D4068
:10275000F3702000F8B500F077F80F4B0024D3E9B0
:1027600000673A46B04238BF7A1C15460443C3E9B5
:102770000045DFF828E0DEE90001821B61EB07037A
:1027800012196B41CEE9002301F01EFE18B1BDE81D
:10279000F84001F09DBDF8BDF84000200041002048
:1027A0000D4B0E4AE0215A600D4A82F82310002298
:1027B00007219A6019600B490B6843F001030B6015
:1027C000094B1A60042243F80C2C012243F8082C10
:1027D0000F22DA62704700BF10E000E047E8010016
:1027E00000ED00E008200D400C000340034BD3E94E
:1027F0000023100A40EA0360704700BFF840002041
:10280000054B18601C3B1A6842F001021A601A68F6
:10281000D207FCD4704700BF2800034010B5064C17
:10282000236823F001032360FFF794FF236843F03C
:102830000103236010BD00BF10E000E0014B1868E9
:10284000704700BF34410020074B084A1968043321
:102850001B681268120442EA0323054A0B431068FE
:1028600043EA0060704700BF40500D4048500D40A3
:102870004C500D4010B50446104A1368DB07FCD5D8
:1028800072B6FFF7E1FF231A062BD8BFC41D0C4B0D
:10289000220E1A60C4F3074243F8042CC4F3072243
:1028A00043F8082CE2B243F80C2C62B6054B4FF407
:1028B00000321C60044B1A6110BD00BF50500D4027
:1028C0004C500D403441002000E100E008B500F01C
:1028D000D1FF074B00221A60064B4FF40032C3F8B9
:1028E0009021C3F89020BDE8084001F0CFBE00BFA2
:1028F0003441002000E100E0064B1B681B075FBF6E
:10290000054B186880F00800C0F3C00048BF0020E5
:10291000704700BF18C0004018D00040164A2C2352
:1029200003FB00234FF6BF7270B5DC680546236CCD
:1029300062649BB213F050020DD0104EA369DB0607
:1029400008D456F825301BB12068C0B29847F5E787
:102950002368F3E770BD13F4D06F0BD04FF44073CE
:102960002363FF236360E36AE262E362236B43F065
:102970000103236370BD00BFA06E2000384100201A
:1029800001282DE9F74F064600F2B6802C25454375
:102990005B4F7C1994F92080B8F1000FC0F2AC8035
:1029A00094F92290B9F1000FC0F2A680554800F0CA
:1029B000D7FF554A7B591168E5680B43136051688E
:1029C000636894F921A00B4353609168A3685FFA90
:1029D00089FB0B4393600023C5F8C83F23690AEBCA
:1029E000C8021A6094F92330227D00939DF80030CC
:1029F00058461946019300F08DF9019B08221946AB
:102A0000584600F07DF9414A4FEA0939009959F8D2
:102A10000200012303FA01F1014349F802104FEAD1
:102A2000083858F8020003FA0AF1014348F8021086
:102A30005021A963A96B94F9240041F4D061A963E2
:102A4000022169634FF440712963A169002869621A
:102A5000E169A9624FF07001E962154616DB94F94D
:102A60002510A2F5A64241EAC0041C3A14600403F2
:102A700062598B40134363510022C9B2C0B200F0C7
:102A80003FF9234A136843F4004313602C2303FBEC
:102A9000067393F92640002C1BDB93F927A05FFAFD
:102AA00084F85FFA8AF9012249464046240300F07F
:102AB00031F96259012303FA0AF3134363510822DF
:102AC0004946404600F01CF9114A136843F480431C
:102AD00013602C2303FB0676F268136B43F00103AB
:102AE000136396F828300122590903F01F0302FAF4
:102AF00003F3084A42F8213003B0BDE8F08F00BF6D
:102B0000A06E2000F928200028200D4020940D40C0
:102B100030D0004000E100E001289CBF014B43F8A9
:102B20002010704738410020012808D8044B2C227F
:102B300002FB0030C3689A699206FCD419607047A2
:102B4000A06E2000014B00221A60704700500D401B
:102B5000014B08221A60704700500D40024BA02222
:102B60001A6050221A60704700500D40014B024A13
:102B70009A60704700ED00E000202000024B1868CA
:102B8000C0F38150704700BF04200D4008B5FFF727
:102B9000F5FF024B53F8200008BD00BFF86E20007F
:102BA00038B5164D164C2B68012223F040032B60DC
:102BB0002368062123F040032360032000F0A0F8DF
:102BC0002B68012223F080032B602368072123F068
:102BD00080032360032000F093F80A4A0A4B0B4954
:102BE0001A600A680A4B1340084A002BF9D113688F
:102BF0005901FCD413685B01FCD538BD20C40D40DD
:102C000000C40D400101020000200D4004200D40D1
:102C100000000101034B04481B6803F0070318413F
:102C2000704700BF04200D400048E801034B0448F2
:102C30001B68C3F302231841704700BF04200D40F6
:102C40000048E801024B02EBC10243F82200704742
:102C500040410020F8B507460E46094D002405EB1B
:102C6000411547FA04F3DB07E1B204D555F82430E7
:102C70000BB1304698470134082CF2D1F8BD00BFA3
:102C8000404100202DE9F04780464FEA0837DFF841
:102C9000409007F1804505F5592500F0EBFDD5F88A
:102CA000186457F809304FEAC80A23FA0AF446EACA
:102CB0000400E4B24146C0B2F6B204FA0AF4FFF7E7
:102CC000C9FFC5F81C6447F80940BDE8F08700BF9C
:102CD00018970D4080220021014803F0EBBA00BF95
:102CE00040410020034A044B1A60044B803A1A60AA
:102CF000704700BF80400D40C4410020C04100200B
:102D0000034B01EBC0011B6843F82120704700BF53
:102D1000C4410020034B01EBC0011B6843F8212094
:102D2000704700BFC04100200E2870B50BD1154B75
:102D3000154E1C6844F002051D60356825F03F0300
:102D400043F001033360114E336823F0FF031A434D
:102D5000114301430E4A316013681B06FCD50D4B2D
:102D60000D4A1B6812680E2803F0FC0343EA022395
:102D700008BF054A1BB204BF1560024A184608BFC7
:102D8000146070BD34000144F486084008700D40A2
:102D900000700D400C700D4010700D40024B186813
:102DA000B0FA80F04009704700B7084010B5074BF3
:102DB0004FF40042064CC3F89021C3F890202068DD
:102DC00018B101F045FC0023236010BD00E100E0D4
:102DD000C8410020064A136843F002031360536899
:102DE00043F002035360936843F00203936070471B
:102DF00048200D4007B50C4800F0B2FDFFF7EAFF90
:102E00000A4B1A6842F002021A6000220192019AEB
:102E10000F2A02DC019A0132F8E71A6822F0020256
:102E20001A6003B05DF804FB9D2D200054200D4076
:102E3000064A136823F002031360536823F0020369
:102E40005360936823F002039360704748200D405D
:102E5000084B93F90020002A09DB074AED21116095
:102E60001160E32111601A7862F07F021A7001206C
:102E7000704700BFF84C0020388808400C4A13689F
:102E80009907FCD40A4B1B685B065FBF094BED2218
:102E90001A601A60084B1B6813B1064BEF221A60C8
:102EA000064A0120137803F07F031370704700BFB8
:102EB0004C860840388808402C860840F84C002092
:102EC00038B5A0F10B04E3B20F2B054613D80B4B1A
:102ED0001B6813F03F0302D0FFF7D0FF012304EB80
:102EE0008404074A0B3414600BB1FFF7B1FF054BA4
:102EF00068B21D7038BD4FF0FF3038BD48860840BD
:102F00003C860840F740002010B50B4B1B68990623
:102F100003D1FFF79DFF012300E0002307490A6862
:102F2000D207FCD5064A1468C4F300140BB1FFF7AE
:102F3000A5FF204610BD00BF4886084064860840B3
:102F40004C860840044B186800F02200A0F12003D2
:102F500058425841704700BF4C860840024B1868E1
:102F600000F04000704700BF4C86084038B50C4662
:102F7000002900F08880102800F28780DFE800F048
:102F8000090F1A1C23394254596F738585787A7C4E
:102F90007F003F4B1B68003318BF012370E03D4B9F
:102FA00005221B6803F07F030B3B93FBF2F30B330B
:102FB000DBB265E0384B00E0384B1A68043B1B6815
:102FC00043EA02235CE000230B60354B354A1B6863
:102FD00003F001030B601268900644BF43F0020344
:102FE0000B60314B1B78002B4BD00B6843F0040374
:102FF00046E02E4B00201B780860002B41D00123B7
:103000000B6038BD2A4B2B491A680023D2B201EB62
:10301000C3000079904203D8264A52F833302FE09B
:1030200001330E2BF3D127E0234B1B685BB2493BE6
:1030300026E0224B1B68990603D1FFF709FF012305
:1030400000E000231E490A68D207FCD51D4A156816
:10305000493D6DB20BB1FFF711FF256011E01A4B2E
:1030600093F900300CE0194B1B7803F07F0307E065
:103070000B2305E01A2303E06FF0170300E007239A
:103080002360002038BD022038BD012038BD00BFBC
:103090002C8608403C860840CC850840D4850840F2
:1030A0000086084024860840F74C0020F6400020A7
:1030B00040860840086F200058860840488608402F
:1030C0006486084060860840F64C0020F54C0020DD
:1030D00038B505460C46134A13689B07FCD4124BBF
:1030E00093F90030002B01DBFFF7B2FE0F4BEE220D
:1030F0001A60691E1A60A21C43F8102C2144022099
:1031000000F044FB013C0A4924012143022000F065
:103110004FFB022000F056FB022000F06BFB00206A
:1031200038BD00BF4C860840F84C00203888084065
:1031300002C001C0F8B5214B93F90030002B0DDB24
:10314000FFF782FB0546FFF783FE6FF00904641B5F
:10315000FFF77AFBC442FBD4012600E00026184B9F
:103160001B7823B9174D2B68990604D405E0FFF7A7
:10317000CBFE0028F6D10220F8BD134CE9232360D2
:1031800004272B689A0707D4013F17F0FF0703D0E5
:103190000620FFF735FBF4E72B689B0704D4EE23EA
:1031A00023602360012403E02C6814F00204FBD1A7
:1031B0000EB1FFF763FE2046F8BD00BFF84C0020BB
:1031C000F64000204C86084038880840214B187093
:1031D000002834D0204A13681B03FCD51F4B1A6803
:1031E00042F002021A601A6842F001021A601A687C
:1031F0001A495007FBD50A6822F001020A601968D3
:10320000164A4907FBD4116841F0020111601168A8
:1032100041F0010111601A685207FCD5104A136889
:1032200023F004031360D2F8A83123F00403C2F89A
:10323000A8310C4B4FF40052C3F890207047084A55
:10324000136843F004031360064B4FF400521A61F5
:10325000704700BFF74C002004200D400488084050
:103260008C86084000E100E010B50C46072861D8C4
:10327000DFE800F0040E181C233F455B012902D152
:10328000FFF7E6FD4BE0002958D1FFF7F7FD46E0D8
:10329000A1F10B030F2B51D8C8B2FFF711FE01307B
:1032A0003DD149E08CB2E2B2254B02E08CB2254B15
:1032B000E2B2240A1A605C6031E031F007033DD1CC
:1032C000214B11F0010F1A68C1F3800014BF42F0C6
:1032D000010222F001021A601C4B11F0020F1A6861
:1032E00014BF42F0200222F020021A60FFF76EFFA6
:1032F00015E031F0010021D1154B197010BD01F11D
:1033000018031F2B1AD813490D2351F83300DA0084
:10331000844206DC0F4B13441A790F4B1A600020CD
:1033200010BD13F1FF33F0D2F9E7CCB20B4B4934A7
:103330001C60F4E7012010BD032010BD022010BD69
:10334000C8850840D085084000860840248608408B
:10335000F6400020086F200040860840588608404C
:103360000B280DD1082A0DD161B1074B074A08314E
:1033700011F8010D43F8040F9342F9D10020704772
:103380000120704702207047A4850840C48508408A
:1033900070B52F4D2B6813F0400308D02D4E3368C5
:1033A000DCB21B0605D52C4BED221A601A600020FA
:1033B00070BD042CF7D9023C8C42F4DCE4B2032C3F
:1033C00021D001190139032000F0E8F9631E2349D7
:1033D0001B011943032000F0EBF9032000F0F2F980
:1033E000032000F007FA032000F010FA0028FAD1B9
:1033F00031681B4B493949B219703368194E1806A8
:103400003370D0D506E03368037033684370336897
:103410008370EDE789B2042001F044FD3178032088
:1034200001F07F0101F03EFD0F4B1B7873B92B6853
:103430005A060BD5064B1B681B0603D50B4801F03B
:1034400007F903E0044BED221A601A60204670BDB4
:103450004C860840288808403888084002C0010C83
:10346000F64C0020F54C0020F74C00205040002086
:10347000F8B5294F3D7815F001054BD1274B0124B4
:103480001C605C609C60A3F59323A3F51473F82281
:103490001A600922C3F89021152270331A6003F5CF
:1034A0009B230B2203F59E731A60A3F59B23A3F5C0
:1034B000F07340221A601A687F2642F020021A60D8
:1034C000D52243F81C5CDE62DA61154B1878FFF7F1
:1034D000F7FC144B4FF480421E60134B02201A611C
:1034E00000F07CF91149022000F058F9032000F0A7
:1034F00075F90E49032000F049F90D4B1878FFF7D4
:1035000065FE29460B4801F08BF83B7820462343A3
:103510003B70F8BD0020F8BDF84C0020A8200D40FD
:10352000F74000209486084000E100E02888084029
:10353000F74C00205040002038B503880446CBB13A
:1035400040F20342934203D000230380032038BD9E
:10355000194B18781A4628B11B7873B1174B1B7892
:1035600058060AD5822908D1137843B1134B1A782B
:10357000520614D440F203432380012038BD01F0E9
:1035800043FC01F0DBFB8021FFF702FF0028EDDDAB
:1035900080B201F093FB0A4B1B699847E6E70022D3
:1035A0001A70084B1D68FFF769FCFFF761FFAB0657
:1035B000E0D0FFF74DFCDDE7F74C0020F84C002091
:1035C00020702000488608400B282DE9F84F0E4651
:1035D00010D1082A40F0828000297FD0414B424A16
:1035E0004E1E53F8041D934206F8011FF9D1002026
:1035F000BDE8F88F0C286ED1042A6FD100296DD058
:103600003A4B3B481A68DFF8F8C022F007021A600C
:103610000268DFF8F0A042F008020260DAF8004029
:10362000DCF800101A68DFF8E0E022F07002314F99
:103630001A60DEF800203D68E4B2090244EA05643D
:1036400001F47F411204214302F47F020A432A4914
:103650000024D1F800805FFA88F544EA02081A686D
:10366000A94622F0070242F001021A60026842F005
:1036700008020260DAF80000DCF800201D68C0B221
:1036800025F0700545F010051D60DEF800303D683E
:10369000120240EA056002F47F421B04024303F475
:1036A0007F0313430A6844EA030A5FFA82FBFFF7C9
:1036B000CBF8B8EB0A0869EB0B094FEAC9310546AC
:1036C0000E4A00234FEAC83041EA584102F0BAFBE3
:1036D000281A30608BE70120BDE8F88F0220BDE892
:1036E000F88F00BFC8850840A885084010880840AA
:1036F00004880840208808401C8808400048E801E9
:1037000018880840148808402488084008B5054BEC
:103710001B7813B9044800F09BFF044B00221A6089
:1037200008BD00BFF74C00205040002034880840FE
:10373000064B07481A68042A1FBF06490A7842F058
:1037400040020A7000221A6000F082BF2C880840F4
:1037500050400020F84C002010B5094C40220021B8
:10376000204602F0A7FD074B01221A605C60064B61
:103770004FF480425A604FF400425A6010BD00BFBF
:103780000040002004F00F4000E100E003289EBF4D
:10379000014B0001195070470040002003289EBFD4
:1037A000024B03EB00104160704700BF0040002057
:1037B00003289EBF024B03EB00108160704700BFDF
:1037C00000400020032806D8034901220B6802FAB2
:1037D00000F018430860704728F00F40032806D80F
:1037E000034901220B6802FA00F018430860704791
:1037F00020F00F40032806D8034901220B6802FA83
:1038000000F018430860704714F00F4003289FBF72
:10381000044B03EB0010806800F0070088BF002015
:10382000704700BF00400020024B4FF0FF321A608B
:10383000704700BF04F50F40014B01221A6070472A
:103840004CF00F40094A1368084913F4801FFAD15D
:10385000074B1A6822F480321A600A68D203FCD43B
:103860001A6842F400321A60704700BF04200D400D
:1038700000200D4010B50B4B1A681C4612F0030FC8
:103880000ED009490B68084A13F0806FFAD113680B
:103890005B01FCD5FEF7C2FFFFF7D4FF00232360D6
:1038A00010BD00BF58200D4004200D4038B5264BF8
:1038B0001C6814F03F0413D1244D55F8243023B173
:1038C000984768B10134052CF7D1214D2B783BB1D5
:1038D000FEF7B4FF0446FEF7B7FF201A092801D807
:1038E00030BF38BD002CFBD01A4B1B481A6822F49D
:1038F00000321A600268184912F4801FFAD11A685F
:1039000042F480321A600B68DB03FCD5FEF79CFFA3
:10391000201A092803D8BDE83840FFF793BF632871
:103920000E4C02D92B78022B00D00123236000F02B
:1039300045FE20B1FFF786FF0023236038BDFEF768
:103940007DFF0028CCD1F5E748860840CC41002017
:10395000F94C002000200D4004200D4058200D405F
:103960000749002351F82320824207D01AB9044A9C
:1039700042F8230070470133052BF3D1704700BF95
:10398000CC410020054B00221A60054A136943F020
:1039900004031361034B02221A70704758200D4034
:1039A00000ED00E0F94C002010B5074B4FF48032D9
:1039B000064CC3F89021C3F89020206818B100F09D
:1039C00047FE0023236010BD00E100E0E04100203D
:1039D00030B5184B1A78431E22B101F5201127315A
:1039E000154A1FE0154A1278122AF6D1144A1278A5
:1039F0004B2AF2D14A0802F12814B4F1281F04D04E
:103A000014F8015D03F8015FF7E701F52011273194
:103A100000231044934204DA11F80149C4540133DD
:103A2000F8E730BD914204D011F8010903F8010F05
:103A3000F8E730BD2B002800270028002A002800C6
:103A4000290028000FB407B504AA52F8041B044843
:103A5000019200F021F803B05DF804EB04B0704768
:103A60006040002070B505460C46102C07D92B6825
:103A7000102208496868984750B9103CF5E734B1FE
:103A80002B68224668680349BDE870401847204605
:103A900070BD00BF137220002DE9F04F0646154699
:103AA0008FB006914FF0000B069B1B78CBB1069CA4
:103AB000274617F8013B1BB1252B14D03C46F7E7EE
:103AC000069BA3420DD0069B0699C3EB0408424611
:103AD000336870689847002840F01F832378C344F8
:103AE00023B9584634E3069BA342ECD16378002BFC
:103AF000F7D039460024084610F8013B0A462B2B24
:103B000011D006D8202B11D0232B12D144F0080459
:103B100016E02D2B04D0302B0BD144F010040FE015
:103B200044F001040CE044F0060409E044F002040F
:103B300006E0A3F13107082F11D84FF0000801E08B
:103B40000146D8E70A4611F8013BA3F130000928E5
:103B500013D80A2202FB0838A8F13008F2E72A2B12
:103B600009D12B680246002B05F10405B8BF44F0CB
:103B70000104984601E04FF0000813782E2B1AD16B
:103B80005178531CA1F1300009280ED8194600279E
:103B90000A780B46A2F13000092801F101010DD885
:103BA0000A2303FB0727303FF2E72A2904D12F68B5
:103BB000931C043502E013464FF0FF371A786C2A45
:103BC00009D15A786C2A02D144F080040AE001330A
:103BD00044F060040BE0682A09D15A78682A03D1BE
:103BE00044F02004023302E0013344F040041A7828
:103BF000642A3CD01FD8462A48D00DD8252A5AD04E
:103C000003D8002A3FF46DAF57E0412A4AD0452A35
:103C100053D144F4424450E0582A31D004D8472AC2
:103C20004BD144F4A13448E0612A38D0632A44D10E
:103C300044F4A06441E06E2A3AD007D8662A22D024
:103C400027D3672A28D0692A11D036E0732A2CD0CE
:103C500006D86F2A11D0702A2FD144F440742CE07A
:103C6000752A07D0782A28D144F4C85425E044F4B2
:103C7000245422E044F410641FE044F488541CE00F
:103C800044F4B24419E044F4007416E044F484446B
:103C900013E044F4024410E044F481340DE044F4B1
:103CA000C1340AE044F4E13407E044F4806404E001
:103CB00044F4E06401E044F4C0640133069304F486
:103CC000E063B3F5806F00F08F8113D8B3F5807F88
:103CD00027D0B3F5407F7FF4E7AEAE4B14F4804FAE
:103CE000AD4A18BF1A460DF1330328680021043588
:103CF0001F46B5E1B3F5C06F08D0B3F5E06F00F033
:103D00002282B3F5A06F7FF4CFAEF2E133680122D7
:103D1000A24970689847002840F0FF810BF1010B21
:103D2000C2E6002FACBF24F01004012714F40053A6
:103D3000079304F0E0032ED0402B12D005D8ABB18E
:103D4000202B21D195F900200DE0602B0ED0802B87
:103D50001AD1073525F0070303F10805D3E900233D
:103D600007E0B5F90020D317043502E02A680435CE
:103D7000D317002A73F1000108DA524263EB4303C0
:103D8000CDE90023012304E000220023CDE9002334
:103D90000023059329E0402B13D004D8BBB1202B7E
:103DA0001DD12A780EE0602B11D0802B17D107355A
:103DB00025F0070303F10805D3E90023CDE900232B
:103DC0000BE02A880023CDE90023043505E02B68A9
:103DD00000221946CDE900120435079BD9E70023DC
:103DE000059300220023CDE9002304F4C053B3F56A
:103DF000805F0CD0B3F5C05F33D0B3F5006F4FD107
:103E0000DDE900230DF13609CDE9022304E0DDE907
:103E100000230DF1360915E0DDE9022313433AD002
:103E2000DDE902010A22002302F00CF8DDE90201BB
:103E3000303209F8012D00230A2202F003F8CDE9FF
:103E40000201E9E752EA030125D002F0070130310F
:103E500009F8011DD10841EA4371D8080A46034612
:103E6000F0E74C4B14F4804F0DF136094A4918BF66
:103E70001946DDE9002352EA03000CD002F00F00DE
:103E8000085C4FEA131E09F8010D100940EA03709F
:103E900002467346EFE70DF13603C9EB030302E078
:103EA0000DF1360900230293029B41F60802BB4242
:103EB00038BFFF1A41F2080302EA040228BF0027B4
:103EC0009A4202D1002F08BF012741F60801029B48
:103ED0008A4203EB07000DD1DDE90023134309D02B
:103EE0002F4A304914F4804F4FF0020A0CBF0B46A2
:103EF000134602E04FF0000A5346079A9AB1059A1A
:103F000052B904F00602022A0AD0062A264A04BF41
:103F10004FF0010A134606E04FF0010A234B02E07E
:103F2000234B4FF0010A0AEB000290458CBFC2EB15
:103F300008084FF0000814F0010200920DD1E106CC
:103F400002D54744904608E0414630460593FFF7C6
:103F500089FD059B002840F0E080BAF1000F07D0F2
:103F60003468524619467068A047002840F0D58052
:103F7000029B03EB0B04BB46BBF1100F33681BD94C
:103F800010220C4970689847002840F0C680ABF1B9
:103F9000100BF1E7DE712000EF712000117220009C
:103FA00003722000007220000872200006722000B8
:103FB000E772200023722000BBF1000F06D05A46A2
:103FC000654970689847002840F0A7803368029AD6
:103FD0004946706854449847002840F09E80009BF2
:103FE0003C44002B39D032E0D5F800900435B9F1CB
:103FF000000F0AD0CA469AF800300AF101020BB14C
:104000009246F8E7C9EB0A0A03E0DFF850914FF057
:10401000060A002F02DBBA4528BFBA46D0458CBF3E
:10402000CAEB08084FF0000814F0010705D141461B
:104030003046FFF717FD00286FD1336852464946D6
:1040400070689847002868D10AEB0B042FB14146ED
:104050003046FFF707FD00285FD108EB040B23E58E
:1040600050EA010E0ED000F00F0E12F80EE04FEAEB
:10407000111C03F801ED4FEA101E4EEA017E704656
:104080006146EDE7FF1A02BF3022012703F8012C39
:1040900007F1030708BF03F1FF337822B84503F89F
:1040A000012C4FF0300203F8022C88BFC7EB080840
:1040B0004FF0230298BF4FF0000814F00104A3F161
:1040C000030903F8032C04D141463046FFF7CAFC2C
:1040D00018BB33683A46494670689847E8B95F4468
:1040E00024B141463046FFF7BDFCB0B908EB070BE1
:1040F000DAE4B8F1010F2B688CBF08F1FF384FF0FC
:10410000000814F0010405F104058DF8203008D1F1
:1041100041463046FFF7A6FC10B14FF0FF3017E0E4
:10412000C3443368012208A9706898470028F4D175
:1041300008F101072CB141463046FFF793FC0028F7
:10414000EBD1BB44B0E42B680435C3F800B0ABE45A
:104150000FB0BDE8F08F00BF237220000A7220006C
:10416000F8B50388064615462BB14A2B15D0002317
:1041700003800320F8BD174802F0E3F904462CB190
:10418000A168201D02F0A6F92468F8E7124B01226D
:104190001A704A2333800120F8BD8829FBD10D48CD
:1041A00002F0CFF90446002CF3D0231D9D420ED11E
:1041B0002146084802F0CFF9084B62691F681A606F
:1041C000A2691D460AB1E06990472F60E1E72468C3
:1041D000E9E700BFE4410020FA4C0020F041002054
:1041E00010B5064B002406481C7002F0A7F92146C2
:1041F000BDE81040034800F013BA00BFFA4C00209D
:10420000E44100206840002070B50446E3610B4B98
:10421000049D1B786561A26143B1094D094B2E686D
:10422000201D2B6002F056F92E6000E0A1602146AF
:10423000BDE87040044802F0A1B900BFFA4C00206C
:10424000F041002068400020E441002013B5034CF9
:1042500024680094FFF7D8FF02B010BDF0410020A1
:1042600010B5084B04461B781BB1043000F0B4F8BD
:1042700001E0C36003612146BDE81040024802F03E
:104280006AB900BFFA4C0020E441002010B50E4C82
:10429000236813B90D4A136010BDFEF7A7FA216811
:1042A00091E80C001A44131A8A6842B192E812008D
:1042B0002144091A8B4228BF0B469268F5E718443F
:1042C000024B186010BD00BFE8410020EC41002007
:1042D000014800F0BDB900BF784000202DE9F84347
:1042E0000388054633B1592B0BD0002303800320EC
:1042F000BDE8F883234A136059232B800120BDE8D1
:10430000F883872924D08229F6D11E4F4FF0000868
:10431000B9463C680026002CEED0204602F000F999
:1043200098B122468821E06800F052F958B9E0605F
:10433000A3680EB1B36001E0C9F80030C4F808808A
:10434000FFF7A4FFE5E7FFF7C3FF2646A468E2E70F
:104350000C4900200B681BB90028CDD00B60CBE7BF
:10436000DC68A24202D19B680120F4E700B10B6037
:1043700099680029C0D0C86882420ABF89680B4684
:104380009960F5E7E841002010B50446FFF7A0FF6B
:10439000E3680B4A4BB113683BB1A34203D1094A0E
:1043A0001268DA6007E09B68F6E7064B1B68E3607B
:1043B00013681460A360BDE81040FFF767BF00BF3B
:1043C000E8410020F0410020024B1868003018BF7F
:1043D00001207047E841002010B50B4A04461368DD
:1043E000834206D18368136008E09A68944203D040
:1043F0001346002BF9D103E0A2689A60FFF746FF4D
:104400000023A360E36010BDE841002038B5836855
:1044100004460D469BB10A4804600220A07304F1D3
:104420000C0098470238012801D9832D05D1214677
:104430002046BDE8384000F005B80123A37338BD1D
:10444000F04100202DE9F8431C4A044615688946CE
:104450002B4690461A4E3768A34204D00BB11B6816
:10446000FAE7BDE8F88334B3A37BABB10023A373B1
:1044700045B1A54204D022468721284602F03CF8E7
:104480002D68F5E7A3683BB14C4505D034602A465A
:10449000832104F10C009847D8F800309C4203D1E6
:1044A0002268064B05E0134623B11A689442FAD1FC
:1044B00022681A603760BDE8F88300BFF44100202D
:1044C000F0410020002370B51D46094A01261370F3
:1044D000084A146854B1E37B33B1A673E573002234
:1044E00082212046FFF792FF2468F3E770BD00BFEA
:1044F000FD4C0020F4410020024B1878421C1A7039
:10450000704700BFFE4C0020064B8A221A70064AF4
:1045100000231370054A1370054A1360054A13609F
:10452000704700BFFE4C0020FB4C0020FC4C0020DC
:10453000F4410020F04100202DE9F0411A4D2B7884
:104540000BB1FFF7BFFF194C22783AB3184E0C217C
:104550003378184F5943781817F8018001334768AA
:10456000806803F01F03013A3370227068B9124B60
:104570001E689EB12B780BB1FFF7A4FF30463A4678
:10458000414601F0B9FF3668F3E7B8F1810F04BF87
:10459000012383733A46414601F0AEFF2B78207821
:1045A0001844BDE8F08100BFFD4C0020FC4C002009
:1045B000FB4C0020F8410020F4410020024A034B4C
:1045C00010781B7818447047FC4C0020FD4C0020EC
:1045D000F0B50B4E3378202B0FD00A4C0C252478E5
:1045E000094F1C4404F01F046C4301333D19A860BB
:1045F00039556A6033700020F0BD0120F0BD00BF66
:10460000FC4C0020FB4C0020F841002038B5034C46
:10461000256801F071FF256038BD00BFF041002022
:1046200030B40A4C0A4625682B4683420CD00BB1A5
:104630001B68FAE740B10121056081732060838126
:10464000812130BCFFF7E2BF30BC7047F44100204D
:1046500038B1837B013B012B9FBF024A0123C37307
:1046600013707047FD4C0020024610B50648536099
:104670000468029B11609360026014B90846FEF75B
:10468000F9F8002010BD00BF7843002010B5084C99
:10469000206858B1002323608168436898472368E5
:1046A00023B1BDE810401868FEF7E4B810BD00BFA4
:1046B0007843002070B505880446672D09D0792D10
:1046C00030D0002D34D1FFF717FF1C4B18701C4B56
:1046D0001D601B4D2E461B4801F0D1FF431C01D12C
:1046E00067231DE00A28164A07D02B687E2BF2DCD0
:1046F0005A1C3260144AD054EDE713680025591C47
:104700001160114A2846D5540C4B1978FFF760FF09
:104710000E4B2A4685211868FFF75AFF20B97923E6
:10472000238009E0852907D1054B00221A60D0E7D4
:1047300000230380032070BD012070BD734E002054
:10474000844300207C430020804D0020F041002065
:104750000D2810B5014615D00B4C23782BB90B480A
:1047600001F07AFF48B9012306E00A2805D107487D
:1047700001F072FF08B1002323700548FFF768FFBE
:10478000012010BD002010BD7F4D00207C43002083
:104790008840002008B505490548802201F055FFF2
:1047A000BDE8084000210348FFF73ABFFF4C002056
:1047B0007C43002088400020054A136843F004032E
:1047C0001360044B1B68906943EA002080B2704775
:1047D00000700D4014700D4010B5184A136823F096
:1047E0000C031360164B01221A601A68012AFCD1CF
:1047F000144B08221A60E322C3F8142203F5057350
:104800001946114A1368DB07FCD5104C1020002311
:104810002268013802F0010243EA02034FEA43032F
:104820009BB2F5D1002BF1D0094A180A03F0FE0320
:1048300010601360EF230B6010BD00BF00700D40CF
:10484000A8200D4024860840648608409C860840C5
:1048500014700D402DE9F04106880546772E31D0C1
:104860007E2E40D0002E4ED12B4CFFF745FE266009
:1048700026462A4B2A4FDFF8B0801870236857F875
:1048800023204AB1002108F803109368802098473C
:10489000336801333360F1E7224A1370772320E055
:1048A000214AD256002A12DB1B4A136801331360D7
:1048B000194B1C4A1B6812789A42F1DC1B4B1B688F
:1048C000002BEBD0194A00231360134AEFE7144A78
:1048D000002052F82320114B1978FFF779FE30B9E8
:1048E0007E232B8014E00D4B1B788B4210D10A4B9A
:1048F0000D491A688B5C03F07F038B540B4A1368D5
:1049000001331360D0E7002303800320BDE8F0816A
:104910000120BDE8F08100BF88430020744E0020D4
:1049200040400020004E00206F4E00208C430020AD
:1049300010B40A4B0A491A780023934203DA51F85B
:104940002340A04208D107490748CA5C62F07F02B1
:10495000CA5410BCFFF77CBE0133EEE7004E0020C6
:10496000404000206F4E00209840002070B5054662
:104970000C46164600F00EF92E612046BDE8704048
:10498000014902F017B800BF64722000014801F02D
:10499000D5BD00BF90430020014B1860704700BF99
:1049A00094430020014801F0CCBD00BF904300209B
:1049B0002DE9F04106460B480C46174601F0C1FDB3
:1049C00070B18388A34208D185684DB13B46224629
:1049D0003146AC46BDE8F041604701F0EBFDEFE742
:1049E000BDE8F0819043002070B50B4C0023616E50
:1049F0000A4A04F13800FFF729FCFFF7DDFE616E7B
:104A00000023B0FBF1F5064A05FB110104F1180083
:104A1000BDE87040FFF71ABC98430020254A2000EB
:104A20003D4A2000044B5A6E196E52008A4294BFD0
:104A30005A665966FFF7D8BF9843002010B500F0BA
:104A4000E3F900F07BF9002303800446FFF7AAFF97
:104A500068B1037B5BB12388818804EB83025180BA
:104A6000C18801339180238001F0A4FDF0E7208804
:104A70008000023080B200F021F9238823B1BDE824
:104A80001040024800F03AB810BD00BF9843002023
:104A90009DF80030012B04D1024B9A6D5A66FFF746
:104AA000A3BF704798430020F8B50F4616461D4631
:104AB000064C0146064A204600F00EF8A765E6655A
:104AC00025660448BDE8F840FFF766BF984300201C
:104AD000D06F2000914A200070B505460C4616465E
:104AE000044AFFF743FF6E612046BDE8704002496B
:104AF00001F060BFD86F20006672200010B5044638
:104B000004491A2000F0DCF92046BDE8104001F00D
:104B1000C8BD00BF304E002010B54378047843EA8A
:104B20000420064B00FA01F19B5CC2F1080003EA85
:104B3000212141FA00F0C0B210BD00BF6A7220000E
:104B4000054B10B51B689847044618B181880120B1
:104B500000F0A8F9204610BDE06F200038B5064BE4
:104B600005465B6898470446A988012000F09AF939
:104B7000201C18BF012038BDE06F2000014B9B684E
:104B8000184700BFE06F2000014801F0D7BC00BF0C
:104B90000444002081800146014801F0EFBC00BFC1
:104BA000044400200146014801F0D5BC0444002023
:104BB00010B50446054801F0C4FC28B18388A3421F
:104BC00002D001F0F7FCF8E710BD00BF044400205C
:104BD000F8B506460A480D46174601F0B2FC0446F1
:104BE00038B1A3680BB128469847204601F0E2FC93
:104BF000F5E73A4629463046BDE8F84001F058BD91
:104C00000844002038B5FFF79BFF0546094801F02E
:104C100098FC044630B1636803B19847204601F020
:104C2000C9FCF6E725B12846BDE8384001F03BBD98
:104C300038BD00BF0844002010B50446FFF78EFFC2
:104C400038B100F057F8034B034821469B6898475A
:104C5000012010BD4C702000D14B2000084B10B536
:104C60001B689847074B5B689847074B5B689847FA
:104C7000064B5B689847BDE81040054B5B681847DA
:104C8000786F2000207020004C702000F86F20000A
:104C9000EC6F200010B507490B88834208DB064CF7
:104CA00080B222880244181A08802280012010BD98
:104CB000002010BDF8460020FA460020014B188065
:104CC000704700BFF8460020004870470C440020A1
:104CD000014B1888704700BFF8460020034A044B78
:104CE00010781B781844C0B2704700BF014E0020F6
:104CF000FA4600202DE9F0410C4B1A881D469AB166
:104D00000B4BDFF834801E880A4B00241F7821B239
:104D1000B14204F1010405DAFFF7E0FF41440B5C06
:104D2000CB55F4E700232B80BDE8F081FA46002044
:104D3000F8460020014E00200C44002008B5FFF783
:104D4000CDFF014B184408BD0C440020F8B50C4BB6
:104D500007461C780B4B1E88A519802D0CDC2246BB
:104D6000094901F031FAFFF7E9FF3C4401463246B8
:104D7000204601F029FA00E000252846F8BD00BFD2
:104D8000014E0020F84600200C44002008B5FFF733
:104D9000A5FF024B1B88184480B208BDF8460020CE
:104DA00010B50146FFF7F2FF4318802B10DC0138E5
:104DB000084B00B2002805DB1C5C1A18013854545B
:104DC00000B2F7E7044B01201A781144197010BDA6
:104DD000002010BD0C440020014E002038B53422C4
:104DE0000021064801F066FA054D002428190549FE
:104DF000023401F01AFE082CF8D138BD3A4E0020DA
:104E0000324E00206C702000044A00231380044AB4
:104E10001380044A1370FFF7E1BF00BFFA46002079
:104E2000F8460020014E002038B50C460546FFF735
:104E3000EBFF802C28BF802422462946034801F03E
:104E4000C3F9034B20461C8038BD00BF0C44002032
:104E5000F846002010B5074B03F1340253F8044B19
:104E6000934240F8044BF9D1034A13680B6053682E
:104E70004B6010BD3A4E0020324E002010B5074B5B
:104E800000F1340250F8044B904243F8044BF9D13E
:104E90000B68034A13604B68536010BD3A4E002004
:104EA000324E0020024B23F810100120704700BF43
:104EB0003A4E0020014B33F8100070473A4E002064
:104EC00008B5044B1A3803EB400001F0AEFD012099
:104ED00008BD00BF324E0020024B1A3803EB4000E1
:104EE000704700BF324E00200149024801F0A0BDCA
:104EF0006C702000344E002008B5044801F05DFBC2
:104F0000BDE80840024801F058BB00BFB440002093
:104F1000A840002038B50E4801F05FFB0446A8B158
:104F20000C4801F05AFB0546206028B92146084884
:104F300001F067FB284638BDFFF708FF05F1B60111
:104F4000A5F8800005F18200FFF784FF204638BDF8
:104F5000A8400020B440002010B501460446074890
:104F600001F065FB48B12168054801F04AFB214684
:104F7000BDE81040014801F044BB10BDA84000202E
:104F8000B440002010B501460446094801F04FFB2B
:104F900068B12468B4F880102046FFF745FF04F19B
:104FA000B60104F18200BDE81040FFF767BF10BDF5
:104FB000A8400020014BDB68184700BF4C70200060
:104FC000014B5B69184700BF20702000014B9B69B3
:104FD000184700BF20702000024BD86900B100477D
:104FE000704700BF2070200013B5044668B1006B05
:104FF00001F0A7FA024640B12146054B0548DB689F
:10500000019302B0BDE81040184702B010BD00BFC8
:1050100020702000756A200070B590F829400123A7
:10502000032C88BF042403FA04F40C4B0546DB6907
:105030009847002808BF0120013C444305D0FFF7F2
:10504000BBFBB0FBF4F303FB14042B46214605F134
:105050000800034ABDE87040FFF7F8B82070200050
:10506000E94F20002DE9F04107461B208846FFF755
:1050700033FF484B05461A78474C22B901221A7073
:10508000FFF79AFB2080238813B9434B01221A8033
:1050900021880A204B1C2380FFF704FF3F4801F0C2
:1050A00050FA044640B12946201D01F0C1FCD8B990
:1050B000204601F07FFAF4E7394801F08EFA044601
:1050C00040B32946201D01F0B0FC002304F12C0060
:1050D000206384F8283084F82930E36201F02EFA46
:1050E00021462E4801F04AFA206B01F05CFA0728AD
:1050F00010DC2C4801F071FA054698B9206B01F0DC
:1051000052FA38B92146254801F025FA21462448AB
:1051100001F077FA41463846BDE8F0410123042208
:1051200001F096BE204801F058FAA86058B3FFF786
:10513000F1FE686018B30920AE68FFF7BBFE10B936
:105140000823337203E00920FFF7B4FE307286E8CB
:1051500080010D20FFF7AEFE01282946206B02D109
:1051600001F019FA01E001F009FA206B01F0E9F908
:1051700085420DD12046BDE8F041FFF74DBFA9683B
:10518000094801F03EFA2946064801F03AFAB5E727
:10519000BDE8F0811A4E0020EC4C00200C450020A8
:1051A000D8400020CC400020C040002008B5054871
:1051B00001F003FA044801F000FABDE80840034892
:1051C00001F0FBB9CC400020C0400020D8400020B6
:1051D0002DE9F0470D4614468B68804693E8C000E1
:1051E000106B92F8289001F0B6F96868FFF7B4FEEA
:1051F000A968144801F005FA2946134801F001FA9C
:10520000206B01F09EF940B1002384F8283084F827
:1052100029302046FFF700FF0BE004F10800FFF7FC
:105220001FF82146094801F096F92146084801F087
:10523000E8F94B46424639463046BDE8F04701F0B2
:1052400007BE00BFC0400020CC4000200C4500201D
:10525000D8400020014B1888704700BFF440002060
:105260002DE9F041012986B006460F46144640F369
:10527000A780037803F007028DF80C20C3F3C00267
:105280008DF80D20C3F300128DF80E20C3F34012E9
:10529000C3F380138DF8103043788DF80F20C3F3DB
:1052A00040028DF81220C3F3810203F001058DF84E
:1052B0001320C3F301129B098DF815308DF81420CB
:1052C0008DF8115003AB03CB1B88206161612383F0
:1052D0000DB1B51C02E0B378F51CA37602AA01A9B2
:1052E00003A801F032FC9DF81380B8F1000F23D021
:1052F000029B23B16A7815F8023B03EB0223B8F155
:10530000020FA38309D13049204601F08EFB6B7850
:10531000237015F8023B637014E0B8F1030F11D14C
:1053200005F108021346611E13F8010DAB4201F8A6
:10533000010FF9D1154605E02349204601F075FB20
:10534000A4F81C809DF81580B8F1000F2BD0019BAC
:1053500053B16A7815F8023B03EB0223029A9BB221
:10536000E3831AB9A38301E0A38BE383B8F1020FAF
:105370000AD1154904F1080001F057FB6B7823723C
:1053800015F8023B637215E0B8F1030F12D105F175
:1053900008021346E11D13F8010D9D4201F8010FAB
:1053A000F9D1154606E0084904F1080001F03DFB7B
:1053B000A4F81E80A81B3B1A8742E363A56300DAAA
:1053C000002006B0BDE8F0816C70200030B591B0CF
:1053D0000546FFF73FFF4FF6FF73984202D14FF0AB
:1053E000FF3081E040220021684600F063FF3F4B20
:1053F0001A782AB901221A70FFF7DEF93C4B1870AF
:105400001420FFF757FD8DF810001320FFF752FD11
:105410008DF81200FFF768FD044628B100238DF8CF
:1054200013308DF8153006E00B20FFF743FD8DF8A3
:1054300015408DF81300002301248DF814308DF8E9
:105440001840ADB10A20FFF735FD28B10A20FFF75B
:1054500031FD8DF81A000BE0254B1A7802B91C704B
:1054600019780A204A1C1A708DF81A10FFF71AFDD5
:1054700002248DF81940FFF7EDFEADF81C00FFF790
:1054800033FD38B1FF238DF817408DF800308DF8CB
:10549000013008E01B20FFF71FFD0146684601F0C0
:1054A000C4FA8DF81740FFF7D5FEADF81E001A209C
:1054B000FFF712FD014602A801F0B7FAFFF73EFC24
:1054C0000E90FFF705FC0F90684601F0E0FB0446E4
:1054D0004DB1FFF765FC002881D0FFF7F5FB0146D1
:1054E000684601F0EDFB204611B030BD264E00208D
:1054F000254E00202DE9F041FDF778F90446114FC3
:1055000000254FF00C0808FB05761A20FFF7E4FC95
:10551000314601F08DFA88B10A20FFF7CBFC337ACF
:10552000834202D00020BDE8F0817068201AB0F5F7
:10553000206F8CBF00200120BDE8F0810135102DC7
:10554000E1D1EFE7D845002070B5184E00241A20AD
:10555000FFF7C2FC0C2101FB046101F069FA134D55
:10556000631C10B9102B1C46F1D1013B0C2202FB2D
:105570000352A2F10C0643B1344603CC10605160D3
:105580002068013B90603246F3E70A20FFF792FC67
:105590002872FDF72BF968601A20FFF79DFCBDE823
:1055A00070400146014801F040BA00BFD8450020D4
:1055B0000A4B13B500241C70094B1C80FDF744F9FD
:1055C000009400F58051074B01220748FFF74CF883
:1055D000064B01221A7002B010BD00BF284E0020F9
:1055E000EE4C00209D5A2000A04600202E4E0020A8
:1055F000074B82B01B784BB1064B1A7832B90122A7
:105600001A70054B1B6A019302B0184702B070472D
:105610002E4E0020284E0020786F2000094B82B0CB
:105620001B786BB1084B1A7852B1084A127802F015
:10563000FF012AB91970064B5B6A019302B0184743
:1056400002B070472E4E0020284E00202A4E002027
:10565000786F200008B5FFF7E1FF024B00221A60C7
:1056600008BD00BF9C460020044B1B7823B9044BA7
:105670001B680BB9FFF7D2BF704700BF294E00204F
:105680009C460020094B00221A70094BC2B21A70C6
:1056900082B0084A084B18B1012111701B6A01E061
:1056A0005B6A1070019302B0184700BF2E4E0020B5
:1056B0002A4E0020284E0020786F200037B50B4B73
:1056C0001A7802F0FF056AB901241C70084B1D709E
:1056D000FDF7BAF8009500F58051064B22460648C2
:1056E000FEF7C2FF012003B030BD00BF2E4E0020E8
:1056F0002A4E00209D5A2000A046002037B50A4BB4
:1057000005461B780C466BB1FDF79EF8231A022B59
:1057100048BF841C002300930122044B21462846E5
:10572000FEF7A2FF03B030BD2E4E00209D5A200090
:1057300013B5234B1A681C460AB9FFF76FFFFFF732
:10574000C7FA032839D0FFF721FB002835D01D4BBD
:105750009B689847002830DBFFF7BAFA68B3FFF779
:1057600015FB50B31B20FFF7B7FB174901F060F999
:1057700068B11320FFF79EFB206068B1FFF738FF88
:105780000023124A04211248FEF760FD09E0FFF7EA
:10579000ABFB0028EDD110E0FFF740FF0C48FEF70F
:1057A0005FFDFFF7A7FE40B9FFF7CEFE094BDB68B0
:1057B000019302B0BDE81040184702B010BD00BF11
:1057C0009C46002040702000304E0020555620009E
:1057D000AC460020F86F20002DE9F04F734E89B0E1
:1057E0003378039023B9724B1B780BB90524D9E0A9
:1057F000FFF7CCFA0028F9D06E491A20FFF760FBBA
:10580000FFF772FB04460C20FFF754FB90B1FFF743
:10581000BDFA8146684D4FF001086F68FFF754FAF2
:105820004946B847654FAB6987F8008001939847B0
:1058300070B909E001210B20FFF734FB604B5B6876
:1058400098470028E3DAD1E7EB690293984710B153
:1058500000233B7063E0FFF7E1FE337886F80080B9
:105860005FFA83FA039B6BBB4FF00608FCF7ECFF73
:105870000490FFF7BDFE04986FF0030BC0EB0B0B19
:10588000FCF7E2FF1BEB000FFAD46B6998478346E5
:1058900040B9FFF7C3FE87F800B0FFF7BFFE86F8F8
:1058A00000A03CE0FFF7BAFEFCF7CEFF6FF00F0B55
:1058B000C0EB0B0BFCF7C8FF1BEB000FFAD4B8F1E1
:1058C0000108D3D10CB9FFF793FE0A20FFF7F2FAD3
:1058D000C3B20493FDF742F9FCF7B6FFDFF8E480AA
:1058E000DFF8E4B0C0EB0808C0EB0B0BFCF7ACFF33
:1058F00018EB000F09D5FDF731F994B9039B83B17B
:10590000FCF7A2FF1BEB000F0BD40025A846FFF706
:1059100085FE002386F800A03B70002D3CD00124BA
:1059200040E0AB6848469847FCF78EFF6FF00C03E9
:105930001B1A0593FCF788FF059BC342F9D4002C82
:10594000D4D1019B984730B1FCF77EFF6FF014086B
:10595000C0EB080808E0029B98470028F4D16B6967
:1059600098470028F0D0C1E7FCF76EFF18EB000F56
:10597000FAD42B69032107A89847032808D19DF87A
:105980001E30049A934203D100254FF00108BEE770
:1059900001254FF00008BAE71CB9984508BF02245A
:1059A00000E02C46204609B0BDE8F08F2E4E0020C6
:1059B0002A4E0020304E0020786F2000294E002013
:1059C00040702000B0EFFFFFDEFDFFFF2DE9F04744
:1059D000074688461546002A58D02D4B1B682BB128
:1059E0005068FFF7CFFA01231A4621E01646DFF888
:1059F000A890304600F0DEFD04467068FFF7C2FA5A
:105A00000C20FFF757FA00BB1CB101211320FFF750
:105A100049FA20491A20FFF753FA01210B20FFF71A
:105A200041FAD9F804309847002807DA0123052203
:105A300041463846BDE8F04701F00ABA01210C2082
:105A4000FFF730FA706801F001F82646002CD0D13B
:105A5000284600F0AFFD06466868FFF793FA13206A
:105A6000FFF728FA81462046FFF7B6FE03280446D2
:105A70000CD0024601234146384601F0E9F92CB921
:105A800026B135460124B9F1000FE1D1BDE8F08718
:105A90009C460020304E00204070200040F2B112A1
:105AA0002DE9F3476B4C80462388934218D0B3F519
:105AB000D97F07D2002B40F0BC80FCF7C5FE664BB7
:105AC000186008E040F2E312934235D040F202221F
:105AD000934240F0AE80614A00231370604A02E0B6
:105AE0005F4A1378013313705D4B1B78012B16D876
:105AF0005C4B1A78002A40F0A3805B4A1268002AA7
:105B000040F09E801B780BB9FFF772FD574B5B6925
:105B10009847002840F09280504B01221A704F4B5A
:105B20001B78002B71D0FCF78FFE514B514A186047
:105B300000231370504A13704A4BDFF848911B78CA
:105B4000002B4BD199F80030002B47D0FCF77CFE9E
:105B5000474B1A686FF4CC739B1AC3423ED5434D32
:105B6000444F6B69984718B13B7801333B7000E0B4
:105B70003870414ED5F818A0337801333370D047D0
:105B800008B100233B703B78052B02D9FFF76CFD71
:105B900024E033780A2B05D9D04718B9EB69984728
:105BA0000028F3D0EB699847C0B9344B1B7893B108
:105BB000D8F80050FCF748FE05F114062D1A15F12F
:105BC000120F48BF861C0023009301222C4B314644
:105BD0004046FEF749FD40F2E3132BE099F8003010
:105BE0009BB1224DAB69984748B1FCF72DFE204B85
:105BF0001A686FF4CC739B1AC34204D505E0EB69B5
:105C000098470028F1D1FFF72FFD134D2B6803F5BE
:105C100080532B60FCF718FE2B68C3F1A003C3422E
:105C20007FF559AF29684046FFF768FD40F202232F
:105C300000E00023238002B0BDE8F087FFF714FDE9
:105C4000FCF702FE00F110014046FFF757FD40F25D
:105C5000B113EFE7EE4C0020984600202C4E0020B8
:105C6000274E0020294E00209C460020786F2000FF
:105C7000CC4600202D4E00202B4E00202E4E002022
:105C80009D5A2000284E002008B5024B1B689847FB
:105C9000023008BD1470200038B50C4B9B68984743
:105CA000041E02DA4FF0FF3038BDFFF747F80378E3
:105CB0000546002BF6D10220FEF7ECFF0028F1D0BC
:105CC0006878FEF7FBFFA01C38BD00BF14702000F1
:105CD00070B50220FFF764F810B94FF0FF3070BDC7
:105CE000FEF7F2FF002505700446FEF7F1FF607035
:105CF000FFF74CF80446FFF7C7FF20442A2812DCC0
:105D0000C0F12B00C4B2FFF719F80646FEF7E0FF1A
:105D100022462946304400F0CDFAFEF7D9FF204450
:105D200080B2FEF7CBFF044B5B689847041ED4DBC0
:105D3000FEF7E0FFA01C70BD14702000014B9B68B3
:105D4000184700BFEC6F200070B504460D461420C4
:105D50000121FFF7A7F8034B29462046BDE8704014
:105D60009B681847F86F2000832938B505460C4614
:105D700002D11A4800F0DAFC2B882BB1512B15D038
:105D800000232B80032038BD154A1648138000F0ED
:105D900047FB81211148144AFEF79EFE80211348DB
:105DA00000F098FB51232B80012038BD882CF9D1BD
:105DB0000B4C0120FCF76AFB21880D48FDF742FEE1
:105DC00002212046FFF730F80448FEF797FE074807
:105DD00000F089FB238801332380E3E7E0460020BD
:105DE000F04C00209072200064702000D04600200B
:105DF000AB72200073B502200C46FCF747FBFEF7A0
:105E000067FF267805466478FEF798FF03883246D8
:105E10002946009309482346FDF714FE0420FFF7A6
:105E200049F804460320FFF745F80246044861B2EA
:105E300002B0BDE87040FDF705BE00BFBD72200096
:105E4000E972200053B94AB9002908BF00281CBFD5
:105E50004FF0FF314FF0FF3000F082B9ADF1080C88
:105E60006DE904CE00F006F8DDF804E0DDE9022378
:105E700004B070472DE9F04F8C460C460546099E4C
:105E8000002B4FD18A4217466BD9B2FA82FEBEF17F
:105E9000000F0BD0CEF1200520FA05F501FA0EF324
:105EA00045EA030C02FA0EF700FA0EF5390CBCFBBA
:105EB000F1F0BAB201FB10C300FB02F84FEA154C37
:105EC0004CEA0344A04509D9E41900F1FF3380F0FE
:105ED0002881A04540F2258102383C44C8EB0404E7
:105EE000B4FBF1F301FB134C03FB02F2ACB244EA46
:105EF0000C418A4209D9C91903F1FF3480F00F819E
:105F00008A4240F20C81023B39448A1A43EA00403B
:105F10000021002E63D022FA0EF2002386E80C0046
:105F2000BDE8F08F8B4207D9002E56D0002186E8BD
:105F300011000846BDE8F08FB3FA83F1002940F064
:105F40009380A34202D3824200F2FE80851A64EB62
:105F500003039C460120002E41D086E82010BDE8B6
:105F6000F08F12B90127B7FBF2F7B7FA87FEBEF13F
:105F7000000F36D1E41B4FEA17481FFA87F90121B9
:105F8000B4FBF8F308FB134409FB03F24FEA154C8A
:105F90004CEA0444A24207D9E41903F1FF3002D2CB
:105FA000A24200F2D3800346A41AB4FBF8F008FB27
:105FB000104809FB00F9ACB244EA0842914507D900
:105FC000D21900F1FF3402D2914500F2BA80204686
:105FD000C9EB020240EA03409BE731463046BDE888
:105FE000F08F07FA0EF7CEF1200C24FA0CF34FEAEB
:105FF0001748B3FBF8FA1FFA87F908FB1A3520FA9D
:106000000CFC04FA0EF40AFB09FB4CEA040C4FEA00
:106010001C4242EA05439B4500FA0EF50AD9DB19FA
:106020000AF1FF3280F08B809B4540F28880AAF114
:10603000020A3B44CBEB0303B3FBF8F008FB10333D
:1060400000FB09F41FFA8CFC4CEA03439C4207D97D
:10605000DB1900F1FF326ED29C426CD902383B440E
:106060001C1B40EA0A418BE7C1F1200E8B4022FA4B
:106070000EFC4CEA030C24FA0EF74FEA1C49B7FB5E
:10608000F9FA1FFA8CF309FB1A7720FA0EF88C4004
:106090000AFB03F548EA04044FEA144848EA0747B4
:1060A000BD4202FA01F200FA01FB09D917EB0C0715
:1060B0000AF1FF3041D2BD423FD9AAF1020A67443A
:1060C0007F1BB7FBF9F509FB157705FB03F3A4B2BA
:1060D00044EA0747BB4208D917EB0C0705F1FF302C
:1060E00027D2BB4225D9023D674445EA0A40A0FBBE
:1060F0000289FF1A4F4545464C4614D329D066B352
:10610000BBEB050367EB040707FA0EFECB40CF405D
:106110004EEA030386E888000021BDE8F08F23469D
:10612000F3E61846DAE6B8EB020569EB0C04013831
:10613000E5E70546D9E7104692E78246C0E7924672
:1061400078E702383A4443E7084604E7023B3C4418
:106150002AE7C345E7D33C46D1E73146BDE8F08F97
:10616000704700BF032A70B426D940EA01039B0799
:1061700011D004780D78AC4222D10244431C05E0D2
:1061800013F8014B11F8015FAC4219D19342F7D1DA
:10619000002070BC70470C4603461E6825681846F0
:1061A000AE42214603F1040304F10404E1D1043AB0
:1061B000032A18462146F0D8002ADAD11046E8E72B
:1061C000601B70BC704700BF844641EA000313F0B7
:1061D000030349D1403A23D30B6803604B68436003
:1061E0008B688360CB68C3600B6903614B69436153
:1061F0008B698361CB69C3610B6A03624B6A43623B
:106200008B6A8362CB6AC3620B6B03634B6B436322
:106210008B6B8363CB6BC36340304031403ADBD23E
:1062200030320BD30B6803604B6843608B6883602C
:10623000CB68C36010301031103AF3D20C3205D362
:1062400051F8043B40F8043B043AF9D2043208D038
:10625000D2071CBF11F8013B00F8013B01D30B88AA
:1062600003806046704700BF082A13D38B07B1D064
:1062700010F00303AED0C3F10403D21ADB071CBF36
:1062800011F8013B00F8013BA4D331F8023B20F8A0
:10629000023B9FE7043AD9D3013A11F8013B00F8D9
:1062A000013BF9D20B7803704B7843708B78837085
:1062B0006046704770B4840746D0541E002A41D00F
:1062C000CDB2034602E0621EE4B3144603F8015B5C
:1062D0009A07F8D1032C2ED9CDB245EA05250F2C0B
:1062E00045EA054519D9264603F11002103E0F2E46
:1062F00042F8105C42F80C5C42F8085C42F8045C1E
:1063000002F11002F2D8A4F1100222F00F0204F000
:106310000F041032032C13440DD91E462246043AB2
:10632000032A46F8045BFAD8221F22F00302043243
:10633000134404F003042CB1C9B21C4403F8011B3C
:10634000A342FBD170BC704714460346C2E700BFAE
:10635000FEE708B5FBF79AFFF7B500240646254689
:1063600027463046FCF780F80197019B9D4204DDEB
:1063700000BF019B01330193F7E73046FCF77CF83F
:10638000C5F5C8750197019B9D4204DD00BF019BC7
:1063900001330193F7E70134B4F5487F06D0B4F533
:1063A000C87FCCBFC4F548752546DAE703B0F0BD19
:1063B000FCF720B9FCF7CEB970470020FCF7AEBA65
:1063C0000120FCF7ABBA0020FCF75CBC0120FCF715
:1063D00059BC0220FCF756BC0320FCF753BC10B597
:1063E0000C46FCF775FE2046BDE81040FCF7A2BE47
:1063F00010B50446C1B20020FCF796FB204610BD44
:1064000070B5054604464618601B44B1237833B185
:10641000B44204D018460134FFF7EAFFF4E770BD38
:1064200038B50546002415F8010B20B1FFF7E0FF51
:106430000134002DF7D10A20FFF7DAFF204638BDDE
:10644000002070470120704710B50446302200211B
:106450000E20FCF769FC84B1012C0CD142F21073C0
:106460000011A0F28E5058432A2390FBF3F000F560
:10647000C340283010BD4FF0004010BD00207047D1
:106480000120704710B50446302200210F20FCF790
:106490004BFC5CB1012C07D140F6F253584347F650
:1064A000F07390FBF3F010BD4FF0004010BD08B545
:1064B000084612B11146FFF7A3FF002008BD10B532
:1064C000041F54F8040F18B10021FEF7A9F8F8E7EB
:1064D00010BD704710B5044600F016F82046BDE820
:1064E0001040FDF751BF10B5044600F014F82046E7
:1064F000BDE81040FDF748BF837BDB0701D5FDF702
:1065000085BF7047FFF758BF10B541600446FCF7E0
:106510006DF9206010BD90E80C00134403607047D3
:1065200010B50446FCF762F92368C3F10103034484
:106530006068834294BF0020012010BD00230360E7
:10654000704700687047006800B9704703680BB176
:106550001846FBE77047036810B573B100249942F1
:106560001A6806D10CB9026000E0226000221A60AD
:1065700010BD1C460AB11346F1E710BD38B50546FB
:10658000FFF7E9FF00230B60FFF7DDFF08B9296083
:1065900038BD016038BD38B50446FFF7DCFF03683D
:1065A0000B60216038BD0368002013B101301B6807
:1065B000FBE7704700B10068704710B50446428899
:1065C00000214068FFF776FE23886288A0685A435E
:1065D000BDE810400021FFF76DBE10B541880023D3
:1065E0008B420CDA4268D418D25C32B90122227094
:1065F0000288806803FB020010BD0133F0E7002031
:1066000010BD30B5826844880023A3420DDA8A4267
:1066100007D14168CA5C0AB1013ACA544268D05CE9
:1066200030BD058801332A44EFE7FF2030BD826882
:106630008A4208D84388008800FB032081422CBF8F
:10664000002001207047002070470023013A0160BC
:10665000027143718371704710B54279837904796F
:10666000D31A34EA030308D00368995443795A1CB7
:10667000037913404371012010BD002010BD8379C0
:1066800042790179D21A0A421FBF0268D25C0133F3
:106690000B401ABF837110464FF0FF307047FEF772
:1066A00081BAFEF7C9BA03691B6803B1184770477E
:1066B00003695B6803B1184770477047F7B50F4629
:1066C000FEF73CFB03880446ADF80030BDF80060DF
:1066D000FEF7FEFAB300023383420FD802340025DE
:1066E000B5420BDA54F8040B01350190BDF80620D1
:1066F000BDF804103846FEF75BF9F1E703B0F0BDD2
:1067000043695B6803B11847704713B504461A2004
:10671000FEF7E2FB014601A800F087F963691B68F8
:1067200013B101A92046984702B010BDFFF7B7BFCB
:10673000831C0020023313F8042C1AB113F8032C25
:106740001044F7E77047072B2DE9F84307468846C2
:1067500015461C4607DC1A4629464046FEF7DCF97A
:106760003870BDE8F8834FEAE309AAB1002608EBC8
:10677000060008222946FEF7CFF9B85501364E45E6
:10678000F5D114F0070217D0294608EB0600FEF7F2
:10679000C3F9B855BDE8F88318F805307B550135C5
:1067A000A945F9D114F0070206D0002108EB090031
:1067B000FEF7B2F907F80900BDE8F8832DE9F743C1
:1067C000FEF7BCFA04460220FEF764FA08B900207E
:1067D00044E06078237803EB002080B2FEF7E8F90C
:1067E00005460028F3D0FEF7A9FA8046287B10F072
:1067F000070318BF012303EBD000FEF74BFA002874
:10680000E5D00026B146AC68023414F8023C23B34C
:10681000192B14F8017C06F0070208EBE60109D9F0
:1068200001A83B46FFF78FFF01A914F8020CFEF701
:1068300047FB0FE03B4601A8ADF80490FFF783FF4C
:106840009DF805109DF8043014F8020C43EA01216C
:10685000FEF728FB3E440234D7E7284603B0BDE8E4
:10686000F083072B2DE9F0410FDC1278C1F1100104
:10687000CB1A02FA03F30278C3F307210A4302702A
:10688000427813434370BDE8F081DF1089B30446BA
:106890000026C1F1080CBE4204F1010411D0955D3F
:1068A00014F801EC05FA0CF5C5F3072848EA0E0EBA
:1068B00004F801EC94F800E001364EEA0505257075
:1068C000E9E713F007032DD0925DC3F108052944D1
:1068D00042FA01F1C3F11003C9B29940835DC1F3DB
:1068E0000722134384198355637819436170BDE807
:1068F000F081545C445401318F42FAD113F0070304
:1069000010D0D25DC3F108042241C3F1100302FA92
:1069100003F3C25DC3F307242243C119C2554A7869
:1069200013434B70BDE8F0812DE9F743047B054626
:1069300014F0070318BF012303EBD404A01CFEF7D7
:106940002FFA90B3FEF7C0F9AB880370AB881B0A2F
:106950004370FEF7B9F9871C224600213846FFF73D
:10696000A9FCAC680025023414F8020CE0B1192827
:1069700014F8016C07EBE50805F0070904D9FEF7E8
:10698000ABFA3346024608E0FEF794FA33468DF838
:106990000400000A8DF8050001AA49464046FFF7A9
:1069A00060FF35440234DFE7012003B0BDE8F08327
:1069B000FEF7EAB838B50D46FEF7FAF8044620B1FE
:1069C00085602846FEF7DAF8207338BD10B5FEF76B
:1069D00093FAFEF719FAFDF7D9FFFFF7E9FFBDE8D3
:1069E00010404FF4E1234FF4F0524FF400710220B5
:1069F000FEF75AB80EF00F000D2808BF00F00EB8D1
:106A000000982DE9F04F00F1240181F3098890E806
:106A1000F08F0EF00F000D2818BF7047EFF30980BC
:106A200020E9F04F0990BDE8F08F0B880380704794
:106A300008B50222FFF796FBB0FA80F0400908BDC6
:106A4000006800F1B6018230FEF704BA10B50468A0
:106A500004F1B60104F18200FEF7FCF92046FEF7CE
:106A600075F9A4F8800010BD036803EB4101B1F88B
:106A7000820070472DE9F0410E4617460446002873
:106A800061D0006BFFF75DFD054668B10A216868BB
:106A9000FFF7EAFF80460A20FEF70CFA804505D092
:106AA0002846FFF787FDEFE7BDE8F081AB68002BD4
:106AB00049D0032E40D8DFE806F0021D0D4694F8B9
:106AC000282000203A4484F8282084F8290022460F
:106AD000294634E0002284F8292094F828203A44FA
:106AE000D2B284F828201B7A93421DD82246294628
:106AF000022024E094F829203A44D2B2052A83BF28
:106B0000002284F8292094F8282084F8292084BFC2
:106B1000013284F8282094F828201B7A9A4203D363
:106B20002246294601200AE02046FEF775FA6868E9
:106B3000BDE8F041FFF784BF224629463046BDE854
:106B4000F041FEF745BBBDE8F08130B500284ED0DE
:106B5000037A022B2ED1C479437A057914B983B90B
:106B6000012D0AE003B975B1032C0ED1032B03D11B
:106B7000002D3AD1012019E0022B14BF0020012082
:106B800008E0204606E0012005E0022CF4D1181CA4
:106B900018BF012005BB0CB1022C05D1023B012B13
:106BA0008CBF002301231BE0032C15D19C1E6342E4
:106BB000634115E00378022B10D003792BB9437A97
:106BC00013F0030318BF012300E00023C07910F085
:106BD000030018BF012003E0002301E0002003466A
:106BE00001B10B601AB1106030BD0020D2E730BD9A
:106BF00037B50D4600230B608B80437D0446D907D3
:106C00005CBF01232B70037E012B0DD8C37D9A0737
:106C100008D0437E9B0705D0C28B838B9A4201D15B
:106C2000012300E00023237501AA694604F1100046
:106C3000FFF78BFF009B0BB10223EB70019B0BB1A5
:106C400002236B70E37D03F00303022B03D0032BBD
:106C50000CBF08230023AB70637E03F00303022BF9
:106C600003D0032B0CBF082300232B7103B030BDCE
:106C700002280CBF022308230B448B4205D013F8D3
:106C8000012DFF2AF9D0002070470120704707B579
:106C90006946FFF7ADFF9DF800009DF80130023016
:106CA00018449DF802309DF8032018449DF80430E4
:106CB000104403449DF80500184403B05DF804FB3C
:106CC000F7B504460D466946FFF792FF617CA37C49
:106CD000C9001B0103F0100301F00801E27C194315
:106CE000237C520103F007030B4302F020021A43F6
:106CF000237D9B0103F0400313432B70637D627E71
:106D0000A17D03F0010343EA8213E27D490001F013
:106D1000020192000B4302F00C021A43237E1B0176
:106D200003F0300313436B709DF80030012B02BF5A
:106D3000A37E0320AB709DF8013018BF0220022B08
:106D400008D1A28B431C2A54A28BDBB20230120A58
:106D5000C0B2EA5401469DF80230E218A24205D0C2
:106D600012F8017D4E1C6F54F1B2F7E718449DF8FC
:106D70000330C0B2022B08D1E28B431C2A54E28BB1
:106D8000DBB20230120AC0B2EA549DF80430184453
:106D9000C0B2C21AD2B223B1013BE118097AA95498
:106DA000F7E703B0F0BD30B591B0FDF7C7FF04467B
:106DB000FDF78EFF6A4601462046FEF751FA04466B
:106DC00010B94FF0FF303BE0FDF764FF0028F8D02A
:106DD0009DF810101420FEF765F89DF81730ABB140
:106DE000BDF81C50FEF736FA854205D04FF6FF730A
:106DF000BDF81C209A42E4D169469DF81700FFF7C0
:106E000037FF18B969461B20FEF75AF802A91A2065
:106E1000FEF756F89DF812101320FEF743F89DF880
:106E2000153013B99DF81A1001E04FF6FF710A20D2
:106E3000FEF738F89DF81A100E20FEF733F82046BA
:106E400011B030BD0120FEF7C1BA0020FEF7BEBA76
:106E500030B40D460446114620B11A462846234652
:106E600030BC184730BC70471020704770B50446DE
:106E700000200D46FEF7B0FC0328024606D0294646
:106E80002046BDE870400123FFF7E2BF70BD7047A8
:106E9000EC7020009D242000F92420000000000058
:106EA00001000000010000000100000000C00040DF
:106EB00000410D4000000000080000002C00000010
:106EC00000000001FFFFFFFF0500000002000000BE
:106ED000020000000200000000D0004008410D4008
:106EE00002000000080000002C0000000201020067
:106EF000FFFFFFFF06000000877120008B7120005C
:106F00009A7120009E71200007000000FF00000021
:106F100005000000ED00000003000000D5000000A7
:106F200001000000C500000000000000B6000000E5
:106F3000FFFFFFFFB0000000FDFFFFFFA10000000A
:106F4000FBFFFFFF91000000F9FFFFFF880000003A
:106F5000F7FFFFFF72000000F5FFFFFF6200000077
:106F6000F3FFFFFF58000000F1FFFFFF42000000A9
:106F7000E8FFFFFF0000000071342000D130200046
:106F800035312000DF63200091332000092F2000DD
:106F9000452F20005D2F2000512E20007D2E200047
:106FA0006D2F200069322000C93520006133200098
:106FB000C571200049642000416420004564200020
:106FC000D9712000856420007D6420008164200048
:106FD000BD662000BB6620000B6720000167200013
:106FE000BD672000296920003167200073722000EE
:106FF000CD692000054C200078722000AD512000A2
:1070000065502000B54F2000C14F2000CD4F20001B
:10701000D94F20004B6E2000456E2000A76D200048
:107020007D722000B15520006D6E2000CD592000EA
:1070300031572000BD56200085562000696E200083
:10704000895C2000D15C2000995C200088722000BF
:107050008F6E2000495D20003D5D2000E44000204F
:1070600000000000F55D2000000000000000436FFC
:107070006E74696B692D332E782D333133382D675B
:1070800064353962626366005A6F6C657274696157
:107090002052452D4D6F7465207265766973696F56
:1070A0006E204220706C6174666F726D0052696D63
:1070B0006520636F6E6669677572656420776974B1
:1070C0006820616464726573732000253032783AF9
:1070D00000253032780A00204E65743A2000204D99
:1070E00041433A2000205244433A200042757474D0
:1070F0006F6E004343323533383A2049443A2030EA
:10710000782530346C782C207265762E3A205047E2
:1071100025642E25642C20466C6173683A20256C0A
:1071200075204B69422C205352414D3A20256C75F5
:10713000204B69422C204145532F5348413A20258A
:10714000752C204543432F5253413A2025750A534D
:10715000797374656D20636C6F636B3A20256C7571
:1071600020487A0A492F4F20636C6F636B3A2025C1
:107170006C7520487A0A5265736574206361757373
:10718000653A2025730A00504F52004578746572A5
:107190006E616C2072657365740057445400434CF3
:1071A00044206F7220736F66747761726520726518
:1071B000736574006363323533382052462064723D
:1071C00069766572004F6E2D436869702054656D55
:1071D00070657261747572650056444433003031D5
:1071E000323334353637383941424344454600302E
:1071F000313233343536373839616263646566005D
:107200003078003058002D002B00286E756C6C29EA
:1072100000250020202020202020202020202020A9
:10722000202020303030303030303030303030308E
:107230003030304374696D65722070726F636573AE
:1072400073004576656E742074696D6572005365D0
:107250007269616C206472697665720053656E7341
:107260006F72730000001A1000000080C0E0F0F898
:10727000FCFEFF52696D650043534D4100436F6E44
:1072800074696B694D4143006E756C6C7365630086
:10729000434332353338205246207465737420617D
:1072A00070706C69636174696F6E0042726F6164C3
:1072B00063617374202D2D3E2025750A002A2A2A29
:1072C000205265636569766564202575206279744E
:1072D00065732066726F6D2025753A25753A2027F3
:1072E0003078253034752720002564202D20257521
:1072F0000A005A6F756C2064656D6F2070726F6341
:04730000657373003E
:10730400C06F2000906E2000B06F200000000000CD
:1073140000000000B4712000393520000000000096
:10732400AF64200000000000000000003372200061
:1073340061412000000000000000000042722000B3
:10734400DD42200000000000000000004E7220001A
:10735400B546200000000000000000005C72200020
:107364005548200000000000040008000A4E0020D8
:107374008C440020BE000800024E0020FC46002081
:107384000C0008001B4E0020AC4400200C00080038
:10739400124E00201045002034000200234E00202D
:1073A4007045002000000000F2722000695D20009A
:0873B40000000000CDAB011A3E
:0873BC00B8EAFF7F01000000A8
:020000040027D3
:10FFD400FFFFFFF30000000000202000FFFFFFFFF1
:10FFE400FFFFFFFFFFFFFFFFFFFFFFFFFFFFFFFF1D
:0CFFF400FFFFFFFFFFFFFFFFFFFFFFFF0D
:040000050027FFD4FD
:00000001FF
