:020000040020DA
:10200000A07600208D22200033AF200031AF2000C9
:1020100031AF200031AF200031AF200000000000C0
:10202000000000000000000000000000E9C02000E7
:1020300031AF20000000000007C1200095AF200054
:10204000A7AF2000ADAF2000B3AF2000B9AF200094
:10205000000000009BAF2000A1AF200031AF2000A6
:1020600031AF200000000000000000000000000070
:10207000000000000000000031AF20000000000060
:10208000000000000000000031AF200031AF200050
:1020900031AF200031AF200031AF200031AF200040
:1020A00031AF200031AF200031AF200031AF200030
:1020B00031AF200031AF200031AF200031AF200020
:1020C00031AF200031AF200031AF200031AF200010
:1020D00031AF200000000000000000000000000000
:1020E00000000000000000000000000000000000F0
:1020F0000000000000000000653820007538200056
:1021000000000000000000000000000000000000CF
:1021100000000000000000000000000000000000BF
:1021200000000000000000000000000000000000AF
:10213000000000000000000000000000000000009F
:10214000000000000000000000000000000000008F
:10215000000000000000000000000000000000007F
:10216000000000000000000000000000000000006F
:10217000000000000000000000000000000000005F
:10218000000000000000000000000000000000004F
:10219000000000000000000000000000000000003F
:1021A000000000000000000000000000000000002F
:1021B000000000000000000000000000000000001F
:1021C000000000000000000000000000000000000F
:1021D00000000000000000000000000000000000FF
:1021E00000000000000000000000000000000000EF
:1021F00000000000000000000000000000000000DF
:1022000000000000000000000000000000000000CE
:1022100000000000000000000000000000000000BE
:1022200000000000000000000000000000000000AE
:10223000000000000000000000000000000000009E
:10224000000000000000000000000000000000008E
:10225000000000000000000000000000000000007E
:10226000000000000000000000000000000000006E
:1022700031AF2000493720006D372000E92D2000C4
:10228000E53920000929200031AF200008B5094BAD
:10229000FF221A600848094A4824E369121A0849CB
:1022A00098470848084AA369121A0021984700F085
:1022B0000DF8FEE7B4200D40404000200142002010
:1022C00054CB2000084200209B6E0020F7B500F0A0
:1022D0006BFC00F025FD00F081FC00F075FA01F0C8
:1022E0006FFB08F010FF00F013FD00F0C7F80120AD
:1022F00008F022FE02F05EF900F042FC002000F03F
:102300005DFB012000F05AFB4849002000F022FC50
:1023100002F0A6FA62B6042008F00EFE444808F067
:102320006FFE444808F06CFE00F0F0F9002002F067
:10233000B9FA01F02FFA00213F4802F0C7F901F085
:102340006DFF08F025FE00F073FD00F08FFD07F033
:1023500057FA0821684601F059FB9DF807309DF8AF
:102360000670364C43EA07276B4603CB206061605A
:10237000334801F085FB0025615D3248013501F0ED
:102380007FFB072D2D4EF7D12F4DF1792F4801F00E
:1023900077FBEC6A4AF6CD310220A047394603208C
:1023A000A0471A210120A047694608226B6B0B2029
:1023B0009847274801F064FB264B186808F020FE78
:1023C000254801F05DFB254B186808F019FE2448EC
:1023D00001F056FB234B186808F012FE224A3368BE
:1023E00013607368536007F045FB00211F4802F03B
:1023F0006DF900211E4802F069F91E4B01219B680E
:102400008120984708F055FE1B4808F048FE00F070
:10241000BDFB022008F090FD00F0BEFB02F0E2F8E8
:1024200010F0FF0FF8D101F05FFAF5E71D4820002A
:102430001CC8200036C8200078400020936E002081
:102440005BC8200079C8200058C720007FC8200042
:1024500085C82000B0C720008CC82000BCC7200061
:1024600093C82000E4C72000046300201C41002022
:102470009840002070C6200014C8200008B500F065
:10248000E5F8024B00221A7008BD00BFF25600208A
:10249000024A13781843107000F0FCB8F25600207E
:1024A000034A137823EA0000107000F0F3B800BF6D
:1024B000F2560020024A13785840107000F0EAB833
:1024C000F256002020B1012805D1044B187870473E
:1024D000034B186870470020704700BFF356002078
:1024E00020900D4010B5094A002013780133137075
:1024F000074B197802F0C2F8BDE8104005490023E7
:10250000054A0968054801F0BFBE00BFF356002028
:102510008A6E002040420020E5242000184200205E
:10252000812808B52AD0B0F5807F39D0802839D1EC
:1025300002F038F81C4B1D4A18701368032123F071
:102540000803136052F8203C002023F0080342F8EF
:10255000203C52F81C3C23F0080342F81C3C52F883
:10256000183C43F0080342F8183C042200F0E6FB54
:10257000032200210E4800F083FB13E00D4B0E48B0
:102580001A6829B142F008021A600123036005E0CD
:1025900022F008021A600123C0F88030084608BD06
:1025A000064B1960012008BD8A6E002020940D4062
:1025B000C125200010940D4000E100E040420020C1
:1025C00008B50F4808F0BAFDC8B108210C4808F05A
:1025D000A3FD0C4B196869B10B4B00221A700B4B11
:1025E0001B6823B90A4A0B4801F04EFE02E0094875
:1025F00001F08CFEBDE80840074802F0FFB908BDB5
:102600003842002040420020F356002020900D4028
:10261000E52420001842002070C62000084A1368F4
:1026200023F00403136052F8203C43F0040342F803
:10263000203C044B00221A60034B01221A707047A1
:1026400020C40D4010C00D40F45600200D4A0E4924
:10265000136823F0C003136052F8203C43F0C0031A
:1026600042F8203C094B00221A600B6823F010034B
:102670000B6051F8203C43F0100341F8203C044B20
:102680001A60704720A40D4020C40D4000A30D40E7
:1026900040C00D4000F0020202F0FF010B4B12B1EE
:1026A000FF221A6000E0196000F0040202F0FF014E
:1026B000074B12B1FF221A6000E0196010F0010010
:1026C000044B1ABFFF221A601860704700A20D4029
:1026D00000A10D4040C00D40044B1868C0F3072016
:1026E000030904BF1030C0B2704700BF1C300D405A
:1026F000054B1868C0F3C21001289ABFC0F1020050
:1027000040034FF40040704714300D402DE9F0476E
:1027100088B0FFF7E1FF174B48251C68AB680746F8
:1027200098476B68804698470546FFF7E1FF0646E5
:1027300000F08EFA814600F097FA824600F044FAE3
:10274000B60A04F00103AD0AC4F3400406900393F3
:10275000CDF814A0CDF8109002940196009507F0E2
:102760000F03C7F307124146034801F089F908B087
:10277000BDE8F0871C300D40A1C82000F8B500F07E
:1027800081F80F4B0024D3E900673A46B04238BFC6
:102790007A1C15460443C3E90045DFF828E0DEE96A
:1027A0000001821B61EB070312196B41CEE9002384
:1027B00001F060FE18B1BDE8F84001F0DFBDF8BDE2
:1027C00008420020104200200D4B0E4AE0215A60C2
:1027D0000D4A82F82310002207219A6019600B49E4
:1027E0000B6843F001030B60094B1A60042243F8A5
:1027F0000C2C012243F8082C0F22DA62704700BF2C
:1028000010E000E047E8010000ED00E008200D4086
:102810000C000340034BD3E90023100A40EA036095
:10282000704700BF08420020034BD3E90023D00BC0
:1028300040EA4340704700BF10420020054B18603B
:102840001C3B1A6842F001021A601A68D207FCD4D5
:10285000704700BF2800034010B5064C236823F0E2
:1028600001032360FFF78AFF236843F0010323601D
:1028700010BD00BF10E000E0014B1868704700BFBA
:1028800044420020074B084A196804331B68126849
:10289000120442EA0323054A0B43106843EA00602E
:1028A000704700BF40500D4048500D404C500D4007
:1028B00010B50446104A1368DB07FCD572B6FFF763
:1028C000E1FF231A062BD8BFC41D0C4B220E1A6041
:1028D000C4F3074243F8042CC4F3072243F8082C3E
:1028E000E2B243F80C2C62B6054B4FF400321C6088
:1028F000044B1A6110BD00BF50500D404C500D40AC
:102900004442002000E100E008B500F0D1FF074B91
:1029100000221A60064B4FF40032C3F89021C3F82E
:102920009020BDE8084001F007BF00BF44420020EE
:1029300000E100E0064B1B681B075FBF054B1868F2
:1029400080F00800C0F3C00048BF0020704700BFFF
:1029500018C0004018D00040164A2C2303FB002367
:102960004FF6BF7270B5DC680546236C62649BB29B
:1029700013F050020DD0104EA369DB0608D456F8B0
:1029800025301BB12068C0B29847F5E72368F3E70C
:1029900070BD13F4D06F0BD04FF440732363FF234B
:1029A0006360E36AE262E362236B43F00103236343
:1029B00070BD00BF80C620004842002001282DE9DC
:1029C000F74F064600F2B6802C2545435B4F7C1935
:1029D00094F92080B8F1000FC0F2AC8094F92290F5
:1029E000B9F1000FC0F2A680554800F0D7FF554A54
:1029F0007B591168E5680B4313605168636894F96B
:102A000021A00B4353609168A3685FFA89FB0B43D5
:102A100093600023C5F8C83F23690AEBC8021A6017
:102A200094F92330227D00939DF8003058461946D2
:102A3000019300F08DF9019B08221946584600F0D9
:102A40007DF9414A4FEA0939009959F802000123FA
:102A500003FA01F1014349F802104FEA083858F827
:102A6000020003FA0AF1014348F802105021A96359
:102A7000A96B94F9240041F4D061A9630221696330
:102A80004FF440712963A16900286962E169A96274
:102A90004FF07001E962154616DB94F92510A2F596
:102AA000A64241EAC0041C3A1460040362598B40F8
:102AB000134363510022C9B2C0B200F03FF9234A68
:102AC000136843F4004313602C2303FB067393F94C
:102AD0002640002C1BDB93F927A05FFA84F85FFAED
:102AE0008AF9012249464046240300F031F962592F
:102AF000012303FA0AF3134363510822494640466F
:102B000000F01CF9114A136843F4804313602C232E
:102B100003FB0676F268136B43F00103136396F828
:102B200028300122590903F01F0302FA03F3084A6F
:102B300042F8213003B0BDE8F08F00BF80C620000E
:102B40003529200028200D4020940D4030D0004031
:102B500000E100E001289CBF014B43F820107047C2
:102B600048420020012808D8044B2C2202FB0030E8
:102B7000C3689A699206FCD41960704780C6200029
:102B8000014B00221A60704700500D40014B082293
:102B90001A60704700500D40024BA0221A6050226C
:102BA0001A60704700500D40014B024A9A6070470E
:102BB00000ED00E000202000024B1868C0F38150B7
:102BC000704700BF04200D4008B5FFF7F5FF024B2A
:102BD00053F8200008BD00BFD8C6200038B5164DF8
:102BE000164C2B68012223F040032B60236806213A
:102BF00023F040032360032000F0A0F82B6801229B
:102C000023F080032B602368072123F080032360D7
:102C1000032000F093F80A4A0A4B0B491A600A682D
:102C20000A4B1340084A002BF9D113685901FCD410
:102C300013685B01FCD538BD20C40D4000C40D40B5
:102C40000101020000200D4004200D4000000101A0
:102C5000034B04481B6803F007031841704700BF8B
:102C600004200D400048E801034B04481B68C3F3EF
:102C700002231841704700BF04200D400048E801BE
:102C8000024B02EBC10243F8220070475042002081
:102C9000F8B507460E46094D002405EB411547FAE5
:102CA00004F3DB07E1B204D555F824300BB130460C
:102CB00098470134082CF2D1F8BD00BF50420020E3
:102CC0002DE9F04780464FEA0837DFF8409007F1DA
:102CD000804505F5592500F0EBFDD5F8186457F847
:102CE00009304FEAC80A23FA0AF446EA0400E4B2BB
:102CF0004146C0B2F6B204FA0AF4FFF7C9FFC5F8BC
:102D00001C6447F80940BDE8F08700BF18970D40E4
:102D100080220021014808F0BDB800BF50420020C9
:102D2000034A044B1A60044B803A1A60704700BF94
:102D300080400D40D4420020D0420020034B01EBE4
:102D4000C0011B6843F82120704700BFD442002017
:102D5000034B01EBC0011B6843F82120704700BF03
:102D6000D04200200E2870B50BD1154B154E1C68B3
:102D700044F002051D60356825F03F0343F0010370
:102D80003360114E336823F0FF031A4311430143AC
:102D90000E4A316013681B06FCD50D4B0D4A1B68AB
:102DA00012680E2803F0FC0343EA022308BF054A19
:102DB0001BB204BF1560024A184608BF146070BDFC
:102DC00034000144F486084008700D4000700D4046
:102DD0000C700D4010700D40024B1868B0FA80F076
:102DE0004009704700B7084010B5074B4FF4004248
:102DF000064CC3F89021C3F89020206818B101F068
:102E00007DFC0023236010BD00E100E0D8420020DB
:102E1000064A136843F002031360536843F0020349
:102E20005360936843F002039360704748200D405D
:102E300007B50C4800F0B2FDFFF7EAFF0A4B1A682D
:102E400042F002021A6000220192019A0F2A02DC6B
:102E5000019A0132F8E71A6822F002021A6003B000
:102E60005DF804FBD92D200054200D40064A13685C
:102E700023F002031360536823F002035360936846
:102E800023F002039360704748200D40084B93F9EC
:102E90000020002A09DB074AED2111601160E321BF
:102EA00011601A7862F07F021A700120704700BF2B
:102EB000F8560020388808400C4A13689907FCD45B
:102EC0000A4B1B685B065FBF094BED221A601A6054
:102ED000084B1B6813B1064BEF221A60064A01200B
:102EE000137803F07F031370704700BF4C860840CF
:102EF000388808402C860840F856002038B5A0F1E4
:102F00000B04E3B20F2B054613D80B4B1B6813F0D1
:102F10003F0302D0FFF7D0FF012304EB8404074AEC
:102F20000B3414600BB1FFF7B1FF054B68B21D7095
:102F300038BD4FF0FF3038BD488608403C86084019
:102F4000FF41002010B50B4B1B68990603D1FFF71A
:102F50009DFF012300E0002307490A68D207FCD542
:102F6000064A1468C4F300140BB1FFF7A5FF20460E
:102F700010BD00BF48860840648608404C86084063
:102F8000044B186800F02200A0F120035842584179
:102F9000704700BF4C860840024B186800F04000A4
:102FA000704700BF4C86084038B50C46002900F039
:102FB0008880102800F28780DFE800F0090F1A1CD3
:102FC00023394254596F738585787A7C7F003F4B53
:102FD0001B68003318BF012370E03D4B05221B68BE
:102FE00003F07F030B3B93FBF2F30B33DBB265E0A3
:102FF000384B00E0384B1A68043B1B6843EA022355
:103000005CE000230B60354B354A1B6803F001037D
:103010000B601268900644BF43F002030B60314B13
:103020001B78002B4BD00B6843F0040346E02E4B7B
:1030300000201B780860002B41D001230B6038BDB5
:103040002A4B2B491A680023D2B201EBC300007946
:10305000904203D8264A52F833302FE001330E2B2A
:10306000F3D127E0234B1B685BB2493B26E0224BA0
:103070001B68990603D1FFF709FF012300E0002335
:103080001E490A68D207FCD51D4A1568493D6DB234
:103090000BB1FFF711FF256011E01A4B93F90030D7
:1030A0000CE0194B1B7803F07F0307E00B2305E0CE
:1030B0001A2303E06FF0170300E0072323600020CA
:1030C00038BD022038BD012038BD00BF2C86084025
:1030D0003C860840CC850840D485084000860840DE
:1030E00024860840F7560020FE4100204086084014
:1030F000E8C6200058860840488608406486084094
:1031000060860840F6560020F556002038B5054682
:103110000C46134A13689B07FCD4124B93F90030FA
:10312000002B01DBFFF7B2FE0F4BEE221A60691E87
:103130001A60A21C43F8102C2144022000F044FB2A
:10314000013C0A4924012143022000F04FFB0220E8
:1031500000F056FB022000F06BFB002038BD00BFE2
:103160004C860840F85600203888084002C001C04C
:10317000F8B5214B93F90030002B0DDBFFF782FBF4
:103180000546FFF783FE6FF00904641BFFF77AFB27
:10319000C442FBD4012600E00026184B1B7823B95B
:1031A000174D2B68990604D405E0FFF7CBFE0028E5
:1031B000F6D10220F8BD134CE923236004272B68C5
:1031C0009A0707D4013F17F0FF0703D00620FFF747
:1031D00035FBF4E72B689B0704D4EE2323602360C0
:1031E000012403E02C6814F00204FBD10EB1FFF7B8
:1031F00063FE2046F8BD00BFF8560020FE410020C7
:103200004C86084038880840214B1870002834D07C
:10321000204A13681B03FCD51F4B1A6842F00202B8
:103220001A601A6842F001021A601A681A495007B7
:10323000FBD50A6822F001020A601968164A49079C
:10324000FBD4116841F002011160116841F00101E5
:1032500011601A685207FCD5104A136823F0040362
:103260001360D2F8A83123F00403C2F8A8310C4B44
:103270004FF40052C3F890207047084A136843F097
:1032800004031360064B4FF400521A61704700BFED
:10329000F756002004200D40048808408C86084022
:1032A00000E100E010B50C46072861D8DFE800F027
:1032B000040E181C233F455B012902D1FFF7E6FDF0
:1032C0004BE0002958D1FFF7F7FD46E0A1F10B03D1
:1032D0000F2B51D8C8B2FFF711FE01303DD149E0A4
:1032E0008CB2E2B2254B02E08CB2254BE2B2240A4A
:1032F0001A605C6031E031F007033DD1214B11F0E1
:10330000010F1A68C1F3800014BF42F0010222F0DD
:1033100001021A601C4B11F0020F1A6814BF42F030
:10332000200222F020021A60FFF76EFF15E031F054
:10333000010021D1154B197010BD01F118031F2B8D
:103340001AD813490D2351F83300DA00844206DC01
:103350000F4B13441A790F4B1A60002010BD13F164
:10336000FF33F0D2F9E7CCB20B4B49341C60F4E7E1
:10337000012010BD032010BD022010BDC8850840EB
:10338000D08508400086084024860840FE41002081
:10339000E8C6200040860840588608400B280DD11A
:1033A000082A0DD161B1074B074A083111F8010D08
:1033B00043F8040F9342F9D1002070470120704771
:1033C00002207047A4850840C485084070B52F4D81
:1033D0002B6813F0400308D02D4E3368DCB21B0677
:1033E00005D52C4BED221A601A60002070BD042C0C
:1033F000F7D9023C8C42F4DCE4B2032C21D0011951
:103400000139032000F0E8F9631E23491B01194329
:10341000032000F0EBF9032000F0F2F9032000F0A4
:1034200007FA032000F010FA0028FAD131681B4B8C
:10343000493949B219703368194E18063370D0D51E
:1034400006E0336803703368437033688370EDE7D8
:1034500089B2042006F0E4FA3178032001F07F01FC
:1034600006F0DEFA0F4B1B7873B92B685A060BD5A2
:10347000064B1B681B0603D50B4801F03FF903E020
:10348000044BED221A601A60204670BD4C8608403D
:10349000288808403888084002C0010CF6560020F1
:1034A000F5560020F756002050400020F8B5294F6F
:1034B0003D7815F001054BD1274B01241C605C6061
:1034C0009C60A3F59323A3F51473F8221A600922D4
:1034D000C3F89021152270331A6003F59B230B2249
:1034E00003F59E731A60A3F59B23A3F5F0734022A6
:1034F0001A601A687F2642F020021A60D52243F82B
:103500001C5CDE62DA61154B1878FFF7F7FC144B90
:103510004FF480421E60134B02201A6100F07CF9C8
:103520001149022000F058F9032000F075F90E4906
:10353000032000F049F90D4B1878FFF765FE294686
:103540000B4801F0C3F83B78204623433B70F8BD9D
:103550000020F8BDF8560020A8200D40FF410020B3
:103560009486084000E100E028880840F7560020D3
:103570005040002038B503880446CBB140F20342E6
:10358000934203D000230380032038BD194B1878E1
:103590001A4628B11B7873B1174B1B7858060AD509
:1035A000822908D1137843B1134B1A78520614D4E8
:1035B00040F203432380012038BD06F0D7F906F01E
:1035C0006BF98021FFF702FF0028EDDD80B206F0E5
:1035D00047F90A4B1B699847E6E700221A70084B27
:1035E0001D68FFF769FCFFF761FFAB06E0D0FFF74E
:1035F0004DFCDDE7F7560020F8560020E4C7200018
:10360000488608400B282DE9F84F0E4610D1082AAD
:1036100040F0828000297FD0414B424A4E1E53F831
:10362000041D934206F8011FF9D10020BDE8F88F70
:103630000C286ED1042A6FD100296DD03A4B3B483B
:103640001A68DFF8F8C022F007021A600268DFF893
:10365000F0A042F008020260DAF80040DCF8001046
:103660001A68DFF8E0E022F07002314F1A60DEF8ED
:1036700000203D68E4B2090244EA056401F47F4198
:103680001204214302F47F020A432A490024D1F89C
:1036900000805FFA88F544EA02081A68A94622F019
:1036A000070242F001021A60026842F0080202605A
:1036B000DAF80000DCF800201D68C0B225F07005C3
:1036C00045F010051D60DEF800303D68120240EA4A
:1036D000056002F47F421B04024303F47F0313439B
:1036E0000A6844EA030A5FFA82FBFFF7CBF8B8EBFB
:1036F0000A0869EB0B094FEAC93105460E4A002357
:103700004FEAC83041EA584107F028F9281A3060DA
:103710008BE70120BDE8F88F0220BDE8F88F00BFDD
:10372000C8850840A88508401088084004880840DB
:10373000208808401C8808400048E8011888084094
:10374000148808402488084008B5054B1B7813B935
:10375000044800F0D3FF044B00221A6008BD00BFEC
:10376000F75600205040002034880840064B074898
:103770001A68042A1FBF06490A7842F040020A70FC
:1037800000221A6000F0BABF2C8808405040002088
:10379000F856002010B5094C40220021204607F0C1
:1037A00079FB074B01221A605C60064B4FF48042A4
:1037B0005A604FF400425A6010BD00BF0040002024
:1037C00004F00F4000E100E003289EBF014B000120
:1037D000195070470040002003289EBF024B03EBA6
:1037E00000104160704700BF0040002003289EBFCA
:1037F000024B03EB00108160704700BF00400020C7
:10380000032806D8034901220B6802FA00F0184386
:103810000860704728F00F40032806D803490122AA
:103820000B6802FA00F018430860704720F00F4060
:10383000032806D8034901220B6802FA00F0184356
:103840000860704714F00F4003289FBF044B03EB40
:103850000010806800F0070088BF0020704700BF9C
:1038600000400020024B4FF0FF321A60704700BF4B
:1038700004F50F40014B01221A6070474CF00F40D5
:10388000094A1368084913F4801FFAD1074B1A68D4
:1038900022F480321A600A68D203FCD41A6842F417
:1038A00000321A60704700BF04200D4000200D4018
:1038B00010B50B4B1A681C4612F0030F0ED00949C5
:1038C0000B68084A13F0806FFAD113685B01FCD5CE
:1038D000FEF7C2FFFFF7D4FF0023236010BD00BF37
:1038E00058200D4004200D4038B5264B1C6814F0BC
:1038F0003F0413D1244D55F8243023B1984768B1C3
:103900000134052CF7D1214D2B783BB1FEF7B4FFE4
:103910000446FEF7B7FF201A092801D830BF38BD8A
:10392000002CFBD01A4B1B481A6822F400321A6094
:103930000268184912F4801FFAD11A6842F48032E2
:103940001A600B68DB03FCD5FEF79CFF201A0928E0
:1039500003D8BDE83840FFF793BF63280E4C02D967
:103960002B78022B00D00123236000F07DFE20B1D4
:10397000FFF786FF0023236038BDFEF77DFF002898
:10398000CCD1F5E748860840DC420020F9560020FB
:1039900000200D4004200D4058200D400749002311
:1039A00051F82320824207D01AB9044A42F8230072
:1039B00070470133052BF3D1704700BFDC42002074
:1039C000054B00221A60054A136943F00403136192
:1039D000034B02221A70704758200D4000ED00E0A2
:1039E000F956002010B5074B4FF48032064CC3F84F
:1039F0009021C3F89020206818B100F07FFE0023CA
:103A0000236010BD00E100E0F042002030B5184B0B
:103A10001A78431E22B101F520112731154A1FE003
:103A2000154A1278122AF6D1144A12784B2AF2D18A
:103A30004A0802F12814B4F1281F04D014F8015DDB
:103A400003F8015FF7E701F5201127310023104447
:103A5000934204DA11F80149C4540133F8E730BD48
:103A6000914204D011F8010903F8010FF8E730BDC5
:103A70002B002800270028002A0028002900280001
:103A80000FB407B504AA52F8041B0448019200F0D1
:103A900021F803B05DF804EB04B0704760400020EB
:103AA00070B505460C46102C07D92B681022084922
:103AB0006868984750B9103CF5E734B12B68224646
:103AC00068680349BDE870401847204670BD00BFD4
:103AD000C1C920002DE9F04F064615468FB006916A
:103AE0004FF0000B069B1B78CBB1069C274617F8BE
:103AF000013B1BB1252B14D03C46F7E7069BA342A4
:103B00000DD0069B0699C3EB0408424633687068E3
:103B10009847002840F01F832378C34423B95846B0
:103B200034E3069BA342ECD16378002BF7D03946EF
:103B30000024084610F8013B0A462B2B11D006D86A
:103B4000202B11D0232B12D144F0080416E02D2B8A
:103B500004D0302B0BD144F010040FE044F00104EA
:103B60000CE044F0060409E044F0020406E0A3F18E
:103B70003107082F11D84FF0000801E00146D8E7BF
:103B80000A4611F8013BA3F13000092813D80A2294
:103B900002FB0838A8F13008F2E72A2B09D12B687C
:103BA0000246002B05F10405B8BF44F00104984615
:103BB00001E04FF0000813782E2B1AD15178531CD6
:103BC000A1F1300009280ED8194600270A780B46C3
:103BD000A2F13000092801F101010DD80A2303FBED
:103BE0000727303FF2E72A2904D12F68931C0435B8
:103BF00002E013464FF0FF371A786C2A09D15A7841
:103C00006C2A02D144F080040AE0013344F06004DD
:103C10000BE0682A09D15A78682A03D144F02004BD
:103C2000023302E0013344F040041A78642A3CD0A5
:103C30001FD8462A48D00DD8252A5AD003D8002AA2
:103C40003FF46DAF57E0412A4AD0452A53D144F49E
:103C5000424450E0582A31D004D8472A4BD144F48A
:103C6000A13448E0612A38D0632A44D144F4A064E6
:103C700041E06E2A3AD007D8662A22D027D3672A95
:103C800028D0692A11D036E0732A2CD006D86F2AA2
:103C900011D0702A2FD144F440742CE0752A07D03B
:103CA000782A28D144F4C85425E044F4245422E06E
:103CB00044F410641FE044F488541CE044F4B2441B
:103CC00019E044F4007416E044F4844413E044F42E
:103CD000024410E044F481340DE044F4C1340AE0BD
:103CE00044F4E13407E044F4806404E044F4E06424
:103CF00001E044F4C0640133069304F4E063B3F5D7
:103D0000806F00F08F8113D8B3F5807F27D0B3F593
:103D1000407F7FF4E7AEAE4B14F4804FAD4A18BF3E
:103D20001A460DF133032868002104351F46B5E11A
:103D3000B3F5C06F08D0B3F5E06F00F02282B3F5A1
:103D4000A06F7FF4CFAEF2E133680122A249706820
:103D50009847002840F0FF810BF1010BC2E6002FCD
:103D6000ACBF24F01004012714F40053079304F0AF
:103D7000E0032ED0402B12D005D8ABB1202B21D19F
:103D800095F900200DE0602B0ED0802B1AD107355D
:103D900025F0070303F10805D3E9002307E0B5F98F
:103DA0000020D317043502E02A680435D317002A0F
:103DB00073F1000108DA524263EB4303CDE90023BB
:103DC000012304E000220023CDE900230023059312
:103DD00029E0402B13D004D8BBB1202B1DD12A7869
:103DE0000EE0602B11D0802B17D1073525F007038B
:103DF00003F10805D3E90023CDE900230BE02A886D
:103E00000023CDE90023043505E02B680022194684
:103E1000CDE900120435079BD9E700230593002262
:103E20000023CDE9002304F4C053B3F5805F0CD028
:103E3000B3F5C05F33D0B3F5006F4FD1DDE9002398
:103E40000DF13609CDE9022304E0DDE900230DF18F
:103E5000360915E0DDE9022313433AD0DDE902011A
:103E60000A22002306F07AFDDDE90201303209F86A
:103E7000012D00230A2206F071FDCDE90201E9E7D8
:103E800052EA030125D002F00701303109F8011D83
:103E9000D10841EA4371D8080A460346F0E74C4B83
:103EA00014F4804F0DF136094A4918BF1946DDE96F
:103EB000002352EA03000CD002F00F00085C4FEA26
:103EC000131E09F8010D100940EA037002467346FB
:103ED000EFE70DF13603C9EB030302E00DF13609FC
:103EE00000230293029B41F60802BB4238BFFF1A2F
:103EF00041F2080302EA040228BF00279A4202D1D5
:103F0000002F08BF012741F60801029B8A4203EBFC
:103F100007000DD1DDE90023134309D02F4A3049B2
:103F200014F4804F4FF0020A0CBF0B46134602E018
:103F30004FF0000A5346079A9AB1059A52B904F015
:103F40000602022A0AD0062A264A04BF4FF0010AB6
:103F5000134606E04FF0010A234B02E0234B4FF0DB
:103F6000010A0AEB000290458CBFC2EB08084FF033
:103F7000000814F0010200920DD1E10602D5474479
:103F8000904608E0414630460593FFF789FD059BC2
:103F9000002840F0E080BAF1000F07D034685246A4
:103FA00019467068A047002840F0D580029B03EBBB
:103FB0000B04BB46BBF1100F33681BD910220C4910
:103FC00070689847002840F0C680ABF1100BF1E70D
:103FD0008CC920009DC92000BFC92000B1C92000A4
:103FE000AEC92000B6C92000B4C9200091C8200085
:103FF000D1C92000BBF1000F06D05A466549706850
:104000009847002840F0A7803368029A49467068B4
:1040100054449847002840F09E80009B3C44002B6D
:1040200039D032E0D5F800900435B9F1000F0AD04C
:10403000CA469AF800300AF101020BB19246F8E73D
:10404000C9EB0A0A03E0DFF850914FF0060A002F8F
:1040500002DBBA4528BFBA46D0458CBFCAEB080878
:104060004FF0000814F0010705D141463046FFF734
:1040700017FD00286FD1336852464946706898474B
:10408000002868D10AEB0B042FB141463046FFF7F8
:1040900007FD00285FD108EB040B23E550EA010E71
:1040A0000ED000F00F0E12F80EE04FEA111C03F8CC
:1040B00001ED4FEA101E4EEA017E70466146EDE7C3
:1040C000FF1A02BF3022012703F8012C07F1030772
:1040D00008BF03F1FF337822B84503F8012C4FF0F5
:1040E000300203F8022C88BFC7EB08084FF0230208
:1040F00098BF4FF0000814F00104A3F1030903F87E
:10410000032C04D141463046FFF7CAFC18BB336884
:104110003A46494670689847E8B95F4424B1414639
:104120003046FFF7BDFCB0B908EB070BDAE4B8F195
:10413000010F2B688CBF08F1FF384FF0000814F016
:10414000010405F104058DF8203008D141463046C0
:10415000FFF7A6FC10B14FF0FF3017E0C3443368FF
:10416000012208A9706898470028F4D108F10107D6
:104170002CB141463046FFF793FC0028EBD1BB44FD
:10418000B0E42B680435C3F800B0ABE40FB0BDE871
:10419000F08F00BFD1C92000B8C92000F8B503884E
:1041A000064615462BB14A2B15D000230380032069
:1041B000F8BD174806F0D3FF04462CB1A168201DB6
:1041C00006F078FF2468F8E7124B01221A704A23A0
:1041D00033800120F8BD8829FBD10D4806F0BFFFD0
:1041E0000446002CF3D0231D9D420ED121460848E1
:1041F00006F0BFFF084B62691F681A60A2691D467E
:104200000AB1E06990472F60E1E72468E9E700BF61
:10421000F4420020FA5600200043002010B5064B5F
:10422000002406481C7006F097FF2146BDE81040A8
:10423000034800F04BBA00BFFA560020F4420020B9
:104240006840002070B50446E3610B4B049D1B7869
:104250006561A26143B1094D094B2E68201D2B6099
:1042600006F028FF2E6000E0A1602146BDE8704006
:10427000044806F091BF00BFFA560020004300201A
:1042800068400020F442002013B5034C24680094D9
:10429000FFF7D8FF02B010BD0043002070B5094BF6
:1042A00005461B783BB1084C084B26680430236058
:1042B00006F009FF26602946BDE87040044806F074
:1042C0006BBF00BFFA56002000430020684000206A
:1042D000F442002070B5094B05461B783BB1084CF1
:1042E000084B26680430236006F0F6FE2660294657
:1042F000BDE87040044806F04FBF00BFFA560020EA
:104300000043002068400020F442002010B5084B14
:1043100004461B781BB1043000F0B4F801E0C36020
:1043200003612146BDE81040024806F022BF00BFED
:10433000FA560020F442002010B50E4C236813B941
:104340000D4A136010BDFEF765FA216891E80C0074
:104350001A44131A8A6842B192E812002144091AD9
:104360008B4228BF0B469268F5E71844024B186051
:1043700010BD00BFF8420020FC420020014800F0C0
:10438000BDB900BF784000202DE9F84303880546F9
:1043900033B1592B0BD0002303800320BDE8F883F1
:1043A000234A136059232B800120BDE8F883872915
:1043B00024D08229F6D11E4F4FF00008B9463C6840
:1043C0000026002CEED0204606F0B8FE98B122461A
:1043D0008821E06800F052F958B9E060A3680EB196
:1043E000B36001E0C9F80030C4F80880FFF7A4FF0B
:1043F000E5E7FFF7C3FF2646A468E2E70C49002083
:104400000B681BB90028CDD00B60CBE7DC68A2425B
:1044100002D19B680120F4E700B10B609968002984
:10442000C0D0C86882420ABF89680B469960F5E728
:10443000F842002010B50446FFF7A0FFE3680B4ADE
:104440004BB113683BB1A34203D1094A1268DA6049
:1044500007E09B68F6E7064B1B68E360136814608F
:10446000A360BDE81040FFF767BF00BFF84200201F
:1044700000430020024B1868003018BF012070472D
:10448000F842002010B50B4A04461368834206D157
:104490008368136008E09A68944203D01346002BA7
:1044A000F9D103E0A2689A60FFF746FF0023A360FA
:1044B000E36010BDF842002038B5836804460D461D
:1044C0009BB10A4804600220A07304F10C009847D5
:1044D0000238012801D9832D05D121462046BDE8A7
:1044E000384000F005B80123A37338BD0043002015
:1044F0002DE9F8431C4A0446156889462B46904628
:104500001A4E3768A34204D00BB11B68FAE7BDE826
:10451000F88334B3A37BABB10023A37345B1A542A9
:1045200004D022468721284606F0E7FD2D68F5E7EE
:10453000A3683BB14C4505D034602A46832104F181
:104540000C009847D8F800309C4203D12268064BF3
:1045500005E0134623B11A689442FAD122681A6022
:104560003760BDE8F88300BF04430020004300200B
:10457000002370B51D46094A01261370084A1468C5
:1045800054B1E37B33B1A673E57300228221204648
:10459000FFF792FF2468F3E770BD00BFFD560020CF
:1045A00004430020024B1878421C1A70704700BF69
:1045B000FE560020064B8A221A70064A002313700A
:1045C000054A1370054A1360054A1360704700BF1F
:1045D000FE560020FB560020FC560020044300201D
:1045E000004300202DE9F0411A4D2B780BB1FFF765
:1045F000BFFF194C22783AB3184E0C213378184F6C
:104600005943781817F8018001334768806803F030
:104610001F03013A3370227068B9124B1E689EB1B5
:104620002B780BB1FFF7A4FF30463A46414606F01F
:1046300064FD3668F3E7B8F1810F04BF012383738B
:104640003A46414606F059FD2B7820781844BDE8DB
:10465000F08100BFFD560020FC560020FB560020D4
:104660000843002004430020024A034B10781B78C3
:1046700018447047FC560020FD560020F0B50B4E44
:104680003378202B0FD00A4C0C252478094F1C447A
:1046900004F01F046C4301333D19A86039556A606A
:1046A00033700020F0BD0120F0BD00BFFC5600209B
:1046B000FB5600200843002038B5034C256806F05F
:1046C0001CFD256038BD00BF0043002030B40A4CFB
:1046D0000A4625682B4683420CD00BB11B68FAE7CB
:1046E00040B101210560817320608381812130BC4C
:1046F000FFF7E2BF30BC70470443002038B1837B32
:10470000013B012B9FBF024A0123C3731370704703
:10471000FD560020024610B5064853600468029B0F
:1047200011609360026014B90846FEF7C1F80020DA
:1047300010BD00BF8844002010B5084C206858B157
:1047400000232360816843689847236823B1BDE84C
:1047500010401868FEF7ACB810BD00BF88440020B8
:1047600010B50446FEF760F894E80C001344C01A34
:10477000024B98428CBF0020012010BDFEFFFF7F3E
:1047800070B505880446672D09D0792D30D0002DED
:1047900034D1FFF707FF1C4B18701C4B1D601B4DDD
:1047A0002E461B4806F087FD431C01D167231DE000
:1047B0000A28164A07D02B687E2BF2DC5A1C32607E
:1047C000144AD054EDE713680025591C1160114AB2
:1047D0002846D5540C4B1978FFF750FF0E4B2A464C
:1047E00085211868FFF74AFF20B97923238009E063
:1047F000852907D1054B00221A60D0E700230380EA
:10480000032070BD012070BD8F6E002094440020F5
:104810008C44002080570020004300200D2810B554
:10482000014615D00B4C23782BB90B4806F030FD10
:1048300048B9012306E00A2805D1074806F028FDFB
:1048400008B1002323700548FFF758FF012010BD71
:10485000002010BD7F5700208C440020884000209D
:1048600008B505490548802206F00BFDBDE8084063
:1048700000210348FFF72ABFFF5600208C44002088
:1048800088400020054A136843F004031360044B7A
:104890001B68906943EA002080B2704700700D40A9
:1048A00014700D4010B5184A136823F00C03136000
:1048B000164B01221A601A68012AFCD1144B0822F7
:1048C0001A60E322C3F8142203F505731946114A4E
:1048D0001368DB07FCD5104C102000232268013838
:1048E00002F0010243EA02034FEA43039BB2F5D10F
:1048F000002BF1D0094A180A03F0FE031060136080
:10490000EF230B6010BD00BF00700D40A8200D40CC
:1049100024860840648608409C86084014700D4038
:104920002DE9F04106880546772E31D07E2E40D005
:10493000002E4ED12B4CFFF735FE266026462A4B23
:104940002A4FDFF8B0801870236857F823204AB147
:10495000002108F8031093688020984733680133DA
:104960003360F1E7224A1370772320E0214AD256C0
:10497000002A12DB1B4A136801331360194B1C4ACF
:104980001B6812789A42F1DC1B4B1B68002BEBD0A2
:10499000194A00231360134AEFE7144A002052F823
:1049A0002320114B1978FFF769FE30B97E232B8045
:1049B00014E00D4B1B788B4210D10A4B0D491A683D
:1049C0008B5C03F07F038B540B4A13680133136035
:1049D000D0E7002303800320BDE8F0810120BDE87B
:1049E000F08100BF98440020906E002040400020DD
:1049F000005800208B6E00209C44002010B40A4B0D
:104A00000A491A780023934203DA51F82340A0425E
:104A100008D107490748CA5C62F07F02CA5410BC3B
:104A2000FFF76CBE0133EEE7005800204040002045
:104A30008B6E0020984000200C4AB82303FB002214
:104A40000023F0B553821E461A4640F24C550849E1
:104A5000CC18A77827B15F5C874204BFA6700132EB
:104A60007133AB42F4D11046F0BD00BFBC4400200E
:104A70000C58002008B5064802F022FF054B012221
:104A80001A70FD2100225A709970DA7008BD00BFBB
:104A9000C94C20000258002030B513780546087A2A
:104AA00083F0020398421DD1487A5378984219D175
:104AB000887A9378984215D1C87AD378984211D1E0
:104AC000087B137998420DD1487B5379984209D1DC
:104AD000887B9379984205D1C87BD379984201D1DC
:104AE00003201BE00B890F4C6BB94B89B3F57F4F4B
:104AF00009D18B89FE2B06D12368CA89022023F8AD
:104B0000022B23600AE0226801F1080303CB08327C
:104B100042F8080C42F8041C01202260A840C0B2F0
:104B200030BD00BFA844002010B50E4C0220A17972
:104B300004F076FFA379112B01D0062B05D1218D2E
:104B4000638D9942A8BF194606E03A2B03D1218D07
:104B500049BA89B200E000210120BDE8104004F00C
:104B60005FBF00BF0C63002010B5084C01462378DE
:104B7000012B08D10822A01C06F080F800280CBFE9
:104B80002046002010BD002010BD00BF02580020AC
:104B900008B50146102004F051FF044B00219B682A
:104BA00003489847BDE80840FDF7F6BF04C8200059
:104BB000B54B200010B50C461146204602F0C8F94E
:104BC000044B1B6813B19B6820469847024B1C603E
:104BD00010BD00BFB8440020B4440020124AF8B50C
:104BE00005460023712000FB0324A678B6B9617046
:104BF00004F040FE26460D4F0D4A3B7806F8035B55
:104C0000C01A1568A0701D4404F034FE3A78294695
:104C1000821A304606F064F8A078F8BD01330C2BF8
:104C2000E1D14FF0FF30F8BD0C580020585D002056
:104C3000AC4400202DE9F84315090F2D064698468F
:104C400002F00F0403D00F2C35D045B103E00F2C38
:104C50002FD1102425462A46304606F041F82A195D
:104C60000F2A274605DCC2F110020021701906F058
:104C700011F9BCB1DFF84C80C7F11000D8F80090F2
:104C800022464946304406F02BF8022C05D10A2D65
:104C90009FBFFF23F372FE2333734C44C8F80040D8
:104CA000BDE8F88365B141463046BDE8F84306F0FB
:104CB00068BB1025CFE71024002DCCD12746D9E7BB
:104CC000BDE8F883A84400202DE9F04F934E944DA1
:104CD00087B0002333702B70044604F047FE04F0C5
:104CE000DBFD904A904B1268186002960095019384
:104CF0000AB1FFF719FF0CB98C4900E0214604A85E
:104D000007F00DFA8A4BDFF830A21A8803933E2A87
:104D1000019B40F21382D3F80080864E08F1020313
:104D20003360009B0AF118001F780023023708F84F
:104D30000730FFF719FF20B90AF10800FFF714FF49
:104D400020B108F103033360802400E004469AF8A0
:104D500001209AF80010130943EA0113DBB2980806
:104D600040EA83135BB212F00F0FDDB201F00F00C7
:104D70000DD17149498851B910B912F0F00F21D005
:104D80006C4A136803F8015B136070251BE06949E6
:104D900078B912F0F00F0CD1086823F03F031A43E2
:104DA000664B02701B88033020F8023C68250860BF
:104DB00009E0614A0B681068186003F8045B0B6037
:104DC000602500E078255C4B99469979594B11296B
:104DD00008BF45F0040515F0040F02BF1A6802F879
:104DE000011B1A6099F80720402A06D0FF2A07D035
:104DF000012A08D145F0010509E045F0020506E069
:104E000045F0030503E0196801F8012B1960B9F8B2
:104E10000820494B82B95A8972B99A8962B9DA89EC
:104E200052B91A8A42B95A8A32B99A8A22B9DB8AA5
:104E300013B944F0400013E04148FFF795FE414BA1
:104E4000186078B1427818F807303D4943EA0213F8
:104E500008F807303C4A0420FFF71EFE60F03F00D0
:104E6000C4B229E048F2FE03B9F8082032499A4258
:104E70000CD14B8B53B98B8B43B9CB8B33B9324AA3
:104E800008310420FFF708FE2043E9E7294BDFF84B
:104E9000B0C01A68994696460CF1100B634603CBD6
:104EA0005B45CEF80000CEF804109C460EF1080ECB
:104EB000F4D11032C9F80020DFF87CB0DFF874902C
:104EC0009BF81830FF2B40F08D809BF8192044F0A0
:104ED000080E022A5FFA8EFE38D1BBF81A30ABBB3F
:104EE000BBF81C3093BBBBF81E307BBBBBF820303B
:104EF00063BBBBF822304BBBBBF8243033BB9BF801
:104F000026301BBBD9F800309BF8272044F00B005B
:104F100003F8012BC4B2C9F80030A2E00158002008
:104F2000585D0020B8440020AC44002079CA20001D
:104F3000F8620020A84400200C6300200E630020CB
:104F400014630020A0440020046300209C4B598B74
:104F5000A1BB998B91BBD98BB1B9198CA1B9598CD3
:104F600091B993F8241079B9D9F8001044F00A00E7
:104F7000C4B2084600F8012B33F8252F043121F87C
:104F8000032C9B78837016E08D4BD98BB1B9198CAB
:104F9000A1B993F8221089B9D9F8001044F009009A
:104FA000C4B2084600F8012B53F8232F063141F80C
:104FB000052C1B790371C9F8001052E0D9F80020C4
:104FC000804F144607F1100C3B4603CB634520602D
:104FD00061601F4604F10804F6D11032C9F80020C0
:104FE00074463EE00BF11800FFF7BEFD764B1860EB
:104FF00068B118F80710437844F004040B43E4B296
:1050000008F8073004AA0BF11801002011E048F25B
:10501000FE03BBF818209A4210D1BBF81A306BB9C6
:10502000BBF81C3053B9BBF81E303BB904AA0BF1D6
:105030001801FFF731FD2043C4B212E0D9F8002077
:10504000DFF880E117460EF1100C734603CB634581
:10505000386079609E4607F10807F6D15B4B103245
:105060001A60029A56482823137083795749112BE6
:1050700059D1028D130A43EA02234FF2B0029BB2C8
:1050800023F00F07BFB297421AD1B0F82AE04FEAD7
:105090001E2242EA0E2222F00F0292B2BA420FD131
:1050A0003268F3231370038D02321F0A438D1B0AEB
:1050B00003EB071303F5AA6302F8013C326029E011
:1050C000BAF82A003E4A000280B2B0F5704F09D10A
:1050D0003368F1201870108DA3F80100528D120A68
:1050E000DA700CE003F47F43B3F5704F0AD13368F4
:1050F000F2201870108D000A5870528D5A800433B7
:10510000336007E00B68F0201870906A053343F8AD
:10511000040C0B602E4B1A880B6823F8022B029AA2
:105120000B6030231370019B1A68009B1B78D554C9
:1051300013445C700B689B1A009A19E01A684123AB
:105140001370009B0AF128051C78631CDBB2134422
:10515000524603CAAA4218605960924603F10803F6
:10516000F6D1009B29341C70029B029A1B782833CD
:10517000137004A9102004F061FC164B164E1B6836
:10518000984730EA200028BF1520029A0099039B17
:1051900014781B880D78C0F17D071A1B791B8A4291
:1051A000DFF838A040F3BC80C0F1780B93FBFBF430
:1051B00004F06EFC0138844212DB0020C1E000BF25
:1051C0000C63002024630020A0440020A844002099
:1051D0003A630020D8C72000F8620020585D002004
:1051E000DFF878910023C9F80030019B9AF800504D
:1051F000D3F800802A46414608F1040005F0E6FD98
:105200003388514A1B0A63F03F0388F80030338823
:10521000043588F801301388EDB2591C118088F8E4
:1052200003301A0A494B7C1B1978494B24F00704B8
:10523000484F194488F8022008EB050022460293E3
:105240008AF800503C6005F04BFD281980B204F04C
:1052500007FB04F023FC029B04461D460028ACD04B
:105260000DF110084046FFF793FC204604F04EFC79
:10527000204604F035FCD9F80030012B9DD0043BCA
:10528000012B9AD9314B2BF007001C783B68B346B1
:105290001C4405238AF80030BA462F4BA4B21A6882
:1052A000338838601B0A63F01F0313703388537010
:1052B000BBF800309C4243D2019A1B1B1068E208E5
:1052C00002713A6829199342B8BFCAF80030009BAE
:1052D0003E681B7832461844029305F001FD029B9C
:1052E000981980B204F0BCFA04F0D8FB06460028F6
:1052F0003FF463AF4046FFF74BFC304604F006FC3A
:10530000304604F0EDFBDAF800301C44D9F80030E8
:10531000A4B2012B3FF451AF043B012BC8D84CE79A
:10532000019B0B4918682144284405F0D9FC3088BA
:105330002844001B80B204F093FA04A8FFF728FC6D
:10534000012007B0BDE8F08F205000200158002058
:105350000C630020B0440020AC440020B444002082
:105360002DE9F047074688461546002A4CD0414EA5
:105370000024B046338ABB4216D1738AA3B10F20F2
:1053800004F068FB0146304606F0CEFE60B15FFADD
:1053900084FA29465046FFF721FC002829DA002725
:1053A000DFF8D4903E460FE00134022C06F1B80637
:1053B000E0D14FF0FF30BDE8F087A64209D10136B9
:1053C000022E09F1B8090ED039F8063C002BF6D0B0
:1053D000F3E7484605F0B2FE0028F0D0F0B2FFF740
:1053E0002BFB0744EBE7002FE3DD29465046FFF790
:1053F000F5FB0028DDDDB82303FB04839A8A104403
:10540000988260B2BDE8F0871B4E4FF0FF3436F84B
:10541000063C63B3304605F091FE10B1E8B2FFF7E9
:105420000BFB611C03D136F8063C03B96CB20135A5
:10543000022D06F1B806EAD1621C15D0B8256543E5
:10544000DFF830900F2009EB0506A6F812803782AE
:1054500004F000FB0146304606F061FE05F118003D
:105460004021484405F058FE2046BDE8F087631C03
:10547000DDD1DBE7BC440020D44400202DE9F04F0F
:105480000F2087B0DFF8F482AE4C04F0E3FA002678
:1054900004F020F888F80060267004F0FDF9AA4DA9
:1054A000A2462860042004F0C3FAA84B2A6800B280
:1054B000186057781378CDF8008047EA032703F087
:1054C000F803C02B02D0E02B1BD03DE09478D078BD
:1054D0009AF80030C7F30A0704333246394640EAE7
:1054E00004208AF80030FFF73BFFB0F1FF3F804611
:1054F00000F07182964CB82303FB0044012622344D
:1055000025E092F804B09478D0789AF80020C7F398
:105510000A0705328AF8002039465A4640EA042034
:10552000FFF71EFFB0F1FF3F804600F0548288492C
:10553000B82202FB0012958A4FF00109BD4234BF28
:10554000002501253446D1E1B0463746814C286814
:105550009AF80010425C02F0E003602B40F0A98151
:105560008D1C014491F801907B4B4FFA89FB054457
:10557000BBF1000F1D60BCBF01351D6012F0100FA4
:1055800002F008012FD1D1B9196831F8010FA4F840
:1055900001008978E170196811F8040B196083081B
:1055A00003F00F0141F060012170617803F03003D6
:1055B00043EA801301F00F010B4363702EE018687B
:1055C00060210546217015F8011B03304FEA910E4A
:1055D0000EF0300E01F00F014EEA010161702988D2
:1055E000186061801AE001F0FF0591B91968087828
:1055F000C0F3830040F06000207011F801EB65807B
:105600004FEA9E0000F0300040EA8E106070196092
:1056100004E06023237000236370638002F00403BE
:1056200003F0FF0101912BB94B490B6813F8010BF3
:10563000A0710B6012F003020BBF474A474B13687F
:105640009B5C09BF13F8011BE3711360E17119F052
:10565000400FC9F3011230D0BBF1000FBDBF3A4972
:105660009AF8003009680025BEBF5B189D782D09A7
:1056700022B904F108058AB9114612E0384B1978AD
:10568000012905D15978A9420CBF1D46002500E02B
:105690000025344B1D60002DEBD122E1314B196800
:1056A0000231314B0F209A5C0391029204F0D2F93F
:1056B000029A03460399284609E02C4B0F209D5C73
:1056C00004F0C8F92A462A49034604F10800FFF706
:1056D000B1FA09F0080109F0030201F0FF0509F031
:1056E0000403A1B1002B67D1224B1B88ADF8143005
:1056F000531E012B06D818490B6813F8010B8DF8BF
:1057000015000B601C4900238A5C05A950E0002BA2
:1057100046D0BBF1000FBDBF0B499AF800300968B5
:105720002B46B8BF5B180E49B8BF9D780878B8BF44
:1057300005F00F03012823D14D789D420CBF0D4683
:1057400000251EE0585D0020AC440020A444002049
:10575000BC4400200C630020A844002014CA200090
:1057600002580020A04400202DCA200018CA2000A2
:105770001CCA200012CA20001ECA200001580020A6
:105780000025964B1D60002D00F0AB80944B10203F
:1057900013F8029004F05EF94A460346A91C07E09C
:1057A000904B10209D5C04F055F92A4603468E4923
:1057B00004F11800FFF73EFA009B009A18788B4915
:1057C00000F128031370019B002B53D00B681A784B
:1057D00002F0F802F02A4DD11122A2711A7802F0DB
:1057E000040502F0F302F03AEDB2032A7BD8DFE8B9
:1057F00002F0020A1622B3F801200533228533F89D
:10580000022C62852CE0B3F801202285DA78A2F51B
:10581000805292B2120242F0F002628509E05A7898
:10582000A2F5805292B2120242F0F00222855A880A
:105830006285043314E05A7802331209A2F57562C6
:1058400092B2120242F0F002228513F8012C02F00B
:105850000F02A2F5756292B2120242F0F002628566
:105860000B6025B90B6833F8022BE2850B60009BB7
:10587000303018705E4A0B6812689B1A8AF8003044
:1058800067B903F0F7FF5B4B1B78C01A009B1B78CE
:105890001844283803122371607104E0A7F128032B
:1058A0001A1222716371A379112B1CD1A388A385CD
:1058B00019E0412A40F08F804A1CD2B28318224658
:1058C00003F1280053F8045B834242F8045BF9D1EA
:1058D000009B009A1B78293128338AF80010137036
:1058E00001E0B14601E0B1460025AB4603F0C2FF3E
:1058F0009AF8002082426ED803F0BCFF3D4A11782E
:105900003D4A431A01931360009B019A93F800A04B
:105910004FEACB039BB25344134440F214529342D8
:1059200059D83CB1324B019A1B6804EB0A00194468
:1059300005F0D6F9002F36D04EB1019B2F490AEB66
:105940000302B82303FB081392B29A821A8485B328
:10595000B82202FB08F329492948CA181146978240
:105960002231128C05F0BCF9264C254E04F24C5520
:1059700014F8012C52B114F8033C984506D114F8E0
:10598000020C214606EBC00005F0AAF97134AC42C6
:10599000EED15FFA88F0FFF74FF8B9F1000F0BD0A6
:1059A000194B1F800DE0B9F1000F05D0002DF7D184
:1059B00011E0B9F1000F0ED1019B9A44124BA3F8EC
:1059C00000A0124C236823B1FFF7AEF823685B6890
:1059D000984701F09BFF07B0BDE8F08FA04400207E
:1059E0002DCA200018CA20001CCA2000A84400208C
:1059F000AC440020585D0020B0440020BC4400208E
:105A00000C6300200F580020F8620020B8440020EA
:105A100037B5124B124D1C782B796A79C4EB0323EE
:105A200013449BB2ADF80630BDF80630202218446E
:105A300005F1080180B205F04EFCBDF8062004F126
:105A4000280192B2294405F046FC10B140BA80B258
:105A500001E04FF6FF7003B030BD00BF595D00207C
:105A60000C630020F8B52C4F2C4D97F800E02C4C1F
:105A70000EF1280C0CEB05035E780220F600207076
:105A800007360021864242DB0CEB0003EA18EB5C90
:105A9000012B05D002D3632B06D014E0013033E094
:105AA0005278023210442FE001B1207002F08CFCD9
:105AB000B8B13B782278283313441D446B781344E3
:105AC0000233237025E003F0C003802B04D0C02BE9
:105AD00009D0402B15D102E051B1207008E001B18E
:105AE00020700120F8BD01B120702B7EFF2BF8D073
:105AF0000EEB000228320221042001F03FFD0220BB
:105B0000F8BD537802331844C0B20121BAE701B19D
:105B100020700020F8BD00BF595D00200C630020FC
:105B20005F5D0020F0B5C578124A0D44EDB2D57026
:105B300083780F0A3B44DBB2937044789F425470E1
:105B40000678167005D9601CC0B2507008B90136CD
:105B50001670C9B28D420CDA0133DBB2054993707D
:105B60003BB94B780133DBB24B7013B90B7801337F
:105B70000B70F0BD0063002010B5094C014623688E
:105B800003F11400FFF7CEFF064A23681178197558
:105B9000517859759178D2789975DA7510BD00BF32
:105BA000306800200063002008B501F0F9F801F02A
:105BB000CBFD05F01FFC002319460F4A22F81310F5
:105BC0000133082BFAD1002319460C481A18303338
:105BD000B3F5F07F82F82510F8D1094B4FF48062BD
:105BE0001A800023194607481A182033B3F5A07FFE
:105BF0001182F9D108BD00BF1C6A00203468002062
:105C000022500020306A0020F8B5104E3578DDB102
:105C10000F4F05F127033C88A34202DB00233B80A2
:105C200011E00C4BA4F12802521B5919184605F03B
:105C3000CDF8641BA4B23C80283C221200F8242C2E
:105C400000F8234C00233370F8BD00BF595D0020DD
:105C5000F8620020346300201F4AF8B51446138808
:105C60001E4F01339BB2B3F5FA4F28BF4FF4805358
:105C70001A0A42EA032292B20025EE19368A9642A7
:105C8000164EEED02035B5F5A07FF6D12380002347
:105C90005D017419278A47B92282618250B9014691
:105CA0001022204605F0F6F810E001330A2BEFD160
:105CB0000020F8BD0346274600F1100E3A4618684A
:105CC0005968083303C273451746F7D1044B35446E
:105CD0001B7920462B75F8BD22500020306A002029
:105CE000786B0020074A002332F81310814204D158
:105CF000044A002122F8131070470133082BF3D116
:105D0000704700BF1C6A002004282DE9F74FA14E00
:105D100000F06B82A049A14DA14FA24A03283C6824
:105D20000D6015608A4615D194F8253003F00F03F5
:105D3000032B08D1A38B002B40F064869A4B0822DA
:105D40001A7000F054BD022B40F05C86002305F869
:105D5000073CABE302287AD1944A00231370944A9B
:105D600033801380934AD3780133DBB2D37063B9A5
:105D700093780133DBB293703BB953780133DBB2D4
:105D8000537013B913780133137094F8253003F06E
:105D9000FD02052A0DD194F826300133DBB2782BB1
:105DA00084F8263040F02E86002384F8253000F059
:105DB00029BE002B00F02686A28B7B48002A3DD00E
:105DC00094F82620511E84F82610002A40F01A86E6
:105DD00094F82720082A04D0591E01290AD8052A38
:105DE00008D1002384F825308023037001F0D0FE11
:105DF00000F00BBD042A9CBF0321914003F00F0368
:105E000094BFC9B230210132013B84F8261084F8D6
:105E10002720072B00F2F685DFE813F04403080083
:105E20000A00AF04F405AF04F405AF0400223AE31E
:105E30000423037001F0ACFE00F014BD03F00F0367
:105E4000032B40F0DF850823037000F0D0BC052849
:105E500011D1594B1B681B8A002B00F0D3850C3DD8
:105E60001560534A002313803B6033804E4B082259
:105E70000D601A70B7E115F83C3C3C3D03F0F003AF
:105E8000602B40F0BF852A796B7912023188D018D7
:105E9000884200F3B7852833134433802B7AFF2BD5
:105EA00000F0B085454BAA1D404F454C1A600022BA
:105EB0003A702270AA799846B2B901232370FFF78D
:105EC000D1FD012800F09E8503D3022800F09685BD
:105ED0000AE03B7803F128022A44C8F800205278EF
:105EE000083303EBC2033B70364800F0F5FD10B1F8
:105EF000DFF8CC90AEE0334800F094FE0028F7D1F4
:105F00002A7E304BFF2AA3F118035FD048F2FE002F
:105F1000198B81425AD01989814257D079B9598950
:105F200069B9998959B9D98949B91B8A3BB9698A2B
:105F3000254B21B9998A11B9DB8A002B46D0298BD0
:105F4000214B79B9598B69B9998B59B9D98B49B911
:105F5000198C39B9598C29B9998C19B9DB8CB3F5DD
:105F6000807F33D03388B3F5A06F04D94FF4A0629B
:105F70000021022005E0EB79012B06D80022114612
:105F8000032001F0FBFA00F039BD0F4A013BD37149
:105F900000F034BDF86200202C6800204863002027
:105FA00030680020FC62002020680020595D00203D
:105FB0002C6A00205B5D00202868002024680020F7
:105FC0005A5D0020246300200C63002048F2FE0389
:105FD0002989994240F01685298B9F4B81B9598BAD
:105FE00071B9998B61B9D98B51B9198C41B9598C57
:105FF00031B9998C21B9DB8CB3F5807F00F0028533
:10600000FF2A00F0FF84954800F048FD0246002872
:1060100040F0F8840221D4E024D9BBF13A0F74D0C7
:106020002BD9BBF13B0F00F0ED84BBF13C0F68D1E5
:1060300023789A073AD5590663D443F0400389F888
:106040000030FFF70FFD012800F0DC8431D3022877
:1060500000F0D484D8F8000090F800B0BBF12B0F0A
:10606000DAD132E0BBF1060F00F01081BBF1110F65
:106070006AD0BBF1000F44D104E0BBF12C0F00F05B
:10608000C1843EE02378D9073BD443F0010389F86B
:106090000030FFF7E7FC012800F0B484D7D23B784A
:1060A0006F4A03F128012944116008E043F002031C
:1060B000C5E73B7803F128012944C8F80010497866
:1060C000083303EBC1033B70C4E7237803F00402F9
:1060D00002F0FF01AAB943F0040389F800303B78CD
:1060E00003F128002844C27812B103F12A020AE021
:1060F0005B4A4178106008335A4A03EBC1031370BE
:10610000A8E7421B012104203BE705F000F94FF608
:10611000FF73984240F076843B782833E85C01F0C6
:10612000E1FB3B782833EA18E85C517801F004FA87
:10613000012801BF00234B4A338013703388002BA2
:1061400000F0608400F05ABCFFF75EFDEB8D85F82F
:1061500006B073B9B5F82A80B8F1000F00F0528488
:10616000414F424D3C4B2F60B3F8289007F5A07784
:106170000BE005F0D2F84FF6FF73984240F04284EE
:10618000E8E7238A2BB920342C602C68BC42F8D372
:1061900015E09845F7D1638A0BB14B45F3D12368DD
:1061A0002BB963681BB9A3680BB9E3685BB1102214
:1061B00021462F4804F062FD0028E4D103E00022CC
:1061C00004210120DDE633882A49303B3380002357
:1061D0000B6029490220294A08702949CAF8002081
:1061E0000A60284A138001F0D3FC264B1A88002A43
:1061F00000F0088402F13003174C9BB23380283B37
:1062000019126371194B08321B6852BA2171197D3A
:10621000A2850022E2851A8AE17122855A8A11211B
:106220006285A17104F118050FCB85E80F0029469E
:1062300004F1080000F054FD134B04F13C021A6015
:1062400005F06BF8C04380B208B1E085D0E34FF6AB
:10625000FF73E385CCE300BF0C63002024630020C0
:1062600024680020595D0020306A00202868002042
:106270001463002030680020206800203C63002068
:10628000FC6200202C6A00202C680020FFF7BCFC78
:1062900085F806B005F03EF84FF6FF739842AF4C14
:1062A00040F0B083B4F82A90B9F1000F00F0AA834F
:1062B000B4F828B0BBF1000F00F0A483A84C04F59B
:1062C000F07394F82580B8F1000F0FD0228A4A4568
:1062D0000CD1628A5A4509D110222146A148019366
:1062E00004F0CCFC019B002800F0F68030349C4286
:1062F000E7D195F8353003F03F03022B08D19A4AD5
:10630000002332F81310494550D00133082BF8D13F
:1063100095F83520914B520700F17483142283F8CD
:1063200035203C223280502283F8342093F83320E9
:1063300093F8314093F82F0083F82F2093F8322000
:1063400093F82E1093F8307083F82E20013093F8D4
:106350002D2083F82D4093F82C40C0B283F83210E2
:1063600083F8312083F82C7083F8304083F83300B1
:1063700060B90131C9B283F8321039B90132D2B2F1
:1063800083F8312012B9621C83F830202B8D6A8D7E
:10639000744C2A856B8504F1100594E80F0085E89C
:1063A0000F002946204600F09BFC0CE30024224607
:1063B0006B4B93F8251021B9694B302404FB023450
:1063C00013E0072909D13CB193F8260094F8261070
:1063D000884288BF1C4600E01C4601320A2A03F1AD
:1063E0003003E6D1002C00F00D83604B00271C60C9
:1063F000032384F8263084F82430042384F82330DF
:10640000584B84F822700FCB84E80F00584B0120C2
:106410001A7884F8250022765A78A08362769A78D2
:10642000DB78A276E37695F82C3084F82770237514
:1064300095F82D30A4F81090637595F82E30A4F8D7
:1064400012B0A37595F82F30E375FFF795FB95F81B
:10645000343003F0F002502A24D91A093B46053A99
:106460009200E91891F83C00E0B1012801D1013314
:1064700016E002280FD191F83D0004280BD191F8C5
:106480003E2091F83F3043EA0223402B28BF4023AF
:10649000E383238406E0E91891F83D1011B10B4421
:1064A0009342DEDB10222D4B83F835202B4B93F8E3
:1064B000352042F0020283F83520022283F83C2086
:1064C000042283F83D20002283F83E20402283F8F6
:1064D0003F20328060223AE2244B95F835101C6050
:1064E000244B11F0040F1870994603D084F825004E
:1064F0002022DAE1338808F00F08A3F12802174BB5
:10650000B8F1020F93F834304FEA1313A2EB830370
:106510009BB2338003D101F03F02122A05E0B8F1AB
:10652000010F03D101F03F02022A25D00BB98B07DE
:1065300022D0AA8DA38A9A4204D1084BDA8DE38A2D
:106540009A4219D0880740F1FB81B8F1010FA9D018
:10655000B8F1020F40F0F481A8E700BF0C630020FF
:1065600034680020146300201C6A0020306800207A
:106570005B5D002020680020C9064DD5A18B002955
:106580004AD004F11800FFF7CDFAAF4B95F8301060
:1065900093F800E0AD4A8E453ED192F8311058781C
:1065A000884239D192F832C09978614534D192F855
:1065B0003320DB7893422FD1E37694F8273084F8A8
:1065C00018E06076A176F3B994F8243094F8262088
:1065D00094F822109B1AA3EBD103DBB258B2002827
:1065E0001944BCBF5B4258B294F82330C9B2A3EB44
:1065F00093031A18D3B284F8233003EBD10384F841
:10660000221084F82430012389F8003094F82430D3
:1066100084F826300023A38394F8252002F00F038A
:10662000013B072B00F2EE81DFE813F008002500A4
:106630008200430165017F018A01350199F800203C
:10664000834BD2070FD5032284F8252030884022BF
:106650001A700022A283002800F0C68042221A701D
:10666000FFF78AFAC0E095F8353003F03F03022BBC
:1066700040F0C88116E799F80030DB074DD595F852
:10668000353003F03F03122B47D1704B93F8343071
:1066900003F0F002502A24D91B09053B9B0000227D
:1066A000A91891F83C00E0B1012801D1013216E0AF
:1066B00002280FD191F83D0004280BD191F83E201B
:1066C00091F83F3043EA0223402B28BF4023E38365
:1066D000238406E0A91891F83D1011B10A449A42AA
:1066E000DEDB032384F8253095F82C300120237558
:1066F00095F82D30637595F82E30A37595F82F30E9
:10670000E375FFF739FA4223524A89F80030002333
:10671000A38333803B70138069E0202389F8003025
:1067200001F036FA4C4B00221B6883F82520EFE578
:1067300095F83530D80725D5D10623D4A38B002B67
:1067400040F060813088013080B2FFF715FA99F887
:10675000003043F0100289F8002032881AB13C4A18
:1067600043F01203137001F013FA0123A3830823EB
:1067700084F82530002384F827301122334B83F826
:106780003520E0E09B0610D56B8FDAF800005BBA8D
:106790009BB2034495F83A7095F83B10CAF8003064
:1067A000338841EA07215B1A3380308848B1D70625
:1067B00007D499F8003043F0020389F80030FFF75E
:1067C000DBF995F8362095F8373003EB0223228C5D
:1067D0009BB2934202D8002B18BF1A4699F800309A
:1067E000E283990700F00E811A4B00221A8001F013
:1067F000CFF9174B1A78174B02F0200000F0FF0179
:1068000028B100221A8084F825201422B6E702F06D
:10681000100000F0FF0540B119800123A383042379
:1068200084F8253084F82710A7E71988B9B1D20772
:1068300048BFA583A28B8AB9E28B914288BF1A8098
:106840001B88A3830BE000BF006300200C630020C3
:10685000206800202C6A0020306800201A80002365
:1068600084F827306D4B1B68CAF800306C4B1B88CE
:106870002BB1A38B1BB13C333380182207E0694B4B
:106880001B789F0740F1BE803C2333801022664B6B
:1068900083F8352059E099F80030DD0740F1B280E7
:1068A000002384F825305F4B10221A7001F070F934
:1068B000A8E0308808B1FFF75FF995F8353013F09C
:1068C00001030FD099F80030D80745BF072384F89B
:1068D00025300623002346BF84F82630A38384F89E
:1068E000253016E099F80020D1071BD5052284F841
:1068F0002520A38386E0308808B1FFF73DF995F89D
:106900003530DA070ED5072384F82530002384F8C4
:1069100026300120FFF730F9102389F8003001F00C
:1069200037F90DE033885BB96CE099F80030DB078C
:1069300068D5072384F82530002384F8263061E0E9
:10694000102385F835303C233380374B502283F8B1
:106950003420237D344D85F83030637D05F11807F0
:1069600085F83130A37D85F83230E37D85F833300A
:10697000237E85F82C30637E85F82D30A37E85F844
:106980002E30E37E85F82F30238A2B85638A6B8532
:1069900094E80F0087E80F00394605F1080000F081
:1069A0009FF994F8253003F0100303F0FF022BB198
:1069B000002385F8373085F8363004E0402385F829
:1069C000362085F83730184C0623A371174B1B79F6
:1069D000E3713388283B1A1263710023227184F813
:1069E0003B3084F83A30238704F094FCC04320877E
:1069F0000D4B60221A7000225A705A80094B0022F7
:106A00001A7007E00A4A002313700A4A3380137091
:106A1000044A137003B0BDE8F08F00BFFC62002091
:106A20002C6A0020206800200C630020786B002076
:106A3000595D00205A5D00202DE9F341154D00916C
:106A400004460E4690461F46019503462022032128
:106A5000114804F06EFC01282B4616D12A6804F177
:106A60001001107020462A68023250F8044B884208
:106A700042F8044BF9D11868089B86744361099B5E
:106A800080F813800777836100E0002002B0BDE842
:106A9000F08100BF30460020746C0020F8B5074636
:106AA0000B4B0C4D03F160062B602C68B4420BD2EB
:106AB000237833B1A27C3946D208A01C04F0DEF85A
:106AC00020B120342C60F0E70020F8BD0120F8BD93
:106AD000746C00203046002013B5084C80230093CE
:106AE0000194034620220321054804F022FC08B942
:106AF000206800E0002002B010BD00BF3446002036
:106B0000906B002030B548F2FE040C4B0C4A03F1A8
:106B10006001136013688B420CD21D783DB1451C97
:106B200002D09D7C854202D15D88A54203D02033EE
:106B30001360EFE70023184630BD00BF906B0020C4
:106B40003446002037B5104D802300930446034699
:106B50000195122205210D4804F0EBFB01282B467C
:106B60000ED12A6804F11001107020462A68023202
:106B700050F8044B884242F8044BF9D1186800E001
:106B8000002003B030BD00BF2C460020146C002054
:106B9000F7B5214C80230093054603460E46174661
:106BA0000194202203211D4804F0C3FB012830D1A9
:106BB0002A46236805F1100118702368023352F841
:106BC000040B8A4243F8040BF9D12068C77416B944
:106BD0000123037505E0002303753146183004F0E6
:106BE00094FA23680E480121997402234370FF220E
:106BF0000023027043808380C38003818372C1724B
:106C000002736B7B4373EB89C381FFF79BFF2068A3
:106C100000E0002003B0F0BD34460020906B00205F
:106C20002450002013B5084C8023009301940346A0
:106C300012220521054804F07CFB08B9206800E019
:106C4000002002B010BD00BF2C460020146C0020B4
:106C500038B50546C8B10D48022200244270FF2312
:106C60000122C27244808480C480048184720373D0
:106C70000370EB7B43732B8AC381FFF7D3FF044A76
:106C8000106008B104F079FB2C7038BD245000204E
:106C90002C46002070B50F4C0F4B2646236003F1A5
:106CA00060052068A8420ED2037843B1037D33B952
:106CB0001830FDF755FD10B13068FFF7C9FF2368A4
:106CC00020332360EDE700F069FBBDE87040034826
:106CD00004F0F9B934460020906B0020D46C0020F9
:106CE0002DE9F84F48F2FE030A8805469A420F46FE
:106CF00023D00A78FF2A20D01C490024A0468946C8
:106D00009B461B4A0A6002F1600AD9F800605645AA
:106D100017D233786BB1B37C012B0AD173885B45F2
:106D200007D0B11C384604F035FB80459CBF344683
:106D300080462036C9F80060E7E70120FFF7E2FE51
:106D400004464CB92C806C80AC80EC802C816C812A
:106D5000AC81EC81BDE8F88FA31C123453F8042BEE
:106D6000A34245F8042BF9D1BDE8F88F3446002042
:106D7000906B002070B5094EB0684508FDF782FDA4
:106D80000446FDF77FFD2402B268A4B22044B0FBA4
:106D9000F2F302FB1300284470BD00BF786B0020A3
:106DA00073B52F4C00F07CF800F014F9602200213C
:106DB0002C4804F06FF80021F822204604F06AF80D
:106DC000294B20221A70294B18221A704FF4A06305
:106DD0002360274B40262671A360FFF7CBFF42F2CA
:106DE0001073236148F2FE03314640F2FF2600256E
:106DF000E06025751F4C2A46238065802B46A580C0
:106E0000E580204601950095FFF716FE20461A49B9
:106E100004F0B7FA294601222046FFF7B9FE4FF4E5
:106E200080732046E38126806580A580E5802581EA
:106E30006581A581FFF786FE4FF40073204626800A
:106E40006580A580E58025816581A581E381FFF7C7
:106E500079FE0A480C2102B0BDE8704004F02AB95E
:106E6000786B0020746C0020716C0020706C002026
:106E7000C02709002450002004630020D46C0020A7
:106E800010B5044640B100F089FF044B2146BDE82F
:106E90001040186802F08EBC10BD00BFA840002052
:106EA00008B502F03DFB034B03491868BDE80840F4
:106EB00002F0CCBBA8400020816E200070B50446D3
:106EC0000C481E469DF81020059B006802F0EEFB62
:106ED000054668B120462B4604F1100250F8041B09
:106EE000904243F8041BF9D16E74284600F056FF17
:106EF000284670BDA8400020024B0146186805F0E6
:106F00008CB900BFA840002070B50C4D064628681B
:106F100002F0B0FB044666B9002070BD1022314675
:106F2000204603F0ABFE38B12146286805F047F94A
:106F30000446002CF2D1EFE7204670BDA8400020A7
:106F4000024B0146186805F055B900BFA840002063
:106F500070B5054610200E4602F07CFD0849044637
:106F600005F0E2F858B932462946204602F076FA92
:106F7000324629462046BDE8704000F0E5BE70BDAF
:106F800079CA20002DE9F84305460F480F46904680
:106F900004F0E5F80446DFF8389094B1012D04D8E8
:106FA0000A4804F00EF9034601E0D9F800304246E1
:106FB000394628466668B047204604F009F9044679
:106FC000EBE7BDE8F88300BF044A00207C460020C0
:106FD0007846002008B50B4804F0FDF80A4804F094
:106FE000BBF80A4B0A49186802F030FB094804F064
:106FF000F2F8094804F0B0F8BDE80840074804F08A
:10700000ABB800BFDC40002000470020D840002083
:10701000F1B32000BC4000207C460020044A002040
:1070200008B540B1044B4168186805F0F6F8BDE8B2
:10703000084004F0CEB908BDD8400020014804F053
:107040008EB800BF0047002008B504F0C4F938B17D
:10705000044B0146186805F0CDF8003018BF012038
:1070600008BD00BFD84000202DE9F0418046FFF761
:10707000E5FF002704463E469CB194F82450AF42F9
:107080000AD8EA0804F10801404603F0F7FD18B9F0
:10709000802D08D02F462646204604F0A5F9044648
:1070A000EAE76EB13446084804F059F8844207D044
:1070B0002146054804F05DF82146034804F079F8BC
:1070C0002046BDE8F08100BF0047002038B50446E7
:1070D00000283ED04368002B3BD001461D4804F0F9
:1070E00048F86368586804F03AF8054630B14368D8
:1070F0009C4207D0284604F06BF8F6E704F108003C
:1071000000F07AFD63682946586804F032F8636835
:10711000586804F024F828B9636859680E4B186859
:1071200002F048FB21460D4804F079F829460C4846
:1071300004F075F80B4A20461368013B1360FFF713
:107140006FFF04F108010246BDE838400320FFF755
:1071500019BF38BD00470020D8400020DC40002087
:10716000E84000207846002010B5044680B1406811
:1071700070B103F0F4FF20B14068FFF7A7FF60682B
:10718000F7E7044B2146BDE81040186802F012BB37
:1071900010BD00BFD84000202DE9F84F074610462B
:1071A0008946904604F017F9834610B90020BDE8DF
:1071B000F88F3846FFF758FF044660B1FFF730FFFD
:1071C000014628B11022404603F058FD002856D051
:1071D0002046FFF77BFF2B4B1A689A46102AE5D012
:1071E000294E5946306805F005F8054668B903464A
:1071F00004225946306802F059FA05460028D5D0D5
:1072000000236860036003F0A7FF204803F0F3FF4A
:1072100004460028CAD001461D4803F0CAFF1D4895
:1072200003F0E9FF20B92146184803F0F8FFBDE755
:1072300044600146686803F0AFFFDAF8003065602B
:10724000013329463068CAF8003002F0C9FA3B46DB
:1072500004F1080507F110062A4618685968083332
:1072600003C2B3421546F7D1002384F82490A361EA
:10727000E3612362424639460220FFF783FE20463F
:10728000BDE8F88F78460020D8400020DC40002080
:1072900000470020E840002038B505460D4803F0BF
:1072A0005EFF0446A0B1AC420ED12146094803F06E
:1072B00060FF2146084803F0B2FF221D1146BDE8D9
:1072C00038400120FFF75EBE204603F081FFE8E76B
:1072D00038BD00BF7C460020BC40002038B50546C4
:1072E000084803F03CFF044648B110222946201DFF
:1072F00003F0C4FC18B1204603F06AFFF3E7204610
:1073000038BD00BF7C460020F8B505460F46FFF7A4
:10731000E5FF044640B9134803F06DFF0446F0B1A1
:107320000146114803F045FF2B46261D05F1100EBE
:10733000324618685968083303C273451646F7D1B8
:1073400037B1394604F1140003F0DFFE002300E0FA
:10735000012323772A4629460020FFF713FE204603
:10736000F8BD00BFBC4000207C46002038B50A486C
:1073700003F0F5FE044600255CB1251D2846FFF705
:10738000C3FD08B1437C23B9204603F021FF044626
:10739000F2E7284638BD00BF7C46002010B50A48F9
:1073A00003F0DDFE044670B1237F43B904F11400FD
:1073B000FDF7D6F918B12046FFF76EFFEFE720463C
:1073C00003F006FFEEE710BD7C4600202DE9FF47E5
:1073D000224C234D04F108030FCB8DE80F002B78CE
:1073E0006F4694F80780BBB11E493A22A2710A8801
:1073F000D21A92B20A80A2F128010812207103F178
:1074000028002044C3F1040361712C3A011D184483
:1074100003F0DCFC00232B70134803F0A0FE0646AB
:10742000DFF840A09EB1D6F80490B9F1000F09D062
:10743000BAF800302A782C3B22449BB238324146BD
:107440003846C847304603F0C3FE0646EAE7054B18
:107450002E701E8004B0BDE8F08700BF0C630020D2
:10746000595D0020F8620020084A0020F8B52C4B36
:107470002C4C1B7904F11806E371237E04F10805F6
:10748000FF2B08D195E80F0086E80F00314628460B
:10749000FFF726FC1BE02F46B646234A3B4603CBAC
:1074A0007345106051601F4602F10802F6D196E85C
:1074B0000F0085E80F001C4B1C4D03F110062A46F7
:1074C00018685968083303C2B3421546F7D1184DFE
:1074D0002B78BBB117493A22A2710A88D21A92B20C
:1074E0000A80A2F128010812207103F1280020442B
:1074F000C3F1040361712C3A011D184403F066FCCA
:1075000000232B702B7881222833E518E2540023C6
:107510006B706B8003F0FBFEC0436880F8BD00BF5A
:10752000786B00200C63002054510020246300205D
:10753000595D0020F862002038B504460B480D461E
:1075400003F00DFE50B10379A34204D143799D426B
:1075500006D0FF2B04D003F03BFEF3E7012038BD3B
:107560008368002BFAD09847002038BD0C4A0020D1
:107570000146014803F010BE0C4A00202DE9F74FE8
:10758000474D82462B7889469346464C43B1283373
:10759000E35C3A2B0BD1444A002313802B707CE030
:1075A000A3793A2B03D194F92830002BF3DA3F4E1C
:1075B00000F08CFF37463E4A06F1100E334603CBEF
:1075C0007345106051601E4602F10802F6D1364E36
:1075D000DFF8D0803388414630339BB2B3F5A06FDB
:1075E00088BF4FF4A063338032882B78D21A04EB23
:1075F0004300303A3030019303F0E8FB6022019BF6
:1076000022700022627062803A2213B188F828202A
:1076100001E088F80620274A224B1279E27122897C
:1076200072B95A8962B99A8952B9DA8942B91A8A01
:1076300032B95A8A22B99A8A12B9DB8A002BAAD0A7
:107640001D4B0FCB87E80F00194B1B78FF2B05D183
:10765000BAF1040F9FD1B9F1020F9CD11449164819
:10766000FFF73EFB2F78584607F12803E21804F88D
:1076700003A082F8019003F053FE33882C37283B97
:10768000E0511A1263712B78227128331C440023B5
:10769000638003F03CFEC043608003B0BDE8F08F20
:1076A000595D00200C630020F86200202463002054
:1076B00054510020786B0020146300202DE9F04124
:1076C0001E460F461B4905460C4660230B700023DF
:1076D0004B704B803A238B71174B90461B7900F10E
:1076E000100ECB71331D1A120A714B7101F1180281
:1076F000134628686968083503C375451A46F7D1EB
:107700000E492C36A1F11000FFF7EAFA0C4B1B785A
:107710002833E518E75400236B8085F8018003F0D7
:10772000F6FDC043074B68801E80BDE8F04100F0C5
:10773000FFB800BF0C630020786B0020246300209A
:10774000595D0020F862002008B50448FFF710FFDB
:10775000BDE808400248FFF70BBF00BFF44000201F
:10776000004100202DE9F043038885B0054614460A
:1077700053B18B2B03D000230380032038E01E4B32
:107780001B788B4200D11CB98B232B8001202FE06A
:107790001A4B1B789B07F7D5194B1A49B3F8009081
:1077A000194B4A461846096803F09AFAA769034636
:1077B000002FE9D01549164E488DB1F828E0226A0D
:1077C0000193030AD6F8008043EA002332604FEAAF
:1077D0001E2242EA0E229BB20093CDF8089001F1DE
:1077E000180392B208312046B847C6F80080CBE7AC
:1077F00005B0BDE8F08300BF916E00202068002036
:10780000F86200202C680020835D00200C630020BB
:10781000004300202DE9F8431B4D0E46297804460D
:107820001746984621B91948FCF750FF01232B70E1
:10783000E682A4F814805FB13A46251D07F1100EC8
:107840002B4610685168083203C372451D46F7D1B4
:10785000089B0F4DA36198FA98F10C4B224689B210
:107860003846D5F800902B6000F030F8E06110B198
:107870000EB176BA0682E069C5F80090003018BFF4
:107880000120BDE8F88300BF825D00200C4100208C
:107890000043002008B5054803F027FC20B1BDE8EF
:1078A0000840024803F018BC08BD00BF544A00203D
:1078B000024B1B6803B1184718467047644A002002
:1078C000014B1860704700BF644A002010B5144691
:1078D000FEF7C2F918B1024BC4611B68836110BD89
:1078E0000043002007B5074B8DF80700186828B142
:1078F000054B0DF107021978FCF7DEFE03B05DF8C9
:1079000004FB00BF146A0020926E002008B500221C
:1079100002210448FCF7D0FE034A00231380034AE7
:10792000137008BD1C410020F8620020595D002042
:1079300038B5274D2B88002B48D0B3F5A06F26D83B
:10794000244C238B6BB9638B5BB9A38B4BB9E38B53
:107950003BB9238C2BB9638C1BB9A38C0BB9E38C7B
:10796000ABB100F0F1FD90B1237EFF2B0CD01A4893
:10797000FFF794F880B11848FFF7C6FA08B92880D5
:1079800038BDFFF7B9FA00E00020FFF791FF134A76
:1079900000232B80137038BD0F48FFF765FB0446AA
:1079A00020B9FFF7E3FC0028E6D1F0E7FFF738FB4A
:1079B0000028E1D1E36923B11B6A93F8940003F036
:1079C000C3FF2046BDE83840FFF780BB38BD00BF8D
:1079D000F86200200C63002024630020595D002021
:1079E0002DE9F04103880646144643B140F24B327C
:1079F000934225D0002303800320BDE8F08119467F
:107A0000564A22F833100133082BFAD1544B1A6826
:107A1000524B1A64FCF7C6FD524B1870FCF7C2FDBE
:107A2000514B40211870514803F044FBFEF7BCF85D
:107A300000F0E6F940F24B3333800120BDE8F081DD
:107A4000022917D14A4B1A881C46002AF2D0494B0A
:107A50009A79062A05D193F835309B0701D5FFF7AF
:107A600019FF0120FEF750F92388002BE2D0FFF721
:107A70005FFFDFE716D859B9002CDBD03E4B03205F
:107A80001C60FEF741F9FFF753FFFFF703FFD1E753
:107A90000129CFD1002CCDD0384B05201C60FEF73A
:107AA00033F9E4E787292BD08829C3D12F4B9C4297
:107AB0001BD1204603F019FB0028BBD0304FDFF864
:107AC000B8800024E51995F825304BB1274803F01C
:107AD00003FB0220C8F80050FEF716F9FFF728FF55
