:020000040020DA
:10200000407800208D222000EBBA2000E9BA2000A1
:10201000E9BA2000E9BA2000E9BA20000000000077
:1020200000000000000000000000000099CC20002B
:10203000E9BA200000000000B7CC200057BB200008
:1020400069BB20006FBB200075BB20007BBB20005C
:10205000000000005DBB200063BB2000E9BA200047
:10206000E9BA2000000000000000000000000000AD
:102070000000000000000000E9BA2000000000009D
:102080000000000000000000E9BA2000E9BA2000CA
:10209000E9BA2000E9BA2000E9BA2000E9BA200034
:1020A000E9BA2000E9BA2000E9BA2000E9BA200024
:1020B000E9BA2000E9BA2000E9BA2000E9BA200014
:1020C000E9BA2000E9BA2000E9BA2000E9BA200004
:1020D000E9BA20000000000000000000000000003D
:1020E00000000000000000000000000000000000F0
:1020F0000000000000000000AD362000BD362000CA
:1021000000000000000000000000000000000000CF
:1021100000000000000000000000000000000000BF
:1021200000000000000000000000000000000000AF
:10213000000000000000000000000000000000009F
:10214000000000000000000000000000000000008F
:10215000000000000000000000000000000000007F
:10216000000000000000000000000000000000006F
:10217000000000000000000000000000000000005F
:10218000000000000000000000000000000000004F
:10219000000000000000000000000000000000003F
:1021A000000000000000000000000000000000002F
:1021B000000000000000000000000000000000001F
:1021C000000000000000000000000000000000000F
:1021D00000000000000000000000000000000000FF
:1021E00000000000000000000000000000000000EF
:1021F00000000000000000000000000000000000DF
:1022000000000000000000000000000000000000CE
:1022100000000000000000000000000000000000BE
:1022200000000000000000000000000000000000AE
:10223000000000000000000000000000000000009E
:10224000000000000000000000000000000000008E
:10225000000000000000000000000000000000007E
:10226000000000000000000000000000000000006E
:10227000E9BA200091352000B535200061312000F9
:102280002D382000452B2000E9BA200008B5094B65
:10229000FF221A600848094A4824E369121A0849CB
:1022A00098470848084AA369121A0021984700F085
:1022B0000DF8FEE7B4200D40404000201042002001
:1022C00020DA2000104200203F700020F7B500F017
:1022D00089FD00F043FE00F09FFD00F093FB01F04C
:1022E00093FA09F0E8FC00F031FE00F0C7F8012095
:1022F00009F0FEFB02F082F800F060FD002000F023
:102300007BFC012000F078FC4849002000F040FDF3
:1023100002F0CAF962B6042009F0EAFB444809F069
:1023200047FC444809F044FC00F00EFB002002F09A
:10233000DDF901F053F900213F4802F0EBF801F01C
:1023400091FE09F003FC00F02FFF00F04BFF07F0B7
:102350007BF90821684601F07DFA9DF807309DF869
:102360000670364C43EA07276B4603CB206061605A
:10237000334801F0A9FA0025615D3248013501F0CA
:10238000A3FA072D2D4EF7D12F4DF1792F4801F0EB
:102390009BFAEC6A4AF6CD310220A0473946032069
:1023A000A0471A210120A047694608226B6B0B2029
:1023B0009847274801F088FA264B186809F0F8FB7F
:1023C000254801F081FA254B186809F0F1FB2448F3
:1023D00001F07AFA234B186809F0EAFB224A3368C5
:1023E00013607368536007F069FA00211F4802F018
:1023F00091F800211E4802F08DF81E4B01219B68C8
:102400008120984709F02DFC1B4809F020FC00F0C2
:10241000DBFC022009F06CFB00F0DCFC02F006F8AB
:1024200010F0FF0FF8D101F083F9F5E765462000C1
:1024300068D5200082D52000784000203770002029
:10244000A7D52000C5D5200058D42000CBD520002A
:10245000D1D52000D0D32000D8D52000DCD3200057
:10246000DFD5200004D42000A86400201C410020F7
:102470009840002008D3200090D4200008B500F038
:1024800003FA024B00221A7008BD00BF0E5700204D
:10249000024A13781843107000F01ABA0E57002041
:1024A000034A137823EA0000107000F011BA00BF4D
:1024B0000E570020024A13785840107000F008BAF6
:1024C0000E570020034B00221A60034A1368002BAA
:1024D000FCD1704780A00D4020A00D40014BFF2291
:1024E0001A60704780A00D40064B186006480268CD
:1024F000054912F0100FFAD10A685207FCD5186886
:10250000C0B27047088000400C800040F0B510B9A0
:10251000002936D100E00AB90120F0BD29B1234CD1
:10252000234D002326462F4624E0204C204D034611
:102530002746AE461E1A964201DB0020F0BD216000
:102540002E68F606FCD4DEF800607607FBD53E6800
:1025500003F8016BEEE7D5F800E01EF0100FFAD19A
:10256000D7F800E01EF0040FFAD0D6F800E000F82B
:1025700003E001339342E0DA11F803E0C4F800E02D
:10258000E9E7002AC8D0094C09480B46264605460B
:102590005F1ABA42D1DD13F8017B27600768FF0696
:1025A000FCD42F687F07FCD53768F1E7088000402E
:1025B0000C80004008B51A4A136823F0100313601A
:1025C00052F8203C23F0100342F8203C52F81C3C07
:1025D00023F0100342F81C3C52F8183C23F010037F
:1025E00042F8183C0F4B1A6810B142F0100201E09B
:1025F00022F010021A600C4A0120136843F0100305
:1026000013600422114600F0B7FC084B02221A6046
:10261000012104220648BDE8084000F04FBC00BF7D
:1026200020A40D400CA40D4010A40D4000E100E0DA
:1026300049BB200008B5074A0120136843F0100386
:1026400013600422114600F097FC034B02221A602B
:1026500008BD00BF10A40D4000E100E0024A13686D
:1026600023F010031360704710A40D40024B18684C
:10267000003018BF0120704740A00D4010B51B4A24
:1026800007211368022023F08003136052F8203CD6
:10269000FF2443F0800342F8203C082200F06CFC49
:1026A000134B05211C60012000F0FCFC002000F011
:1026B00083FC104A136823F0100313600E4B196853
:1026C000A3F5607321F01001C3F88013116821F0A5
:1026D00001011160D3F8802322F00102C3F88023A6
:1026E000064A1C601368002BFCD010BD20B40D40BE
:1026F00000B20D4020A40D4000A40D4020A00D40CC
:1027000020B1012805D1044B18787047034B186895
:1027100070470020704700BF0F57002020900D40E9
:1027200010B5094A0020137801331370074B19784C
:1027300001F0C8FEBDE8104005490023054A0968BC
:10274000054801F0C5BC00BF0F5700202E700020C7
:10275000484200202127200020420020812808B57F
:102760002AD0B0F5807F39D0802839D101F03EFEE3
:102770001C4B1D4A18701368032123F008031360D3
:1027800052F8203C002023F0080342F8203C52F885
:102790001C3C23F0080342F81C3C52F8183C43F060
:1027A000080342F8183C042200F0E6FB0322002153
:1027B0000E4800F083FB13E00D4B0E481A6829B158
:1027C00042F008021A600123036005E022F00802CB
:1027D0001A600123C0F88030084608BD064B196016
:1027E000012008BD2E70002020940D40FD27200000
:1027F00010940D4000E100E04842002008B50F4869
:1028000009F074FAC8B108210C4809F05DFA0C4BC4
:10281000196869B10B4B00221A700B4B1B6823B966
:102820000A4A0B4801F054FC02E0094801F092FC0E
:10283000BDE80840074802F005B808BD4042002046
:10284000484200200F57002020900D4021272000F3
:102850002042002008D32000084A136823F0040314
:10286000136052F8203C43F0040342F8203C044B30
:1028700004221A60034B01221A70704720C40D40D5
:1028800010C00D40105700200D4A0E49136823F068
:10289000C003136052F8203C43F0C00342F8203CD0
:1028A000094B00221A600B6823F010030B6051F8EB
:1028B000203C43F0100341F8203C044B1A60704761
:1028C00020A40D4020C40D4000A30D4040C00D4089
:1028D00000F0020202F0FF010B4B12B1FF221A605E
:1028E00000E0196000F0040202F0FF01074B12B192
:1028F000FF221A6000E0196010F00100044B1ABFBB
:10290000FF221A601860704700A20D4000A10D4020
:1029100040C00D40044B1868C0F30720030904BFF2
:102920001030C0B2704700BF1C300D40054B186816
:10293000C0F3C21001289ABFC0F1020040034FF457
:102940000040704714300D402DE9F04788B0FFF784
:10295000E1FF174B48251C68AB68074698476B6832
:10296000804698470546FFF7E1FF064600F08EFADD
:10297000814600F097FA824600F044FAB60A04F065
:102980000103AD0AC4F3400406900393CDF814A0EC
:10299000CDF8109002940196009507F00F03C7F34D
:1029A00007124146034800F08FFF08B0BDE8F087EA
:1029B0001C300D40EDD52000F8B500F081F80F4B2C
:1029C0000024D3E900673A46B04238BF7A1C154666
:1029D0000443C3E90045DFF828E0DEE90001821B7B
:1029E00061EB070312196B41CEE9002301F066FC8D
:1029F00018B1BDE8F84001F0E5BBF8BD1042002079
:102A0000184200200D4B0E4AE0215A600D4A82F810
:102A10002310002207219A6019600B490B6843F0CC
:102A200001030B60094B1A60042243F80C2C0122AD
:102A300043F8082C0F22DA62704700BF10E000E074
:102A400047E8010000ED00E008200D400C000340C5
:102A5000034BD3E90023100A40EA0360704700BF2C
:102A600010420020034BD3E90023D00B40EA43403F
:102A7000704700BF18420020054B18601C3B1A68C5
:102A800042F001021A601A68D207FCD4704700BFF6
:102A90002800034010B5064C236823F0010323608F
:102AA000FFF78AFF236843F00103236010BD00BFD6
:102AB00010E000E0014B1868704700BF4C42002056
:102AC000074B084A196804331B681268120442EA6B
:102AD0000323054A0B43106843EA0060704700BFB8
:102AE00040500D4048500D404C500D4010B504462C
:102AF000104A1368DB07FCD572B6FFF7E1FF231A13
:102B0000062BD8BFC41D0C4B220E1A60C4F307421B
:102B100043F8042CC4F3072243F8082CE2B243F82C
:102B20000C2C62B6054B4FF400321C60044B1A614A
:102B300010BD00BF50500D404C500D404C42002085
:102B400000E100E008B500F0D7FD074B00221A6055
:102B5000064B4FF40032C3F89021C3F89020BDE833
:102B6000084001F00DBD00BF4C42002000E100E034
:102B7000064B1B681B075FBF054B186880F00800F9
:102B8000C0F3C00048BF0020704700BF18C000401D
:102B900018D00040164A2C2303FB00234FF6BF72C7
:102BA00070B5DC680546236C62649BB213F050027A
:102BB0000DD0104EA369DB0608D456F825301BB1A2
:102BC0002068C0B29847F5E72368F3E770BD13F4B7
:102BD000D06F0BD04FF440732363FF236360E36A2D
:102BE000E262E362236B43F00103236370BD00BF25
:102BF00018D320005042002001282DE9F74F064647
:102C000000F2B6802C2545435B4F7C1994F9208057
:102C1000B8F1000FC0F2AC8094F92290B9F1000F26
:102C2000C0F2A680554800F0DDFD554A7B59116879
:102C3000E5680B4313605168636894F921A00B4366
:102C400053609168A3685FFA89FB0B43936000238C
:102C5000C5F8C83F23690AEBC8021A6094F923300B
:102C6000227D00939DF8003058461946019300F0EC
:102C70008DF9019B08221946584600F07DF9414A1A
:102C80004FEA0939009959F80200012303FA01F1CA
:102C9000014349F802104FEA083858F8020003FAD5
:102CA0000AF1014348F802105021A963A96B94F975
:102CB000240041F4D061A963022169634FF440719B
:102CC0002963A16900286962E169A9624FF0700176
:102CD000E962154616DB94F92510A2F5A64241EAF1
:102CE000C0041C3A1460040362598B4013436351BF
:102CF0000022C9B2C0B200F03FF9234A136843F47E
:102D0000004313602C2303FB067393F92640002C29
:102D10001BDB93F927A05FFA84F85FFA8AF9012296
:102D200049464046240300F031F96259012303FA71
:102D30000AF31343635108224946404600F01CF948
:102D4000114A136843F4804313602C2303FB067677
:102D5000F268136B43F00103136396F828300122E5
:102D6000590903F01F0302FA03F3084A42F821301D
:102D700003B0BDE8F08F00BF18D32000712B2000F6
:102D800028200D4020940D4030D0004000E100E0AC
:102D900001289CBF014B43F820107047504200208F
:102DA000012808D8044B2C2202FB0030C3689A6922
:102DB0009206FCD41960704718D32000014B002202
:102DC0001A60704700500D40014B08221A6070478E
:102DD00000500D40024BA0221A6050221A6070472A
:102DE00000500D40014B024A9A60704700ED00E030
:102DF00000202000024B1868C0F38150704700BFCC
:102E000004200D4008B5FFF7F5FF024B53F82000F2
:102E100008BD00BF70D3200038B5164D164C2B6886
:102E2000012223F040032B602368062123F0400396
:102E30002360032000F0A0F82B68012223F0800318
:102E40002B602368072123F080032360032000F018
:102E500093F80A4A0A4B0B491A600A680A4B134056
:102E6000084A002BF9D113685901FCD413685B019F
:102E7000FCD538BD20C40D4000C40D400101020046
:102E800000200D4004200D4000000101034B0448C8
:102E90001B6803F007031841704700BF04200D4072
:102EA0000048E801034B04481B68C3F302231841A0
:102EB000704700BF04200D400048E801024B02EBC0
:102EC000C10243F82200704758420020F8B5074677
:102ED0000E46094D002405EB411547FA04F3DB07C4
:102EE000E1B204D555F824300BB13046984701348F
:102EF000082CF2D1F8BD00BF584200202DE9F04760
:102F000080464FEA0837DFF8409007F1804505F525
:102F1000592500F0F1FBD5F8186457F809304FEA4D
:102F2000C80A23FA0AF446EA0400E4B24146C0B2F1
:102F3000F6B204FA0AF4FFF7C9FFC5F81C6447F8B3
:102F40000940BDE8F08700BF18970D40802200219E
:102F5000014808F07BBD00BF58420020034A044BE3
:102F60001A60044B803A1A60704700BF80400D40E1
:102F7000DC420020D8420020034B01EBC0011B685B
:102F800043F82120704700BFDC420020034B01EBD7
:102F9000C0011B6843F82120704700BFD8420020C1
:102FA000012806D8034901220B6802FA00F01843F1
:102FB0000860704718200D402DE9F04F012887B0B8
:102FC000054667D818235D43344F7C1994F9116086
:102FD000002E5FDBFFF7E4FF94F912807D595FFA62
:102FE00088F300275FFA86FB19466F60227A5846FD
:102FF000C5F8C87F0593FFF7C9FF94F91330227B0A
:1030000001939DF804303603029394F9143002982A
:1030100003939DF80C3019460493FFF7B7FF94F91A
:10302000159094F916A062680AEBC90111601C4A58
:103030000121B058019B01FA08F848EA0000B0509D
:103040001E03039B56F802E001FA03F040EA0E006B
:10305000B0504FEA09308658059B01FA0AF1314316
:10306000815019463A465846FFF786FF3A4604997A
:103070000298FFF781FF3A465FFA8AF15FFA89F01A
:10308000FFF77AFF237C2B61C7232B606B6843F02B
:1030900002036B6007B0BDE8F08F00BF80D3200053
:1030A00020940D4038B50B4A0403A35801258D40E8
:1030B00023EA0503A3500022FFF75EFF064AA35848
:1030C0002B43A35004F1804404F55924FF2344F812
:1030D000253038BD20940D4000940D400E2870B569
:1030E0000BD1154B154E1C6844F002051D60356868
:1030F00025F03F0343F001033360114E336823F0A2
:10310000FF031A43114301430E4A316013681B0643
:10311000FCD50D4B0D4A1B6812680E2803F0FC030A
:1031200043EA022308BF054A1BB204BF1560024AE6
:10313000184608BF146070BD34000144F48608408E
:1031400008700D4000700D400C700D4010700D4067
:10315000024B1868B0FA80F04009704700B7084089
:1031600010B5074B4FF40042064CC3F89021C3F84A
:103170009020206818B101F0E5F90023236010BD0C
:1031800000E100E0E0420020064A136843F0020339
:103190001360536843F002035360936843F00203E3
:1031A0009360704748200D4007B50C4800F01AFBAB
:1031B000FFF7EAFF0A4B1A6842F002021A60002287
:1031C0000192019A0F2A02DC019A0132F8E71A688B
:1031D00022F002021A6003B05DF804FB51312000B6
:1031E00054200D40064A136823F00203136053680D
:1031F00023F002035360936823F002039360704747
:1032000048200D40084B93F90020002A09DB074AAB
:10321000ED2111601160E32111601A7862F07F02E4
:103220001A700120704700BF1457002038880840EA
:103230000C4A13689907FCD40A4B1B685B065FBFF6
:10324000094BED221A601A60084B1B6813B1064B3C
:10325000EF221A60064A0120137803F07F031370EF
:10326000704700BF4C860840388808402C860840CC
:103270001457002038B5A0F10B04E3B20F2B05461C
:1032800013D80B4B1B6813F03F0302D0FFF7D0FF9E
:10329000012304EB8404074A0B3414600BB1FFF7DD
:1032A000B1FF054B68B21D7038BD4FF0FF3038BD1F
:1032B000488608403C8608400E420020214B18708A
:1032C000002834D0204A13681B03FCD51F4B1A6812
:1032D00042F002021A601A6842F001021A601A688B
:1032E0001A495007FBD50A6822F001020A601968E2
:1032F000164A4907FBD4116841F0020111601168B8
:1033000041F0010111601A685207FCD5104A136898
:1033100023F004031360D2F8A83123F00403C2F8A9
:10332000A8310C4B4FF40052C3F890207047084A64
:10333000136843F004031360064B4FF400521A6104
:10334000704700BF1357002004200D400488084038
:103350008C86084000E100E070B52F4D2B6813F01B
:10336000400308D02D4E3368DCB21B0605D52C4B2C
:10337000ED221A601A60002070BD042CF7D9023CBF
:103380008C42F4DCE4B2032C21D001190139032072
:1033900000F046F9631E23491B011943032000F086
:1033A00049F9032000F050F9032000F065F90320EB
:1033B00000F06EF90028FAD131681B4B493949B247
:1033C00019703368194E18063370D0D506E033688B
:1033D00003703368437033688370EDE789B204206B
:1033E00006F042FA3178032001F07F0106F03CFA42
:1033F0000F4B1B7873B92B685A060BD5064B1B680D
:103400001B0603D50B4801F09DF803E0044BED22A9
:103410001A601A60204670BD4C8608402888084013
:103420003888084002C0010C1257002011570020B4
:103430001357002050400020F8B5294F3D7815F073
:1034400001054BD1274B01241C605C609C60A3F5F7
:103450009323A3F51473F8221A600922C3F890216C
:10346000152270331A6003F59B230B2203F59E731C
:103470001A60A3F59B23A3F5F07340221A601A6823
:103480007F2642F020021A60D52243F81C5CDE62DF
:10349000DA61154B1878FFF7EDFE144B4FF48042BC
:1034A0001E60134B02201A6100F0DAF81149022065
:1034B00000F0B6F8032000F0D3F80E49032000F026
:1034C000A7F80D4B1878FFF7F9FE29460B4801F0D5
:1034D00021F83B78204623433B70F8BD0020F8BD1F
:1034E00014570020A8200D400E420020948608406A
:1034F00000E100E0288808401357002050400020D9
:1035000038B503880446CBB140F20342934203D05E
:1035100000230380032038BD194B18781A4628B1C0
:103520001B7873B1174B1B7858060AD5822908D12E
:10353000137843B1134B1A78520614D440F2034364
:103540002380012038BD06F035F906F0C9F8802146
:10355000FFF702FF0028EDDD80B206F0A5F80A4B68
:103560001B699847E6E700221A70084B1D68FFF7B1
:103570005FFEFFF761FFAB06E0D0FFF743FEDDE73C
:10358000135700201457002004D420004886084018
:1035900008B5054B1B7813B9044800F0D3FF044B62
:1035A00000221A6008BD00BF1357002050400020C1
:1035B00034880840064B07481A68042A1FBF06498A
:1035C0000A7842F040020A7000221A6000F0BABF86
:1035D0002C880840504000201457002010B5094C9A
:1035E00040220021204608F031FA074B01221A60E0
:1035F0005C60064B4FF480425A604FF400425A60C0
:1036000010BD00BF0040002004F00F4000E100E0CA
:1036100003289EBF014B0001195070470040002055
:1036200003289EBF024B03EB00104160704700BFB0
:103630000040002003289EBF024B03EB0010816076
:10364000704700BF00400020032806D8034901222C
:103650000B6802FA00F018430860704728F00F402A
:10366000032806D8034901220B6802FA00F0184328
:103670000860704720F00F40032806D80349012254
:103680000B6802FA00F018430860704714F00F400E
:1036900003289FBF044B03EB0010806800F0070075
:1036A00088BF0020704700BF00400020024B4FF051
:1036B000FF321A60704700BF04F50F40014B012232
:1036C0001A6070474CF00F40094A1368084913F418
:1036D000801FFAD1074B1A6822F480321A600A68F8
:1036E000D203FCD41A6842F400321A60704700BF5B
:1036F00004200D4000200D4010B50B4B1A681C46ED
:1037000012F0030F0ED009490B68084A13F0806FBE
:10371000FAD113685B01FCD5FFF7BCF9FFF7D4FFC2
:103720000023236010BD00BF58200D4004200D4031
:1037300038B5264B1C6814F03F0413D1244D55F8BE
:10374000243023B1984768B10134052CF7D1214DBD
:103750002B783BB1FFF7AEF90446FFF7B1F9201A19
:10376000092801D830BF38BD002CFBD01A4B1B48AC
:103770001A6822F400321A600268184912F4801F95
:10378000FAD11A6842F480321A600B68DB03FCD568
:10379000FFF796F9201A092803D8BDE83840FFF74B
:1037A00093BF63280E4C02D92B78022B00D0012343
:1037B000236000F07DFE20B1FFF786FF0023236029
:1037C00038BDFFF777F90028CCD1F5E748860840E7
:1037D000E44200201557002000200D4004200D4039
:1037E00058200D400749002351F82320824207D07A
:1037F0001AB9044A42F8230070470133052BF3D16C
:10380000704700BFE4420020054B00221A60054AC1
:10381000136943F004031361034B02221A707047CB
:1038200058200D4000ED00E01557002010B5074B63
:103830004FF48032064CC3F89021C3F890202068E2
:1038400018B100F07FFE0023236010BD00E100E00E
:10385000F842002030B5184B1A78431E22B101F50A
:1038600020112731154A1FE0154A1278122AF6D185
:10387000144A12784B2AF2D14A0802F12814B4F102
:10388000281F04D014F8015D03F8015FF7E701F584
:103890002011273100231044934204DA11F8014922
:1038A000C4540133F8E730BD914204D011F8010946
:1038B00003F8010FF8E730BD2B002800270028008F
:1038C0002A002800290028000FB407B504AA52F8DE
:1038D000041B0448019200F021F803B05DF804EBEA
:1038E00004B070476040002070B505460C46102CAF
:1038F00007D92B68102208496868984750B9103CCE
:10390000F5E734B12B68224668680349BDE870408A
:103910001847204670BD00BF0DD720002DE9F04F9D
:10392000064615468FB006914FF0000B069B1B789C
:10393000CBB1069C274617F8013B1BB1252B14D0B1
:103940003C46F7E7069BA3420DD0069B0699C3EBC6
:1039500004084246336870689847002840F01F8387
:103960002378C34423B9584634E3069BA342ECD1E1
:103970006378002BF7D039460024084610F8013B45
:103980000A462B2B11D006D8202B11D0232B12D175
:1039900044F0080416E02D2B04D0302B0BD144F05A
:1039A00010040FE044F001040CE044F0060409E0C8
:1039B00044F0020406E0A3F13107082F11D84FF0BC
:1039C000000801E00146D8E70A4611F8013BA3F1DF
:1039D0003000092813D80A2202FB0838A8F1300861
:1039E000F2E72A2B09D12B680246002B05F10405CA
:1039F000B8BF44F00104984601E04FF00008137886
:103A00002E2B1AD15178531CA1F1300009280ED861
:103A1000194600270A780B46A2F13000092801F167
:103A200001010DD80A2303FB0727303FF2E72A29BB
:103A300004D12F68931C043502E013464FF0FF3782
:103A40001A786C2A09D15A786C2A02D144F0800481
:103A50000AE0013344F060040BE0682A09D15A7887
:103A6000682A03D144F02004023302E0013344F019
:103A700040041A78642A3CD01FD8462A48D00DD872
:103A8000252A5AD003D8002A3FF46DAF57E0412AC7
:103A90004AD0452A53D144F4424450E0582A31D008
:103AA00004D8472A4BD144F4A13448E0612A38D0E5
:103AB000632A44D144F4A06441E06E2A3AD007D886
:103AC000662A22D027D3672A28D0692A11D036E067
:103AD000732A2CD006D86F2A11D0702A2FD144F423
:103AE00040742CE0752A07D0782A28D144F4C854B1
:103AF00025E044F4245422E044F410641FE044F42C
:103B000088541CE044F4B24419E044F4007416E014
:103B100044F4844413E044F4024410E044F4813457
:103B20000DE044F4C1340AE044F4E13407E044F425
:103B3000806404E044F4E06401E044F4C0640133D0
:103B4000069304F4E063B3F5806F00F08F8113D81F
:103B5000B3F5807F27D0B3F5407F7FF4E7AEAE4B5F
:103B600014F4804FAD4A18BF1A460DF1330328688C
:103B7000002104351F46B5E1B3F5C06F08D0B3F599
:103B8000E06F00F02282B3F5A06F7FF4CFAEF2E1D8
:103B900033680122A24970689847002840F0FF81ED
:103BA0000BF1010BC2E6002FACBF24F0100401277B
:103BB00014F40053079304F0E0032ED0402B12D0EE
:103BC00005D8ABB1202B21D195F900200DE0602B59
:103BD0000ED0802B1AD1073525F0070303F1080515
:103BE000D3E9002307E0B5F90020D317043502E03C
:103BF0002A680435D317002A73F1000108DA52420B
:103C000063EB4303CDE90023012304E000220023FA
:103C1000CDE900230023059329E0402B13D004D8DD
:103C2000BBB1202B1DD12A780EE0602B11D0802B48
:103C300017D1073525F0070303F10805D3E9002361
:103C4000CDE900230BE02A880023CDE900230435C9
:103C500005E02B6800221946CDE900120435079BC8
:103C6000D9E70023059300220023CDE9002304F4C3
:103C7000C053B3F5805F0CD0B3F5C05F33D0B3F55C
:103C8000006F4FD1DDE900230DF13609CDE90223A4
:103C900004E0DDE900230DF1360915E0DDE902233A
:103CA00013433AD0DDE902010A22002307F032FC77
:103CB000DDE90201303209F8012D00230A2207F064
:103CC00029FCCDE90201E9E752EA030125D002F01F
:103CD0000701303109F8011DD10841EA4371D808C4
:103CE0000A460346F0E74C4B14F4804F0DF13609B9
:103CF0004A4918BF1946DDE9002352EA03000CD0F7
:103D000002F00F00085C4FEA131E09F8010D1009BC
:103D100040EA037002467346EFE70DF13603C9EB44
:103D2000030302E00DF1360900230293029B41F6E2
:103D30000802BB4238BFFF1A41F2080302EA04023C
:103D400028BF00279A4202D1002F08BF012741F661
:103D50000801029B8A4203EB07000DD1DDE9002335
:103D6000134309D02F4A304914F4804F4FF0020A10
:103D70000CBF0B46134602E04FF0000A5346079A69
:103D80009AB1059A52B904F00602022A0AD0062A0C
:103D9000264A04BF4FF0010A134606E04FF0010A1D
:103DA000234B02E0234B4FF0010A0AEB000290453F
:103DB0008CBFC2EB08084FF0000814F0010200921B
:103DC0000DD1E10602D54744904608E04146304611
:103DD0000593FFF789FD059B002840F0E080BAF1CC
:103DE000000F07D03468524619467068A047002873
:103DF00040F0D580029B03EB0B04BB46BBF1100FD8
:103E000033681BD910220C4970689847002840F08D
:103E1000C680ABF1100BF1E7D8D62000E9D6200020
:103E20000BD72000FDD62000FAD6200002D72000B4
:103E300000D72000DDD520001DD72000BBF1000FEA
:103E400006D05A46654970689847002840F0A78018
:103E50003368029A4946706854449847002840F0F5
:103E60009E80009B3C44002B39D032E0D5F8009076
:103E70000435B9F1000F0AD0CA469AF800300AF1A9
:103E800001020BB19246F8E7C9EB0A0A03E0DFF83A
:103E900050914FF0060A002F02DBBA4528BFBA4600
:103EA000D0458CBFCAEB08084FF0000814F001079A
:103EB00005D141463046FFF717FD00286FD1336822
:103EC0005246494670689847002868D10AEB0B04AF
:103ED0002FB141463046FFF707FD00285FD108EBC0
:103EE000040B23E550EA010E0ED000F00F0E12F87D
:103EF0000EE04FEA111C03F801ED4FEA101E4EEAE6
:103F0000017E70466146EDE7FF1A02BF30220127AD
:103F100003F8012C07F1030708BF03F1FF337822F0
:103F2000B84503F8012C4FF0300203F8022C88BF8B
:103F3000C7EB08084FF0230298BF4FF0000814F0B9
:103F40000104A3F1030903F8032C04D141463046D0
:103F5000FFF7CAFC18BB33683A4649467068984771
:103F6000E8B95F4424B141463046FFF7BDFCB0B923
:103F700008EB070BDAE4B8F1010F2B688CBF08F1EE
:103F8000FF384FF0000814F0010405F104058DF826
:103F9000203008D141463046FFF7A6FC10B14FF063
:103FA000FF3017E0C3443368012208A970689847BE
:103FB0000028F4D108F101072CB141463046FFF743
:103FC00093FC0028EBD1BB44B0E42B680435C3F864
:103FD00000B0ABE40FB0BDE8F08F00BF1DD72000EC
:103FE00004D72000F8B50388064615462BB14A2BA6
:103FF00015D0002303800320F8BD174807F087FE83
:1040000004462CB1A168201D07F02CFE2468F8E7B7
:10401000124B01221A704A2333800120F8BD8829EF
:10402000FBD10D4807F073FE0446002CF3D0231D8E
:104030009D420ED12146084807F073FE084B626985
:104040001F681A60A2691D460AB1E06990472F6097
:10405000E1E72468E9E700BFFC4200201657002092
:104060000843002010B5064B002406481C7007F0DA
:104070004BFE2146BDE81040034800F04BBA00BF9C
:1040800016570020FC4200206840002070B504460E
:10409000E3610B4B049D1B786561A26143B1094D3F
:1040A000094B2E68201D2B6007F0DCFD2E6000E020
:1040B000A1602146BDE87040044807F045BE00BF3E
:1040C000165700200843002068400020FC420020D2
:1040D00013B5034C24680094FFF7D8FF02B010BD5D
:1040E0000843002070B5094B05461B783BB1084CCE
:1040F000084B26680430236007F0BDFD2660294682
:10410000BDE87040044807F01FBE00BF16570020EE
:104110000843002068400020FC42002070B5094B95
:1041200005461B783BB1084C084B266804302360D9
:1041300007F0AAFD26602946BDE87040044807F054
:1041400003BE00BF1657002008430020684000202F
:10415000FC42002010B5084B04461B781BB104300C
:1041600000F0B4F801E0C36003612146BDE81040EF
:10417000024807F0D6BD00BF16570020FC420020C1
:1041800010B50E4C236813B90D4A136010BDFEF72D
:104190005FFC216891E80C001A44131A8A6842B146
:1041A00092E812002144091A8B4228BF0B469268FC
:1041B000F5E71844024B186010BD00BF0043002013
:1041C00004430020014800F0BDB900BF7840002042
:1041D0002DE9F8430388054633B1592B0BD0002352
:1041E00003800320BDE8F883234A136059232B8002
:1041F0000120BDE8F883872924D08229F6D11E4FFB
:104200004FF00008B9463C680026002CEED020464E
:1042100007F06CFD98B122468821E06800F052F961
:1042200058B9E060A3680EB1B36001E0C9F800308E
:10423000C4F80880FFF7A4FFE5E7FFF7C3FF2646B1
:10424000A468E2E70C4900200B681BB90028CDD018
:104250000B60CBE7DC68A24202D19B680120F4E747
:1042600000B10B6099680029C0D0C86882420ABFBB
:1042700089680B469960F5E70043002010B50446B5
:10428000FFF7A0FFE3680B4A4BB113683BB1A342B1
:1042900003D1094A1268DA6007E09B68F6E7064B2B
:1042A0001B68E36013681460A360BDE81040FFF76B
:1042B00067BF00BF0043002008430020024B18687E
:1042C000003018BF012070470043002010B50B4A92
:1042D00004461368834206D18368136008E09A6835
:1042E000944203D01346002BF9D103E0A2689A60F0
:1042F000FFF746FF0023A360E36010BD00430020EA
:1043000038B5836804460D469BB10A480460022014
:10431000A07304F10C0098470238012801D9832DBD
:1043200005D121462046BDE8384000F005B80123FC
:10433000A37338BD084300202DE9F8431C4A044606
:10434000156889462B4690461A4E3768A34204D01A
:104350000BB11B68FAE7BDE8F88334B3A37BABB1BC
:104360000023A37345B1A54204D0224687212846E5
:1043700007F09BFC2D68F5E7A3683BB14C4505D0E1
:1043800034602A46832104F10C009847D8F80030A5
:104390009C4203D12268064B05E0134623B11A68FC
:1043A0009442FAD122681A603760BDE8F88300BFF2
:1043B0000C43002008430020002370B51D46094A25
:1043C00001261370084A146854B1E37B33B1A67315
:1043D000E573002282212046FFF792FF2468F3E76D
:1043E00070BD00BF195700200C430020024B187805
:1043F000421C1A70704700BF1A570020064B8A22D1
:104400001A70064A00231370054A1370054A136098
:10441000054A1360704700BF1A5700201757002045
:10442000185700200C430020084300202DE9F041DC
:104430001A4D2B780BB1FFF7BFFF194C22783AB316
:10444000184E0C213378184F5943781817F801800B
:1044500001334768806803F01F03013A337022700C
:1044600068B9124B1E689EB12B780BB1FFF7A4FF01
:1044700030463A46414607F018FC3668F3E7B8F193
:10448000810F04BF012383733A46414607F00DFCB8
:104490002B7820781844BDE8F08100BF1957002020
:1044A0001857002017570020104300200C4300200D
:1044B000024A034B10781B781844704718570020A5
:1044C00019570020F0B50B4E3378202B0FD00A4C33
:1044D0000C252478094F1C4404F01F046C4301335D
:1044E0003D19A86039556A6033700020F0BD012085
:1044F000F0BD00BF185700201757002010430020C0
:1045000038B5034C256807F0D0FB256038BD00BFE7
:104510000843002030B40A4C0A4625682B468342E3
:104520000CD00BB11B68FAE740B101210560817323
:1045300020608381812130BCFFF7E2BF30BC70472F
:104540000C43002038B1837B013B012B9FBF024A03
:104550000123C3731370704719570020024610B52A
:10456000064853600468029B11609360026014B9AE
:104570000846FEF7BBFA002010BD00BF90440020A3
:1045800010B5084C206858B1002323608168436847
:104590009847236823B1BDE810401868FEF7A6BA13
:1045A00010BD00BF9044002010B50446FEF75AFA33
:1045B00094E80C001344C01A024B98428CBF0020B0
:1045C000012010BDFEFFFF7F70B505880446672DF2
:1045D00009D0792D30D0002D34D1FFF707FF1C4BC7
:1045E00018701C4B1D601B4D2E461B4807F03BFCF2
:1045F000431C01D167231DE00A28164A07D02B6807
:104600007E2BF2DC5A1C3260144AD054EDE713685A
:104610000025591C1160114A2846D5540C4B1978B5
:10462000FFF750FF0E4B2A4685211868FFF74AFF17
:1046300020B97923238009E0852907D1054B002281
:104640001A60D0E700230380032070BD012070BDF5
:10465000337000209C440020944400209C5700208C
:10466000084300200D2810B5014615D00B4C2378C7
:104670002BB90B4807F0E4FB48B9012306E00A28F0
:1046800005D1074807F0DCFB08B10023237005487B
:10469000FFF758FF012010BD002010BD9B570020E0
:1046A000944400208840002008B505490548802230
:1046B00007F0BFFBBDE8084000210348FFF72ABF11
:1046C0001B5700209444002088400020054A1368AE
:1046D00043F004031360044B1B68906943EA002015
:1046E00080B2704700700D4014700D4010B5184A2C
:1046F000136823F00C031360164B01221A601A682A
:10470000012AFCD1144B08221A60E322C3F81422B8
:1047100003F505731946114A1368DB07FCD5104CE5
:10472000102000232268013802F0010243EA02034C
:104730004FEA43039BB2F5D1002BF1D0094A180A86
:1047400003F0FE0310601360EF230B6010BD00BF89
:1047500000700D40A8200D40248608406486084063
:104760009C86084014700D402DE9F04106880546EE
:10477000772E31D07E2E40D0002E4ED12B4CFFF71D
:1047800035FE266026462A4B2A4FDFF8B080187087
:10479000236857F823204AB1002108F803109368D2
:1047A00080209847336801333360F1E7224A137061
:1047B000772320E0214AD256002A12DB1B4A1368D5
:1047C00001331360194B1C4A1B6812789A42F1DCC2
:1047D0001B4B1B68002BEBD0194A00231360134AB4
:1047E000EFE7144A002052F82320114B1978FFF705
:1047F00069FE30B97E232B8014E00D4B1B788B4271
:1048000010D10A4B0D491A688B5C03F07F038B545F
:104810000B4A136801331360D0E7002303800320A1
:10482000BDE8F0810120BDE8F08100BFA044002078
:1048300034700020404000201C5800202F700020C1
:10484000A444002010B40A4B0A491A78002393426A
:1048500003DA51F82340A04208D107490748CA5C4F
:1048600062F07F02CA5410BCFFF76CBE0133EEE762
:104870001C580020404000202F700020984000204D
:104880000C4AB82303FB00220023F0B553821E46D6
:104890001A4640F24C550849CC18A77827B15F5CFE
:1048A000874204BFA67001327133AB42F4D1104687
:1048B000F0BD00BFC44400202858002008B50648B9
:1048C00002F022FF054B01221A70FD2100225A70CE
:1048D0009970DA7008BD00BF114B20001E580020EF
:1048E00030B513780546087A83F0020398421DD14B
:1048F000487A5378984219D1887A9378984215D19A
:10490000C87AD378984211D1087B137998420DD197
:10491000487B5379984209D1887B9379984205D195
:10492000C87BD379984201D103201BE00B890F4C3F
:104930006BB94B89B3F57F4F09D18B89FE2B06D11B
:104940002368CA89022023F8022B23600AE0226828
:1049500001F1080303CB083242F8080C42F8041CAA
:1049600001202260A840C0B230BD00BFB04400208A
:1049700010B50E4C0220A17904F076FFA379112B1B
:1049800001D0062B05D1218D638D9942A8BF194610
:1049900006E03A2B03D1218D49BA89B200E000210B
:1049A0000120BDE8104004F05FBF00BFB0640020EC
:1049B00010B5084C01462378012B08D10822A01C11
:1049C00006F038FF00280CBF2046002010BD002054
:1049D00010BD00BF1E58002008B50146102004F08D
:1049E00051FF044B00219B6803489847BDE80840ED
:1049F000FEF7F0B924D42000FD49200010B50C4684
:104A00001146204602F0C8F9044B1B6813B19B689D
:104A100020469847024B1C6010BD00BFC0440020D8
:104A2000BC440020124AF8B505460023712000FB63
:104A30000324A678B6B9617004F040FE26460D4FF7
:104A40000D4A3B7806F8035BC01A1568A0701D4438
:104A500004F034FE3A782946821A304606F01CFFEC
:104A6000A078F8BD01330C2BE1D14FF0FF30F8BD39
:104A700028580020745D0020B44400202DE9F8433C
:104A800015090F2D0646984602F00F0403D00F2C8F
:104A900035D045B103E00F2C2FD1102425462A46EE
:104AA000304606F0F9FE2A190F2A274605DCC2F126
:104AB00010020021701906F0C9FFBCB1DFF84C806C
:104AC000C7F11000D8F8009022464946304406F05D
:104AD000E3FE022C05D10A2D9FBFFF23F372FE23B4
:104AE00033734C44C8F80040BDE8F88365B14146D3
:104AF0003046BDE8F84307F01CBA1025CFE7102474
:104B0000002DCCD12746D9E7BDE8F883B04400207A
:104B10002DE9F04F934E944D87B0002333702B70E6
:104B2000044604F047FE04F0DBFD904A904B126807
:104B300018600296009501930AB1FFF719FF0CB9AE
:104B40008C4900E0214604A808F0C1F88A4BDFF840
:104B500030A21A8803933E2A019B40F21382D3F8B5
:104B60000080864E08F102033360009B0AF11800B2
:104B70001F780023023708F80730FFF719FF20B924
:104B80000AF10800FFF714FF20B108F103033360B6
:104B9000802400E004469AF801209AF800101309D6
:104BA00043EA0113DBB2980840EA83135BB212F0C8
:104BB0000F0FDDB201F00F000DD17149498851B9D5
:104BC00010B912F0F00F21D06C4A136803F8015BA2
:104BD000136070251BE0694978B912F0F00F0CD111
:104BE000086823F03F031A43664B02701B880330AA
:104BF00020F8023C6825086009E0614A0B681068EB
:104C0000186003F8045B0B60602500E078255C4BBE
:104C100099469979594B112908BF45F0040515F0BB
:104C2000040F02BF1A6802F8011B1A6099F80720E6
:104C3000402A06D0FF2A07D0012A08D145F00105F5
:104C400009E045F0020506E045F0030503E01968B8
:104C500001F8012B1960B9F80820494B82B95A892B
:104C600072B99A8962B9DA8952B91A8A42B95A8AEA
:104C700032B99A8A22B9DB8A13B944F0400013E0B2
:104C80004148FFF795FE414B186078B1427818F81B
:104C900007303D4943EA021308F807303C4A042034
:104CA000FFF71EFE60F03F00C4B229E048F2FE03A9
:104CB000B9F8082032499A420CD14B8B53B98B8BEF
:104CC00043B9CB8B33B9324A08310420FFF708FED1
:104CD0002043E9E7294BDFF8B0C01A6899469646A9
:104CE0000CF1100B634603CB5B45CEF80000CEF809
:104CF00004109C460EF1080EF4D11032C9F80020C1
:104D0000DFF87CB0DFF874909BF81830FF2B40F090
:104D10008D809BF8192044F0080E022A5FFA8EFE5F
:104D200038D1BBF81A30ABBBBBF81C3093BBBBF817
:104D30001E307BBBBBF8203063BBBBF822304BBBC3
:104D4000BBF8243033BB9BF826301BBBD9F80030AE
:104D50009BF8272044F00B0003F8012BC4B2C9F8DC
:104D60000030A2E01D580020745D0020C0440020E7
:104D7000B4440020C5D720009C640020B04400202B
:104D8000B0640020B2640020B8640020A844002071
:104D9000A86400209C4B598BA1BB998B91BBD98BEC
:104DA000B1B9198CA1B9598C91B993F8241079B97A
:104DB000D9F8001044F00A00C4B2084600F8012BEC
:104DC00033F8252F043121F8032C9B78837016E0EB
:104DD0008D4BD98BB1B9198CA1B993F8221089B92F
:104DE000D9F8001044F00900C4B2084600F8012BBD
:104DF00053F8232F063141F8052C1B790371C9F8AC
:104E0000001052E0D9F80020804F144607F1100C32
:104E10003B4603CB6345206061601F4604F10804F4
:104E2000F6D11032C9F8002074463EE00BF11800AC
:104E3000FFF7BEFD764B186068B118F8071043788D
:104E400044F004040B43E4B208F8073004AA0BF161
:104E50001801002011E048F2FE03BBF818209A4226
:104E600010D1BBF81A306BB9BBF81C3053B9BBF882
:104E70001E303BB904AA0BF11801FFF731FD2043A6
:104E8000C4B212E0D9F80020DFF880E117460EF135
:104E9000100C734603CB6345386079609E4607F17A
:104EA0000807F6D15B4B10321A60029A5648282345
:104EB000137083795749112B59D1028D130A43EA94
:104EC00002234FF2B0029BB223F00F07BFB297420A
:104ED0001AD1B0F82AE04FEA1E2242EA0E2222F04E
:104EE0000F0292B2BA420FD13268F3231370038DCE
:104EF00002321F0A438D1B0A03EB071303F5AA6353
:104F000002F8013C326029E0BAF82A003E4A000269
:104F100080B2B0F5704F09D13368F1201870108D50
:104F2000A3F80100528D120ADA700CE003F47F43FB
:104F3000B3F5704F0AD13368F2201870108D000A53
:104F40005870528D5A800433336007E00B68F020AC
:104F50001870906A053343F8040C0B602E4B1A88C6
:104F60000B6823F8022B029A0B6030231370019B0D
:104F70001A68009B1B78D55413445C700B689B1A0D
:104F8000009A19E01A6841231370009B0AF1280562
:104F90001C78631CDBB21344524603CAAA42186051
:104FA0005960924603F10803F6D1009B29341C7026
:104FB000029B029A1B782833137004A9102004F076
:104FC00061FC164B164E1B68984730EA200028BF3C
:104FD0001520029A0099039B14781B880D78C0F164
:104FE0007D071A1B791B8A42DFF838A040F3BC808A
:104FF000C0F1780B93FBFBF404F06EFC01388442A3
:1050000012DB0020C1E000BFB0640020C8640020B3
:10501000A8440020B0440020DE640020F8D3200023
:105020009C640020745D0020DFF878910023C9F8AB
:105030000030019B9AF80050D3F800802A46414680
:1050400008F1040006F09EFC3388514A1B0A63F005
:105050003F0388F800303388043588F8013013881E
:10506000EDB2591C118088F803301A0A494B7C1B99
:105070001978494B24F00704484F194488F8022056
:1050800008EB0500224602938AF800503C6006F0C7
:1050900003FC281980B204F007FB04F023FC029BF8
:1050A00004461D460028ACD00DF110084046FFF71D
:1050B00093FC204604F04EFC204604F035FCD9F861
:1050C0000030012B9DD0043B012B9AD9314B2BF0A2
:1050D00007001C783B68B3461C4405238AF800305F
:1050E000BA462F4BA4B21A68338838601B0A63F0A3
:1050F0001F03137033885370BBF800309C4243D2B7
:10510000019A1B1B1068E20802713A682919934240
:10511000B8BFCAF80030009B3E681B78324618447E
:10512000029306F0B9FB029B981980B204F0BCFA16
:1051300004F0D8FB064600283FF463AF4046FFF773
:105140004BFC304604F006FC304604F0EDFBDAF888
:1051500000301C44D9F80030A4B2012B3FF451AF09
:10516000043B012BC8D84CE7019B0B49186821442C
:10517000284406F091FB30882844001B80B204F0DC
:1051800093FA04A8FFF728FC012007B0BDE8F08FD0
:10519000345000201D580020B0640020B844002086
:1051A000B4440020BC4400202DE9F047074688465F
:1051B0001546002A4CD0414E0024B046338ABB42EB
:1051C00016D1738AA3B10F2004F068FB0146304664
:1051D00007F082FD60B15FFA84FA29465046FFF776
:1051E00021FC002829DA0027DFF8D4903E460FE0A2
:1051F0000134022C06F1B806E0D14FF0FF30BDE8D3
:10520000F087A64209D10136022E09F1B8090ED065
:1052100039F8063C002BF6D0F3E7484606F066FD69
:105220000028F0D0F0B2FFF72BFB0744EBE7002F8C
:10523000E3DD29465046FFF7F5FB0028DDDDB82306
:1052400003FB04839A8A1044988260B2BDE8F08719
:105250001B4E4FF0FF3436F8063C63B3304606F081
:1052600045FD10B1E8B2FFF70BFB611C03D136F826
:10527000063C03B96CB20135022D06F1B806EAD13D
:10528000621C15D0B8256543DFF830900F2009EB7C
:105290000506A6F81280378204F000FB014630466E
:1052A00007F015FD05F118004021484406F00CFDFB
:1052B0002046BDE8F087631CDDD1DBE7C444002055
:1052C000DC4400202DE9F04F0F2087B0DFF8F48296
:1052D000AE4C04F0E3FA002604F020F888F80060F1
:1052E000267004F0FDF9AA4DA2462860042004F0BF
:1052F000C3FAA84B2A6800B2186057781378CDF823
:10530000008047EA032703F0F803C02B02D0E02B0C
:105310001BD03DE09478D0789AF80030C7F30A07A4
:1053200004333246394640EA04208AF80030FFF759
:105330003BFFB0F1FF3F804600F07182964CB823EE
:1053400003FB00440126223425E092F804B094784F
:10535000D0789AF80020C7F30A0705328AF80020AF
:1053600039465A4640EA0420FFF71EFFB0F1FF3FDE
:10537000804600F054828849B82202FB0012958AC8
:105380004FF00109BD4234BF002501253446D1E16B
:10539000B0463746814C28689AF80010425C02F00B
:1053A000E003602B40F0A9818D1C014491F801902D
:1053B0007B4B4FFA89FB0544BBF1000F1D60BCBF5E
:1053C00001351D6012F0100F02F008012FD1D1B984
:1053D000196831F8010FA4F801008978E1701968A3
:1053E00011F8040B1960830803F00F0141F060010C
:1053F0002170617803F0300343EA801301F00F015C
:105400000B4363702EE0186860210546217015F883
:10541000011B03304FEA910E0EF0300E01F00F0128
:105420004EEA010161702988186061801AE001F07C
:10543000FF0591B919680878C0F3830040F0600057
:10544000207011F801EB65804FEA9E0000F03000FB
:1054500040EA8E106070196004E06023237000231E
:105460006370638002F0040303F0FF0101912BB924
:105470004B490B6813F8010BA0710B6012F003028B
:105480000BBF474A474B13689B5C09BF13F8011BCE
:10549000E3711360E17119F0400FC9F3011230D0CC
:1054A000BBF1000FBDBF3A499AF8003009680025EA
:1054B000BEBF5B189D782D0922B904F108058AB991
:1054C000114612E0384B1978012905D15978A942C3
:1054D0000CBF1D46002500E00025344B1D60002D4B
:1054E000EBD122E1314B19680231314B0F209A5C2C
:1054F0000391029204F0D2F9029A034603992846D6
:1055000009E02C4B0F209D5C04F0C8F92A462A497B
:10551000034604F10800FFF7B1FA09F0080109F0A9
:10552000030201F0FF0509F00403A1B1002B67D1CC
:10553000224B1B88ADF81430531E012B06D8184996
:105540000B6813F8010B8DF815000B601C49002344
:105550008A5C05A950E0002B46D0BBF1000FBDBF0F
:105560000B499AF8003009682B46B8BF5B180E4902
:10557000B8BF9D780878B8BF05F00F03012823D184
:105580004D789D420CBF0D4600251EE0745D002045
:10559000B4440020AC440020C4440020B064002087
:1055A000B044002060D720001E580020A8440020EE
:1055B00079D7200064D7200068D720005ED720006C
:1055C0006AD720001D5800200025964B1D60002D35
:1055D00000F0AB80944B102013F8029004F05EF9B9
:1055E0004A460346A91C07E0904B10209D5C04F03E
:1055F00055F92A4603468E4904F11800FFF73EFA92
:10560000009B009A18788B4900F128031370019BC6
:10561000002B53D00B681A7802F0F802F02A4DD113
:105620001122A2711A7802F0040502F0F302F03A96
:10563000EDB2032A7BD8DFE802F0020A1622B3F8A3
:1056400001200533228533F8022C62852CE0B3F863
:1056500001202285DA78A2F5805292B2120242F03D
:10566000F002628509E05A78A2F5805292B21202E5
:1056700042F0F00222855A886285043314E05A7899
:1056800002331209A2F5756292B2120242F0F002E0
:10569000228513F8012C02F00F02A2F5756292B276
:1056A000120242F0F00262850B6025B90B6833F8F4
:1056B000022BE2850B60009B303018705E4A0B684D
:1056C00012689B1A8AF8003067B903F0F7FF5B4B4A
:1056D0001B78C01A009B1B781844283803122371CA
:1056E000607104E0A7F128031A1222716371A37993
:1056F000112B1CD1A388A38519E0412A40F08F808B
:105700004A1CD2B28318224603F1280053F8045BE6
:10571000834242F8045BF9D1009B009A1B7829313F
:1057200028338AF80010137001E0B14601E0B14659
:105730000025AB4603F0C2FF9AF8002082426ED8E3
:1057400003F0BCFF3D4A11783D4A431A01931360B0
:10575000009B019A93F800A04FEACB039BB25344FD
:10576000134440F21452934259D83CB1324B019A3F
:105770001B6804EB0A00194406F08EF8002F36D09F
:105780004EB1019B2F490AEB0302B82303FB081318
:1057900092B29A821A8485B3B82202FB08F329498F
:1057A0002948CA18114697822231128C06F074F8E3
:1057B000264C254E04F24C5514F8012C52B114F825
:1057C000033C984506D114F8020C214606EBC000B4
:1057D00006F062F87134AC42EED15FFA88F0FFF760
:1057E0004FF8B9F1000F0BD0194B1F800DE0B9F144
:1057F000000F05D0002DF7D111E0B9F1000F0ED147
:10580000019B9A44124BA3F800A0124C236823B1C9
:10581000FFF7AEF823685B68984701F09BFF07B07D
:10582000BDE8F08FA844002079D7200064D720007D
:1058300068D72000B0440020B4440020745D0020EC
:10584000B8440020C4440020B06400202B5800203D
:105850009C640020C044002037B5124B124D1C78C8
:105860002B796A79C4EB032313449BB2ADF806305D
:10587000BDF806302022184405F1080180B206F078
:1058800002FBBDF8062004F1280192B2294406F07B
:10589000FAFA10B140BA80B201E04FF6FF7003B0DF
:1058A00030BD00BF755D0020B0640020F8B52C4FFE
:1058B0002C4D97F800E02C4C0EF1280C0CEB050356
:1058C0005E780220F600207007360021864242DB17
:1058D0000CEB0003EA18EB5C012B05D002D3632B21
:1058E00006D014E0013033E05278023210442FE049
:1058F00001B1207002F08CFCB8B13B7822782833DB
:1059000013441D446B7813440233237025E003F0E5
:10591000C003802B04D0C02B09D0402B15D102E04E
:1059200051B1207008E001B120700120F8BD01B133
:1059300020702B7EFF2BF8D00EEB000228320221C4
:10594000042001F03FFD0220F8BD537802331844D3
:10595000C0B20121BAE701B120700020F8BD00BF3C
:10596000755D0020B06400207B5D0020F0B5C57837
:10597000124A0D44EDB2D57083780F0A3B44DBB276
:10598000937044789F4254700678167005D9601C55
:10599000C0B2507008B901361670C9B28D420CDA27
:1059A0000133DBB2054993703BB94B780133DBB26D
:1059B0004B7013B90B7801330B70F0BDA464002059
:1059C00010B5094C0146236803F11400FFF7CEFF20
:1059D000064A236811781975517859759178D278EB
:1059E0009975DA7510BD00BFD4690020A464002049
:1059F00008B501F0F9F801F0CBFD06F0D3FA002369
:105A000019460F4A22F813100133082BFAD100234C
:105A100019460C481A183033B3F5F07F82F8251078
:105A2000F8D1094B4FF480621A80002319460748C9
:105A30001A182033B3F5A07F1182F9D108BD00BF39
:105A4000C06B0020D869002036500020D46B0020A5
:105A5000F8B5104E3578DDB10F4F05F127033C88BE
:105A6000A34202DB00233B8011E00C4BA4F128028F
:105A7000521B5919184605F085FF641BA4B23C80DF
:105A8000283C221200F8242C00F8234C0023337009
:105A9000F8BD00BF755D00209C640020D864002024
:105AA0001F4AF8B5144613881E4F01339BB2B3F555
:105AB000FA4F28BF4FF480531A0A42EA032292B2E7
:105AC0000025EE19368A9642164EEED02035B5F5F1
:105AD000A07FF6D1238000235D017419278A47B97E
:105AE0002282618250B901461022204605F0AEFFA5
:105AF00010E001330A2BEFD10020F8BD0346274602
:105B000000F1100E3A4618685968083303C273450D
:105B10001746F7D1044B35441B7920462B75F8BD49
:105B200036500020D46B00201C6D0020074A002353
:105B300032F81310814204D1044A002122F81310D4
:105B400070470133082BF3D1704700BFC06B0020B2
:105B500004282DE9F74FA14E00F06B82A049A14D1A
:105B6000A14FA24A03283C680D6015608A4615D1F2
:105B700094F8253003F00F03032B08D1A38B002BDF
:105B800040F064869A4B08221A7000F054BD022B34
:105B900040F05C86002305F8073CABE302287AD18D
:105BA000944A00231370944A33801380934AD37825
:105BB0000133DBB2D37063B993780133DBB29370F6
:105BC0003BB953780133DBB2537013B91378013307
:105BD000137094F8253003F0FD02052A0DD194F8D6
:105BE00026300133DBB2782B84F8263040F02E8645
:105BF000002384F8253000F029BE002B00F0268613
:105C0000A28B7B48002A3DD094F82620511E84F8B0
:105C10002610002A40F01A8694F82720082A04D07B
:105C2000591E01290AD8052A08D1002384F82530F5
:105C30008023037001F0D0FE00F00BBD042A9CBF4E
:105C40000321914003F00F0394BFC9B23021013208
:105C5000013B84F8261084F82720072B00F2F685F4
:105C6000DFE813F0440308000A00AF04F405AF04B2
:105C7000F405AF0400223AE30423037001F0ACFE04
:105C800000F014BD03F00F03032B40F0DF85082361
:105C9000037000F0D0BC052811D1594B1B681B8A3A
:105CA000002B00F0D3850C3D1560534A0023138070
:105CB0003B6033804E4B08220D601A70B7E115F837
:105CC0003C3C3C3D03F0F003602B40F0BF852A795B
:105CD0006B7912023188D018884200F3B7852833D7
:105CE000134433802B7AFF2B00F0B085454BAA1D5F
:105CF000404F454C1A6000223A702270AA799846AB
:105D0000B2B901232370FFF7D1FD012800F09E8571
:105D100003D3022800F096850AE03B7803F12802BD
:105D20002A44C8F800205278083303EBC2033B70C2
:105D3000364800F0F5FD10B1DFF8CC90AEE0334806
:105D400000F094FE0028F7D12A7E304BFF2AA3F101
:105D500018035FD048F2FE00198B81425AD019898E
:105D6000814257D079B9598969B9998959B9D9897D
:105D700049B91B8A3BB9698A254B21B9998A11B95E
:105D8000DB8A002B46D0298B214B79B9598B69B915
:105D9000998B59B9D98B49B9198C39B9598C29B909
:105DA000998C19B9DB8CB3F5807F33D03388B3F588
:105DB000A06F04D94FF4A0620021022005E0EB7926
:105DC000012B06D800221146032001F0FBFA00F057
:105DD00039BD0F4A013BD37100F034BD9C640020F3
:105DE000D0690020EC640020D4690020A064002069
:105DF000C4690020755D0020D06B0020775D002015
:105E0000CC690020C8690020765D0020C8640020AD
:105E1000B064002048F2FE032989994240F01685BB
:105E2000298B9F4B81B9598B71B9998B61B9D98BEA
:105E300051B9198C41B9598C31B9998C21B9DB8C84
:105E4000B3F5807F00F00285FF2A00F0FF849548BB
:105E500000F048FD0246002840F0F8840221D4E01A
:105E600024D9BBF13A0F74D02BD9BBF13B0F00F012
:105E7000ED84BBF13C0F68D123789A073AD55906D7
:105E800063D443F0400389F80030FFF70FFD012889
:105E900000F0DC8431D3022800F0D484D8F800006C
:105EA00090F800B0BBF12B0FDAD132E0BBF1060F56
:105EB00000F01081BBF1110F6AD0BBF1000F44D18B
:105EC00004E0BBF12C0F00F0C1843EE02378D90739
:105ED0003BD443F0010389F80030FFF7E7FC0128C9
:105EE00000F0B484D7D23B786F4A03F128012944EB
:105EF000116008E043F00203C5E73B7803F1280195
:105F00002944C8F800104978083303EBC1033B70FB
:105F1000C4E7237803F0040202F0FF01AAB943F0BA
:105F2000040389F800303B7803F128002844C27844
:105F300012B103F12A020AE05B4A4178106008338B
:105F40005A4A03EBC1031370A8E7421B0121042046
:105F50003BE705F0B4FF4FF6FF73984240F07684BC
:105F60003B782833E85C01F0E1FB3B782833EA1802
:105F7000E85C517801F004FA012801BF00234B4A84
:105F8000338013703388002B00F0608400F05ABC1B
:105F9000FFF75EFDEB8D85F806B073B9B5F82A8082
:105FA000B8F1000F00F05284414F424D3C4B2F603E
:105FB000B3F8289007F5A0770BE005F086FF4FF6C1
:105FC000FF73984240F04284E8E7238A2BB92034DB
:105FD0002C602C68BC42F8D315E09845F7D1638A51
:105FE0000BB14B45F3D123682BB963681BB9A36888
:105FF0000BB9E3685BB1102221462F4805F01AFC6B
:106000000028E4D103E0002204210120DDE63388EA
:106010002A49303B338000230B6029490220294A5A
:1060200008702949CAF800200A60284A138001F044
:10603000D3FC264B1A88002A00F0088402F13003B2
:10604000174C9BB23380283B19126371194B0832ED
:106050001B6852BA2171197DA2850022E2851A8A35
:10606000E17122855A8A11216285A17104F1180516
:106070000FCB85E80F00294604F1080000F054FD1D
:10608000134B04F13C021A6005F01FFFC04380B2BD
:1060900008B1E085D0E34FF6FF73E385CCE300BFA2
:1060A000B0640020C8640020C8690020755D00202D
:1060B000D46B0020CC690020B8640020D469002093
:1060C000C4690020E0640020A0640020D06B0020A0
:1060D000D0690020FFF7BCFC85F806B005F0F2FEA1
:1060E0004FF6FF739842AF4C40F0B083B4F82A905B
:1060F000B9F1000F00F0AA83B4F828B0BBF1000F8B
:1061000000F0A483A84C04F5F07394F82580B8F14E
:10611000000F0FD0228A4A450CD1628A5A4509D114
:1061200010222146A148019305F084FB019B002821
:1061300000F0F68030349C42E7D195F8353003F01A
:106140003F03022B08D19A4A002332F81310494525
:1061500050D00133082BF8D195F83520914B5207D8
:1061600000F17483142283F835203C2232805022BF
:1061700083F8342093F8332093F8314093F82F00BC
:1061800083F82F2093F8322093F82E1093F8307074
:1061900083F82E20013093F82D2083F82D4093F8BA
:1061A0002C40C0B283F8321083F8312083F82C7071
:1061B00083F8304083F8330060B90131C9B283F805
:1061C000321039B90132D2B283F8312012B9621CCF
:1061D00083F830202B8D6A8D744C2A856B8504F1F1
:1061E000100594E80F0085E80F002946204600F0CE
:1061F0009BFC0CE3002422466B4B93F8251021B93D
:10620000694B302404FB023413E0072909D13CB167
:1062100093F8260094F82610884288BF1C4600E0B8
:106220001C4601320A2A03F13003E6D1002C00F0AB
:106230000D83604B00271C60032384F8263084F80C
:106240002430042384F82330584B84F822700FCB79
:1062500084E80F00584B01201A7884F82500227634
:106260005A78A08362769A78DB78A276E37695F8FE
:106270002C3084F82770237595F82D30A4F81090F1
:10628000637595F82E30A4F812B0A37595F82F30E9
:10629000E375FFF795FB95F8343003F0F002502AD0
:1062A00024D91A093B46053A9200E91891F83C00B6
:1062B000E0B1012801D1013316E002280FD191F895
:1062C0003D0004280BD191F83E2091F83F3043EA7D
:1062D0000223402B28BF4023E383238406E0E918F0
:1062E00091F83D1011B10B449342DEDB10222D4B8F
:1062F00083F835202B4B93F8352042F0020283F8C7
:106300003520022283F83C20042283F83D2000221D
:1063100083F83E20402283F83F20328060223AE218
:10632000244B95F835101C60244B11F0040F1870A5
:10633000994603D084F825002022DAE1338808F05A
:106340000F08A3F12802174BB8F1020F93F834306D
:106350004FEA1313A2EB83039BB2338003D101F006
:106360003F02122A05E0B8F1010F03D101F03F020C
:10637000022A25D00BB98B0722D0AA8DA38A9A4274
:1063800004D1084BDA8DE38A9A4219D0880740F18C
:10639000FB81B8F1010FA9D0B8F1020F40F0F481F0
:1063A000A8E700BFB0640020D8690020B8640020CE
:1063B000C06B0020D4690020775D0020C4690020F4
:1063C000C9064DD5A18B00294AD004F11800FFF76A
:1063D000CDFAAF4B95F8301093F800E0AD4A8E45FA
:1063E0003ED192F831105878884239D192F832C0B3
:1063F0009978614534D192F83320DB7893422FD1DC
:10640000E37694F8273084F818E06076A176F3B943
:1064100094F8243094F8262094F822109B1AA3EBC9
:10642000D103DBB258B200281944BCBF5B4258B25A
:1064300094F82330C9B2A3EB93031A18D3B284F8AB
:10644000233003EBD10384F8221084F82430012395
:1064500089F8003094F8243084F826300023A38390
:1064600094F8252002F00F03013B072B00F2EE8188
:10647000DFE813F0080025008200430165017F0179
:106480008A01350199F80020834BD2070FD50322EA
:1064900084F82520308840221A700022A283002828
:1064A00000F0C68042221A70FFF78AFAC0E095F821
:1064B000353003F03F03022B40F0C88116E799F80E
:1064C0000030DB074DD595F8353003F03F03122B34
:1064D00047D1704B93F8343003F0F002502A24D99E
:1064E0001B09053B9B000022A91891F83C00E0B174
:1064F000012801D1013216E002280FD191F83D00A8
:1065000004280BD191F83E2091F83F3043EA022352
:10651000402B28BF4023E383238406E0A91891F889
:106520003D1011B10A449A42DEDB032384F8253082
:1065300095F82C300120237595F82D30637595F86A
:106540002E30A37595F82F30E375FFF739FA422303
:10655000524A89F800300023A38333803B701380B4
:1065600069E0202389F8003001F036FA4C4B002214
:106570001B6883F82520EFE595F83530D80725D539
:10658000D10623D4A38B002B40F0608130880130EA
:1065900080B2FFF715FA99F8003043F0100289F83D
:1065A000002032881AB13C4A43F01203137001F004
:1065B00013FA0123A383082384F82530002384F8E9
:1065C00027301122334B83F83520E0E09B0610D5AD
:1065D0006B8FDAF800005BBA9BB2034495F83A700F
:1065E00095F83B10CAF80030338841EA07215B1A5E
:1065F0003380308848B1D70607D499F8003043F08B
:10660000020389F80030FFF7DBF995F8362095F89A
:10661000373003EB0223228C9BB2934202D8002B2B
:1066200018BF1A4699F80030E283990700F00E81EE
:106630001A4B00221A8001F0CFF9174B1A78174B2A
:1066400002F0200000F0FF0128B100221A8084F837
:1066500025201422B6E702F0100000F0FF0540B13B
:1066600019800123A383042384F8253084F827109C
:10667000A7E71988B9B1D20748BFA583A28B8AB909
:10668000E28B914288BF1A801B88A3830BE000BF76
:10669000A4640020B0640020C4690020D06B0020F6
:1066A000D46900201A80002384F827306D4B1B68C2
:1066B000CAF800306C4B1B882BB1A38B1BB13C3349
:1066C0003380182207E0694B1B789F0740F1BE809A
:1066D0003C2333801022664B83F8352059E099F82B
:1066E0000030DD0740F1B280002384F825305F4B95
:1066F00010221A7001F070F9A8E0308808B1FFF795
:106700005FF995F8353013F001030FD099F8003098
:10671000D80745BF072384F825300623002346BF4A
:1067200084F82630A38384F8253016E099F80020F9
:10673000D1071BD5052284F82520A38386E0308865
:1067400008B1FFF73DF995F83530DA070ED5072384
:1067500084F82530002384F826300120FFF730F933
:10676000102389F8003001F037F90DE033885BB968
:106770006CE099F80030DB0768D5072384F82530F2
:10678000002384F8263061E0102385F835303C235F
:106790003380374B502283F83420237D344D85F8E5
:1067A0003030637D05F1180785F83130A37D85F819
:1067B0003230E37D85F83330237E85F82C30637EDC
:1067C00085F82D30A37E85F82E30E37E85F82F30B6
:1067D000238A2B85638A6B8594E80F0087E80F0076
:1067E000394605F1080000F09FF994F8253003F0D0
:1067F000100303F0FF022BB1002385F8373085F832
:10680000363004E0402385F8362085F83730184CC0
:106810000623A371174B1B79E3713388283B1A12A7
:1068200063710023227184F83B3084F83A30238767
:1068300005F048FBC04320870D4B60221A700022F0
:106840005A705A80094B00221A7007E00A4A002346
:1068500013700A4A33801370044A137003B0BDE802
:10686000F08F00BFA0640020D06B0020C46900201E
:10687000B06400201C6D0020755D0020765D002056
:106880002DE9F341154D009104460E4690461F46F2
:106890000195034620220321114805F022FB01281F
:1068A0002B4616D12A6804F11001107020462A6880
:1068B000023250F8044B884242F8044BF9D1186870
:1068C000089B86744361099B80F813800777836176
:1068D00000E0002002B0BDE8F08100BF3846002093
:1068E000186E0020F8B507460B4B0C4D03F16006FF
:1068F0002B602C68B4420BD2237833B1A27C39468A
:10690000D208A01C04F096FF20B120342C60F0E7E0
:106910000020F8BD0120F8BD186E00203846002088
:1069200013B5084C802300930194034620220321D1
:10693000054805F0D6FA08B9206800E0002002B04A
:1069400010BD00BF3C460020346D002030B548F239
:10695000FE040C4B0C4A03F16001136013688B4278
:106960000CD21D783DB1451C02D09D7C854202D1E0
:106970005D88A54203D020331360EFE7002318465B
:1069800030BD00BF346D00203C46002037B5104DAF
:1069900080230093044603460195122205210D48E9
:1069A00005F09FFA01282B460ED12A6804F1100148
:1069B000107020462A68023250F8044B884242F890
:1069C000044BF9D1186800E0002003B030BD00BFCF
:1069D00034460020B86D0020F7B5214C8023009389
:1069E000054603460E4617460194202203211D4802
:1069F00005F077FA012830D12A46236805F1100105
:106A000018702368023352F8040B8A4243F8040BCF
:106A1000F9D12068C77416B90123037505E0002376
:106A200003753146183005F048F923680E480121F6
:106A3000997402234370FF220023027043808380F5
:106A4000C38003818372C17202736B7B4373EB89D2
:106A5000C381FFF79BFF206800E0002003B0F0BD7A
:106A60003C460020346D00203850002013B5084CFF
:106A7000802300930194034612220521054805F066
:106A800030FA08B9206800E0002002B010BD00BF55
:106A900034460020B86D002038B50546C8B10D4811
:106AA000022200244270FF230122C27244808480AB
:106AB000C4800481847203730370EB7B43732B8A5D
:106AC000C381FFF7D3FF044A106008B105F02DFA27
:106AD0002C7038BD385000203446002070B50F4C63
:106AE0000F4B2646236003F160052068A8420ED2B2
:106AF000037843B1037D33B91830FDF755FD10B16C
:106B00003068FFF7C9FF236820332360EDE700F00A
:106B100069FBBDE87040034805F0ADB83C46002075
:106B2000346D0020786E00202DE9F84F48F2FE0306
:106B30000A8805469A420F4623D00A78FF2A20D0B9
:106B40001C490024A04689469B461B4A0A6002F164
:106B5000600AD9F80060564517D233786BB1B37C20
:106B6000012B0AD173885B4507D0B11C384605F06C
:106B7000E9F980459CBF344680462036C9F800605C
:106B8000E7E70120FFF7E2FE04464CB92C806C8059
:106B9000AC80EC802C816C81AC81EC81BDE8F88FFD
:106BA000A31C123453F8042BA34245F8042BF9D14B
:106BB000BDE8F88F3C460020346D002070B5094ECA
:106BC000B0684508FDF782FD0446FDF77FFD24020D
:106BD000B268A4B22044B0FBF2F302FB13002844D5
:106BE00070BD00BF1C6D002073B52F4C00F07CF809
:106BF00000F014F9602200212C4804F027FF002146
:106C0000F822204604F022FF294B20221A70294B3B
:106C100018221A704FF4A0632360274B4026267178
:106C2000A360FFF7CBFF42F21073236148F2FE032B
:106C3000314640F2FF260025E06025751F4C2A46AC
:106C4000238065802B46A580E58020460195009530
:106C5000FFF716FE20461A4905F06BF92946012276
:106C60002046FFF7B9FE4FF480732046E38126806B
:106C70006580A580E58025816581A581FFF786FE79
:106C80004FF40073204626806580A580E58025812D
:106C90006581A581E381FFF779FE0A480C2102B0E6
:106CA000BDE8704004F0DEBF1C6D0020186E0020AF
:106CB000156E0020146E0020C027090038500020F7
:106CC000A8640020786E002010B5044640B100F0A2
:106CD00089FF044B2146BDE81040186802F08EBCC5
:106CE00010BD00BFA840002008B502F03DFB034BDB
:106CF00003491868BDE8084002F0CCBBA84000205A
:106D0000C96C200070B504460C481E469DF8102042
:106D1000059B006802F0EEFB054668B120462B4655
:106D200004F1100250F8041B904243F8041BF9D1FF
:106D30006E74284600F056FF284670BDA84000201B
:106D4000024B0146186806F040B800BFA84000207A
:106D500070B50C4D0646286802F0B0FB044666B9D3
:106D6000002070BD10223146204604F063FD38B18A
:106D70002146286805F0FBFF0446002CF2D1EFE71E
:106D8000204670BDA8400020024B0146186806F05E
:106D900009B800BFA840002070B5054610200E4677
:106DA00002F07CFD0849044605F096FF58B93246CA
:106DB0002946204602F076FA324629462046BDE8AA
:106DC000704000F0E5BE70BDC5D720002DE9F84346
:106DD00005460F480F46904604F099FF0446DFF839
:106DE000389094B1012D04D80A4804F0C2FF03463C
:106DF00001E0D9F800304246394628466668B04777
:106E0000204604F0BDFF0446EBE7BDE8F88300BF71
:106E10000C4A0020844600208046002008B50B481C
:106E200004F0B1FF0A4804F06FFF0A4B0A491868E2
:106E300002F030FB094804F0A6FF094804F064FFA3
:106E4000BDE80840074804F05FBF00BFDC400020F9
:106E500008470020D8400020A1BF2000BC400020EF
:106E6000844600200C4A002008B540B1044B41681C
:106E7000186805F0AAFFBDE8084005F082B808BD13
:106E8000D8400020014804F042BF00BF084700205E
:106E900008B505F078F838B1044B0146186805F0DC
:106EA00081FF003018BF012008BD00BFD84000207E
:106EB0002DE9F0418046FFF7E5FF002704463E46F6
:106EC0009CB194F82450AF420AD8EA0804F10801B2
:106ED000404604F0AFFC18B9802D08D02F46264656
:106EE000204605F059F80446EAE76EB134460848F2
:106EF00004F00DFF844207D02146054804F011FF3D
:106F00002146034804F02DFF2046BDE8F08100BF74
:106F10000847002038B5044600283ED04368002BBF
:106F20003BD001461D4804F0FCFE6368586804F03D
:106F3000EEFE054630B143689C4207D0284604F077
:106F40001FFFF6E704F1080000F07AFD63682946A8
:106F5000586804F0E6FE6368586804F0D8FE28B963
:106F6000636859680E4B186802F048FB21460D48CB
:106F700004F02DFF29460C4804F029FF0B4A204657
:106F80001368013B1360FFF76FFF04F1080102462D
:106F9000BDE838400320FFF719BF38BD084700207F
:106FA000D8400020DC400020E8400020804600203F
:106FB00010B5044680B1406870B104F0A8FE20B15D
:106FC0004068FFF7A7FF6068F7E7044B2146BDE87C
:106FD0001040186802F012BB10BD00BFD84000205E
:106FE0002DE9F84F074610468946904604F0CBFF3E
:106FF000834610B90020BDE8F88F3846FFF758FFE8
:10700000044660B1FFF730FF014628B11022404628
:1070100004F010FC002856D02046FFF77BFF2B4BD6
:107020001A689A46102AE5D0294E5946306805F06C
:10703000B9FE054668B9034604225946306802F095
:1070400059FA05460028D5D000236860036004F093
:107050005BFE204804F0A7FE04460028CAD0014683
:107060001D4804F07EFE1D4804F09DFE20B9214617
:10707000184804F0ACFEBDE744600146686804F0BF
:1070800063FEDAF800306560013329463068CAF8DB
:10709000003002F0C9FA3B4604F1080507F110067A
:1070A0002A4618685968083303C2B3421546F7D117
:1070B000002384F82490A361E361236242463946A9
:1070C0000220FFF783FE2046BDE8F88F80460020AF
:1070D000D8400020DC40002008470020E840002085
:1070E00038B505460D4804F012FE0446A0B1AC4286
:1070F0000ED12146094804F014FE2146084804F048
:1071000066FE221D1146BDE838400120FFF75EBE35
:10711000204604F035FEE8E738BD00BF8446002075
:10712000BC40002038B50546084804F0F0FD044690
:1071300048B110222946201D04F07CFB18B12046DE
:1071400004F01EFEF3E7204638BD00BF8446002051
:10715000F8B505460F46FFF7E5FF044640B913486A
:1071600004F021FE0446F0B10146114804F0F9FD97
:107170002B46261D05F1100E324618685968083353
:1071800003C273451646F7D137B1394604F11400EE
:1071900004F093FD002300E0012323772A462946CB
:1071A0000020FFF713FE2046F8BD00BFBC400020C2
:1071B0008446002038B50A4804F0A9FD044600259D
:1071C0005CB1251D2846FFF7C3FD08B1437C23B9F8
:1071D000204604F0D5FD0446F2E7284638BD00BF3E
:1071E0008446002010B50A4804F091FD044670B1B1
:1071F000237F43B904F11400FDF7D6F918B12046F6
:10720000FFF76EFFEFE7204604F0BAFDEEE710BD92
:10721000844600202DE9FF47224C234D04F108034A
:107220000FCB8DE80F002B786F4694F80780BBB129
:107230001E493A22A2710A88D21A92B20A80A2F199
:1072400028010812207103F128002044C3F104032F
:1072500061712C3A011D184404F094FB00232B703B
:10726000134804F054FD0646DFF840A09EB1D6F85E
:107270000490B9F1000F09D0BAF800302A782C3BFD
:1072800022449BB2383241463846C847304604F063
:1072900077FD0646EAE7054B2E701E8004B0BDE878
:1072A000F08700BFB0640020755D00209C64002062
:1072B000104A0020F8B52C4B2C4C1B7904F1180611
:1072C000E371237E04F10805FF2B08D195E80F0038
:1072D00086E80F0031462846FFF726FC1BE02F46C4
:1072E000B646234A3B4603CB7345106051601F46A8
:1072F00002F10802F6D196E80F0085E80F001C4B5A
:107300001C4D03F110062A4618685968083303C259
:10731000B3421546F7D1184D2B78BBB117493A2225
:10732000A2710A88D21A92B20A80A2F12801081228
:10733000207103F128002044C3F1040361712C3A49
:10734000011D184404F01EFB00232B702B788122B2
:107350002833E518E25400236B706B8004F0AFFD16
:10736000C0436880F8BD00BF1C6D0020B0640020E1
:1073700068510020C8640020755D00209C640020D6
:1073800038B504460B480D4604F0C1FC50B10379F2
:10739000A34204D143799D4206D0FF2B04D004F0D0
:1073A000EFFCF3E7012038BD8368002BFAD0984743
:1073B000002038BD144A00200146014804F0C4BC36
:1073C000144A00202DE9F74F474D82462B78894615
:1073D0009346464C43B12833E35C3A2B0BD1444AE5
:1073E000002313802B707CE0A3793A2B03D194F90E
:1073F0002830002BF3DA3F4E00F08CFF37463E4A30
:1074000006F1100E334603CB7345106051601E46E3
:1074100002F10802F6D1364EDFF8D08033884146BB
:1074200030339BB2B3F5A06F88BF4FF4A0633380B5
:1074300032882B78D21A04EB4300303A3030019373
:1074400004F0A0FA6022019B227000226270628028
:107450003A2213B188F8282001E088F80620274A4C
:10746000224B1279E271228972B95A8962B99A89DA
:1074700052B9DA8942B91A8A32B95A8A22B99A8A31
:1074800012B9DB8A002BAAD01D4B0FCB87E80F0067
:10749000194B1B78FF2B05D1BAF1040F9FD1B9F11D
:1074A000020F9CD114491648FFF73EFB2F7858462F
:1074B00007F12803E21804F803A082F8019004F011
:1074C00007FD33882C37283BE0511A1263712B7863
:1074D000227128331C440023638004F0F0FCC04375
:1074E000608003B0BDE8F08F755D0020B0640020BF
:1074F0009C640020C8640020685100201C6D00209E
:10750000B86400202DE9F0411E460F461B49054690
:107510000C4660230B7000234B704B803A238B7119
:10752000174B90461B7900F1100ECB71331D1A12C8
:107530000A714B7101F11802134628686968083511
:1075400003C375451A46F7D10E492C36A1F1100038
:10755000FFF7EAFA0C4B1B782833E518E7540023B1
:107560006B8085F8018004F0AAFCC043074B68805B
:107570001E80BDE8F04100F0FFB800BFB0640020FD
:107580001C6D0020C8640020755D00209C640020F4
:1075900008B50448FFF710FFBDE808400248FFF7B0
:1075A0000BBF00BFF4400020004100202DE9F04354
:1075B000038885B00546144653B18B2B03D00023B6
:1075C0000380032038E01E4B1B788B4200D11CB98E
:1075D0008B232B8001202FE01A4B1B789B07F7D5BC
:1075E000194B1A49B3F80090194B4A4618460968D6
:1075F00004F052F9A7690346002FE9D01549164E49
:10760000488DB1F828E0226A0193030AD6F8008079
:1076100043EA002332604FEA1E2242EA0E229BB266
:107620000093CDF8089001F1180392B2083120467A
:10763000B847C6F80080CBE705B0BDE8F08300BFCF
:1076400035700020C46900209C640020D0690020AF
:107650009F5D0020B0640020084300202DE9F8431E
:107660001B4D0E46297804461746984621B91948FD
:10767000FCF750FF01232B70E682A4F814805FB161
:107680003A46251D07F1100E2B4610685168083246
:1076900003C372451D46F7D1089B0F4DA36198FAAD
:1076A00098F10C4B224689B23846D5F800902B60F1
:1076B00000F030F8E06110B10EB176BA0682E069F0
:1076C000C5F80090003018BF0120BDE8F88300BF66
:1076D0009E5D00200C4100200843002008B50548AD
:1076E00004F0DBFA20B1BDE80840024804F0CCBA4F
:1076F00008BD00BF5C4A0020024B1B6803B118475D
:10770000184670476C4A0020014B1860704700BF54
:107710006C4A002010B51446FEF7C2F918B1024BAE
:10772000C4611B68836110BD0843002007B5074B87
:107730008DF80700186828B1054B0DF1070219787C
:10774000FCF7DEFE03B05DF804FB00BFB86B002061
:107750003670002008B5002202210448FCF7D0FE54
:10776000034A00231380034A137008BD1C41002004
:107770009C640020755D002038B5274D2B88002BB8
:1077800048D0B3F5A06F26D8244C238B6BB9638BFC
:107790005BB9A38B4BB9E38B3BB9238C2BB9638CBF
:1077A0001BB9A38C0BB9E38CABB100F0F1FD90B128
:1077B000237EFF2B0CD01A48FFF794F880B11848AD
:1077C000FFF7C6FA08B9288038BDFFF7B9FA00E01C
:1077D0000020FFF791FF134A00232B80137038BD60
:1077E0000F48FFF765FB044620B9FFF7E3FC0028CC
:1077F000E6D1F0E7FFF738FB0028E1D1E36923B1D8
:107800001B6A93F8940004F077FE2046BDE83840E8
:10781000FFF780BB38BD00BF9C640020B06400202F
:10782000C8640020755D00202DE9F04103880646FC
:10783000144643B140F24B32934225D000230380DB
:107840000320BDE8F0811946564A22F8331001336F
:10785000082BFAD1544B1A68524B1A64FCF7C6FD38
:10786000524B1870FCF7C2FD514B40211870514823
:1078700004F0F8F9FEF7BCF800F0E6F940F24B33FB
:1078800033800120BDE8F081022917D14A4B1A88C4
:107890001C46002AF2D0494B9A79062A05D193F862
:1078A00035309B0701D5FFF719FF0120FEF750F98E
:1078B0002388002BE2D0FFF75FFFDFE716D859B926
:1078C000002CDBD03E4B03201C60FEF741F9FFF794
:1078D00053FFFFF703FFD1E70129CFD1002CCDD013
:1078E000384B05201C60FEF733F9E4E787292BD0DD
:1078F0008829C3D12F4B9C421BD1204604F0CDF9DF
:107900000028BBD0304FDFF8B8800024E51995F887
:1079100025304BB1274804F0B7F90220C8F80050D1
:10792000FEF716F9FFF728FF3034B4F5C07FEDD12C
:10793000A4E7264B9C42A1D1204604F0AEF90028D2
:107940009CD0FFF7CBF8B6E7214D002705F14008A2
:1079500055F8043C9C4207D135F8080CFEF7E6F8D0
:1079600025F8087C45F8047C0835A845F0D1164B6D
:10797000002203F5C071986A3033844204BF43F893
:10798000082C03F80B2C8B42F5D1124B002103F588
:10799000A07298692033844208BF23F8101C9342D8
:1079A000F7D16BE7184A002008430020357000200B
:1079B000367000205C4A00209C640020B0640020E7
:1079C000D4690020CC690020D8690020786E00209E
:1079D000204A0020D46B002010B5144B1B6813B153
:1079E00003F1280402E0124A14681834114A12788C
:1079F000520611D5104A188A0023995A814206D19D
:107A0000D118496819B100232160636002E008338E
:107A1000402BF2D1FFF762FE206830B1074B62685D
:107A20001978BDE81040FCF76BBD10BDD46900208B
:107A3000CC690020C4690020184A0020357000205D
:107A4000F7B5054628B9224803B0BDE8F040FBF77A
:107A50003BBF0388ABB94488ACB98388A3B9C48859
:107A60008CB9038983B94FF6FF72418991420AD1DB
:107A7000837B427B017BC07B00901648FBF724FF91
:107A800024E0002400E01C462646AB19AF5D5B787D
:107A900003EB0727BFB24FB9002C09DB01D001343B
:107AA00011E00D48FBF710FF01240CE0002C04DC72
:107AB0002EB13A2004F064F801E04FF0FF3439466B
:107AC0000648FBF701FF0236102EDED103B0F0BDF1
:107AD0009DD72000ACD72000BFD72000C2D7200000
